{
	"MintNft.sol": {
		"MintNft": {
			"abi": [
				{
					"inputs": [
						{
							"internalType": "string",
							"name": "_name",
							"type": "string"
						},
						{
							"internalType": "string",
							"name": "_symbol",
							"type": "string"
						},
						{
							"internalType": "string",
							"name": "_metadataUri",
							"type": "string"
						}
					],
					"stateMutability": "nonpayable",
					"type": "constructor"
				},
				{
					"inputs": [],
					"name": "ERC721EnumerableForbiddenBatchMint",
					"type": "error"
				},
				{
					"inputs": [
						{
							"internalType": "address",
							"name": "sender",
							"type": "address"
						},
						{
							"internalType": "uint256",
							"name": "tokenId",
							"type": "uint256"
						},
						{
							"internalType": "address",
							"name": "owner",
							"type": "address"
						}
					],
					"name": "ERC721IncorrectOwner",
					"type": "error"
				},
				{
					"inputs": [
						{
							"internalType": "address",
							"name": "operator",
							"type": "address"
						},
						{
							"internalType": "uint256",
							"name": "tokenId",
							"type": "uint256"
						}
					],
					"name": "ERC721InsufficientApproval",
					"type": "error"
				},
				{
					"inputs": [
						{
							"internalType": "address",
							"name": "approver",
							"type": "address"
						}
					],
					"name": "ERC721InvalidApprover",
					"type": "error"
				},
				{
					"inputs": [
						{
							"internalType": "address",
							"name": "operator",
							"type": "address"
						}
					],
					"name": "ERC721InvalidOperator",
					"type": "error"
				},
				{
					"inputs": [
						{
							"internalType": "address",
							"name": "owner",
							"type": "address"
						}
					],
					"name": "ERC721InvalidOwner",
					"type": "error"
				},
				{
					"inputs": [
						{
							"internalType": "address",
							"name": "receiver",
							"type": "address"
						}
					],
					"name": "ERC721InvalidReceiver",
					"type": "error"
				},
				{
					"inputs": [
						{
							"internalType": "address",
							"name": "sender",
							"type": "address"
						}
					],
					"name": "ERC721InvalidSender",
					"type": "error"
				},
				{
					"inputs": [
						{
							"internalType": "uint256",
							"name": "tokenId",
							"type": "uint256"
						}
					],
					"name": "ERC721NonexistentToken",
					"type": "error"
				},
				{
					"inputs": [
						{
							"internalType": "address",
							"name": "owner",
							"type": "address"
						},
						{
							"internalType": "uint256",
							"name": "index",
							"type": "uint256"
						}
					],
					"name": "ERC721OutOfBoundsIndex",
					"type": "error"
				},
				{
					"anonymous": false,
					"inputs": [
						{
							"indexed": true,
							"internalType": "address",
							"name": "owner",
							"type": "address"
						},
						{
							"indexed": true,
							"internalType": "address",
							"name": "approved",
							"type": "address"
						},
						{
							"indexed": true,
							"internalType": "uint256",
							"name": "tokenId",
							"type": "uint256"
						}
					],
					"name": "Approval",
					"type": "event"
				},
				{
					"anonymous": false,
					"inputs": [
						{
							"indexed": true,
							"internalType": "address",
							"name": "owner",
							"type": "address"
						},
						{
							"indexed": true,
							"internalType": "address",
							"name": "operator",
							"type": "address"
						},
						{
							"indexed": false,
							"internalType": "bool",
							"name": "approved",
							"type": "bool"
						}
					],
					"name": "ApprovalForAll",
					"type": "event"
				},
				{
					"anonymous": false,
					"inputs": [
						{
							"indexed": true,
							"internalType": "address",
							"name": "from",
							"type": "address"
						},
						{
							"indexed": true,
							"internalType": "address",
							"name": "to",
							"type": "address"
						},
						{
							"indexed": true,
							"internalType": "uint256",
							"name": "tokenId",
							"type": "uint256"
						}
					],
					"name": "Transfer",
					"type": "event"
				},
				{
					"inputs": [
						{
							"internalType": "address",
							"name": "to",
							"type": "address"
						},
						{
							"internalType": "uint256",
							"name": "tokenId",
							"type": "uint256"
						}
					],
					"name": "approve",
					"outputs": [],
					"stateMutability": "nonpayable",
					"type": "function"
				},
				{
					"inputs": [
						{
							"internalType": "address",
							"name": "owner",
							"type": "address"
						}
					],
					"name": "balanceOf",
					"outputs": [
						{
							"internalType": "uint256",
							"name": "",
							"type": "uint256"
						}
					],
					"stateMutability": "view",
					"type": "function"
				},
				{
					"inputs": [
						{
							"internalType": "uint256",
							"name": "tokenId",
							"type": "uint256"
						}
					],
					"name": "getApproved",
					"outputs": [
						{
							"internalType": "address",
							"name": "",
							"type": "address"
						}
					],
					"stateMutability": "view",
					"type": "function"
				},
				{
					"inputs": [
						{
							"internalType": "address",
							"name": "owner",
							"type": "address"
						},
						{
							"internalType": "address",
							"name": "operator",
							"type": "address"
						}
					],
					"name": "isApprovedForAll",
					"outputs": [
						{
							"internalType": "bool",
							"name": "",
							"type": "bool"
						}
					],
					"stateMutability": "view",
					"type": "function"
				},
				{
					"inputs": [
						{
							"internalType": "address",
							"name": "_whitelist",
							"type": "address"
						}
					],
					"name": "isWhitelist",
					"outputs": [
						{
							"internalType": "bool",
							"name": "",
							"type": "bool"
						}
					],
					"stateMutability": "view",
					"type": "function"
				},
				{
					"inputs": [],
					"name": "mintNft",
					"outputs": [],
					"stateMutability": "nonpayable",
					"type": "function"
				},
				{
					"inputs": [],
					"name": "name",
					"outputs": [
						{
							"internalType": "string",
							"name": "",
							"type": "string"
						}
					],
					"stateMutability": "view",
					"type": "function"
				},
				{
					"inputs": [
						{
							"internalType": "uint256",
							"name": "tokenId",
							"type": "uint256"
						}
					],
					"name": "ownerOf",
					"outputs": [
						{
							"internalType": "address",
							"name": "",
							"type": "address"
						}
					],
					"stateMutability": "view",
					"type": "function"
				},
				{
					"inputs": [
						{
							"internalType": "address",
							"name": "from",
							"type": "address"
						},
						{
							"internalType": "address",
							"name": "to",
							"type": "address"
						},
						{
							"internalType": "uint256",
							"name": "tokenId",
							"type": "uint256"
						}
					],
					"name": "safeTransferFrom",
					"outputs": [],
					"stateMutability": "nonpayable",
					"type": "function"
				},
				{
					"inputs": [
						{
							"internalType": "address",
							"name": "from",
							"type": "address"
						},
						{
							"internalType": "address",
							"name": "to",
							"type": "address"
						},
						{
							"internalType": "uint256",
							"name": "tokenId",
							"type": "uint256"
						},
						{
							"internalType": "bytes",
							"name": "data",
							"type": "bytes"
						}
					],
					"name": "safeTransferFrom",
					"outputs": [],
					"stateMutability": "nonpayable",
					"type": "function"
				},
				{
					"inputs": [
						{
							"internalType": "address",
							"name": "operator",
							"type": "address"
						},
						{
							"internalType": "bool",
							"name": "approved",
							"type": "bool"
						}
					],
					"name": "setApprovalForAll",
					"outputs": [],
					"stateMutability": "nonpayable",
					"type": "function"
				},
				{
					"inputs": [
						{
							"internalType": "address",
							"name": "_whitelist",
							"type": "address"
						}
					],
					"name": "setWhitelist",
					"outputs": [],
					"stateMutability": "nonpayable",
					"type": "function"
				},
				{
					"inputs": [
						{
							"internalType": "bytes4",
							"name": "interfaceId",
							"type": "bytes4"
						}
					],
					"name": "supportsInterface",
					"outputs": [
						{
							"internalType": "bool",
							"name": "",
							"type": "bool"
						}
					],
					"stateMutability": "view",
					"type": "function"
				},
				{
					"inputs": [],
					"name": "symbol",
					"outputs": [
						{
							"internalType": "string",
							"name": "",
							"type": "string"
						}
					],
					"stateMutability": "view",
					"type": "function"
				},
				{
					"inputs": [
						{
							"internalType": "uint256",
							"name": "index",
							"type": "uint256"
						}
					],
					"name": "tokenByIndex",
					"outputs": [
						{
							"internalType": "uint256",
							"name": "",
							"type": "uint256"
						}
					],
					"stateMutability": "view",
					"type": "function"
				},
				{
					"inputs": [
						{
							"internalType": "address",
							"name": "owner",
							"type": "address"
						},
						{
							"internalType": "uint256",
							"name": "index",
							"type": "uint256"
						}
					],
					"name": "tokenOfOwnerByIndex",
					"outputs": [
						{
							"internalType": "uint256",
							"name": "",
							"type": "uint256"
						}
					],
					"stateMutability": "view",
					"type": "function"
				},
				{
					"inputs": [
						{
							"internalType": "uint256",
							"name": "_tokenId",
							"type": "uint256"
						}
					],
					"name": "tokenURI",
					"outputs": [
						{
							"internalType": "string",
							"name": "",
							"type": "string"
						}
					],
					"stateMutability": "view",
					"type": "function"
				},
				{
					"inputs": [],
					"name": "totalSupply",
					"outputs": [
						{
							"internalType": "uint256",
							"name": "",
							"type": "uint256"
						}
					],
					"stateMutability": "view",
					"type": "function"
				},
				{
					"inputs": [
						{
							"internalType": "address",
							"name": "from",
							"type": "address"
						},
						{
							"internalType": "address",
							"name": "to",
							"type": "address"
						},
						{
							"internalType": "uint256",
							"name": "tokenId",
							"type": "uint256"
						}
					],
					"name": "transferFrom",
					"outputs": [],
					"stateMutability": "nonpayable",
					"type": "function"
				}
			],
			"devdoc": {
				"errors": {
					"ERC721EnumerableForbiddenBatchMint()": [
						{
							"details": "Batch mint is not allowed."
						}
					],
					"ERC721IncorrectOwner(address,uint256,address)": [
						{
							"details": "Indicates an error related to the ownership over a particular token. Used in transfers.",
							"params": {
								"owner": "Address of the current owner of a token.",
								"sender": "Address whose tokens are being transferred.",
								"tokenId": "Identifier number of a token."
							}
						}
					],
					"ERC721InsufficientApproval(address,uint256)": [
						{
							"details": "Indicates a failure with the `operator`’s approval. Used in transfers.",
							"params": {
								"operator": "Address that may be allowed to operate on tokens without being their owner.",
								"tokenId": "Identifier number of a token."
							}
						}
					],
					"ERC721InvalidApprover(address)": [
						{
							"details": "Indicates a failure with the `approver` of a token to be approved. Used in approvals.",
							"params": {
								"approver": "Address initiating an approval operation."
							}
						}
					],
					"ERC721InvalidOperator(address)": [
						{
							"details": "Indicates a failure with the `operator` to be approved. Used in approvals.",
							"params": {
								"operator": "Address that may be allowed to operate on tokens without being their owner."
							}
						}
					],
					"ERC721InvalidOwner(address)": [
						{
							"details": "Indicates that an address can't be an owner. For example, `address(0)` is a forbidden owner in EIP-20. Used in balance queries.",
							"params": {
								"owner": "Address of the current owner of a token."
							}
						}
					],
					"ERC721InvalidReceiver(address)": [
						{
							"details": "Indicates a failure with the token `receiver`. Used in transfers.",
							"params": {
								"receiver": "Address to which tokens are being transferred."
							}
						}
					],
					"ERC721InvalidSender(address)": [
						{
							"details": "Indicates a failure with the token `sender`. Used in transfers.",
							"params": {
								"sender": "Address whose tokens are being transferred."
							}
						}
					],
					"ERC721NonexistentToken(uint256)": [
						{
							"details": "Indicates a `tokenId` whose `owner` is the zero address.",
							"params": {
								"tokenId": "Identifier number of a token."
							}
						}
					],
					"ERC721OutOfBoundsIndex(address,uint256)": [
						{
							"details": "An `owner`'s token query was out of bounds for `index`. NOTE: The owner being `address(0)` indicates a global out of bounds index."
						}
					]
				},
				"events": {
					"Approval(address,address,uint256)": {
						"details": "Emitted when `owner` enables `approved` to manage the `tokenId` token."
					},
					"ApprovalForAll(address,address,bool)": {
						"details": "Emitted when `owner` enables or disables (`approved`) `operator` to manage all of its assets."
					},
					"Transfer(address,address,uint256)": {
						"details": "Emitted when `tokenId` token is transferred from `from` to `to`."
					}
				},
				"kind": "dev",
				"methods": {
					"approve(address,uint256)": {
						"details": "See {IERC721-approve}."
					},
					"balanceOf(address)": {
						"details": "See {IERC721-balanceOf}."
					},
					"getApproved(uint256)": {
						"details": "See {IERC721-getApproved}."
					},
					"isApprovedForAll(address,address)": {
						"details": "See {IERC721-isApprovedForAll}."
					},
					"name()": {
						"details": "See {IERC721Metadata-name}."
					},
					"ownerOf(uint256)": {
						"details": "See {IERC721-ownerOf}."
					},
					"safeTransferFrom(address,address,uint256)": {
						"details": "See {IERC721-safeTransferFrom}."
					},
					"safeTransferFrom(address,address,uint256,bytes)": {
						"details": "See {IERC721-safeTransferFrom}."
					},
					"setApprovalForAll(address,bool)": {
						"details": "See {IERC721-setApprovalForAll}."
					},
					"supportsInterface(bytes4)": {
						"details": "See {IERC165-supportsInterface}."
					},
					"symbol()": {
						"details": "See {IERC721Metadata-symbol}."
					},
					"tokenByIndex(uint256)": {
						"details": "See {IERC721Enumerable-tokenByIndex}."
					},
					"tokenOfOwnerByIndex(address,uint256)": {
						"details": "See {IERC721Enumerable-tokenOfOwnerByIndex}."
					},
					"totalSupply()": {
						"details": "See {IERC721Enumerable-totalSupply}."
					},
					"transferFrom(address,address,uint256)": {
						"details": "See {IERC721-transferFrom}."
					}
				},
				"version": 1
			},
			"evm": {
				"assembly": "    /* \"MintNft.sol\":196:1184  contract MintNft is ERC721Enumerable {... */\n  mstore(0x40, 0x80)\n    /* \"MintNft.sol\":310:462  constructor(string memory _name, string memory _symbol, string memory _metadataUri) ERC721(_name, _symbol) {... */\n  callvalue\n  dup1\n  iszero\n  tag_1\n  jumpi\n  0x00\n  dup1\n  revert\ntag_1:\n  pop\n  mload(0x40)\n  sub(codesize, bytecodeSize)\n  dup1\n  bytecodeSize\n  dup4\n  codecopy\n  dup2\n  dup2\n  add\n  0x40\n  mstore\n  dup2\n  add\n  swap1\n  tag_2\n  swap2\n  swap1\n  tag_3\n  jump\t// in\ntag_2:\n    /* \"MintNft.sol\":401:406  _name */\n  dup3\n    /* \"MintNft.sol\":408:415  _symbol */\n  dup3\n    /* \"@openzeppelin/contracts/token/ERC721/ERC721.sol\":1455:1460  name_ */\n  dup2\n    /* \"@openzeppelin/contracts/token/ERC721/ERC721.sol\":1447:1452  _name */\n  0x00\n    /* \"@openzeppelin/contracts/token/ERC721/ERC721.sol\":1447:1460  _name = name_ */\n  swap1\n  dup2\n  tag_7\n  swap2\n  swap1\n  tag_8\n  jump\t// in\ntag_7:\n  pop\n    /* \"@openzeppelin/contracts/token/ERC721/ERC721.sol\":1480:1487  symbol_ */\n  dup1\n    /* \"@openzeppelin/contracts/token/ERC721/ERC721.sol\":1470:1477  _symbol */\n  0x01\n    /* \"@openzeppelin/contracts/token/ERC721/ERC721.sol\":1470:1487  _symbol = symbol_ */\n  swap1\n  dup2\n  tag_9\n  swap2\n  swap1\n  tag_8\n  jump\t// in\ntag_9:\n  pop\n    /* \"@openzeppelin/contracts/token/ERC721/ERC721.sol\":1381:1494  constructor(string memory name_, string memory symbol_) {... */\n  pop\n  pop\n    /* \"MintNft.sol\":442:454  _metadataUri */\n  dup1\n    /* \"MintNft.sol\":428:439  metadataUri */\n  0x0a\n    /* \"MintNft.sol\":428:454  metadataUri = _metadataUri */\n  swap1\n  dup2\n  tag_11\n  swap2\n  swap1\n  tag_8\n  jump\t// in\ntag_11:\n  pop\n    /* \"MintNft.sol\":310:462  constructor(string memory _name, string memory _symbol, string memory _metadataUri) ERC721(_name, _symbol) {... */\n  pop\n  pop\n  pop\n    /* \"MintNft.sol\":196:1184  contract MintNft is ERC721Enumerable {... */\n  jump(tag_12)\n    /* \"#utility.yul\":7:82   */\ntag_13:\n    /* \"#utility.yul\":40:46   */\n  0x00\n    /* \"#utility.yul\":73:75   */\n  0x40\n    /* \"#utility.yul\":67:76   */\n  mload\n    /* \"#utility.yul\":57:76   */\n  swap1\n  pop\n    /* \"#utility.yul\":7:82   */\n  swap1\n  jump\t// out\n    /* \"#utility.yul\":88:205   */\ntag_14:\n    /* \"#utility.yul\":197:198   */\n  0x00\n    /* \"#utility.yul\":194:195   */\n  dup1\n    /* \"#utility.yul\":187:199   */\n  revert\n    /* \"#utility.yul\":211:328   */\ntag_15:\n    /* \"#utility.yul\":320:321   */\n  0x00\n    /* \"#utility.yul\":317:318   */\n  dup1\n    /* \"#utility.yul\":310:322   */\n  revert\n    /* \"#utility.yul\":334:451   */\ntag_16:\n    /* \"#utility.yul\":443:444   */\n  0x00\n    /* \"#utility.yul\":440:441   */\n  dup1\n    /* \"#utility.yul\":433:445   */\n  revert\n    /* \"#utility.yul\":457:574   */\ntag_17:\n    /* \"#utility.yul\":566:567   */\n  0x00\n    /* \"#utility.yul\":563:564   */\n  dup1\n    /* \"#utility.yul\":556:568   */\n  revert\n    /* \"#utility.yul\":580:682   */\ntag_18:\n    /* \"#utility.yul\":621:627   */\n  0x00\n    /* \"#utility.yul\":672:674   */\n  0x1f\n    /* \"#utility.yul\":668:675   */\n  not\n    /* \"#utility.yul\":663:665   */\n  0x1f\n    /* \"#utility.yul\":656:661   */\n  dup4\n    /* \"#utility.yul\":652:666   */\n  add\n    /* \"#utility.yul\":648:676   */\n  and\n    /* \"#utility.yul\":638:676   */\n  swap1\n  pop\n    /* \"#utility.yul\":580:682   */\n  swap2\n  swap1\n  pop\n  jump\t// out\n    /* \"#utility.yul\":688:868   */\ntag_19:\n    /* \"#utility.yul\":736:813   */\n  0x4e487b7100000000000000000000000000000000000000000000000000000000\n    /* \"#utility.yul\":733:734   */\n  0x00\n    /* \"#utility.yul\":726:814   */\n  mstore\n    /* \"#utility.yul\":833:837   */\n  0x41\n    /* \"#utility.yul\":830:831   */\n  0x04\n    /* \"#utility.yul\":823:838   */\n  mstore\n    /* \"#utility.yul\":857:861   */\n  0x24\n    /* \"#utility.yul\":854:855   */\n  0x00\n    /* \"#utility.yul\":847:862   */\n  revert\n    /* \"#utility.yul\":874:1155   */\ntag_20:\n    /* \"#utility.yul\":957:984   */\n  tag_54\n    /* \"#utility.yul\":979:983   */\n  dup3\n    /* \"#utility.yul\":957:984   */\n  tag_18\n  jump\t// in\ntag_54:\n    /* \"#utility.yul\":949:955   */\n  dup2\n    /* \"#utility.yul\":945:985   */\n  add\n    /* \"#utility.yul\":1087:1093   */\n  dup2\n    /* \"#utility.yul\":1075:1085   */\n  dup2\n    /* \"#utility.yul\":1072:1094   */\n  lt\n    /* \"#utility.yul\":1051:1069   */\n  0xffffffffffffffff\n    /* \"#utility.yul\":1039:1049   */\n  dup3\n    /* \"#utility.yul\":1036:1070   */\n  gt\n    /* \"#utility.yul\":1033:1095   */\n  or\n    /* \"#utility.yul\":1030:1118   */\n  iszero\n  tag_55\n  jumpi\n    /* \"#utility.yul\":1098:1116   */\n  tag_56\n  tag_19\n  jump\t// in\ntag_56:\n    /* \"#utility.yul\":1030:1118   */\ntag_55:\n    /* \"#utility.yul\":1138:1148   */\n  dup1\n    /* \"#utility.yul\":1134:1136   */\n  0x40\n    /* \"#utility.yul\":1127:1149   */\n  mstore\n    /* \"#utility.yul\":917:1155   */\n  pop\n    /* \"#utility.yul\":874:1155   */\n  pop\n  pop\n  jump\t// out\n    /* \"#utility.yul\":1161:1290   */\ntag_21:\n    /* \"#utility.yul\":1195:1201   */\n  0x00\n    /* \"#utility.yul\":1222:1242   */\n  tag_58\n  tag_13\n  jump\t// in\ntag_58:\n    /* \"#utility.yul\":1212:1242   */\n  swap1\n  pop\n    /* \"#utility.yul\":1251:1284   */\n  tag_59\n    /* \"#utility.yul\":1279:1283   */\n  dup3\n    /* \"#utility.yul\":1271:1277   */\n  dup3\n    /* \"#utility.yul\":1251:1284   */\n  tag_20\n  jump\t// in\ntag_59:\n    /* \"#utility.yul\":1161:1290   */\n  swap2\n  swap1\n  pop\n  jump\t// out\n    /* \"#utility.yul\":1296:1604   */\ntag_22:\n    /* \"#utility.yul\":1358:1362   */\n  0x00\n    /* \"#utility.yul\":1448:1466   */\n  0xffffffffffffffff\n    /* \"#utility.yul\":1440:1446   */\n  dup3\n    /* \"#utility.yul\":1437:1467   */\n  gt\n    /* \"#utility.yul\":1434:1490   */\n  iszero\n  tag_61\n  jumpi\n    /* \"#utility.yul\":1470:1488   */\n  tag_62\n  tag_19\n  jump\t// in\ntag_62:\n    /* \"#utility.yul\":1434:1490   */\ntag_61:\n    /* \"#utility.yul\":1508:1537   */\n  tag_63\n    /* \"#utility.yul\":1530:1536   */\n  dup3\n    /* \"#utility.yul\":1508:1537   */\n  tag_18\n  jump\t// in\ntag_63:\n    /* \"#utility.yul\":1500:1537   */\n  swap1\n  pop\n    /* \"#utility.yul\":1592:1596   */\n  0x20\n    /* \"#utility.yul\":1586:1590   */\n  dup2\n    /* \"#utility.yul\":1582:1597   */\n  add\n    /* \"#utility.yul\":1574:1597   */\n  swap1\n  pop\n    /* \"#utility.yul\":1296:1604   */\n  swap2\n  swap1\n  pop\n  jump\t// out\n    /* \"#utility.yul\":1610:1749   */\ntag_23:\n    /* \"#utility.yul\":1699:1705   */\n  dup3\n    /* \"#utility.yul\":1694:1697   */\n  dup2\n    /* \"#utility.yul\":1689:1692   */\n  dup4\n    /* \"#utility.yul\":1683:1706   */\n  mcopy\n    /* \"#utility.yul\":1740:1741   */\n  0x00\n    /* \"#utility.yul\":1731:1737   */\n  dup4\n    /* \"#utility.yul\":1726:1729   */\n  dup4\n    /* \"#utility.yul\":1722:1738   */\n  add\n    /* \"#utility.yul\":1715:1742   */\n  mstore\n    /* \"#utility.yul\":1610:1749   */\n  pop\n  pop\n  pop\n  jump\t// out\n    /* \"#utility.yul\":1755:2189   */\ntag_24:\n    /* \"#utility.yul\":1844:1849   */\n  0x00\n    /* \"#utility.yul\":1869:1935   */\n  tag_66\n    /* \"#utility.yul\":1885:1934   */\n  tag_67\n    /* \"#utility.yul\":1927:1933   */\n  dup5\n    /* \"#utility.yul\":1885:1934   */\n  tag_22\n  jump\t// in\ntag_67:\n    /* \"#utility.yul\":1869:1935   */\n  tag_21\n  jump\t// in\ntag_66:\n    /* \"#utility.yul\":1860:1935   */\n  swap1\n  pop\n    /* \"#utility.yul\":1958:1964   */\n  dup3\n    /* \"#utility.yul\":1951:1956   */\n  dup2\n    /* \"#utility.yul\":1944:1965   */\n  mstore\n    /* \"#utility.yul\":1996:2000   */\n  0x20\n    /* \"#utility.yul\":1989:1994   */\n  dup2\n    /* \"#utility.yul\":1985:2001   */\n  add\n    /* \"#utility.yul\":2034:2037   */\n  dup5\n    /* \"#utility.yul\":2025:2031   */\n  dup5\n    /* \"#utility.yul\":2020:2023   */\n  dup5\n    /* \"#utility.yul\":2016:2032   */\n  add\n    /* \"#utility.yul\":2013:2038   */\n  gt\n    /* \"#utility.yul\":2010:2122   */\n  iszero\n  tag_68\n  jumpi\n    /* \"#utility.yul\":2041:2120   */\n  tag_69\n  tag_17\n  jump\t// in\ntag_69:\n    /* \"#utility.yul\":2010:2122   */\ntag_68:\n    /* \"#utility.yul\":2131:2183   */\n  tag_70\n    /* \"#utility.yul\":2176:2182   */\n  dup5\n    /* \"#utility.yul\":2171:2174   */\n  dup3\n    /* \"#utility.yul\":2166:2169   */\n  dup6\n    /* \"#utility.yul\":2131:2183   */\n  tag_23\n  jump\t// in\ntag_70:\n    /* \"#utility.yul\":1850:2189   */\n  pop\n    /* \"#utility.yul\":1755:2189   */\n  swap4\n  swap3\n  pop\n  pop\n  pop\n  jump\t// out\n    /* \"#utility.yul\":2209:2564   */\ntag_25:\n    /* \"#utility.yul\":2276:2281   */\n  0x00\n    /* \"#utility.yul\":2325:2328   */\n  dup3\n    /* \"#utility.yul\":2318:2322   */\n  0x1f\n    /* \"#utility.yul\":2310:2316   */\n  dup4\n    /* \"#utility.yul\":2306:2323   */\n  add\n    /* \"#utility.yul\":2302:2329   */\n  slt\n    /* \"#utility.yul\":2292:2414   */\n  tag_72\n  jumpi\n    /* \"#utility.yul\":2333:2412   */\n  tag_73\n  tag_16\n  jump\t// in\ntag_73:\n    /* \"#utility.yul\":2292:2414   */\ntag_72:\n    /* \"#utility.yul\":2443:2449   */\n  dup2\n    /* \"#utility.yul\":2437:2450   */\n  mload\n    /* \"#utility.yul\":2468:2558   */\n  tag_74\n    /* \"#utility.yul\":2554:2557   */\n  dup5\n    /* \"#utility.yul\":2546:2552   */\n  dup3\n    /* \"#utility.yul\":2539:2543   */\n  0x20\n    /* \"#utility.yul\":2531:2537   */\n  dup7\n    /* \"#utility.yul\":2527:2544   */\n  add\n    /* \"#utility.yul\":2468:2558   */\n  tag_24\n  jump\t// in\ntag_74:\n    /* \"#utility.yul\":2459:2558   */\n  swap2\n  pop\n    /* \"#utility.yul\":2282:2564   */\n  pop\n    /* \"#utility.yul\":2209:2564   */\n  swap3\n  swap2\n  pop\n  pop\n  jump\t// out\n    /* \"#utility.yul\":2570:3752   */\ntag_3:\n    /* \"#utility.yul\":2688:2694   */\n  0x00\n    /* \"#utility.yul\":2696:2702   */\n  dup1\n    /* \"#utility.yul\":2704:2710   */\n  0x00\n    /* \"#utility.yul\":2753:2755   */\n  0x60\n    /* \"#utility.yul\":2741:2750   */\n  dup5\n    /* \"#utility.yul\":2732:2739   */\n  dup7\n    /* \"#utility.yul\":2728:2751   */\n  sub\n    /* \"#utility.yul\":2724:2756   */\n  slt\n    /* \"#utility.yul\":2721:2840   */\n  iszero\n  tag_76\n  jumpi\n    /* \"#utility.yul\":2759:2838   */\n  tag_77\n  tag_14\n  jump\t// in\ntag_77:\n    /* \"#utility.yul\":2721:2840   */\ntag_76:\n    /* \"#utility.yul\":2900:2901   */\n  0x00\n    /* \"#utility.yul\":2889:2898   */\n  dup5\n    /* \"#utility.yul\":2885:2902   */\n  add\n    /* \"#utility.yul\":2879:2903   */\n  mload\n    /* \"#utility.yul\":2930:2948   */\n  0xffffffffffffffff\n    /* \"#utility.yul\":2922:2928   */\n  dup2\n    /* \"#utility.yul\":2919:2949   */\n  gt\n    /* \"#utility.yul\":2916:3033   */\n  iszero\n  tag_78\n  jumpi\n    /* \"#utility.yul\":2952:3031   */\n  tag_79\n  tag_15\n  jump\t// in\ntag_79:\n    /* \"#utility.yul\":2916:3033   */\ntag_78:\n    /* \"#utility.yul\":3057:3131   */\n  tag_80\n    /* \"#utility.yul\":3123:3130   */\n  dup7\n    /* \"#utility.yul\":3114:3120   */\n  dup3\n    /* \"#utility.yul\":3103:3112   */\n  dup8\n    /* \"#utility.yul\":3099:3121   */\n  add\n    /* \"#utility.yul\":3057:3131   */\n  tag_25\n  jump\t// in\ntag_80:\n    /* \"#utility.yul\":3047:3131   */\n  swap4\n  pop\n    /* \"#utility.yul\":2850:3141   */\n  pop\n    /* \"#utility.yul\":3201:3203   */\n  0x20\n    /* \"#utility.yul\":3190:3199   */\n  dup5\n    /* \"#utility.yul\":3186:3204   */\n  add\n    /* \"#utility.yul\":3180:3205   */\n  mload\n    /* \"#utility.yul\":3232:3250   */\n  0xffffffffffffffff\n    /* \"#utility.yul\":3224:3230   */\n  dup2\n    /* \"#utility.yul\":3221:3251   */\n  gt\n    /* \"#utility.yul\":3218:3335   */\n  iszero\n  tag_81\n  jumpi\n    /* \"#utility.yul\":3254:3333   */\n  tag_82\n  tag_15\n  jump\t// in\ntag_82:\n    /* \"#utility.yul\":3218:3335   */\ntag_81:\n    /* \"#utility.yul\":3359:3433   */\n  tag_83\n    /* \"#utility.yul\":3425:3432   */\n  dup7\n    /* \"#utility.yul\":3416:3422   */\n  dup3\n    /* \"#utility.yul\":3405:3414   */\n  dup8\n    /* \"#utility.yul\":3401:3423   */\n  add\n    /* \"#utility.yul\":3359:3433   */\n  tag_25\n  jump\t// in\ntag_83:\n    /* \"#utility.yul\":3349:3433   */\n  swap3\n  pop\n    /* \"#utility.yul\":3151:3443   */\n  pop\n    /* \"#utility.yul\":3503:3505   */\n  0x40\n    /* \"#utility.yul\":3492:3501   */\n  dup5\n    /* \"#utility.yul\":3488:3506   */\n  add\n    /* \"#utility.yul\":3482:3507   */\n  mload\n    /* \"#utility.yul\":3534:3552   */\n  0xffffffffffffffff\n    /* \"#utility.yul\":3526:3532   */\n  dup2\n    /* \"#utility.yul\":3523:3553   */\n  gt\n    /* \"#utility.yul\":3520:3637   */\n  iszero\n  tag_84\n  jumpi\n    /* \"#utility.yul\":3556:3635   */\n  tag_85\n  tag_15\n  jump\t// in\ntag_85:\n    /* \"#utility.yul\":3520:3637   */\ntag_84:\n    /* \"#utility.yul\":3661:3735   */\n  tag_86\n    /* \"#utility.yul\":3727:3734   */\n  dup7\n    /* \"#utility.yul\":3718:3724   */\n  dup3\n    /* \"#utility.yul\":3707:3716   */\n  dup8\n    /* \"#utility.yul\":3703:3725   */\n  add\n    /* \"#utility.yul\":3661:3735   */\n  tag_25\n  jump\t// in\ntag_86:\n    /* \"#utility.yul\":3651:3735   */\n  swap2\n  pop\n    /* \"#utility.yul\":3453:3745   */\n  pop\n    /* \"#utility.yul\":2570:3752   */\n  swap3\n  pop\n  swap3\n  pop\n  swap3\n  jump\t// out\n    /* \"#utility.yul\":3758:3857   */\ntag_26:\n    /* \"#utility.yul\":3810:3816   */\n  0x00\n    /* \"#utility.yul\":3844:3849   */\n  dup2\n    /* \"#utility.yul\":3838:3850   */\n  mload\n    /* \"#utility.yul\":3828:3850   */\n  swap1\n  pop\n    /* \"#utility.yul\":3758:3857   */\n  swap2\n  swap1\n  pop\n  jump\t// out\n    /* \"#utility.yul\":3863:4043   */\ntag_27:\n    /* \"#utility.yul\":3911:3988   */\n  0x4e487b7100000000000000000000000000000000000000000000000000000000\n    /* \"#utility.yul\":3908:3909   */\n  0x00\n    /* \"#utility.yul\":3901:3989   */\n  mstore\n    /* \"#utility.yul\":4008:4012   */\n  0x22\n    /* \"#utility.yul\":4005:4006   */\n  0x04\n    /* \"#utility.yul\":3998:4013   */\n  mstore\n    /* \"#utility.yul\":4032:4036   */\n  0x24\n    /* \"#utility.yul\":4029:4030   */\n  0x00\n    /* \"#utility.yul\":4022:4037   */\n  revert\n    /* \"#utility.yul\":4049:4369   */\ntag_28:\n    /* \"#utility.yul\":4093:4099   */\n  0x00\n    /* \"#utility.yul\":4130:4131   */\n  0x02\n    /* \"#utility.yul\":4124:4128   */\n  dup3\n    /* \"#utility.yul\":4120:4132   */\n  div\n    /* \"#utility.yul\":4110:4132   */\n  swap1\n  pop\n    /* \"#utility.yul\":4177:4178   */\n  0x01\n    /* \"#utility.yul\":4171:4175   */\n  dup3\n    /* \"#utility.yul\":4167:4179   */\n  and\n    /* \"#utility.yul\":4198:4216   */\n  dup1\n    /* \"#utility.yul\":4188:4269   */\n  tag_90\n  jumpi\n    /* \"#utility.yul\":4254:4258   */\n  0x7f\n    /* \"#utility.yul\":4246:4252   */\n  dup3\n    /* \"#utility.yul\":4242:4259   */\n  and\n    /* \"#utility.yul\":4232:4259   */\n  swap2\n  pop\n    /* \"#utility.yul\":4188:4269   */\ntag_90:\n    /* \"#utility.yul\":4316:4318   */\n  0x20\n    /* \"#utility.yul\":4308:4314   */\n  dup3\n    /* \"#utility.yul\":4305:4319   */\n  lt\n    /* \"#utility.yul\":4285:4303   */\n  dup2\n    /* \"#utility.yul\":4282:4320   */\n  sub\n    /* \"#utility.yul\":4279:4363   */\n  tag_91\n  jumpi\n    /* \"#utility.yul\":4335:4353   */\n  tag_92\n  tag_27\n  jump\t// in\ntag_92:\n    /* \"#utility.yul\":4279:4363   */\ntag_91:\n    /* \"#utility.yul\":4100:4369   */\n  pop\n    /* \"#utility.yul\":4049:4369   */\n  swap2\n  swap1\n  pop\n  jump\t// out\n    /* \"#utility.yul\":4375:4516   */\ntag_29:\n    /* \"#utility.yul\":4424:4428   */\n  0x00\n    /* \"#utility.yul\":4447:4450   */\n  dup2\n    /* \"#utility.yul\":4439:4450   */\n  swap1\n  pop\n    /* \"#utility.yul\":4470:4473   */\n  dup2\n    /* \"#utility.yul\":4467:4468   */\n  0x00\n    /* \"#utility.yul\":4460:4474   */\n  mstore\n    /* \"#utility.yul\":4504:4508   */\n  0x20\n    /* \"#utility.yul\":4501:4502   */\n  0x00\n    /* \"#utility.yul\":4491:4509   */\n  keccak256\n    /* \"#utility.yul\":4483:4509   */\n  swap1\n  pop\n    /* \"#utility.yul\":4375:4516   */\n  swap2\n  swap1\n  pop\n  jump\t// out\n    /* \"#utility.yul\":4522:4615   */\ntag_30:\n    /* \"#utility.yul\":4559:4565   */\n  0x00\n    /* \"#utility.yul\":4606:4608   */\n  0x20\n    /* \"#utility.yul\":4601:4603   */\n  0x1f\n    /* \"#utility.yul\":4594:4599   */\n  dup4\n    /* \"#utility.yul\":4590:4604   */\n  add\n    /* \"#utility.yul\":4586:4609   */\n  div\n    /* \"#utility.yul\":4576:4609   */\n  swap1\n  pop\n    /* \"#utility.yul\":4522:4615   */\n  swap2\n  swap1\n  pop\n  jump\t// out\n    /* \"#utility.yul\":4621:4728   */\ntag_31:\n    /* \"#utility.yul\":4665:4673   */\n  0x00\n    /* \"#utility.yul\":4715:4720   */\n  dup3\n    /* \"#utility.yul\":4709:4713   */\n  dup3\n    /* \"#utility.yul\":4705:4721   */\n  shl\n    /* \"#utility.yul\":4684:4721   */\n  swap1\n  pop\n    /* \"#utility.yul\":4621:4728   */\n  swap3\n  swap2\n  pop\n  pop\n  jump\t// out\n    /* \"#utility.yul\":4734:5127   */\ntag_32:\n    /* \"#utility.yul\":4803:4809   */\n  0x00\n    /* \"#utility.yul\":4853:4854   */\n  0x08\n    /* \"#utility.yul\":4841:4851   */\n  dup4\n    /* \"#utility.yul\":4837:4855   */\n  mul\n    /* \"#utility.yul\":4876:4973   */\n  tag_97\n    /* \"#utility.yul\":4906:4972   */\n  0xffffffffffffffffffffffffffffffffffffffffffffffffffffffffffffffff\n    /* \"#utility.yul\":4895:4904   */\n  dup3\n    /* \"#utility.yul\":4876:4973   */\n  tag_31\n  jump\t// in\ntag_97:\n    /* \"#utility.yul\":4994:5033   */\n  tag_98\n    /* \"#utility.yul\":5024:5032   */\n  dup7\n    /* \"#utility.yul\":5013:5022   */\n  dup4\n    /* \"#utility.yul\":4994:5033   */\n  tag_31\n  jump\t// in\ntag_98:\n    /* \"#utility.yul\":4982:5033   */\n  swap6\n  pop\n    /* \"#utility.yul\":5066:5070   */\n  dup1\n    /* \"#utility.yul\":5062:5071   */\n  not\n    /* \"#utility.yul\":5055:5060   */\n  dup5\n    /* \"#utility.yul\":5051:5072   */\n  and\n    /* \"#utility.yul\":5042:5072   */\n  swap4\n  pop\n    /* \"#utility.yul\":5115:5119   */\n  dup1\n    /* \"#utility.yul\":5105:5113   */\n  dup7\n    /* \"#utility.yul\":5101:5120   */\n  and\n    /* \"#utility.yul\":5094:5099   */\n  dup5\n    /* \"#utility.yul\":5091:5121   */\n  or\n    /* \"#utility.yul\":5081:5121   */\n  swap3\n  pop\n    /* \"#utility.yul\":4810:5127   */\n  pop\n  pop\n    /* \"#utility.yul\":4734:5127   */\n  swap4\n  swap3\n  pop\n  pop\n  pop\n  jump\t// out\n    /* \"#utility.yul\":5133:5210   */\ntag_33:\n    /* \"#utility.yul\":5170:5177   */\n  0x00\n    /* \"#utility.yul\":5199:5204   */\n  dup2\n    /* \"#utility.yul\":5188:5204   */\n  swap1\n  pop\n    /* \"#utility.yul\":5133:5210   */\n  swap2\n  swap1\n  pop\n  jump\t// out\n    /* \"#utility.yul\":5216:5276   */\ntag_34:\n    /* \"#utility.yul\":5244:5247   */\n  0x00\n    /* \"#utility.yul\":5265:5270   */\n  dup2\n    /* \"#utility.yul\":5258:5270   */\n  swap1\n  pop\n    /* \"#utility.yul\":5216:5276   */\n  swap2\n  swap1\n  pop\n  jump\t// out\n    /* \"#utility.yul\":5282:5424   */\ntag_35:\n    /* \"#utility.yul\":5332:5341   */\n  0x00\n    /* \"#utility.yul\":5365:5418   */\n  tag_102\n    /* \"#utility.yul\":5383:5417   */\n  tag_103\n    /* \"#utility.yul\":5392:5416   */\n  tag_104\n    /* \"#utility.yul\":5410:5415   */\n  dup5\n    /* \"#utility.yul\":5392:5416   */\n  tag_33\n  jump\t// in\ntag_104:\n    /* \"#utility.yul\":5383:5417   */\n  tag_34\n  jump\t// in\ntag_103:\n    /* \"#utility.yul\":5365:5418   */\n  tag_33\n  jump\t// in\ntag_102:\n    /* \"#utility.yul\":5352:5418   */\n  swap1\n  pop\n    /* \"#utility.yul\":5282:5424   */\n  swap2\n  swap1\n  pop\n  jump\t// out\n    /* \"#utility.yul\":5430:5505   */\ntag_36:\n    /* \"#utility.yul\":5473:5476   */\n  0x00\n    /* \"#utility.yul\":5494:5499   */\n  dup2\n    /* \"#utility.yul\":5487:5499   */\n  swap1\n  pop\n    /* \"#utility.yul\":5430:5505   */\n  swap2\n  swap1\n  pop\n  jump\t// out\n    /* \"#utility.yul\":5511:5780   */\ntag_37:\n    /* \"#utility.yul\":5621:5660   */\n  tag_107\n    /* \"#utility.yul\":5652:5659   */\n  dup4\n    /* \"#utility.yul\":5621:5660   */\n  tag_35\n  jump\t// in\ntag_107:\n    /* \"#utility.yul\":5682:5773   */\n  tag_108\n    /* \"#utility.yul\":5731:5772   */\n  tag_109\n    /* \"#utility.yul\":5755:5771   */\n  dup3\n    /* \"#utility.yul\":5731:5772   */\n  tag_36\n  jump\t// in\ntag_109:\n    /* \"#utility.yul\":5723:5729   */\n  dup5\n    /* \"#utility.yul\":5716:5720   */\n  dup5\n    /* \"#utility.yul\":5710:5721   */\n  sload\n    /* \"#utility.yul\":5682:5773   */\n  tag_32\n  jump\t// in\ntag_108:\n    /* \"#utility.yul\":5676:5680   */\n  dup3\n    /* \"#utility.yul\":5669:5774   */\n  sstore\n    /* \"#utility.yul\":5587:5780   */\n  pop\n    /* \"#utility.yul\":5511:5780   */\n  pop\n  pop\n  pop\n  jump\t// out\n    /* \"#utility.yul\":5786:5859   */\ntag_38:\n    /* \"#utility.yul\":5831:5834   */\n  0x00\n    /* \"#utility.yul\":5786:5859   */\n  swap1\n  jump\t// out\n    /* \"#utility.yul\":5865:6054   */\ntag_39:\n    /* \"#utility.yul\":5942:5974   */\n  tag_112\n  tag_38\n  jump\t// in\ntag_112:\n    /* \"#utility.yul\":5983:6048   */\n  tag_113\n    /* \"#utility.yul\":6041:6047   */\n  dup2\n    /* \"#utility.yul\":6033:6039   */\n  dup5\n    /* \"#utility.yul\":6027:6031   */\n  dup5\n    /* \"#utility.yul\":5983:6048   */\n  tag_37\n  jump\t// in\ntag_113:\n    /* \"#utility.yul\":5918:6054   */\n  pop\n    /* \"#utility.yul\":5865:6054   */\n  pop\n  pop\n  jump\t// out\n    /* \"#utility.yul\":6060:6246   */\ntag_40:\n    /* \"#utility.yul\":6120:6240   */\ntag_115:\n    /* \"#utility.yul\":6137:6140   */\n  dup2\n    /* \"#utility.yul\":6130:6135   */\n  dup2\n    /* \"#utility.yul\":6127:6141   */\n  lt\n    /* \"#utility.yul\":6120:6240   */\n  iszero\n  tag_117\n  jumpi\n    /* \"#utility.yul\":6191:6230   */\n  tag_118\n    /* \"#utility.yul\":6228:6229   */\n  0x00\n    /* \"#utility.yul\":6221:6226   */\n  dup3\n    /* \"#utility.yul\":6191:6230   */\n  tag_39\n  jump\t// in\ntag_118:\n    /* \"#utility.yul\":6164:6165   */\n  0x01\n    /* \"#utility.yul\":6157:6162   */\n  dup2\n    /* \"#utility.yul\":6153:6166   */\n  add\n    /* \"#utility.yul\":6144:6166   */\n  swap1\n  pop\n    /* \"#utility.yul\":6120:6240   */\n  jump(tag_115)\ntag_117:\n    /* \"#utility.yul\":6060:6246   */\n  pop\n  pop\n  jump\t// out\n    /* \"#utility.yul\":6252:6795   */\ntag_41:\n    /* \"#utility.yul\":6353:6355   */\n  0x1f\n    /* \"#utility.yul\":6348:6351   */\n  dup3\n    /* \"#utility.yul\":6345:6356   */\n  gt\n    /* \"#utility.yul\":6342:6788   */\n  iszero\n  tag_120\n  jumpi\n    /* \"#utility.yul\":6387:6425   */\n  tag_121\n    /* \"#utility.yul\":6419:6424   */\n  dup2\n    /* \"#utility.yul\":6387:6425   */\n  tag_29\n  jump\t// in\ntag_121:\n    /* \"#utility.yul\":6471:6500   */\n  tag_122\n    /* \"#utility.yul\":6489:6499   */\n  dup5\n    /* \"#utility.yul\":6471:6500   */\n  tag_30\n  jump\t// in\ntag_122:\n    /* \"#utility.yul\":6461:6469   */\n  dup2\n    /* \"#utility.yul\":6457:6501   */\n  add\n    /* \"#utility.yul\":6654:6656   */\n  0x20\n    /* \"#utility.yul\":6642:6652   */\n  dup6\n    /* \"#utility.yul\":6639:6657   */\n  lt\n    /* \"#utility.yul\":6636:6685   */\n  iszero\n  tag_123\n  jumpi\n    /* \"#utility.yul\":6675:6683   */\n  dup2\n    /* \"#utility.yul\":6660:6683   */\n  swap1\n  pop\n    /* \"#utility.yul\":6636:6685   */\ntag_123:\n    /* \"#utility.yul\":6698:6778   */\n  tag_124\n    /* \"#utility.yul\":6754:6776   */\n  tag_125\n    /* \"#utility.yul\":6772:6775   */\n  dup6\n    /* \"#utility.yul\":6754:6776   */\n  tag_30\n  jump\t// in\ntag_125:\n    /* \"#utility.yul\":6744:6752   */\n  dup4\n    /* \"#utility.yul\":6740:6777   */\n  add\n    /* \"#utility.yul\":6727:6738   */\n  dup3\n    /* \"#utility.yul\":6698:6778   */\n  tag_40\n  jump\t// in\ntag_124:\n    /* \"#utility.yul\":6357:6788   */\n  pop\n  pop\n    /* \"#utility.yul\":6342:6788   */\ntag_120:\n    /* \"#utility.yul\":6252:6795   */\n  pop\n  pop\n  pop\n  jump\t// out\n    /* \"#utility.yul\":6801:6918   */\ntag_42:\n    /* \"#utility.yul\":6855:6863   */\n  0x00\n    /* \"#utility.yul\":6905:6910   */\n  dup3\n    /* \"#utility.yul\":6899:6903   */\n  dup3\n    /* \"#utility.yul\":6895:6911   */\n  shr\n    /* \"#utility.yul\":6874:6911   */\n  swap1\n  pop\n    /* \"#utility.yul\":6801:6918   */\n  swap3\n  swap2\n  pop\n  pop\n  jump\t// out\n    /* \"#utility.yul\":6924:7093   */\ntag_43:\n    /* \"#utility.yul\":6968:6974   */\n  0x00\n    /* \"#utility.yul\":7001:7052   */\n  tag_128\n    /* \"#utility.yul\":7049:7050   */\n  0x00\n    /* \"#utility.yul\":7045:7051   */\n  not\n    /* \"#utility.yul\":7037:7042   */\n  dup5\n    /* \"#utility.yul\":7034:7035   */\n  0x08\n    /* \"#utility.yul\":7030:7043   */\n  mul\n    /* \"#utility.yul\":7001:7052   */\n  tag_42\n  jump\t// in\ntag_128:\n    /* \"#utility.yul\":6997:7053   */\n  not\n    /* \"#utility.yul\":7082:7086   */\n  dup1\n    /* \"#utility.yul\":7076:7080   */\n  dup4\n    /* \"#utility.yul\":7072:7087   */\n  and\n    /* \"#utility.yul\":7062:7087   */\n  swap2\n  pop\n    /* \"#utility.yul\":6975:7093   */\n  pop\n    /* \"#utility.yul\":6924:7093   */\n  swap3\n  swap2\n  pop\n  pop\n  jump\t// out\n    /* \"#utility.yul\":7098:7393   */\ntag_44:\n    /* \"#utility.yul\":7174:7178   */\n  0x00\n    /* \"#utility.yul\":7320:7349   */\n  tag_130\n    /* \"#utility.yul\":7345:7348   */\n  dup4\n    /* \"#utility.yul\":7339:7343   */\n  dup4\n    /* \"#utility.yul\":7320:7349   */\n  tag_43\n  jump\t// in\ntag_130:\n    /* \"#utility.yul\":7312:7349   */\n  swap2\n  pop\n    /* \"#utility.yul\":7382:7385   */\n  dup3\n    /* \"#utility.yul\":7379:7380   */\n  0x02\n    /* \"#utility.yul\":7375:7386   */\n  mul\n    /* \"#utility.yul\":7369:7373   */\n  dup3\n    /* \"#utility.yul\":7366:7387   */\n  or\n    /* \"#utility.yul\":7358:7387   */\n  swap1\n  pop\n    /* \"#utility.yul\":7098:7393   */\n  swap3\n  swap2\n  pop\n  pop\n  jump\t// out\n    /* \"#utility.yul\":7398:8793   */\ntag_8:\n    /* \"#utility.yul\":7515:7552   */\n  tag_132\n    /* \"#utility.yul\":7548:7551   */\n  dup3\n    /* \"#utility.yul\":7515:7552   */\n  tag_26\n  jump\t// in\ntag_132:\n    /* \"#utility.yul\":7617:7635   */\n  0xffffffffffffffff\n    /* \"#utility.yul\":7609:7615   */\n  dup2\n    /* \"#utility.yul\":7606:7636   */\n  gt\n    /* \"#utility.yul\":7603:7659   */\n  iszero\n  tag_133\n  jumpi\n    /* \"#utility.yul\":7639:7657   */\n  tag_134\n  tag_19\n  jump\t// in\ntag_134:\n    /* \"#utility.yul\":7603:7659   */\ntag_133:\n    /* \"#utility.yul\":7683:7721   */\n  tag_135\n    /* \"#utility.yul\":7715:7719   */\n  dup3\n    /* \"#utility.yul\":7709:7720   */\n  sload\n    /* \"#utility.yul\":7683:7721   */\n  tag_28\n  jump\t// in\ntag_135:\n    /* \"#utility.yul\":7768:7835   */\n  tag_136\n    /* \"#utility.yul\":7828:7834   */\n  dup3\n    /* \"#utility.yul\":7820:7826   */\n  dup3\n    /* \"#utility.yul\":7814:7818   */\n  dup6\n    /* \"#utility.yul\":7768:7835   */\n  tag_41\n  jump\t// in\ntag_136:\n    /* \"#utility.yul\":7862:7863   */\n  0x00\n    /* \"#utility.yul\":7886:7890   */\n  0x20\n    /* \"#utility.yul\":7873:7890   */\n  swap1\n  pop\n    /* \"#utility.yul\":7918:7920   */\n  0x1f\n    /* \"#utility.yul\":7910:7916   */\n  dup4\n    /* \"#utility.yul\":7907:7921   */\n  gt\n    /* \"#utility.yul\":7935:7936   */\n  0x01\n    /* \"#utility.yul\":7930:8548   */\n  dup2\n  eq\n  tag_138\n  jumpi\n    /* \"#utility.yul\":8592:8593   */\n  0x00\n    /* \"#utility.yul\":8609:8615   */\n  dup5\n    /* \"#utility.yul\":8606:8683   */\n  iszero\n  tag_139\n  jumpi\n    /* \"#utility.yul\":8658:8667   */\n  dup3\n    /* \"#utility.yul\":8653:8656   */\n  dup8\n    /* \"#utility.yul\":8649:8668   */\n  add\n    /* \"#utility.yul\":8643:8669   */\n  mload\n    /* \"#utility.yul\":8634:8669   */\n  swap1\n  pop\n    /* \"#utility.yul\":8606:8683   */\ntag_139:\n    /* \"#utility.yul\":8709:8776   */\n  tag_140\n    /* \"#utility.yul\":8769:8775   */\n  dup6\n    /* \"#utility.yul\":8762:8767   */\n  dup3\n    /* \"#utility.yul\":8709:8776   */\n  tag_44\n  jump\t// in\ntag_140:\n    /* \"#utility.yul\":8703:8707   */\n  dup7\n    /* \"#utility.yul\":8696:8777   */\n  sstore\n    /* \"#utility.yul\":8565:8787   */\n  pop\n    /* \"#utility.yul\":7900:8787   */\n  jump(tag_137)\n    /* \"#utility.yul\":7930:8548   */\ntag_138:\n    /* \"#utility.yul\":7982:7986   */\n  0x1f\n    /* \"#utility.yul\":7978:7987   */\n  not\n    /* \"#utility.yul\":7970:7976   */\n  dup5\n    /* \"#utility.yul\":7966:7988   */\n  and\n    /* \"#utility.yul\":8016:8053   */\n  tag_141\n    /* \"#utility.yul\":8048:8052   */\n  dup7\n    /* \"#utility.yul\":8016:8053   */\n  tag_29\n  jump\t// in\ntag_141:\n    /* \"#utility.yul\":8075:8076   */\n  0x00\n    /* \"#utility.yul\":8089:8297   */\ntag_142:\n    /* \"#utility.yul\":8103:8110   */\n  dup3\n    /* \"#utility.yul\":8100:8101   */\n  dup2\n    /* \"#utility.yul\":8097:8111   */\n  lt\n    /* \"#utility.yul\":8089:8297   */\n  iszero\n  tag_144\n  jumpi\n    /* \"#utility.yul\":8182:8191   */\n  dup5\n    /* \"#utility.yul\":8177:8180   */\n  dup10\n    /* \"#utility.yul\":8173:8192   */\n  add\n    /* \"#utility.yul\":8167:8193   */\n  mload\n    /* \"#utility.yul\":8159:8165   */\n  dup3\n    /* \"#utility.yul\":8152:8194   */\n  sstore\n    /* \"#utility.yul\":8233:8234   */\n  0x01\n    /* \"#utility.yul\":8225:8231   */\n  dup3\n    /* \"#utility.yul\":8221:8235   */\n  add\n    /* \"#utility.yul\":8211:8235   */\n  swap2\n  pop\n    /* \"#utility.yul\":8280:8282   */\n  0x20\n    /* \"#utility.yul\":8269:8278   */\n  dup6\n    /* \"#utility.yul\":8265:8283   */\n  add\n    /* \"#utility.yul\":8252:8283   */\n  swap5\n  pop\n    /* \"#utility.yul\":8126:8130   */\n  0x20\n    /* \"#utility.yul\":8123:8124   */\n  dup2\n    /* \"#utility.yul\":8119:8131   */\n  add\n    /* \"#utility.yul\":8114:8131   */\n  swap1\n  pop\n    /* \"#utility.yul\":8089:8297   */\n  jump(tag_142)\ntag_144:\n    /* \"#utility.yul\":8325:8331   */\n  dup7\n    /* \"#utility.yul\":8316:8323   */\n  dup4\n    /* \"#utility.yul\":8313:8332   */\n  lt\n    /* \"#utility.yul\":8310:8489   */\n  iszero\n  tag_145\n  jumpi\n    /* \"#utility.yul\":8383:8392   */\n  dup5\n    /* \"#utility.yul\":8378:8381   */\n  dup10\n    /* \"#utility.yul\":8374:8393   */\n  add\n    /* \"#utility.yul\":8368:8394   */\n  mload\n    /* \"#utility.yul\":8426:8474   */\n  tag_146\n    /* \"#utility.yul\":8468:8472   */\n  0x1f\n    /* \"#utility.yul\":8460:8466   */\n  dup10\n    /* \"#utility.yul\":8456:8473   */\n  and\n    /* \"#utility.yul\":8445:8454   */\n  dup3\n    /* \"#utility.yul\":8426:8474   */\n  tag_43\n  jump\t// in\ntag_146:\n    /* \"#utility.yul\":8418:8424   */\n  dup4\n    /* \"#utility.yul\":8411:8475   */\n  sstore\n    /* \"#utility.yul\":8333:8489   */\n  pop\n    /* \"#utility.yul\":8310:8489   */\ntag_145:\n    /* \"#utility.yul\":8535:8536   */\n  0x01\n    /* \"#utility.yul\":8531:8532   */\n  0x02\n    /* \"#utility.yul\":8523:8529   */\n  dup9\n    /* \"#utility.yul\":8519:8533   */\n  mul\n    /* \"#utility.yul\":8515:8537   */\n  add\n    /* \"#utility.yul\":8509:8513   */\n  dup9\n    /* \"#utility.yul\":8502:8538   */\n  sstore\n    /* \"#utility.yul\":7937:8548   */\n  pop\n  pop\n  pop\n    /* \"#utility.yul\":7900:8787   */\ntag_137:\n  pop\n    /* \"#utility.yul\":7490:8793   */\n  pop\n  pop\n  pop\n    /* \"#utility.yul\":7398:8793   */\n  pop\n  pop\n  jump\t// out\n    /* \"MintNft.sol\":196:1184  contract MintNft is ERC721Enumerable {... */\ntag_12:\n  dataSize(sub_0)\n  dup1\n  dataOffset(sub_0)\n  0x00\n  codecopy\n  0x00\n  return\nstop\n\nsub_0: assembly {\n        /* \"MintNft.sol\":196:1184  contract MintNft is ERC721Enumerable {... */\n      mstore(0x40, 0x80)\n      callvalue\n      dup1\n      iszero\n      tag_1\n      jumpi\n      0x00\n      dup1\n      revert\n    tag_1:\n      pop\n      jumpi(tag_2, lt(calldatasize, 0x04))\n      shr(0xe0, calldataload(0x00))\n      dup1\n      0x6352211e\n      gt\n      tag_22\n      jumpi\n      dup1\n      0xb88d4fde\n      gt\n      tag_23\n      jumpi\n      dup1\n      0xb88d4fde\n      eq\n      tag_17\n      jumpi\n      dup1\n      0xc2229fea\n      eq\n      tag_18\n      jumpi\n      dup1\n      0xc683630d\n      eq\n      tag_19\n      jumpi\n      dup1\n      0xc87b56dd\n      eq\n      tag_20\n      jumpi\n      dup1\n      0xe985e9c5\n      eq\n      tag_21\n      jumpi\n      jump(tag_2)\n    tag_23:\n      dup1\n      0x6352211e\n      eq\n      tag_12\n      jumpi\n      dup1\n      0x70a08231\n      eq\n      tag_13\n      jumpi\n      dup1\n      0x854cff2f\n      eq\n      tag_14\n      jumpi\n      dup1\n      0x95d89b41\n      eq\n      tag_15\n      jumpi\n      dup1\n      0xa22cb465\n      eq\n      tag_16\n      jumpi\n      jump(tag_2)\n    tag_22:\n      dup1\n      0x18160ddd\n      gt\n      tag_24\n      jumpi\n      dup1\n      0x18160ddd\n      eq\n      tag_7\n      jumpi\n      dup1\n      0x23b872dd\n      eq\n      tag_8\n      jumpi\n      dup1\n      0x2f745c59\n      eq\n      tag_9\n      jumpi\n      dup1\n      0x42842e0e\n      eq\n      tag_10\n      jumpi\n      dup1\n      0x4f6ccce7\n      eq\n      tag_11\n      jumpi\n      jump(tag_2)\n    tag_24:\n      dup1\n      0x01ffc9a7\n      eq\n      tag_3\n      jumpi\n      dup1\n      0x06fdde03\n      eq\n      tag_4\n      jumpi\n      dup1\n      0x081812fc\n      eq\n      tag_5\n      jumpi\n      dup1\n      0x095ea7b3\n      eq\n      tag_6\n      jumpi\n    tag_2:\n      0x00\n      dup1\n      revert\n        /* \"@openzeppelin/contracts/token/ERC721/extensions/ERC721Enumerable.sol\":1435:1657  function supportsInterface(bytes4 interfaceId) public view virtual override(IERC165, ERC721) returns (bool) {... */\n    tag_3:\n      tag_25\n      0x04\n      dup1\n      calldatasize\n      sub\n      dup2\n      add\n      swap1\n      tag_26\n      swap2\n      swap1\n      tag_27\n      jump\t// in\n    tag_26:\n      tag_28\n      jump\t// in\n    tag_25:\n      mload(0x40)\n      tag_29\n      swap2\n      swap1\n      tag_30\n      jump\t// in\n    tag_29:\n      mload(0x40)\n      dup1\n      swap2\n      sub\n      swap1\n      return\n        /* \"@openzeppelin/contracts/token/ERC721/ERC721.sol\":2365:2454  function name() public view virtual returns (string memory) {... */\n    tag_4:\n      tag_31\n      tag_32\n      jump\t// in\n    tag_31:\n      mload(0x40)\n      tag_33\n      swap2\n      swap1\n      tag_34\n      jump\t// in\n    tag_33:\n      mload(0x40)\n      dup1\n      swap2\n      sub\n      swap1\n      return\n        /* \"@openzeppelin/contracts/token/ERC721/ERC721.sol\":3497:3651  function getApproved(uint256 tokenId) public view virtual returns (address) {... */\n    tag_5:\n      tag_35\n      0x04\n      dup1\n      calldatasize\n      sub\n      dup2\n      add\n      swap1\n      tag_36\n      swap2\n      swap1\n      tag_37\n      jump\t// in\n    tag_36:\n      tag_38\n      jump\t// in\n    tag_35:\n      mload(0x40)\n      tag_39\n      swap2\n      swap1\n      tag_40\n      jump\t// in\n    tag_39:\n      mload(0x40)\n      dup1\n      swap2\n      sub\n      swap1\n      return\n        /* \"@openzeppelin/contracts/token/ERC721/ERC721.sol\":3323:3436  function approve(address to, uint256 tokenId) public virtual {... */\n    tag_6:\n      tag_41\n      0x04\n      dup1\n      calldatasize\n      sub\n      dup2\n      add\n      swap1\n      tag_42\n      swap2\n      swap1\n      tag_43\n      jump\t// in\n    tag_42:\n      tag_44\n      jump\t// in\n    tag_41:\n      stop\n        /* \"@openzeppelin/contracts/token/ERC721/extensions/ERC721Enumerable.sol\":2062:2164  function totalSupply() public view virtual returns (uint256) {... */\n    tag_7:\n      tag_45\n      tag_46\n      jump\t// in\n    tag_45:\n      mload(0x40)\n      tag_47\n      swap2\n      swap1\n      tag_48\n      jump\t// in\n    tag_47:\n      mload(0x40)\n      dup1\n      swap2\n      sub\n      swap1\n      return\n        /* \"@openzeppelin/contracts/token/ERC721/ERC721.sol\":4143:4721  function transferFrom(address from, address to, uint256 tokenId) public virtual {... */\n    tag_8:\n      tag_49\n      0x04\n      dup1\n      calldatasize\n      sub\n      dup2\n      add\n      swap1\n      tag_50\n      swap2\n      swap1\n      tag_51\n      jump\t// in\n    tag_50:\n      tag_52\n      jump\t// in\n    tag_49:\n      stop\n        /* \"@openzeppelin/contracts/token/ERC721/extensions/ERC721Enumerable.sol\":1736:1991  function tokenOfOwnerByIndex(address owner, uint256 index) public view virtual returns (uint256) {... */\n    tag_9:\n      tag_53\n      0x04\n      dup1\n      calldatasize\n      sub\n      dup2\n      add\n      swap1\n      tag_54\n      swap2\n      swap1\n      tag_43\n      jump\t// in\n    tag_54:\n      tag_55\n      jump\t// in\n    tag_53:\n      mload(0x40)\n      tag_56\n      swap2\n      swap1\n      tag_48\n      jump\t// in\n    tag_56:\n      mload(0x40)\n      dup1\n      swap2\n      sub\n      swap1\n      return\n        /* \"@openzeppelin/contracts/token/ERC721/ERC721.sol\":4787:4919  function safeTransferFrom(address from, address to, uint256 tokenId) public {... */\n    tag_10:\n      tag_57\n      0x04\n      dup1\n      calldatasize\n      sub\n      dup2\n      add\n      swap1\n      tag_58\n      swap2\n      swap1\n      tag_51\n      jump\t// in\n    tag_58:\n      tag_59\n      jump\t// in\n    tag_57:\n      stop\n        /* \"@openzeppelin/contracts/token/ERC721/extensions/ERC721Enumerable.sol\":2236:2462  function tokenByIndex(uint256 index) public view virtual returns (uint256) {... */\n    tag_11:\n      tag_60\n      0x04\n      dup1\n      calldatasize\n      sub\n      dup2\n      add\n      swap1\n      tag_61\n      swap2\n      swap1\n      tag_37\n      jump\t// in\n    tag_61:\n      tag_62\n      jump\t// in\n    tag_60:\n      mload(0x40)\n      tag_63\n      swap2\n      swap1\n      tag_48\n      jump\t// in\n    tag_63:\n      mload(0x40)\n      dup1\n      swap2\n      sub\n      swap1\n      return\n        /* \"@openzeppelin/contracts/token/ERC721/ERC721.sol\":2185:2303  function ownerOf(uint256 tokenId) public view virtual returns (address) {... */\n    tag_12:\n      tag_64\n      0x04\n      dup1\n      calldatasize\n      sub\n      dup2\n      add\n      swap1\n      tag_65\n      swap2\n      swap1\n      tag_37\n      jump\t// in\n    tag_65:\n      tag_66\n      jump\t// in\n    tag_64:\n      mload(0x40)\n      tag_67\n      swap2\n      swap1\n      tag_40\n      jump\t// in\n    tag_67:\n      mload(0x40)\n      dup1\n      swap2\n      sub\n      swap1\n      return\n        /* \"@openzeppelin/contracts/token/ERC721/ERC721.sol\":1920:2128  function balanceOf(address owner) public view virtual returns (uint256) {... */\n    tag_13:\n      tag_68\n      0x04\n      dup1\n      calldatasize\n      sub\n      dup2\n      add\n      swap1\n      tag_69\n      swap2\n      swap1\n      tag_70\n      jump\t// in\n    tag_69:\n      tag_71\n      jump\t// in\n    tag_68:\n      mload(0x40)\n      tag_72\n      swap2\n      swap1\n      tag_48\n      jump\t// in\n    tag_72:\n      mload(0x40)\n      dup1\n      swap2\n      sub\n      swap1\n      return\n        /* \"MintNft.sol\":949:1045  function setWhitelist(address _whitelist) public {... */\n    tag_14:\n      tag_73\n      0x04\n      dup1\n      calldatasize\n      sub\n      dup2\n      add\n      swap1\n      tag_74\n      swap2\n      swap1\n      tag_70\n      jump\t// in\n    tag_74:\n      tag_75\n      jump\t// in\n    tag_73:\n      stop\n        /* \"@openzeppelin/contracts/token/ERC721/ERC721.sol\":2518:2611  function symbol() public view virtual returns (string memory) {... */\n    tag_15:\n      tag_76\n      tag_77\n      jump\t// in\n    tag_76:\n      mload(0x40)\n      tag_78\n      swap2\n      swap1\n      tag_34\n      jump\t// in\n    tag_78:\n      mload(0x40)\n      dup1\n      swap2\n      sub\n      swap1\n      return\n        /* \"@openzeppelin/contracts/token/ERC721/ERC721.sol\":3718:3862  function setApprovalForAll(address operator, bool approved) public virtual {... */\n    tag_16:\n      tag_79\n      0x04\n      dup1\n      calldatasize\n      sub\n      dup2\n      add\n      swap1\n      tag_80\n      swap2\n      swap1\n      tag_81\n      jump\t// in\n    tag_80:\n      tag_82\n      jump\t// in\n    tag_79:\n      stop\n        /* \"@openzeppelin/contracts/token/ERC721/ERC721.sol\":4985:5193  function safeTransferFrom(address from, address to, uint256 tokenId, bytes memory data) public virtual {... */\n    tag_17:\n      tag_83\n      0x04\n      dup1\n      calldatasize\n      sub\n      dup2\n      add\n      swap1\n      tag_84\n      swap2\n      swap1\n      tag_85\n      jump\t// in\n    tag_84:\n      tag_86\n      jump\t// in\n    tag_83:\n      stop\n        /* \"MintNft.sol\":470:743  function mintNft() public {... */\n    tag_18:\n      tag_87\n      tag_88\n      jump\t// in\n    tag_87:\n      stop\n        /* \"MintNft.sol\":1057:1175  function isWhitelist(address _whitelist) public  view  returns (bool) {... */\n    tag_19:\n      tag_89\n      0x04\n      dup1\n      calldatasize\n      sub\n      dup2\n      add\n      swap1\n      tag_90\n      swap2\n      swap1\n      tag_70\n      jump\t// in\n    tag_90:\n      tag_91\n      jump\t// in\n    tag_89:\n      mload(0x40)\n      tag_92\n      swap2\n      swap1\n      tag_30\n      jump\t// in\n    tag_92:\n      mload(0x40)\n      dup1\n      swap2\n      sub\n      swap1\n      return\n        /* \"MintNft.sol\":750:941  function tokenURI(uint _tokenId) public view override returns (string memory) {... */\n    tag_20:\n      tag_93\n      0x04\n      dup1\n      calldatasize\n      sub\n      dup2\n      add\n      swap1\n      tag_94\n      swap2\n      swap1\n      tag_37\n      jump\t// in\n    tag_94:\n      tag_95\n      jump\t// in\n    tag_93:\n      mload(0x40)\n      tag_96\n      swap2\n      swap1\n      tag_34\n      jump\t// in\n    tag_96:\n      mload(0x40)\n      dup1\n      swap2\n      sub\n      swap1\n      return\n        /* \"@openzeppelin/contracts/token/ERC721/ERC721.sol\":3928:4081  function isApprovedForAll(address owner, address operator) public view virtual returns (bool) {... */\n    tag_21:\n      tag_97\n      0x04\n      dup1\n      calldatasize\n      sub\n      dup2\n      add\n      swap1\n      tag_98\n      swap2\n      swap1\n      tag_99\n      jump\t// in\n    tag_98:\n      tag_100\n      jump\t// in\n    tag_97:\n      mload(0x40)\n      tag_101\n      swap2\n      swap1\n      tag_30\n      jump\t// in\n    tag_101:\n      mload(0x40)\n      dup1\n      swap2\n      sub\n      swap1\n      return\n        /* \"@openzeppelin/contracts/token/ERC721/extensions/ERC721Enumerable.sol\":1435:1657  function supportsInterface(bytes4 interfaceId) public view virtual override(IERC165, ERC721) returns (bool) {... */\n    tag_28:\n        /* \"@openzeppelin/contracts/token/ERC721/extensions/ERC721Enumerable.sol\":1537:1541  bool */\n      0x00\n        /* \"@openzeppelin/contracts/token/ERC721/extensions/ERC721Enumerable.sol\":1575:1610  type(IERC721Enumerable).interfaceId */\n      0x780e9d6300000000000000000000000000000000000000000000000000000000\n        /* \"@openzeppelin/contracts/token/ERC721/extensions/ERC721Enumerable.sol\":1560:1610  interfaceId == type(IERC721Enumerable).interfaceId */\n      not(0xffffffffffffffffffffffffffffffffffffffffffffffffffffffff)\n      and\n        /* \"@openzeppelin/contracts/token/ERC721/extensions/ERC721Enumerable.sol\":1560:1571  interfaceId */\n      dup3\n        /* \"@openzeppelin/contracts/token/ERC721/extensions/ERC721Enumerable.sol\":1560:1610  interfaceId == type(IERC721Enumerable).interfaceId */\n      not(0xffffffffffffffffffffffffffffffffffffffffffffffffffffffff)\n      and\n      eq\n        /* \"@openzeppelin/contracts/token/ERC721/extensions/ERC721Enumerable.sol\":1560:1650  interfaceId == type(IERC721Enumerable).interfaceId || super.supportsInterface(interfaceId) */\n      dup1\n      tag_103\n      jumpi\n      pop\n        /* \"@openzeppelin/contracts/token/ERC721/extensions/ERC721Enumerable.sol\":1614:1650  super.supportsInterface(interfaceId) */\n      tag_104\n        /* \"@openzeppelin/contracts/token/ERC721/extensions/ERC721Enumerable.sol\":1638:1649  interfaceId */\n      dup3\n        /* \"@openzeppelin/contracts/token/ERC721/extensions/ERC721Enumerable.sol\":1614:1637  super.supportsInterface */\n      tag_105\n        /* \"@openzeppelin/contracts/token/ERC721/extensions/ERC721Enumerable.sol\":1614:1650  super.supportsInterface(interfaceId) */\n      jump\t// in\n    tag_104:\n        /* \"@openzeppelin/contracts/token/ERC721/extensions/ERC721Enumerable.sol\":1560:1650  interfaceId == type(IERC721Enumerable).interfaceId || super.supportsInterface(interfaceId) */\n    tag_103:\n        /* \"@openzeppelin/contracts/token/ERC721/extensions/ERC721Enumerable.sol\":1553:1650  return interfaceId == type(IERC721Enumerable).interfaceId || super.supportsInterface(interfaceId) */\n      swap1\n      pop\n        /* \"@openzeppelin/contracts/token/ERC721/extensions/ERC721Enumerable.sol\":1435:1657  function supportsInterface(bytes4 interfaceId) public view virtual override(IERC165, ERC721) returns (bool) {... */\n      swap2\n      swap1\n      pop\n      jump\t// out\n        /* \"@openzeppelin/contracts/token/ERC721/ERC721.sol\":2365:2454  function name() public view virtual returns (string memory) {... */\n    tag_32:\n        /* \"@openzeppelin/contracts/token/ERC721/ERC721.sol\":2410:2423  string memory */\n      0x60\n        /* \"@openzeppelin/contracts/token/ERC721/ERC721.sol\":2442:2447  _name */\n      0x00\n        /* \"@openzeppelin/contracts/token/ERC721/ERC721.sol\":2435:2447  return _name */\n      dup1\n      sload\n      tag_107\n      swap1\n      tag_108\n      jump\t// in\n    tag_107:\n      dup1\n      0x1f\n      add\n      0x20\n      dup1\n      swap2\n      div\n      mul\n      0x20\n      add\n      mload(0x40)\n      swap1\n      dup2\n      add\n      0x40\n      mstore\n      dup1\n      swap3\n      swap2\n      swap1\n      dup2\n      dup2\n      mstore\n      0x20\n      add\n      dup3\n      dup1\n      sload\n      tag_109\n      swap1\n      tag_108\n      jump\t// in\n    tag_109:\n      dup1\n      iszero\n      tag_110\n      jumpi\n      dup1\n      0x1f\n      lt\n      tag_111\n      jumpi\n      0x0100\n      dup1\n      dup4\n      sload\n      div\n      mul\n      dup4\n      mstore\n      swap2\n      0x20\n      add\n      swap2\n      jump(tag_110)\n    tag_111:\n      dup3\n      add\n      swap2\n      swap1\n      0x00\n      mstore\n      keccak256(0x00, 0x20)\n      swap1\n    tag_112:\n      dup2\n      sload\n      dup2\n      mstore\n      swap1\n      0x01\n      add\n      swap1\n      0x20\n      add\n      dup1\n      dup4\n      gt\n      tag_112\n      jumpi\n      dup3\n      swap1\n      sub\n      0x1f\n      and\n      dup3\n      add\n      swap2\n    tag_110:\n      pop\n      pop\n      pop\n      pop\n      pop\n      swap1\n      pop\n        /* \"@openzeppelin/contracts/token/ERC721/ERC721.sol\":2365:2454  function name() public view virtual returns (string memory) {... */\n      swap1\n      jump\t// out\n        /* \"@openzeppelin/contracts/token/ERC721/ERC721.sol\":3497:3651  function getApproved(uint256 tokenId) public view virtual returns (address) {... */\n    tag_38:\n        /* \"@openzeppelin/contracts/token/ERC721/ERC721.sol\":3564:3571  address */\n      0x00\n        /* \"@openzeppelin/contracts/token/ERC721/ERC721.sol\":3583:3605  _requireOwned(tokenId) */\n      tag_114\n        /* \"@openzeppelin/contracts/token/ERC721/ERC721.sol\":3597:3604  tokenId */\n      dup3\n        /* \"@openzeppelin/contracts/token/ERC721/ERC721.sol\":3583:3596  _requireOwned */\n      tag_115\n        /* \"@openzeppelin/contracts/token/ERC721/ERC721.sol\":3583:3605  _requireOwned(tokenId) */\n      jump\t// in\n    tag_114:\n      pop\n        /* \"@openzeppelin/contracts/token/ERC721/ERC721.sol\":3623:3644  _getApproved(tokenId) */\n      tag_116\n        /* \"@openzeppelin/contracts/token/ERC721/ERC721.sol\":3636:3643  tokenId */\n      dup3\n        /* \"@openzeppelin/contracts/token/ERC721/ERC721.sol\":3623:3635  _getApproved */\n      tag_117\n        /* \"@openzeppelin/contracts/token/ERC721/ERC721.sol\":3623:3644  _getApproved(tokenId) */\n      jump\t// in\n    tag_116:\n        /* \"@openzeppelin/contracts/token/ERC721/ERC721.sol\":3616:3644  return _getApproved(tokenId) */\n      swap1\n      pop\n        /* \"@openzeppelin/contracts/token/ERC721/ERC721.sol\":3497:3651  function getApproved(uint256 tokenId) public view virtual returns (address) {... */\n      swap2\n      swap1\n      pop\n      jump\t// out\n        /* \"@openzeppelin/contracts/token/ERC721/ERC721.sol\":3323:3436  function approve(address to, uint256 tokenId) public virtual {... */\n    tag_44:\n        /* \"@openzeppelin/contracts/token/ERC721/ERC721.sol\":3394:3429  _approve(to, tokenId, _msgSender()) */\n      tag_119\n        /* \"@openzeppelin/contracts/token/ERC721/ERC721.sol\":3403:3405  to */\n      dup3\n        /* \"@openzeppelin/contracts/token/ERC721/ERC721.sol\":3407:3414  tokenId */\n      dup3\n        /* \"@openzeppelin/contracts/token/ERC721/ERC721.sol\":3416:3428  _msgSender() */\n      tag_120\n        /* \"@openzeppelin/contracts/token/ERC721/ERC721.sol\":3416:3426  _msgSender */\n      tag_121\n        /* \"@openzeppelin/contracts/token/ERC721/ERC721.sol\":3416:3428  _msgSender() */\n      jump\t// in\n    tag_120:\n        /* \"@openzeppelin/contracts/token/ERC721/ERC721.sol\":3394:3402  _approve */\n      tag_122\n        /* \"@openzeppelin/contracts/token/ERC721/ERC721.sol\":3394:3429  _approve(to, tokenId, _msgSender()) */\n      jump\t// in\n    tag_119:\n        /* \"@openzeppelin/contracts/token/ERC721/ERC721.sol\":3323:3436  function approve(address to, uint256 tokenId) public virtual {... */\n      pop\n      pop\n      jump\t// out\n        /* \"@openzeppelin/contracts/token/ERC721/extensions/ERC721Enumerable.sol\":2062:2164  function totalSupply() public view virtual returns (uint256) {... */\n    tag_46:\n        /* \"@openzeppelin/contracts/token/ERC721/extensions/ERC721Enumerable.sol\":2114:2121  uint256 */\n      0x00\n        /* \"@openzeppelin/contracts/token/ERC721/extensions/ERC721Enumerable.sol\":2140:2150  _allTokens */\n      0x08\n        /* \"@openzeppelin/contracts/token/ERC721/extensions/ERC721Enumerable.sol\":2140:2157  _allTokens.length */\n      dup1\n      sload\n      swap1\n      pop\n        /* \"@openzeppelin/contracts/token/ERC721/extensions/ERC721Enumerable.sol\":2133:2157  return _allTokens.length */\n      swap1\n      pop\n        /* \"@openzeppelin/contracts/token/ERC721/extensions/ERC721Enumerable.sol\":2062:2164  function totalSupply() public view virtual returns (uint256) {... */\n      swap1\n      jump\t// out\n        /* \"@openzeppelin/contracts/token/ERC721/ERC721.sol\":4143:4721  function transferFrom(address from, address to, uint256 tokenId) public virtual {... */\n    tag_52:\n        /* \"@openzeppelin/contracts/token/ERC721/ERC721.sol\":4251:4252  0 */\n      0x00\n        /* \"@openzeppelin/contracts/token/ERC721/ERC721.sol\":4237:4253  to == address(0) */\n      0xffffffffffffffffffffffffffffffffffffffff\n      and\n        /* \"@openzeppelin/contracts/token/ERC721/ERC721.sol\":4237:4239  to */\n      dup3\n        /* \"@openzeppelin/contracts/token/ERC721/ERC721.sol\":4237:4253  to == address(0) */\n      0xffffffffffffffffffffffffffffffffffffffff\n      and\n      sub\n        /* \"@openzeppelin/contracts/token/ERC721/ERC721.sol\":4233:4320  if (to == address(0)) {... */\n      tag_125\n      jumpi\n        /* \"@openzeppelin/contracts/token/ERC721/ERC721.sol\":4306:4307  0 */\n      0x00\n        /* \"@openzeppelin/contracts/token/ERC721/ERC721.sol\":4276:4309  ERC721InvalidReceiver(address(0)) */\n      mload(0x40)\n      0x64a0ae9200000000000000000000000000000000000000000000000000000000\n      dup2\n      mstore\n      0x04\n      add\n      tag_126\n      swap2\n      swap1\n      tag_40\n      jump\t// in\n    tag_126:\n      mload(0x40)\n      dup1\n      swap2\n      sub\n      swap1\n      revert\n        /* \"@openzeppelin/contracts/token/ERC721/ERC721.sol\":4233:4320  if (to == address(0)) {... */\n    tag_125:\n        /* \"@openzeppelin/contracts/token/ERC721/ERC721.sol\":4538:4559  address previousOwner */\n      0x00\n        /* \"@openzeppelin/contracts/token/ERC721/ERC721.sol\":4562:4596  _update(to, tokenId, _msgSender()) */\n      tag_127\n        /* \"@openzeppelin/contracts/token/ERC721/ERC721.sol\":4570:4572  to */\n      dup4\n        /* \"@openzeppelin/contracts/token/ERC721/ERC721.sol\":4574:4581  tokenId */\n      dup4\n        /* \"@openzeppelin/contracts/token/ERC721/ERC721.sol\":4583:4595  _msgSender() */\n      tag_128\n        /* \"@openzeppelin/contracts/token/ERC721/ERC721.sol\":4583:4593  _msgSender */\n      tag_121\n        /* \"@openzeppelin/contracts/token/ERC721/ERC721.sol\":4583:4595  _msgSender() */\n      jump\t// in\n    tag_128:\n        /* \"@openzeppelin/contracts/token/ERC721/ERC721.sol\":4562:4569  _update */\n      tag_129\n        /* \"@openzeppelin/contracts/token/ERC721/ERC721.sol\":4562:4596  _update(to, tokenId, _msgSender()) */\n      jump\t// in\n    tag_127:\n        /* \"@openzeppelin/contracts/token/ERC721/ERC721.sol\":4538:4596  address previousOwner = _update(to, tokenId, _msgSender()) */\n      swap1\n      pop\n        /* \"@openzeppelin/contracts/token/ERC721/ERC721.sol\":4627:4631  from */\n      dup4\n        /* \"@openzeppelin/contracts/token/ERC721/ERC721.sol\":4610:4631  previousOwner != from */\n      0xffffffffffffffffffffffffffffffffffffffff\n      and\n        /* \"@openzeppelin/contracts/token/ERC721/ERC721.sol\":4610:4623  previousOwner */\n      dup2\n        /* \"@openzeppelin/contracts/token/ERC721/ERC721.sol\":4610:4631  previousOwner != from */\n      0xffffffffffffffffffffffffffffffffffffffff\n      and\n      eq\n        /* \"@openzeppelin/contracts/token/ERC721/ERC721.sol\":4606:4715  if (previousOwner != from) {... */\n      tag_130\n      jumpi\n        /* \"@openzeppelin/contracts/token/ERC721/ERC721.sol\":4675:4679  from */\n      dup4\n        /* \"@openzeppelin/contracts/token/ERC721/ERC721.sol\":4681:4688  tokenId */\n      dup3\n        /* \"@openzeppelin/contracts/token/ERC721/ERC721.sol\":4690:4703  previousOwner */\n      dup3\n        /* \"@openzeppelin/contracts/token/ERC721/ERC721.sol\":4654:4704  ERC721IncorrectOwner(from, tokenId, previousOwner) */\n      mload(0x40)\n      0x64283d7b00000000000000000000000000000000000000000000000000000000\n      dup2\n      mstore\n      0x04\n      add\n      tag_131\n      swap4\n      swap3\n      swap2\n      swap1\n      tag_132\n      jump\t// in\n    tag_131:\n      mload(0x40)\n      dup1\n      swap2\n      sub\n      swap1\n      revert\n        /* \"@openzeppelin/contracts/token/ERC721/ERC721.sol\":4606:4715  if (previousOwner != from) {... */\n    tag_130:\n        /* \"@openzeppelin/contracts/token/ERC721/ERC721.sol\":4223:4721  {... */\n      pop\n        /* \"@openzeppelin/contracts/token/ERC721/ERC721.sol\":4143:4721  function transferFrom(address from, address to, uint256 tokenId) public virtual {... */\n      pop\n      pop\n      pop\n      jump\t// out\n        /* \"@openzeppelin/contracts/token/ERC721/extensions/ERC721Enumerable.sol\":1736:1991  function tokenOfOwnerByIndex(address owner, uint256 index) public view virtual returns (uint256) {... */\n    tag_55:\n        /* \"@openzeppelin/contracts/token/ERC721/extensions/ERC721Enumerable.sol\":1824:1831  uint256 */\n      0x00\n        /* \"@openzeppelin/contracts/token/ERC721/extensions/ERC721Enumerable.sol\":1856:1872  balanceOf(owner) */\n      tag_134\n        /* \"@openzeppelin/contracts/token/ERC721/extensions/ERC721Enumerable.sol\":1866:1871  owner */\n      dup4\n        /* \"@openzeppelin/contracts/token/ERC721/extensions/ERC721Enumerable.sol\":1856:1865  balanceOf */\n      tag_71\n        /* \"@openzeppelin/contracts/token/ERC721/extensions/ERC721Enumerable.sol\":1856:1872  balanceOf(owner) */\n      jump\t// in\n    tag_134:\n        /* \"@openzeppelin/contracts/token/ERC721/extensions/ERC721Enumerable.sol\":1847:1852  index */\n      dup3\n        /* \"@openzeppelin/contracts/token/ERC721/extensions/ERC721Enumerable.sol\":1847:1872  index >= balanceOf(owner) */\n      lt\n        /* \"@openzeppelin/contracts/token/ERC721/extensions/ERC721Enumerable.sol\":1843:1942  if (index >= balanceOf(owner)) {... */\n      tag_135\n      jumpi\n        /* \"@openzeppelin/contracts/token/ERC721/extensions/ERC721Enumerable.sol\":1918:1923  owner */\n      dup3\n        /* \"@openzeppelin/contracts/token/ERC721/extensions/ERC721Enumerable.sol\":1925:1930  index */\n      dup3\n        /* \"@openzeppelin/contracts/token/ERC721/extensions/ERC721Enumerable.sol\":1895:1931  ERC721OutOfBoundsIndex(owner, index) */\n      mload(0x40)\n      0xa57d13dc00000000000000000000000000000000000000000000000000000000\n      dup2\n      mstore\n      0x04\n      add\n      tag_136\n      swap3\n      swap2\n      swap1\n      tag_137\n      jump\t// in\n    tag_136:\n      mload(0x40)\n      dup1\n      swap2\n      sub\n      swap1\n      revert\n        /* \"@openzeppelin/contracts/token/ERC721/extensions/ERC721Enumerable.sol\":1843:1942  if (index >= balanceOf(owner)) {... */\n    tag_135:\n        /* \"@openzeppelin/contracts/token/ERC721/extensions/ERC721Enumerable.sol\":1958:1970  _ownedTokens */\n      0x06\n        /* \"@openzeppelin/contracts/token/ERC721/extensions/ERC721Enumerable.sol\":1958:1977  _ownedTokens[owner] */\n      0x00\n        /* \"@openzeppelin/contracts/token/ERC721/extensions/ERC721Enumerable.sol\":1971:1976  owner */\n      dup5\n        /* \"@openzeppelin/contracts/token/ERC721/extensions/ERC721Enumerable.sol\":1958:1977  _ownedTokens[owner] */\n      0xffffffffffffffffffffffffffffffffffffffff\n      and\n      0xffffffffffffffffffffffffffffffffffffffff\n      and\n      dup2\n      mstore\n      0x20\n      add\n      swap1\n      dup2\n      mstore\n      0x20\n      add\n      0x00\n      keccak256\n        /* \"@openzeppelin/contracts/token/ERC721/extensions/ERC721Enumerable.sol\":1958:1984  _ownedTokens[owner][index] */\n      0x00\n        /* \"@openzeppelin/contracts/token/ERC721/extensions/ERC721Enumerable.sol\":1978:1983  index */\n      dup4\n        /* \"@openzeppelin/contracts/token/ERC721/extensions/ERC721Enumerable.sol\":1958:1984  _ownedTokens[owner][index] */\n      dup2\n      mstore\n      0x20\n      add\n      swap1\n      dup2\n      mstore\n      0x20\n      add\n      0x00\n      keccak256\n      sload\n        /* \"@openzeppelin/contracts/token/ERC721/extensions/ERC721Enumerable.sol\":1951:1984  return _ownedTokens[owner][index] */\n      swap1\n      pop\n        /* \"@openzeppelin/contracts/token/ERC721/extensions/ERC721Enumerable.sol\":1736:1991  function tokenOfOwnerByIndex(address owner, uint256 index) public view virtual returns (uint256) {... */\n      swap3\n      swap2\n      pop\n      pop\n      jump\t// out\n        /* \"@openzeppelin/contracts/token/ERC721/ERC721.sol\":4787:4919  function safeTransferFrom(address from, address to, uint256 tokenId) public {... */\n    tag_59:\n        /* \"@openzeppelin/contracts/token/ERC721/ERC721.sol\":4873:4912  safeTransferFrom(from, to, tokenId, \"\") */\n      tag_139\n        /* \"@openzeppelin/contracts/token/ERC721/ERC721.sol\":4890:4894  from */\n      dup4\n        /* \"@openzeppelin/contracts/token/ERC721/ERC721.sol\":4896:4898  to */\n      dup4\n        /* \"@openzeppelin/contracts/token/ERC721/ERC721.sol\":4900:4907  tokenId */\n      dup4\n        /* \"@openzeppelin/contracts/token/ERC721/ERC721.sol\":4873:4912  safeTransferFrom(from, to, tokenId, \"\") */\n      mload(0x40)\n      dup1\n      0x20\n      add\n      0x40\n      mstore\n      dup1\n      0x00\n      dup2\n      mstore\n      pop\n        /* \"@openzeppelin/contracts/token/ERC721/ERC721.sol\":4873:4889  safeTransferFrom */\n      tag_86\n        /* \"@openzeppelin/contracts/token/ERC721/ERC721.sol\":4873:4912  safeTransferFrom(from, to, tokenId, \"\") */\n      jump\t// in\n    tag_139:\n        /* \"@openzeppelin/contracts/token/ERC721/ERC721.sol\":4787:4919  function safeTransferFrom(address from, address to, uint256 tokenId) public {... */\n      pop\n      pop\n      pop\n      jump\t// out\n        /* \"@openzeppelin/contracts/token/ERC721/extensions/ERC721Enumerable.sol\":2236:2462  function tokenByIndex(uint256 index) public view virtual returns (uint256) {... */\n    tag_62:\n        /* \"@openzeppelin/contracts/token/ERC721/extensions/ERC721Enumerable.sol\":2302:2309  uint256 */\n      0x00\n        /* \"@openzeppelin/contracts/token/ERC721/extensions/ERC721Enumerable.sol\":2334:2347  totalSupply() */\n      tag_141\n        /* \"@openzeppelin/contracts/token/ERC721/extensions/ERC721Enumerable.sol\":2334:2345  totalSupply */\n      tag_46\n        /* \"@openzeppelin/contracts/token/ERC721/extensions/ERC721Enumerable.sol\":2334:2347  totalSupply() */\n      jump\t// in\n    tag_141:\n        /* \"@openzeppelin/contracts/token/ERC721/extensions/ERC721Enumerable.sol\":2325:2330  index */\n      dup3\n        /* \"@openzeppelin/contracts/token/ERC721/extensions/ERC721Enumerable.sol\":2325:2347  index >= totalSupply() */\n      lt\n        /* \"@openzeppelin/contracts/token/ERC721/extensions/ERC721Enumerable.sol\":2321:2422  if (index >= totalSupply()) {... */\n      tag_142\n      jumpi\n        /* \"@openzeppelin/contracts/token/ERC721/extensions/ERC721Enumerable.sol\":2401:2402  0 */\n      0x00\n        /* \"@openzeppelin/contracts/token/ERC721/extensions/ERC721Enumerable.sol\":2405:2410  index */\n      dup3\n        /* \"@openzeppelin/contracts/token/ERC721/extensions/ERC721Enumerable.sol\":2370:2411  ERC721OutOfBoundsIndex(address(0), index) */\n      mload(0x40)\n      0xa57d13dc00000000000000000000000000000000000000000000000000000000\n      dup2\n      mstore\n      0x04\n      add\n      tag_143\n      swap3\n      swap2\n      swap1\n      tag_137\n      jump\t// in\n    tag_143:\n      mload(0x40)\n      dup1\n      swap2\n      sub\n      swap1\n      revert\n        /* \"@openzeppelin/contracts/token/ERC721/extensions/ERC721Enumerable.sol\":2321:2422  if (index >= totalSupply()) {... */\n    tag_142:\n        /* \"@openzeppelin/contracts/token/ERC721/extensions/ERC721Enumerable.sol\":2438:2448  _allTokens */\n      0x08\n        /* \"@openzeppelin/contracts/token/ERC721/extensions/ERC721Enumerable.sol\":2449:2454  index */\n      dup3\n        /* \"@openzeppelin/contracts/token/ERC721/extensions/ERC721Enumerable.sol\":2438:2455  _allTokens[index] */\n      dup2\n      sload\n      dup2\n      lt\n      tag_144\n      jumpi\n      tag_145\n      tag_146\n      jump\t// in\n    tag_145:\n    tag_144:\n      swap1\n      0x00\n      mstore\n      keccak256(0x00, 0x20)\n      add\n      sload\n        /* \"@openzeppelin/contracts/token/ERC721/extensions/ERC721Enumerable.sol\":2431:2455  return _allTokens[index] */\n      swap1\n      pop\n        /* \"@openzeppelin/contracts/token/ERC721/extensions/ERC721Enumerable.sol\":2236:2462  function tokenByIndex(uint256 index) public view virtual returns (uint256) {... */\n      swap2\n      swap1\n      pop\n      jump\t// out\n        /* \"@openzeppelin/contracts/token/ERC721/ERC721.sol\":2185:2303  function ownerOf(uint256 tokenId) public view virtual returns (address) {... */\n    tag_66:\n        /* \"@openzeppelin/contracts/token/ERC721/ERC721.sol\":2248:2255  address */\n      0x00\n        /* \"@openzeppelin/contracts/token/ERC721/ERC721.sol\":2274:2296  _requireOwned(tokenId) */\n      tag_149\n        /* \"@openzeppelin/contracts/token/ERC721/ERC721.sol\":2288:2295  tokenId */\n      dup3\n        /* \"@openzeppelin/contracts/token/ERC721/ERC721.sol\":2274:2287  _requireOwned */\n      tag_115\n        /* \"@openzeppelin/contracts/token/ERC721/ERC721.sol\":2274:2296  _requireOwned(tokenId) */\n      jump\t// in\n    tag_149:\n        /* \"@openzeppelin/contracts/token/ERC721/ERC721.sol\":2267:2296  return _requireOwned(tokenId) */\n      swap1\n      pop\n        /* \"@openzeppelin/contracts/token/ERC721/ERC721.sol\":2185:2303  function ownerOf(uint256 tokenId) public view virtual returns (address) {... */\n      swap2\n      swap1\n      pop\n      jump\t// out\n        /* \"@openzeppelin/contracts/token/ERC721/ERC721.sol\":1920:2128  function balanceOf(address owner) public view virtual returns (uint256) {... */\n    tag_71:\n        /* \"@openzeppelin/contracts/token/ERC721/ERC721.sol\":1983:1990  uint256 */\n      0x00\n        /* \"@openzeppelin/contracts/token/ERC721/ERC721.sol\":2023:2024  0 */\n      dup1\n        /* \"@openzeppelin/contracts/token/ERC721/ERC721.sol\":2006:2025  owner == address(0) */\n      0xffffffffffffffffffffffffffffffffffffffff\n      and\n        /* \"@openzeppelin/contracts/token/ERC721/ERC721.sol\":2006:2011  owner */\n      dup3\n        /* \"@openzeppelin/contracts/token/ERC721/ERC721.sol\":2006:2025  owner == address(0) */\n      0xffffffffffffffffffffffffffffffffffffffff\n      and\n      sub\n        /* \"@openzeppelin/contracts/token/ERC721/ERC721.sol\":2002:2089  if (owner == address(0)) {... */\n      tag_151\n      jumpi\n        /* \"@openzeppelin/contracts/token/ERC721/ERC721.sol\":2075:2076  0 */\n      0x00\n        /* \"@openzeppelin/contracts/token/ERC721/ERC721.sol\":2048:2078  ERC721InvalidOwner(address(0)) */\n      mload(0x40)\n      0x89c62b6400000000000000000000000000000000000000000000000000000000\n      dup2\n      mstore\n      0x04\n      add\n      tag_152\n      swap2\n      swap1\n      tag_40\n      jump\t// in\n    tag_152:\n      mload(0x40)\n      dup1\n      swap2\n      sub\n      swap1\n      revert\n        /* \"@openzeppelin/contracts/token/ERC721/ERC721.sol\":2002:2089  if (owner == address(0)) {... */\n    tag_151:\n        /* \"@openzeppelin/contracts/token/ERC721/ERC721.sol\":2105:2114  _balances */\n      0x03\n        /* \"@openzeppelin/contracts/token/ERC721/ERC721.sol\":2105:2121  _balances[owner] */\n      0x00\n        /* \"@openzeppelin/contracts/token/ERC721/ERC721.sol\":2115:2120  owner */\n      dup4\n        /* \"@openzeppelin/contracts/token/ERC721/ERC721.sol\":2105:2121  _balances[owner] */\n      0xffffffffffffffffffffffffffffffffffffffff\n      and\n      0xffffffffffffffffffffffffffffffffffffffff\n      and\n      dup2\n      mstore\n      0x20\n      add\n      swap1\n      dup2\n      mstore\n      0x20\n      add\n      0x00\n      keccak256\n      sload\n        /* \"@openzeppelin/contracts/token/ERC721/ERC721.sol\":2098:2121  return _balances[owner] */\n      swap1\n      pop\n        /* \"@openzeppelin/contracts/token/ERC721/ERC721.sol\":1920:2128  function balanceOf(address owner) public view virtual returns (uint256) {... */\n      swap2\n      swap1\n      pop\n      jump\t// out\n        /* \"MintNft.sol\":949:1045  function setWhitelist(address _whitelist) public {... */\n    tag_75:\n        /* \"MintNft.sol\":1033:1037  true */\n      0x01\n        /* \"MintNft.sol\":1009:1018  whitelist */\n      0x0b\n        /* \"MintNft.sol\":1009:1030  whitelist[_whitelist] */\n      0x00\n        /* \"MintNft.sol\":1019:1029  _whitelist */\n      dup4\n        /* \"MintNft.sol\":1009:1030  whitelist[_whitelist] */\n      0xffffffffffffffffffffffffffffffffffffffff\n      and\n      0xffffffffffffffffffffffffffffffffffffffff\n      and\n      dup2\n      mstore\n      0x20\n      add\n      swap1\n      dup2\n      mstore\n      0x20\n      add\n      0x00\n      keccak256\n      0x00\n        /* \"MintNft.sol\":1009:1037  whitelist[_whitelist] = true */\n      0x0100\n      exp\n      dup2\n      sload\n      dup2\n      0xff\n      mul\n      not\n      and\n      swap1\n      dup4\n      iszero\n      iszero\n      mul\n      or\n      swap1\n      sstore\n      pop\n        /* \"MintNft.sol\":949:1045  function setWhitelist(address _whitelist) public {... */\n      pop\n      jump\t// out\n        /* \"@openzeppelin/contracts/token/ERC721/ERC721.sol\":2518:2611  function symbol() public view virtual returns (string memory) {... */\n    tag_77:\n        /* \"@openzeppelin/contracts/token/ERC721/ERC721.sol\":2565:2578  string memory */\n      0x60\n        /* \"@openzeppelin/contracts/token/ERC721/ERC721.sol\":2597:2604  _symbol */\n      0x01\n        /* \"@openzeppelin/contracts/token/ERC721/ERC721.sol\":2590:2604  return _symbol */\n      dup1\n      sload\n      tag_155\n      swap1\n      tag_108\n      jump\t// in\n    tag_155:\n      dup1\n      0x1f\n      add\n      0x20\n      dup1\n      swap2\n      div\n      mul\n      0x20\n      add\n      mload(0x40)\n      swap1\n      dup2\n      add\n      0x40\n      mstore\n      dup1\n      swap3\n      swap2\n      swap1\n      dup2\n      dup2\n      mstore\n      0x20\n      add\n      dup3\n      dup1\n      sload\n      tag_156\n      swap1\n      tag_108\n      jump\t// in\n    tag_156:\n      dup1\n      iszero\n      tag_157\n      jumpi\n      dup1\n      0x1f\n      lt\n      tag_158\n      jumpi\n      0x0100\n      dup1\n      dup4\n      sload\n      div\n      mul\n      dup4\n      mstore\n      swap2\n      0x20\n      add\n      swap2\n      jump(tag_157)\n    tag_158:\n      dup3\n      add\n      swap2\n      swap1\n      0x00\n      mstore\n      keccak256(0x00, 0x20)\n      swap1\n    tag_159:\n      dup2\n      sload\n      dup2\n      mstore\n      swap1\n      0x01\n      add\n      swap1\n      0x20\n      add\n      dup1\n      dup4\n      gt\n      tag_159\n      jumpi\n      dup3\n      swap1\n      sub\n      0x1f\n      and\n      dup3\n      add\n      swap2\n    tag_157:\n      pop\n      pop\n      pop\n      pop\n      pop\n      swap1\n      pop\n        /* \"@openzeppelin/contracts/token/ERC721/ERC721.sol\":2518:2611  function symbol() public view virtual returns (string memory) {... */\n      swap1\n      jump\t// out\n        /* \"@openzeppelin/contracts/token/ERC721/ERC721.sol\":3718:3862  function setApprovalForAll(address operator, bool approved) public virtual {... */\n    tag_82:\n        /* \"@openzeppelin/contracts/token/ERC721/ERC721.sol\":3803:3855  _setApprovalForAll(_msgSender(), operator, approved) */\n      tag_161\n        /* \"@openzeppelin/contracts/token/ERC721/ERC721.sol\":3822:3834  _msgSender() */\n      tag_162\n        /* \"@openzeppelin/contracts/token/ERC721/ERC721.sol\":3822:3832  _msgSender */\n      tag_121\n        /* \"@openzeppelin/contracts/token/ERC721/ERC721.sol\":3822:3834  _msgSender() */\n      jump\t// in\n    tag_162:\n        /* \"@openzeppelin/contracts/token/ERC721/ERC721.sol\":3836:3844  operator */\n      dup4\n        /* \"@openzeppelin/contracts/token/ERC721/ERC721.sol\":3846:3854  approved */\n      dup4\n        /* \"@openzeppelin/contracts/token/ERC721/ERC721.sol\":3803:3821  _setApprovalForAll */\n      tag_163\n        /* \"@openzeppelin/contracts/token/ERC721/ERC721.sol\":3803:3855  _setApprovalForAll(_msgSender(), operator, approved) */\n      jump\t// in\n    tag_161:\n        /* \"@openzeppelin/contracts/token/ERC721/ERC721.sol\":3718:3862  function setApprovalForAll(address operator, bool approved) public virtual {... */\n      pop\n      pop\n      jump\t// out\n        /* \"@openzeppelin/contracts/token/ERC721/ERC721.sol\":4985:5193  function safeTransferFrom(address from, address to, uint256 tokenId, bytes memory data) public virtual {... */\n    tag_86:\n        /* \"@openzeppelin/contracts/token/ERC721/ERC721.sol\":5098:5129  transferFrom(from, to, tokenId) */\n      tag_165\n        /* \"@openzeppelin/contracts/token/ERC721/ERC721.sol\":5111:5115  from */\n      dup5\n        /* \"@openzeppelin/contracts/token/ERC721/ERC721.sol\":5117:5119  to */\n      dup5\n        /* \"@openzeppelin/contracts/token/ERC721/ERC721.sol\":5121:5128  tokenId */\n      dup5\n        /* \"@openzeppelin/contracts/token/ERC721/ERC721.sol\":5098:5110  transferFrom */\n      tag_52\n        /* \"@openzeppelin/contracts/token/ERC721/ERC721.sol\":5098:5129  transferFrom(from, to, tokenId) */\n      jump\t// in\n    tag_165:\n        /* \"@openzeppelin/contracts/token/ERC721/ERC721.sol\":5139:5186  _checkOnERC721Received(from, to, tokenId, data) */\n      tag_166\n        /* \"@openzeppelin/contracts/token/ERC721/ERC721.sol\":5162:5166  from */\n      dup5\n        /* \"@openzeppelin/contracts/token/ERC721/ERC721.sol\":5168:5170  to */\n      dup5\n        /* \"@openzeppelin/contracts/token/ERC721/ERC721.sol\":5172:5179  tokenId */\n      dup5\n        /* \"@openzeppelin/contracts/token/ERC721/ERC721.sol\":5181:5185  data */\n      dup5\n        /* \"@openzeppelin/contracts/token/ERC721/ERC721.sol\":5139:5161  _checkOnERC721Received */\n      tag_167\n        /* \"@openzeppelin/contracts/token/ERC721/ERC721.sol\":5139:5186  _checkOnERC721Received(from, to, tokenId, data) */\n      jump\t// in\n    tag_166:\n        /* \"@openzeppelin/contracts/token/ERC721/ERC721.sol\":4985:5193  function safeTransferFrom(address from, address to, uint256 tokenId, bytes memory data) public virtual {... */\n      pop\n      pop\n      pop\n      pop\n      jump\t// out\n        /* \"MintNft.sol\":470:743  function mintNft() public {... */\n    tag_88:\n        /* \"MintNft.sol\":531:533  17 */\n      0x11\n        /* \"MintNft.sol\":515:528  totalSupply() */\n      tag_169\n        /* \"MintNft.sol\":515:526  totalSupply */\n      tag_46\n        /* \"MintNft.sol\":515:528  totalSupply() */\n      jump\t// in\n    tag_169:\n        /* \"MintNft.sol\":515:533  totalSupply() < 17 */\n      lt\n        /* \"MintNft.sol\":507:551  require(totalSupply() < 17, \"No more mint.\") */\n      tag_170\n      jumpi\n      mload(0x40)\n      0x08c379a000000000000000000000000000000000000000000000000000000000\n      dup2\n      mstore\n      0x04\n      add\n      tag_171\n      swap1\n      tag_172\n      jump\t// in\n    tag_171:\n      mload(0x40)\n      dup1\n      swap2\n      sub\n      swap1\n      revert\n    tag_170:\n        /* \"MintNft.sol\":570:579  whitelist */\n      0x0b\n        /* \"MintNft.sol\":570:591  whitelist[msg.sender] */\n      0x00\n        /* \"MintNft.sol\":580:590  msg.sender */\n      caller\n        /* \"MintNft.sol\":570:591  whitelist[msg.sender] */\n      0xffffffffffffffffffffffffffffffffffffffff\n      and\n      0xffffffffffffffffffffffffffffffffffffffff\n      and\n      dup2\n      mstore\n      0x20\n      add\n      swap1\n      dup2\n      mstore\n      0x20\n      add\n      0x00\n      keccak256\n      0x00\n      swap1\n      sload\n      swap1\n      0x0100\n      exp\n      swap1\n      div\n      0xff\n      and\n        /* \"MintNft.sol\":562:609  require(whitelist[msg.sender], \"Not whitelist\") */\n      tag_173\n      jumpi\n      mload(0x40)\n      0x08c379a000000000000000000000000000000000000000000000000000000000\n      dup2\n      mstore\n      0x04\n      add\n      tag_174\n      swap1\n      tag_175\n      jump\t// in\n    tag_174:\n      mload(0x40)\n      dup1\n      swap2\n      sub\n      swap1\n      revert\n    tag_173:\n        /* \"MintNft.sol\":622:634  uint tokenId */\n      0x00\n        /* \"MintNft.sol\":653:654  1 */\n      0x01\n        /* \"MintNft.sol\":637:650  totalSupply() */\n      tag_176\n        /* \"MintNft.sol\":637:648  totalSupply */\n      tag_46\n        /* \"MintNft.sol\":637:650  totalSupply() */\n      jump\t// in\n    tag_176:\n        /* \"MintNft.sol\":637:654  totalSupply() + 1 */\n      tag_177\n      swap2\n      swap1\n      tag_178\n      jump\t// in\n    tag_177:\n        /* \"MintNft.sol\":622:654  uint tokenId = totalSupply() + 1 */\n      swap1\n      pop\n        /* \"MintNft.sol\":667:693  _mint(msg.sender, tokenId) */\n      tag_179\n        /* \"MintNft.sol\":673:683  msg.sender */\n      caller\n        /* \"MintNft.sol\":685:692  tokenId */\n      dup3\n        /* \"MintNft.sol\":667:672  _mint */\n      tag_180\n        /* \"MintNft.sol\":667:693  _mint(msg.sender, tokenId) */\n      jump\t// in\n    tag_179:\n        /* \"MintNft.sol\":730:735  false */\n      0x00\n        /* \"MintNft.sol\":706:715  whitelist */\n      0x0b\n        /* \"MintNft.sol\":706:727  whitelist[msg.sender] */\n      0x00\n        /* \"MintNft.sol\":716:726  msg.sender */\n      caller\n        /* \"MintNft.sol\":706:727  whitelist[msg.sender] */\n      0xffffffffffffffffffffffffffffffffffffffff\n      and\n      0xffffffffffffffffffffffffffffffffffffffff\n      and\n      dup2\n      mstore\n      0x20\n      add\n      swap1\n      dup2\n      mstore\n      0x20\n      add\n      0x00\n      keccak256\n      0x00\n        /* \"MintNft.sol\":706:735  whitelist[msg.sender] = false */\n      0x0100\n      exp\n      dup2\n      sload\n      dup2\n      0xff\n      mul\n      not\n      and\n      swap1\n      dup4\n      iszero\n      iszero\n      mul\n      or\n      swap1\n      sstore\n      pop\n        /* \"MintNft.sol\":496:743  {... */\n      pop\n        /* \"MintNft.sol\":470:743  function mintNft() public {... */\n      jump\t// out\n        /* \"MintNft.sol\":1057:1175  function isWhitelist(address _whitelist) public  view  returns (bool) {... */\n    tag_91:\n        /* \"MintNft.sol\":1121:1125  bool */\n      0x00\n        /* \"MintNft.sol\":1145:1154  whitelist */\n      0x0b\n        /* \"MintNft.sol\":1145:1167  whitelist [_whitelist] */\n      0x00\n        /* \"MintNft.sol\":1156:1166  _whitelist */\n      dup4\n        /* \"MintNft.sol\":1145:1167  whitelist [_whitelist] */\n      0xffffffffffffffffffffffffffffffffffffffff\n      and\n      0xffffffffffffffffffffffffffffffffffffffff\n      and\n      dup2\n      mstore\n      0x20\n      add\n      swap1\n      dup2\n      mstore\n      0x20\n      add\n      0x00\n      keccak256\n      0x00\n      swap1\n      sload\n      swap1\n      0x0100\n      exp\n      swap1\n      div\n      0xff\n      and\n        /* \"MintNft.sol\":1138:1167  return whitelist [_whitelist] */\n      swap1\n      pop\n        /* \"MintNft.sol\":1057:1175  function isWhitelist(address _whitelist) public  view  returns (bool) {... */\n      swap2\n      swap1\n      pop\n      jump\t// out\n        /* \"MintNft.sol\":750:941  function tokenURI(uint _tokenId) public view override returns (string memory) {... */\n    tag_95:\n        /* \"MintNft.sol\":813:826  string memory */\n      0x60\n        /* \"MintNft.sol\":876:887  metadataUri */\n      0x0a\n        /* \"MintNft.sol\":889:915  Strings.toString(_tokenId) */\n      tag_183\n        /* \"MintNft.sol\":906:914  _tokenId */\n      dup4\n        /* \"MintNft.sol\":889:905  Strings.toString */\n      tag_184\n        /* \"MintNft.sol\":889:915  Strings.toString(_tokenId) */\n      jump\t// in\n    tag_183:\n        /* \"MintNft.sol\":859:925  abi.encodePacked(metadataUri, Strings.toString(_tokenId), \".json\") */\n      add(0x20, mload(0x40))\n      tag_185\n      swap3\n      swap2\n      swap1\n      tag_186\n      jump\t// in\n    tag_185:\n      mload(0x40)\n      0x20\n      dup2\n      dup4\n      sub\n      sub\n      dup2\n      mstore\n      swap1\n      0x40\n      mstore\n        /* \"MintNft.sol\":845:926  return string(abi.encodePacked(metadataUri, Strings.toString(_tokenId), \".json\")) */\n      swap1\n      pop\n        /* \"MintNft.sol\":750:941  function tokenURI(uint _tokenId) public view override returns (string memory) {... */\n      swap2\n      swap1\n      pop\n      jump\t// out\n        /* \"@openzeppelin/contracts/token/ERC721/ERC721.sol\":3928:4081  function isApprovedForAll(address owner, address operator) public view virtual returns (bool) {... */\n    tag_100:\n        /* \"@openzeppelin/contracts/token/ERC721/ERC721.sol\":4016:4020  bool */\n      0x00\n        /* \"@openzeppelin/contracts/token/ERC721/ERC721.sol\":4039:4057  _operatorApprovals */\n      0x05\n        /* \"@openzeppelin/contracts/token/ERC721/ERC721.sol\":4039:4064  _operatorApprovals[owner] */\n      0x00\n        /* \"@openzeppelin/contracts/token/ERC721/ERC721.sol\":4058:4063  owner */\n      dup5\n        /* \"@openzeppelin/contracts/token/ERC721/ERC721.sol\":4039:4064  _operatorApprovals[owner] */\n      0xffffffffffffffffffffffffffffffffffffffff\n      and\n      0xffffffffffffffffffffffffffffffffffffffff\n      and\n      dup2\n      mstore\n      0x20\n      add\n      swap1\n      dup2\n      mstore\n      0x20\n      add\n      0x00\n      keccak256\n        /* \"@openzeppelin/contracts/token/ERC721/ERC721.sol\":4039:4074  _operatorApprovals[owner][operator] */\n      0x00\n        /* \"@openzeppelin/contracts/token/ERC721/ERC721.sol\":4065:4073  operator */\n      dup4\n        /* \"@openzeppelin/contracts/token/ERC721/ERC721.sol\":4039:4074  _operatorApprovals[owner][operator] */\n      0xffffffffffffffffffffffffffffffffffffffff\n      and\n      0xffffffffffffffffffffffffffffffffffffffff\n      and\n      dup2\n      mstore\n      0x20\n      add\n      swap1\n      dup2\n      mstore\n      0x20\n      add\n      0x00\n      keccak256\n      0x00\n      swap1\n      sload\n      swap1\n      0x0100\n      exp\n      swap1\n      div\n      0xff\n      and\n        /* \"@openzeppelin/contracts/token/ERC721/ERC721.sol\":4032:4074  return _operatorApprovals[owner][operator] */\n      swap1\n      pop\n        /* \"@openzeppelin/contracts/token/ERC721/ERC721.sol\":3928:4081  function isApprovedForAll(address owner, address operator) public view virtual returns (bool) {... */\n      swap3\n      swap2\n      pop\n      pop\n      jump\t// out\n        /* \"@openzeppelin/contracts/token/ERC721/ERC721.sol\":1561:1861  function supportsInterface(bytes4 interfaceId) public view virtual override(ERC165, IERC165) returns (bool) {... */\n    tag_105:\n        /* \"@openzeppelin/contracts/token/ERC721/ERC721.sol\":1663:1667  bool */\n      0x00\n        /* \"@openzeppelin/contracts/token/ERC721/ERC721.sol\":1713:1738  type(IERC721).interfaceId */\n      0x80ac58cd00000000000000000000000000000000000000000000000000000000\n        /* \"@openzeppelin/contracts/token/ERC721/ERC721.sol\":1698:1738  interfaceId == type(IERC721).interfaceId */\n      not(0xffffffffffffffffffffffffffffffffffffffffffffffffffffffff)\n      and\n        /* \"@openzeppelin/contracts/token/ERC721/ERC721.sol\":1698:1709  interfaceId */\n      dup3\n        /* \"@openzeppelin/contracts/token/ERC721/ERC721.sol\":1698:1738  interfaceId == type(IERC721).interfaceId */\n      not(0xffffffffffffffffffffffffffffffffffffffffffffffffffffffff)\n      and\n      eq\n        /* \"@openzeppelin/contracts/token/ERC721/ERC721.sol\":1698:1802  interfaceId == type(IERC721).interfaceId ||... */\n      dup1\n      tag_189\n      jumpi\n      pop\n        /* \"@openzeppelin/contracts/token/ERC721/ERC721.sol\":1769:1802  type(IERC721Metadata).interfaceId */\n      0x5b5e139f00000000000000000000000000000000000000000000000000000000\n        /* \"@openzeppelin/contracts/token/ERC721/ERC721.sol\":1754:1802  interfaceId == type(IERC721Metadata).interfaceId */\n      not(0xffffffffffffffffffffffffffffffffffffffffffffffffffffffff)\n      and\n        /* \"@openzeppelin/contracts/token/ERC721/ERC721.sol\":1754:1765  interfaceId */\n      dup3\n        /* \"@openzeppelin/contracts/token/ERC721/ERC721.sol\":1754:1802  interfaceId == type(IERC721Metadata).interfaceId */\n      not(0xffffffffffffffffffffffffffffffffffffffffffffffffffffffff)\n      and\n      eq\n        /* \"@openzeppelin/contracts/token/ERC721/ERC721.sol\":1698:1802  interfaceId == type(IERC721).interfaceId ||... */\n    tag_189:\n        /* \"@openzeppelin/contracts/token/ERC721/ERC721.sol\":1698:1854  interfaceId == type(IERC721).interfaceId ||... */\n      dup1\n      tag_190\n      jumpi\n      pop\n        /* \"@openzeppelin/contracts/token/ERC721/ERC721.sol\":1818:1854  super.supportsInterface(interfaceId) */\n      tag_191\n        /* \"@openzeppelin/contracts/token/ERC721/ERC721.sol\":1842:1853  interfaceId */\n      dup3\n        /* \"@openzeppelin/contracts/token/ERC721/ERC721.sol\":1818:1841  super.supportsInterface */\n      tag_192\n        /* \"@openzeppelin/contracts/token/ERC721/ERC721.sol\":1818:1854  super.supportsInterface(interfaceId) */\n      jump\t// in\n    tag_191:\n        /* \"@openzeppelin/contracts/token/ERC721/ERC721.sol\":1698:1854  interfaceId == type(IERC721).interfaceId ||... */\n    tag_190:\n        /* \"@openzeppelin/contracts/token/ERC721/ERC721.sol\":1679:1854  return... */\n      swap1\n      pop\n        /* \"@openzeppelin/contracts/token/ERC721/ERC721.sol\":1561:1861  function supportsInterface(bytes4 interfaceId) public view virtual override(ERC165, IERC165) returns (bool) {... */\n      swap2\n      swap1\n      pop\n      jump\t// out\n        /* \"@openzeppelin/contracts/token/ERC721/ERC721.sol\":16138:16379  function _requireOwned(uint256 tokenId) internal view returns (address) {... */\n    tag_115:\n        /* \"@openzeppelin/contracts/token/ERC721/ERC721.sol\":16201:16208  address */\n      0x00\n        /* \"@openzeppelin/contracts/token/ERC721/ERC721.sol\":16220:16233  address owner */\n      dup1\n        /* \"@openzeppelin/contracts/token/ERC721/ERC721.sol\":16236:16253  _ownerOf(tokenId) */\n      tag_194\n        /* \"@openzeppelin/contracts/token/ERC721/ERC721.sol\":16245:16252  tokenId */\n      dup4\n        /* \"@openzeppelin/contracts/token/ERC721/ERC721.sol\":16236:16244  _ownerOf */\n      tag_195\n        /* \"@openzeppelin/contracts/token/ERC721/ERC721.sol\":16236:16253  _ownerOf(tokenId) */\n      jump\t// in\n    tag_194:\n        /* \"@openzeppelin/contracts/token/ERC721/ERC721.sol\":16220:16253  address owner = _ownerOf(tokenId) */\n      swap1\n      pop\n        /* \"@openzeppelin/contracts/token/ERC721/ERC721.sol\":16284:16285  0 */\n      0x00\n        /* \"@openzeppelin/contracts/token/ERC721/ERC721.sol\":16267:16286  owner == address(0) */\n      0xffffffffffffffffffffffffffffffffffffffff\n      and\n        /* \"@openzeppelin/contracts/token/ERC721/ERC721.sol\":16267:16272  owner */\n      dup2\n        /* \"@openzeppelin/contracts/token/ERC721/ERC721.sol\":16267:16286  owner == address(0) */\n      0xffffffffffffffffffffffffffffffffffffffff\n      and\n      sub\n        /* \"@openzeppelin/contracts/token/ERC721/ERC721.sol\":16263:16351  if (owner == address(0)) {... */\n      tag_196\n      jumpi\n        /* \"@openzeppelin/contracts/token/ERC721/ERC721.sol\":16332:16339  tokenId */\n      dup3\n        /* \"@openzeppelin/contracts/token/ERC721/ERC721.sol\":16309:16340  ERC721NonexistentToken(tokenId) */\n      mload(0x40)\n      0x7e27328900000000000000000000000000000000000000000000000000000000\n      dup2\n      mstore\n      0x04\n      add\n      tag_197\n      swap2\n      swap1\n      tag_48\n      jump\t// in\n    tag_197:\n      mload(0x40)\n      dup1\n      swap2\n      sub\n      swap1\n      revert\n        /* \"@openzeppelin/contracts/token/ERC721/ERC721.sol\":16263:16351  if (owner == address(0)) {... */\n    tag_196:\n        /* \"@openzeppelin/contracts/token/ERC721/ERC721.sol\":16367:16372  owner */\n      dup1\n        /* \"@openzeppelin/contracts/token/ERC721/ERC721.sol\":16360:16372  return owner */\n      swap2\n      pop\n      pop\n        /* \"@openzeppelin/contracts/token/ERC721/ERC721.sol\":16138:16379  function _requireOwned(uint256 tokenId) internal view returns (address) {... */\n      swap2\n      swap1\n      pop\n      jump\t// out\n        /* \"@openzeppelin/contracts/token/ERC721/ERC721.sol\":5938:6065  function _getApproved(uint256 tokenId) internal view virtual returns (address) {... */\n    tag_117:\n        /* \"@openzeppelin/contracts/token/ERC721/ERC721.sol\":6008:6015  address */\n      0x00\n        /* \"@openzeppelin/contracts/token/ERC721/ERC721.sol\":6034:6049  _tokenApprovals */\n      0x04\n        /* \"@openzeppelin/contracts/token/ERC721/ERC721.sol\":6034:6058  _tokenApprovals[tokenId] */\n      0x00\n        /* \"@openzeppelin/contracts/token/ERC721/ERC721.sol\":6050:6057  tokenId */\n      dup4\n        /* \"@openzeppelin/contracts/token/ERC721/ERC721.sol\":6034:6058  _tokenApprovals[tokenId] */\n      dup2\n      mstore\n      0x20\n      add\n      swap1\n      dup2\n      mstore\n      0x20\n      add\n      0x00\n      keccak256\n      0x00\n      swap1\n      sload\n      swap1\n      0x0100\n      exp\n      swap1\n      div\n      0xffffffffffffffffffffffffffffffffffffffff\n      and\n        /* \"@openzeppelin/contracts/token/ERC721/ERC721.sol\":6027:6058  return _tokenApprovals[tokenId] */\n      swap1\n      pop\n        /* \"@openzeppelin/contracts/token/ERC721/ERC721.sol\":5938:6065  function _getApproved(uint256 tokenId) internal view virtual returns (address) {... */\n      swap2\n      swap1\n      pop\n      jump\t// out\n        /* \"@openzeppelin/contracts/utils/Context.sol\":656:752  function _msgSender() internal view virtual returns (address) {... */\n    tag_121:\n        /* \"@openzeppelin/contracts/utils/Context.sol\":709:716  address */\n      0x00\n        /* \"@openzeppelin/contracts/utils/Context.sol\":735:745  msg.sender */\n      caller\n        /* \"@openzeppelin/contracts/utils/Context.sol\":728:745  return msg.sender */\n      swap1\n      pop\n        /* \"@openzeppelin/contracts/utils/Context.sol\":656:752  function _msgSender() internal view virtual returns (address) {... */\n      swap1\n      jump\t// out\n        /* \"@openzeppelin/contracts/token/ERC721/ERC721.sol\":14418:14538  function _approve(address to, uint256 tokenId, address auth) internal {... */\n    tag_122:\n        /* \"@openzeppelin/contracts/token/ERC721/ERC721.sol\":14498:14531  _approve(to, tokenId, auth, true) */\n      tag_201\n        /* \"@openzeppelin/contracts/token/ERC721/ERC721.sol\":14507:14509  to */\n      dup4\n        /* \"@openzeppelin/contracts/token/ERC721/ERC721.sol\":14511:14518  tokenId */\n      dup4\n        /* \"@openzeppelin/contracts/token/ERC721/ERC721.sol\":14520:14524  auth */\n      dup4\n        /* \"@openzeppelin/contracts/token/ERC721/ERC721.sol\":14526:14530  true */\n      0x01\n        /* \"@openzeppelin/contracts/token/ERC721/ERC721.sol\":14498:14506  _approve */\n      tag_202\n        /* \"@openzeppelin/contracts/token/ERC721/ERC721.sol\":14498:14531  _approve(to, tokenId, auth, true) */\n      jump\t// in\n    tag_201:\n        /* \"@openzeppelin/contracts/token/ERC721/ERC721.sol\":14418:14538  function _approve(address to, uint256 tokenId, address auth) internal {... */\n      pop\n      pop\n      pop\n      jump\t// out\n        /* \"@openzeppelin/contracts/token/ERC721/extensions/ERC721Enumerable.sol\":2518:3143  function _update(address to, uint256 tokenId, address auth) internal virtual override returns (address) {... */\n    tag_129:\n        /* \"@openzeppelin/contracts/token/ERC721/extensions/ERC721Enumerable.sol\":2613:2620  address */\n      0x00\n        /* \"@openzeppelin/contracts/token/ERC721/extensions/ERC721Enumerable.sol\":2632:2653  address previousOwner */\n      dup1\n        /* \"@openzeppelin/contracts/token/ERC721/extensions/ERC721Enumerable.sol\":2656:2688  super._update(to, tokenId, auth) */\n      tag_204\n        /* \"@openzeppelin/contracts/token/ERC721/extensions/ERC721Enumerable.sol\":2670:2672  to */\n      dup6\n        /* \"@openzeppelin/contracts/token/ERC721/extensions/ERC721Enumerable.sol\":2674:2681  tokenId */\n      dup6\n        /* \"@openzeppelin/contracts/token/ERC721/extensions/ERC721Enumerable.sol\":2683:2687  auth */\n      dup6\n        /* \"@openzeppelin/contracts/token/ERC721/extensions/ERC721Enumerable.sol\":2656:2669  super._update */\n      tag_205\n        /* \"@openzeppelin/contracts/token/ERC721/extensions/ERC721Enumerable.sol\":2656:2688  super._update(to, tokenId, auth) */\n      jump\t// in\n    tag_204:\n        /* \"@openzeppelin/contracts/token/ERC721/extensions/ERC721Enumerable.sol\":2632:2688  address previousOwner = super._update(to, tokenId, auth) */\n      swap1\n      pop\n        /* \"@openzeppelin/contracts/token/ERC721/extensions/ERC721Enumerable.sol\":2728:2729  0 */\n      0x00\n        /* \"@openzeppelin/contracts/token/ERC721/extensions/ERC721Enumerable.sol\":2703:2730  previousOwner == address(0) */\n      0xffffffffffffffffffffffffffffffffffffffff\n      and\n        /* \"@openzeppelin/contracts/token/ERC721/extensions/ERC721Enumerable.sol\":2703:2716  previousOwner */\n      dup2\n        /* \"@openzeppelin/contracts/token/ERC721/extensions/ERC721Enumerable.sol\":2703:2730  previousOwner == address(0) */\n      0xffffffffffffffffffffffffffffffffffffffff\n      and\n      sub\n        /* \"@openzeppelin/contracts/token/ERC721/extensions/ERC721Enumerable.sol\":2699:2909  if (previousOwner == address(0)) {... */\n      tag_206\n      jumpi\n        /* \"@openzeppelin/contracts/token/ERC721/extensions/ERC721Enumerable.sol\":2746:2786  _addTokenToAllTokensEnumeration(tokenId) */\n      tag_207\n        /* \"@openzeppelin/contracts/token/ERC721/extensions/ERC721Enumerable.sol\":2778:2785  tokenId */\n      dup5\n        /* \"@openzeppelin/contracts/token/ERC721/extensions/ERC721Enumerable.sol\":2746:2777  _addTokenToAllTokensEnumeration */\n      tag_208\n        /* \"@openzeppelin/contracts/token/ERC721/extensions/ERC721Enumerable.sol\":2746:2786  _addTokenToAllTokensEnumeration(tokenId) */\n      jump\t// in\n    tag_207:\n        /* \"@openzeppelin/contracts/token/ERC721/extensions/ERC721Enumerable.sol\":2699:2909  if (previousOwner == address(0)) {... */\n      jump(tag_209)\n    tag_206:\n        /* \"@openzeppelin/contracts/token/ERC721/extensions/ERC721Enumerable.sol\":2824:2826  to */\n      dup5\n        /* \"@openzeppelin/contracts/token/ERC721/extensions/ERC721Enumerable.sol\":2807:2826  previousOwner != to */\n      0xffffffffffffffffffffffffffffffffffffffff\n      and\n        /* \"@openzeppelin/contracts/token/ERC721/extensions/ERC721Enumerable.sol\":2807:2820  previousOwner */\n      dup2\n        /* \"@openzeppelin/contracts/token/ERC721/extensions/ERC721Enumerable.sol\":2807:2826  previousOwner != to */\n      0xffffffffffffffffffffffffffffffffffffffff\n      and\n      eq\n        /* \"@openzeppelin/contracts/token/ERC721/extensions/ERC721Enumerable.sol\":2803:2909  if (previousOwner != to) {... */\n      tag_210\n      jumpi\n        /* \"@openzeppelin/contracts/token/ERC721/extensions/ERC721Enumerable.sol\":2842:2898  _removeTokenFromOwnerEnumeration(previousOwner, tokenId) */\n      tag_211\n        /* \"@openzeppelin/contracts/token/ERC721/extensions/ERC721Enumerable.sol\":2875:2888  previousOwner */\n      dup2\n        /* \"@openzeppelin/contracts/token/ERC721/extensions/ERC721Enumerable.sol\":2890:2897  tokenId */\n      dup6\n        /* \"@openzeppelin/contracts/token/ERC721/extensions/ERC721Enumerable.sol\":2842:2874  _removeTokenFromOwnerEnumeration */\n      tag_212\n        /* \"@openzeppelin/contracts/token/ERC721/extensions/ERC721Enumerable.sol\":2842:2898  _removeTokenFromOwnerEnumeration(previousOwner, tokenId) */\n      jump\t// in\n    tag_211:\n        /* \"@openzeppelin/contracts/token/ERC721/extensions/ERC721Enumerable.sol\":2803:2909  if (previousOwner != to) {... */\n    tag_210:\n        /* \"@openzeppelin/contracts/token/ERC721/extensions/ERC721Enumerable.sol\":2699:2909  if (previousOwner == address(0)) {... */\n    tag_209:\n        /* \"@openzeppelin/contracts/token/ERC721/extensions/ERC721Enumerable.sol\":2936:2937  0 */\n      0x00\n        /* \"@openzeppelin/contracts/token/ERC721/extensions/ERC721Enumerable.sol\":2922:2938  to == address(0) */\n      0xffffffffffffffffffffffffffffffffffffffff\n      and\n        /* \"@openzeppelin/contracts/token/ERC721/extensions/ERC721Enumerable.sol\":2922:2924  to */\n      dup6\n        /* \"@openzeppelin/contracts/token/ERC721/extensions/ERC721Enumerable.sol\":2922:2938  to == address(0) */\n      0xffffffffffffffffffffffffffffffffffffffff\n      and\n      sub\n        /* \"@openzeppelin/contracts/token/ERC721/extensions/ERC721Enumerable.sol\":2918:3106  if (to == address(0)) {... */\n      tag_213\n      jumpi\n        /* \"@openzeppelin/contracts/token/ERC721/extensions/ERC721Enumerable.sol\":2954:2999  _removeTokenFromAllTokensEnumeration(tokenId) */\n      tag_214\n        /* \"@openzeppelin/contracts/token/ERC721/extensions/ERC721Enumerable.sol\":2991:2998  tokenId */\n      dup5\n        /* \"@openzeppelin/contracts/token/ERC721/extensions/ERC721Enumerable.sol\":2954:2990  _removeTokenFromAllTokensEnumeration */\n      tag_215\n        /* \"@openzeppelin/contracts/token/ERC721/extensions/ERC721Enumerable.sol\":2954:2999  _removeTokenFromAllTokensEnumeration(tokenId) */\n      jump\t// in\n    tag_214:\n        /* \"@openzeppelin/contracts/token/ERC721/extensions/ERC721Enumerable.sol\":2918:3106  if (to == address(0)) {... */\n      jump(tag_216)\n    tag_213:\n        /* \"@openzeppelin/contracts/token/ERC721/extensions/ERC721Enumerable.sol\":3037:3039  to */\n      dup5\n        /* \"@openzeppelin/contracts/token/ERC721/extensions/ERC721Enumerable.sol\":3020:3039  previousOwner != to */\n      0xffffffffffffffffffffffffffffffffffffffff\n      and\n        /* \"@openzeppelin/contracts/token/ERC721/extensions/ERC721Enumerable.sol\":3020:3033  previousOwner */\n      dup2\n        /* \"@openzeppelin/contracts/token/ERC721/extensions/ERC721Enumerable.sol\":3020:3039  previousOwner != to */\n      0xffffffffffffffffffffffffffffffffffffffff\n      and\n      eq\n        /* \"@openzeppelin/contracts/token/ERC721/extensions/ERC721Enumerable.sol\":3016:3106  if (previousOwner != to) {... */\n      tag_217\n      jumpi\n        /* \"@openzeppelin/contracts/token/ERC721/extensions/ERC721Enumerable.sol\":3055:3095  _addTokenToOwnerEnumeration(to, tokenId) */\n      tag_218\n        /* \"@openzeppelin/contracts/token/ERC721/extensions/ERC721Enumerable.sol\":3083:3085  to */\n      dup6\n        /* \"@openzeppelin/contracts/token/ERC721/extensions/ERC721Enumerable.sol\":3087:3094  tokenId */\n      dup6\n        /* \"@openzeppelin/contracts/token/ERC721/extensions/ERC721Enumerable.sol\":3055:3082  _addTokenToOwnerEnumeration */\n      tag_219\n        /* \"@openzeppelin/contracts/token/ERC721/extensions/ERC721Enumerable.sol\":3055:3095  _addTokenToOwnerEnumeration(to, tokenId) */\n      jump\t// in\n    tag_218:\n        /* \"@openzeppelin/contracts/token/ERC721/extensions/ERC721Enumerable.sol\":3016:3106  if (previousOwner != to) {... */\n    tag_217:\n        /* \"@openzeppelin/contracts/token/ERC721/extensions/ERC721Enumerable.sol\":2918:3106  if (to == address(0)) {... */\n    tag_216:\n        /* \"@openzeppelin/contracts/token/ERC721/extensions/ERC721Enumerable.sol\":3123:3136  previousOwner */\n      dup1\n        /* \"@openzeppelin/contracts/token/ERC721/extensions/ERC721Enumerable.sol\":3116:3136  return previousOwner */\n      swap2\n      pop\n      pop\n        /* \"@openzeppelin/contracts/token/ERC721/extensions/ERC721Enumerable.sol\":2518:3143  function _update(address to, uint256 tokenId, address auth) internal virtual override returns (address) {... */\n      swap4\n      swap3\n      pop\n      pop\n      pop\n      jump\t// out\n        /* \"@openzeppelin/contracts/token/ERC721/ERC721.sol\":15591:15903  function _setApprovalForAll(address owner, address operator, bool approved) internal virtual {... */\n    tag_163:\n        /* \"@openzeppelin/contracts/token/ERC721/ERC721.sol\":15718:15719  0 */\n      0x00\n        /* \"@openzeppelin/contracts/token/ERC721/ERC721.sol\":15698:15720  operator == address(0) */\n      0xffffffffffffffffffffffffffffffffffffffff\n      and\n        /* \"@openzeppelin/contracts/token/ERC721/ERC721.sol\":15698:15706  operator */\n      dup3\n        /* \"@openzeppelin/contracts/token/ERC721/ERC721.sol\":15698:15720  operator == address(0) */\n      0xffffffffffffffffffffffffffffffffffffffff\n      and\n      sub\n        /* \"@openzeppelin/contracts/token/ERC721/ERC721.sol\":15694:15785  if (operator == address(0)) {... */\n      tag_221\n      jumpi\n        /* \"@openzeppelin/contracts/token/ERC721/ERC721.sol\":15765:15773  operator */\n      dup2\n        /* \"@openzeppelin/contracts/token/ERC721/ERC721.sol\":15743:15774  ERC721InvalidOperator(operator) */\n      mload(0x40)\n      0x5b08ba1800000000000000000000000000000000000000000000000000000000\n      dup2\n      mstore\n      0x04\n      add\n      tag_222\n      swap2\n      swap1\n      tag_40\n      jump\t// in\n    tag_222:\n      mload(0x40)\n      dup1\n      swap2\n      sub\n      swap1\n      revert\n        /* \"@openzeppelin/contracts/token/ERC721/ERC721.sol\":15694:15785  if (operator == address(0)) {... */\n    tag_221:\n        /* \"@openzeppelin/contracts/token/ERC721/ERC721.sol\":15832:15840  approved */\n      dup1\n        /* \"@openzeppelin/contracts/token/ERC721/ERC721.sol\":15794:15812  _operatorApprovals */\n      0x05\n        /* \"@openzeppelin/contracts/token/ERC721/ERC721.sol\":15794:15819  _operatorApprovals[owner] */\n      0x00\n        /* \"@openzeppelin/contracts/token/ERC721/ERC721.sol\":15813:15818  owner */\n      dup6\n        /* \"@openzeppelin/contracts/token/ERC721/ERC721.sol\":15794:15819  _operatorApprovals[owner] */\n      0xffffffffffffffffffffffffffffffffffffffff\n      and\n      0xffffffffffffffffffffffffffffffffffffffff\n      and\n      dup2\n      mstore\n      0x20\n      add\n      swap1\n      dup2\n      mstore\n      0x20\n      add\n      0x00\n      keccak256\n        /* \"@openzeppelin/contracts/token/ERC721/ERC721.sol\":15794:15829  _operatorApprovals[owner][operator] */\n      0x00\n        /* \"@openzeppelin/contracts/token/ERC721/ERC721.sol\":15820:15828  operator */\n      dup5\n        /* \"@openzeppelin/contracts/token/ERC721/ERC721.sol\":15794:15829  _operatorApprovals[owner][operator] */\n      0xffffffffffffffffffffffffffffffffffffffff\n      and\n      0xffffffffffffffffffffffffffffffffffffffff\n      and\n      dup2\n      mstore\n      0x20\n      add\n      swap1\n      dup2\n      mstore\n      0x20\n      add\n      0x00\n      keccak256\n      0x00\n        /* \"@openzeppelin/contracts/token/ERC721/ERC721.sol\":15794:15840  _operatorApprovals[owner][operator] = approved */\n      0x0100\n      exp\n      dup2\n      sload\n      dup2\n      0xff\n      mul\n      not\n      and\n      swap1\n      dup4\n      iszero\n      iszero\n      mul\n      or\n      swap1\n      sstore\n      pop\n        /* \"@openzeppelin/contracts/token/ERC721/ERC721.sol\":15877:15885  operator */\n      dup2\n        /* \"@openzeppelin/contracts/token/ERC721/ERC721.sol\":15855:15896  ApprovalForAll(owner, operator, approved) */\n      0xffffffffffffffffffffffffffffffffffffffff\n      and\n        /* \"@openzeppelin/contracts/token/ERC721/ERC721.sol\":15870:15875  owner */\n      dup4\n        /* \"@openzeppelin/contracts/token/ERC721/ERC721.sol\":15855:15896  ApprovalForAll(owner, operator, approved) */\n      0xffffffffffffffffffffffffffffffffffffffff\n      and\n      0x17307eab39ab6107e8899845ad3d59bd9653f200f220920489ca2b5937696c31\n        /* \"@openzeppelin/contracts/token/ERC721/ERC721.sol\":15887:15895  approved */\n      dup4\n        /* \"@openzeppelin/contracts/token/ERC721/ERC721.sol\":15855:15896  ApprovalForAll(owner, operator, approved) */\n      mload(0x40)\n      tag_223\n      swap2\n      swap1\n      tag_30\n      jump\t// in\n    tag_223:\n      mload(0x40)\n      dup1\n      swap2\n      sub\n      swap1\n      log3\n        /* \"@openzeppelin/contracts/token/ERC721/ERC721.sol\":15591:15903  function _setApprovalForAll(address owner, address operator, bool approved) internal virtual {... */\n      pop\n      pop\n      pop\n      jump\t// out\n        /* \"@openzeppelin/contracts/token/ERC721/ERC721.sol\":16918:17700  function _checkOnERC721Received(address from, address to, uint256 tokenId, bytes memory data) private {... */\n    tag_167:\n        /* \"@openzeppelin/contracts/token/ERC721/ERC721.sol\":17051:17052  0 */\n      0x00\n        /* \"@openzeppelin/contracts/token/ERC721/ERC721.sol\":17034:17036  to */\n      dup4\n        /* \"@openzeppelin/contracts/token/ERC721/ERC721.sol\":17034:17048  to.code.length */\n      0xffffffffffffffffffffffffffffffffffffffff\n      and\n      extcodesize\n        /* \"@openzeppelin/contracts/token/ERC721/ERC721.sol\":17034:17052  to.code.length > 0 */\n      gt\n        /* \"@openzeppelin/contracts/token/ERC721/ERC721.sol\":17030:17694  if (to.code.length > 0) {... */\n      iszero\n      tag_225\n      jumpi\n        /* \"@openzeppelin/contracts/token/ERC721/ERC721.sol\":17088:17090  to */\n      dup3\n        /* \"@openzeppelin/contracts/token/ERC721/ERC721.sol\":17072:17108  IERC721Receiver(to).onERC721Received */\n      0xffffffffffffffffffffffffffffffffffffffff\n      and\n      0x150b7a02\n        /* \"@openzeppelin/contracts/token/ERC721/ERC721.sol\":17109:17121  _msgSender() */\n      tag_226\n        /* \"@openzeppelin/contracts/token/ERC721/ERC721.sol\":17109:17119  _msgSender */\n      tag_121\n        /* \"@openzeppelin/contracts/token/ERC721/ERC721.sol\":17109:17121  _msgSender() */\n      jump\t// in\n    tag_226:\n        /* \"@openzeppelin/contracts/token/ERC721/ERC721.sol\":17123:17127  from */\n      dup7\n        /* \"@openzeppelin/contracts/token/ERC721/ERC721.sol\":17129:17136  tokenId */\n      dup6\n        /* \"@openzeppelin/contracts/token/ERC721/ERC721.sol\":17138:17142  data */\n      dup6\n        /* \"@openzeppelin/contracts/token/ERC721/ERC721.sol\":17072:17143  IERC721Receiver(to).onERC721Received(_msgSender(), from, tokenId, data) */\n      mload(0x40)\n      dup6\n      0xffffffff\n      and\n      0xe0\n      shl\n      dup2\n      mstore\n      0x04\n      add\n      tag_227\n      swap5\n      swap4\n      swap3\n      swap2\n      swap1\n      tag_228\n      jump\t// in\n    tag_227:\n      0x20\n      mload(0x40)\n      dup1\n      dup4\n      sub\n      dup2\n      0x00\n      dup8\n      gas\n      call\n      swap3\n      pop\n      pop\n      pop\n      dup1\n      iszero\n      tag_229\n      jumpi\n      pop\n      mload(0x40)\n      returndatasize\n      not(0x1f)\n      0x1f\n      dup3\n      add\n      and\n      dup3\n      add\n      dup1\n      0x40\n      mstore\n      pop\n      dup2\n      add\n      swap1\n      tag_230\n      swap2\n      swap1\n      tag_231\n      jump\t// in\n    tag_230:\n      0x01\n    tag_229:\n        /* \"@openzeppelin/contracts/token/ERC721/ERC721.sol\":17068:17684  try IERC721Receiver(to).onERC721Received(_msgSender(), from, tokenId, data) returns (bytes4 retval) {... */\n      tag_232\n      jumpi\n      returndatasize\n      dup1\n      0x00\n      dup2\n      eq\n      tag_237\n      jumpi\n      mload(0x40)\n      swap2\n      pop\n      and(add(returndatasize, 0x3f), not(0x1f))\n      dup3\n      add\n      0x40\n      mstore\n      returndatasize\n      dup3\n      mstore\n      returndatasize\n      0x00\n      0x20\n      dup5\n      add\n      returndatacopy\n      jump(tag_236)\n    tag_237:\n      0x60\n      swap2\n      pop\n    tag_236:\n      pop\n        /* \"@openzeppelin/contracts/token/ERC721/ERC721.sol\":17398:17399  0 */\n      0x00\n        /* \"@openzeppelin/contracts/token/ERC721/ERC721.sol\":17381:17387  reason */\n      dup2\n        /* \"@openzeppelin/contracts/token/ERC721/ERC721.sol\":17381:17394  reason.length */\n      mload\n        /* \"@openzeppelin/contracts/token/ERC721/ERC721.sol\":17381:17399  reason.length == 0 */\n      sub\n        /* \"@openzeppelin/contracts/token/ERC721/ERC721.sol\":17377:17670  if (reason.length == 0) {... */\n      tag_238\n      jumpi\n        /* \"@openzeppelin/contracts/token/ERC721/ERC721.sol\":17452:17454  to */\n      dup4\n        /* \"@openzeppelin/contracts/token/ERC721/ERC721.sol\":17430:17455  ERC721InvalidReceiver(to) */\n      mload(0x40)\n      0x64a0ae9200000000000000000000000000000000000000000000000000000000\n      dup2\n      mstore\n      0x04\n      add\n      tag_239\n      swap2\n      swap1\n      tag_40\n      jump\t// in\n    tag_239:\n      mload(0x40)\n      dup1\n      swap2\n      sub\n      swap1\n      revert\n        /* \"@openzeppelin/contracts/token/ERC721/ERC721.sol\":17377:17670  if (reason.length == 0) {... */\n    tag_238:\n        /* \"@openzeppelin/contracts/token/ERC721/ERC721.sol\":17622:17628  reason */\n      dup1\n        /* \"@openzeppelin/contracts/token/ERC721/ERC721.sol\":17616:17629  mload(reason) */\n      mload\n        /* \"@openzeppelin/contracts/token/ERC721/ERC721.sol\":17607:17613  reason */\n      dup2\n        /* \"@openzeppelin/contracts/token/ERC721/ERC721.sol\":17603:17605  32 */\n      0x20\n        /* \"@openzeppelin/contracts/token/ERC721/ERC721.sol\":17599:17614  add(32, reason) */\n      add\n        /* \"@openzeppelin/contracts/token/ERC721/ERC721.sol\":17592:17630  revert(add(32, reason), mload(reason)) */\n      revert\n        /* \"@openzeppelin/contracts/token/ERC721/ERC721.sol\":17068:17684  try IERC721Receiver(to).onERC721Received(_msgSender(), from, tokenId, data) returns (bytes4 retval) {... */\n    tag_232:\n        /* \"@openzeppelin/contracts/token/ERC721/ERC721.sol\":17200:17241  IERC721Receiver.onERC721Received.selector */\n      shl(0xe0, 0x150b7a02)\n        /* \"@openzeppelin/contracts/token/ERC721/ERC721.sol\":17190:17241  retval != IERC721Receiver.onERC721Received.selector */\n      not(0xffffffffffffffffffffffffffffffffffffffffffffffffffffffff)\n      and\n        /* \"@openzeppelin/contracts/token/ERC721/ERC721.sol\":17190:17196  retval */\n      dup2\n        /* \"@openzeppelin/contracts/token/ERC721/ERC721.sol\":17190:17241  retval != IERC721Receiver.onERC721Received.selector */\n      not(0xffffffffffffffffffffffffffffffffffffffffffffffffffffffff)\n      and\n      eq\n        /* \"@openzeppelin/contracts/token/ERC721/ERC721.sol\":17186:17316  if (retval != IERC721Receiver.onERC721Received.selector) {... */\n      tag_242\n      jumpi\n        /* \"@openzeppelin/contracts/token/ERC721/ERC721.sol\":17294:17296  to */\n      dup4\n        /* \"@openzeppelin/contracts/token/ERC721/ERC721.sol\":17272:17297  ERC721InvalidReceiver(to) */\n      mload(0x40)\n      0x64a0ae9200000000000000000000000000000000000000000000000000000000\n      dup2\n      mstore\n      0x04\n      add\n      tag_243\n      swap2\n      swap1\n      tag_40\n      jump\t// in\n    tag_243:\n      mload(0x40)\n      dup1\n      swap2\n      sub\n      swap1\n      revert\n        /* \"@openzeppelin/contracts/token/ERC721/ERC721.sol\":17186:17316  if (retval != IERC721Receiver.onERC721Received.selector) {... */\n    tag_242:\n        /* \"@openzeppelin/contracts/token/ERC721/ERC721.sol\":17144:17330  returns (bytes4 retval) {... */\n      pop\n        /* \"@openzeppelin/contracts/token/ERC721/ERC721.sol\":17030:17694  if (to.code.length > 0) {... */\n    tag_225:\n        /* \"@openzeppelin/contracts/token/ERC721/ERC721.sol\":16918:17700  function _checkOnERC721Received(address from, address to, uint256 tokenId, bytes memory data) private {... */\n      pop\n      pop\n      pop\n      pop\n      jump\t// out\n        /* \"@openzeppelin/contracts/token/ERC721/ERC721.sol\":9955:10282  function _mint(address to, uint256 tokenId) internal {... */\n    tag_180:\n        /* \"@openzeppelin/contracts/token/ERC721/ERC721.sol\":10036:10037  0 */\n      0x00\n        /* \"@openzeppelin/contracts/token/ERC721/ERC721.sol\":10022:10038  to == address(0) */\n      0xffffffffffffffffffffffffffffffffffffffff\n      and\n        /* \"@openzeppelin/contracts/token/ERC721/ERC721.sol\":10022:10024  to */\n      dup3\n        /* \"@openzeppelin/contracts/token/ERC721/ERC721.sol\":10022:10038  to == address(0) */\n      0xffffffffffffffffffffffffffffffffffffffff\n      and\n      sub\n        /* \"@openzeppelin/contracts/token/ERC721/ERC721.sol\":10018:10105  if (to == address(0)) {... */\n      tag_245\n      jumpi\n        /* \"@openzeppelin/contracts/token/ERC721/ERC721.sol\":10091:10092  0 */\n      0x00\n        /* \"@openzeppelin/contracts/token/ERC721/ERC721.sol\":10061:10094  ERC721InvalidReceiver(address(0)) */\n      mload(0x40)\n      0x64a0ae9200000000000000000000000000000000000000000000000000000000\n      dup2\n      mstore\n      0x04\n      add\n      tag_246\n      swap2\n      swap1\n      tag_40\n      jump\t// in\n    tag_246:\n      mload(0x40)\n      dup1\n      swap2\n      sub\n      swap1\n      revert\n        /* \"@openzeppelin/contracts/token/ERC721/ERC721.sol\":10018:10105  if (to == address(0)) {... */\n    tag_245:\n        /* \"@openzeppelin/contracts/token/ERC721/ERC721.sol\":10114:10135  address previousOwner */\n      0x00\n        /* \"@openzeppelin/contracts/token/ERC721/ERC721.sol\":10138:10170  _update(to, tokenId, address(0)) */\n      tag_247\n        /* \"@openzeppelin/contracts/token/ERC721/ERC721.sol\":10146:10148  to */\n      dup4\n        /* \"@openzeppelin/contracts/token/ERC721/ERC721.sol\":10150:10157  tokenId */\n      dup4\n        /* \"@openzeppelin/contracts/token/ERC721/ERC721.sol\":10167:10168  0 */\n      0x00\n        /* \"@openzeppelin/contracts/token/ERC721/ERC721.sol\":10138:10145  _update */\n      tag_129\n        /* \"@openzeppelin/contracts/token/ERC721/ERC721.sol\":10138:10170  _update(to, tokenId, address(0)) */\n      jump\t// in\n    tag_247:\n        /* \"@openzeppelin/contracts/token/ERC721/ERC721.sol\":10114:10170  address previousOwner = _update(to, tokenId, address(0)) */\n      swap1\n      pop\n        /* \"@openzeppelin/contracts/token/ERC721/ERC721.sol\":10209:10210  0 */\n      0x00\n        /* \"@openzeppelin/contracts/token/ERC721/ERC721.sol\":10184:10211  previousOwner != address(0) */\n      0xffffffffffffffffffffffffffffffffffffffff\n      and\n        /* \"@openzeppelin/contracts/token/ERC721/ERC721.sol\":10184:10197  previousOwner */\n      dup2\n        /* \"@openzeppelin/contracts/token/ERC721/ERC721.sol\":10184:10211  previousOwner != address(0) */\n      0xffffffffffffffffffffffffffffffffffffffff\n      and\n      eq\n        /* \"@openzeppelin/contracts/token/ERC721/ERC721.sol\":10180:10276  if (previousOwner != address(0)) {... */\n      tag_248\n      jumpi\n        /* \"@openzeppelin/contracts/token/ERC721/ERC721.sol\":10262:10263  0 */\n      0x00\n        /* \"@openzeppelin/contracts/token/ERC721/ERC721.sol\":10234:10265  ERC721InvalidSender(address(0)) */\n      mload(0x40)\n      0x73c6ac6e00000000000000000000000000000000000000000000000000000000\n      dup2\n      mstore\n      0x04\n      add\n      tag_249\n      swap2\n      swap1\n      tag_40\n      jump\t// in\n    tag_249:\n      mload(0x40)\n      dup1\n      swap2\n      sub\n      swap1\n      revert\n        /* \"@openzeppelin/contracts/token/ERC721/ERC721.sol\":10180:10276  if (previousOwner != address(0)) {... */\n    tag_248:\n        /* \"@openzeppelin/contracts/token/ERC721/ERC721.sol\":10008:10282  {... */\n      pop\n        /* \"@openzeppelin/contracts/token/ERC721/ERC721.sol\":9955:10282  function _mint(address to, uint256 tokenId) internal {... */\n      pop\n      pop\n      jump\t// out\n        /* \"@openzeppelin/contracts/utils/Strings.sol\":637:1335  function toString(uint256 value) internal pure returns (string memory) {... */\n    tag_184:\n        /* \"@openzeppelin/contracts/utils/Strings.sol\":693:706  string memory */\n      0x60\n        /* \"@openzeppelin/contracts/utils/Strings.sol\":742:756  uint256 length */\n      0x00\n        /* \"@openzeppelin/contracts/utils/Strings.sol\":779:780  1 */\n      0x01\n        /* \"@openzeppelin/contracts/utils/Strings.sol\":759:776  Math.log10(value) */\n      tag_251\n        /* \"@openzeppelin/contracts/utils/Strings.sol\":770:775  value */\n      dup5\n        /* \"@openzeppelin/contracts/utils/Strings.sol\":759:769  Math.log10 */\n      tag_252\n        /* \"@openzeppelin/contracts/utils/Strings.sol\":759:776  Math.log10(value) */\n      jump\t// in\n    tag_251:\n        /* \"@openzeppelin/contracts/utils/Strings.sol\":759:780  Math.log10(value) + 1 */\n      add\n        /* \"@openzeppelin/contracts/utils/Strings.sol\":742:780  uint256 length = Math.log10(value) + 1 */\n      swap1\n      pop\n        /* \"@openzeppelin/contracts/utils/Strings.sol\":794:814  string memory buffer */\n      0x00\n        /* \"@openzeppelin/contracts/utils/Strings.sol\":828:834  length */\n      dup2\n        /* \"@openzeppelin/contracts/utils/Strings.sol\":817:835  new string(length) */\n      0xffffffffffffffff\n      dup2\n      gt\n      iszero\n      tag_253\n      jumpi\n      tag_254\n      tag_255\n      jump\t// in\n    tag_254:\n    tag_253:\n      mload(0x40)\n      swap1\n      dup1\n      dup3\n      mstore\n      dup1\n      0x1f\n      add\n      not(0x1f)\n      and\n      0x20\n      add\n      dup3\n      add\n      0x40\n      mstore\n      dup1\n      iszero\n      tag_256\n      jumpi\n      dup2\n      0x20\n      add\n      0x01\n      dup3\n      mul\n      dup1\n      calldatasize\n      dup4\n      calldatacopy\n      dup1\n      dup3\n      add\n      swap2\n      pop\n      pop\n      swap1\n      pop\n    tag_256:\n      pop\n        /* \"@openzeppelin/contracts/utils/Strings.sol\":794:835  string memory buffer = new string(length) */\n      swap1\n      pop\n        /* \"@openzeppelin/contracts/utils/Strings.sol\":849:860  uint256 ptr */\n      0x00\n        /* \"@openzeppelin/contracts/utils/Strings.sol\":975:981  length */\n      dup3\n        /* \"@openzeppelin/contracts/utils/Strings.sol\":971:973  32 */\n      0x20\n        /* \"@openzeppelin/contracts/utils/Strings.sol\":967:982  add(32, length) */\n      add\n        /* \"@openzeppelin/contracts/utils/Strings.sol\":959:965  buffer */\n      dup3\n        /* \"@openzeppelin/contracts/utils/Strings.sol\":955:983  add(buffer, add(32, length)) */\n      add\n        /* \"@openzeppelin/contracts/utils/Strings.sol\":948:983  ptr := add(buffer, add(32, length)) */\n      swap1\n      pop\n        /* \"@openzeppelin/contracts/utils/Strings.sol\":1010:1292  while (true) {... */\n    tag_257:\n        /* \"@openzeppelin/contracts/utils/Strings.sol\":1017:1021  true */\n      0x01\n        /* \"@openzeppelin/contracts/utils/Strings.sol\":1010:1292  while (true) {... */\n      iszero\n      tag_258\n      jumpi\n        /* \"@openzeppelin/contracts/utils/Strings.sol\":1041:1046  ptr-- */\n      dup1\n      dup1\n      0x01\n      swap1\n      sub\n      swap2\n      pop\n      pop\n        /* \"@openzeppelin/contracts/utils/Strings.sol\":1180:1190  HEX_DIGITS */\n      0x3031323334353637383961626364656600000000000000000000000000000000\n        /* \"@openzeppelin/contracts/utils/Strings.sol\":1175:1177  10 */\n      0x0a\n        /* \"@openzeppelin/contracts/utils/Strings.sol\":1168:1173  value */\n      dup7\n        /* \"@openzeppelin/contracts/utils/Strings.sol\":1164:1178  mod(value, 10) */\n      mod\n        /* \"@openzeppelin/contracts/utils/Strings.sol\":1159:1191  byte(mod(value, 10), HEX_DIGITS) */\n      byte\n        /* \"@openzeppelin/contracts/utils/Strings.sol\":1154:1157  ptr */\n      dup2\n        /* \"@openzeppelin/contracts/utils/Strings.sol\":1146:1192  mstore8(ptr, byte(mod(value, 10), HEX_DIGITS)) */\n      mstore8\n        /* \"@openzeppelin/contracts/utils/Strings.sol\":1236:1238  10 */\n      0x0a\n        /* \"@openzeppelin/contracts/utils/Strings.sol\":1227:1238  value /= 10 */\n      dup6\n      dup2\n      tag_259\n      jumpi\n      tag_260\n      tag_261\n      jump\t// in\n    tag_260:\n    tag_259:\n      div\n      swap5\n      pop\n        /* \"@openzeppelin/contracts/utils/Strings.sol\":1269:1270  0 */\n      0x00\n        /* \"@openzeppelin/contracts/utils/Strings.sol\":1260:1265  value */\n      dup6\n        /* \"@openzeppelin/contracts/utils/Strings.sol\":1260:1270  value == 0 */\n      sub\n        /* \"@openzeppelin/contracts/utils/Strings.sol\":1010:1292  while (true) {... */\n      tag_257\n        /* \"@openzeppelin/contracts/utils/Strings.sol\":1256:1277  if (value == 0) break */\n      jumpi\n        /* \"@openzeppelin/contracts/utils/Strings.sol\":1010:1292  while (true) {... */\n    tag_258:\n        /* \"@openzeppelin/contracts/utils/Strings.sol\":1312:1318  buffer */\n      dup2\n        /* \"@openzeppelin/contracts/utils/Strings.sol\":1305:1318  return buffer */\n      swap4\n      pop\n      pop\n      pop\n      pop\n        /* \"@openzeppelin/contracts/utils/Strings.sol\":637:1335  function toString(uint256 value) internal pure returns (string memory) {... */\n      swap2\n      swap1\n      pop\n      jump\t// out\n        /* \"@openzeppelin/contracts/utils/introspection/ERC165.sol\":762:908  function supportsInterface(bytes4 interfaceId) public view virtual returns (bool) {... */\n    tag_192:\n        /* \"@openzeppelin/contracts/utils/introspection/ERC165.sol\":838:842  bool */\n      0x00\n        /* \"@openzeppelin/contracts/utils/introspection/ERC165.sol\":876:901  type(IERC165).interfaceId */\n      0x01ffc9a700000000000000000000000000000000000000000000000000000000\n        /* \"@openzeppelin/contracts/utils/introspection/ERC165.sol\":861:901  interfaceId == type(IERC165).interfaceId */\n      not(0xffffffffffffffffffffffffffffffffffffffffffffffffffffffff)\n      and\n        /* \"@openzeppelin/contracts/utils/introspection/ERC165.sol\":861:872  interfaceId */\n      dup3\n        /* \"@openzeppelin/contracts/utils/introspection/ERC165.sol\":861:901  interfaceId == type(IERC165).interfaceId */\n      not(0xffffffffffffffffffffffffffffffffffffffffffffffffffffffff)\n      and\n      eq\n        /* \"@openzeppelin/contracts/utils/introspection/ERC165.sol\":854:901  return interfaceId == type(IERC165).interfaceId */\n      swap1\n      pop\n        /* \"@openzeppelin/contracts/utils/introspection/ERC165.sol\":762:908  function supportsInterface(bytes4 interfaceId) public view virtual returns (bool) {... */\n      swap2\n      swap1\n      pop\n      jump\t// out\n        /* \"@openzeppelin/contracts/token/ERC721/ERC721.sol\":5707:5822  function _ownerOf(uint256 tokenId) internal view virtual returns (address) {... */\n    tag_195:\n        /* \"@openzeppelin/contracts/token/ERC721/ERC721.sol\":5773:5780  address */\n      0x00\n        /* \"@openzeppelin/contracts/token/ERC721/ERC721.sol\":5799:5806  _owners */\n      0x02\n        /* \"@openzeppelin/contracts/token/ERC721/ERC721.sol\":5799:5815  _owners[tokenId] */\n      0x00\n        /* \"@openzeppelin/contracts/token/ERC721/ERC721.sol\":5807:5814  tokenId */\n      dup4\n        /* \"@openzeppelin/contracts/token/ERC721/ERC721.sol\":5799:5815  _owners[tokenId] */\n      dup2\n      mstore\n      0x20\n      add\n      swap1\n      dup2\n      mstore\n      0x20\n      add\n      0x00\n      keccak256\n      0x00\n      swap1\n      sload\n      swap1\n      0x0100\n      exp\n      swap1\n      div\n      0xffffffffffffffffffffffffffffffffffffffff\n      and\n        /* \"@openzeppelin/contracts/token/ERC721/ERC721.sol\":5792:5815  return _owners[tokenId] */\n      swap1\n      pop\n        /* \"@openzeppelin/contracts/token/ERC721/ERC721.sol\":5707:5822  function _ownerOf(uint256 tokenId) internal view virtual returns (address) {... */\n      swap2\n      swap1\n      pop\n      jump\t// out\n        /* \"@openzeppelin/contracts/token/ERC721/ERC721.sol\":14720:15382  function _approve(address to, uint256 tokenId, address auth, bool emitEvent) internal virtual {... */\n    tag_202:\n        /* \"@openzeppelin/contracts/token/ERC721/ERC721.sol\":14880:14889  emitEvent */\n      dup1\n        /* \"@openzeppelin/contracts/token/ERC721/ERC721.sol\":14880:14911  emitEvent || auth != address(0) */\n      dup1\n      tag_266\n      jumpi\n      pop\n        /* \"@openzeppelin/contracts/token/ERC721/ERC721.sol\":14909:14910  0 */\n      0x00\n        /* \"@openzeppelin/contracts/token/ERC721/ERC721.sol\":14893:14911  auth != address(0) */\n      0xffffffffffffffffffffffffffffffffffffffff\n      and\n        /* \"@openzeppelin/contracts/token/ERC721/ERC721.sol\":14893:14897  auth */\n      dup3\n        /* \"@openzeppelin/contracts/token/ERC721/ERC721.sol\":14893:14911  auth != address(0) */\n      0xffffffffffffffffffffffffffffffffffffffff\n      and\n      eq\n      iszero\n        /* \"@openzeppelin/contracts/token/ERC721/ERC721.sol\":14880:14911  emitEvent || auth != address(0) */\n    tag_266:\n        /* \"@openzeppelin/contracts/token/ERC721/ERC721.sol\":14876:15336  if (emitEvent || auth != address(0)) {... */\n      iszero\n      tag_267\n      jumpi\n        /* \"@openzeppelin/contracts/token/ERC721/ERC721.sol\":14927:14940  address owner */\n      0x00\n        /* \"@openzeppelin/contracts/token/ERC721/ERC721.sol\":14943:14965  _requireOwned(tokenId) */\n      tag_268\n        /* \"@openzeppelin/contracts/token/ERC721/ERC721.sol\":14957:14964  tokenId */\n      dup5\n        /* \"@openzeppelin/contracts/token/ERC721/ERC721.sol\":14943:14956  _requireOwned */\n      tag_115\n        /* \"@openzeppelin/contracts/token/ERC721/ERC721.sol\":14943:14965  _requireOwned(tokenId) */\n      jump\t// in\n    tag_268:\n        /* \"@openzeppelin/contracts/token/ERC721/ERC721.sol\":14927:14965  address owner = _requireOwned(tokenId) */\n      swap1\n      pop\n        /* \"@openzeppelin/contracts/token/ERC721/ERC721.sol\":15109:15110  0 */\n      0x00\n        /* \"@openzeppelin/contracts/token/ERC721/ERC721.sol\":15093:15111  auth != address(0) */\n      0xffffffffffffffffffffffffffffffffffffffff\n      and\n        /* \"@openzeppelin/contracts/token/ERC721/ERC721.sol\":15093:15097  auth */\n      dup4\n        /* \"@openzeppelin/contracts/token/ERC721/ERC721.sol\":15093:15111  auth != address(0) */\n      0xffffffffffffffffffffffffffffffffffffffff\n      and\n      eq\n      iszero\n        /* \"@openzeppelin/contracts/token/ERC721/ERC721.sol\":15093:15128  auth != address(0) && owner != auth */\n      dup1\n      iszero\n      tag_269\n      jumpi\n      pop\n        /* \"@openzeppelin/contracts/token/ERC721/ERC721.sol\":15124:15128  auth */\n      dup3\n        /* \"@openzeppelin/contracts/token/ERC721/ERC721.sol\":15115:15128  owner != auth */\n      0xffffffffffffffffffffffffffffffffffffffff\n      and\n        /* \"@openzeppelin/contracts/token/ERC721/ERC721.sol\":15115:15120  owner */\n      dup2\n        /* \"@openzeppelin/contracts/token/ERC721/ERC721.sol\":15115:15128  owner != auth */\n      0xffffffffffffffffffffffffffffffffffffffff\n      and\n      eq\n      iszero\n        /* \"@openzeppelin/contracts/token/ERC721/ERC721.sol\":15093:15128  auth != address(0) && owner != auth */\n    tag_269:\n        /* \"@openzeppelin/contracts/token/ERC721/ERC721.sol\":15093:15162  auth != address(0) && owner != auth && !isApprovedForAll(owner, auth) */\n      dup1\n      iszero\n      tag_270\n      jumpi\n      pop\n        /* \"@openzeppelin/contracts/token/ERC721/ERC721.sol\":15133:15162  isApprovedForAll(owner, auth) */\n      tag_271\n        /* \"@openzeppelin/contracts/token/ERC721/ERC721.sol\":15150:15155  owner */\n      dup2\n        /* \"@openzeppelin/contracts/token/ERC721/ERC721.sol\":15157:15161  auth */\n      dup5\n        /* \"@openzeppelin/contracts/token/ERC721/ERC721.sol\":15133:15149  isApprovedForAll */\n      tag_100\n        /* \"@openzeppelin/contracts/token/ERC721/ERC721.sol\":15133:15162  isApprovedForAll(owner, auth) */\n      jump\t// in\n    tag_271:\n        /* \"@openzeppelin/contracts/token/ERC721/ERC721.sol\":15132:15162  !isApprovedForAll(owner, auth) */\n      iszero\n        /* \"@openzeppelin/contracts/token/ERC721/ERC721.sol\":15093:15162  auth != address(0) && owner != auth && !isApprovedForAll(owner, auth) */\n    tag_270:\n        /* \"@openzeppelin/contracts/token/ERC721/ERC721.sol\":15089:15231  if (auth != address(0) && owner != auth && !isApprovedForAll(owner, auth)) {... */\n      iszero\n      tag_272\n      jumpi\n        /* \"@openzeppelin/contracts/token/ERC721/ERC721.sol\":15211:15215  auth */\n      dup3\n        /* \"@openzeppelin/contracts/token/ERC721/ERC721.sol\":15189:15216  ERC721InvalidApprover(auth) */\n      mload(0x40)\n      0xa9fbf51f00000000000000000000000000000000000000000000000000000000\n      dup2\n      mstore\n      0x04\n      add\n      tag_273\n      swap2\n      swap1\n      tag_40\n      jump\t// in\n    tag_273:\n      mload(0x40)\n      dup1\n      swap2\n      sub\n      swap1\n      revert\n        /* \"@openzeppelin/contracts/token/ERC721/ERC721.sol\":15089:15231  if (auth != address(0) && owner != auth && !isApprovedForAll(owner, auth)) {... */\n    tag_272:\n        /* \"@openzeppelin/contracts/token/ERC721/ERC721.sol\":15249:15258  emitEvent */\n      dup2\n        /* \"@openzeppelin/contracts/token/ERC721/ERC721.sol\":15245:15326  if (emitEvent) {... */\n      iszero\n      tag_274\n      jumpi\n        /* \"@openzeppelin/contracts/token/ERC721/ERC721.sol\":15303:15310  tokenId */\n      dup4\n        /* \"@openzeppelin/contracts/token/ERC721/ERC721.sol\":15299:15301  to */\n      dup6\n        /* \"@openzeppelin/contracts/token/ERC721/ERC721.sol\":15283:15311  Approval(owner, to, tokenId) */\n      0xffffffffffffffffffffffffffffffffffffffff\n      and\n        /* \"@openzeppelin/contracts/token/ERC721/ERC721.sol\":15292:15297  owner */\n      dup3\n        /* \"@openzeppelin/contracts/token/ERC721/ERC721.sol\":15283:15311  Approval(owner, to, tokenId) */\n      0xffffffffffffffffffffffffffffffffffffffff\n      and\n      0x8c5be1e5ebec7d5bd14f71427d1e84f3dd0314c0f7b2291e5b200ac8c7c3b925\n      mload(0x40)\n      mload(0x40)\n      dup1\n      swap2\n      sub\n      swap1\n      log4\n        /* \"@openzeppelin/contracts/token/ERC721/ERC721.sol\":15245:15326  if (emitEvent) {... */\n    tag_274:\n        /* \"@openzeppelin/contracts/token/ERC721/ERC721.sol\":14913:15336  {... */\n      pop\n        /* \"@openzeppelin/contracts/token/ERC721/ERC721.sol\":14876:15336  if (emitEvent || auth != address(0)) {... */\n    tag_267:\n        /* \"@openzeppelin/contracts/token/ERC721/ERC721.sol\":15373:15375  to */\n      dup4\n        /* \"@openzeppelin/contracts/token/ERC721/ERC721.sol\":15346:15361  _tokenApprovals */\n      0x04\n        /* \"@openzeppelin/contracts/token/ERC721/ERC721.sol\":15346:15370  _tokenApprovals[tokenId] */\n      0x00\n        /* \"@openzeppelin/contracts/token/ERC721/ERC721.sol\":15362:15369  tokenId */\n      dup6\n        /* \"@openzeppelin/contracts/token/ERC721/ERC721.sol\":15346:15370  _tokenApprovals[tokenId] */\n      dup2\n      mstore\n      0x20\n      add\n      swap1\n      dup2\n      mstore\n      0x20\n      add\n      0x00\n      keccak256\n      0x00\n        /* \"@openzeppelin/contracts/token/ERC721/ERC721.sol\":15346:15375  _tokenApprovals[tokenId] = to */\n      0x0100\n      exp\n      dup2\n      sload\n      dup2\n      0xffffffffffffffffffffffffffffffffffffffff\n      mul\n      not\n      and\n      swap1\n      dup4\n      0xffffffffffffffffffffffffffffffffffffffff\n      and\n      mul\n      or\n      swap1\n      sstore\n      pop\n        /* \"@openzeppelin/contracts/token/ERC721/ERC721.sol\":14720:15382  function _approve(address to, uint256 tokenId, address auth, bool emitEvent) internal virtual {... */\n      pop\n      pop\n      pop\n      pop\n      jump\t// out\n        /* \"@openzeppelin/contracts/token/ERC721/ERC721.sol\":8838:9633  function _update(address to, uint256 tokenId, address auth) internal virtual returns (address) {... */\n    tag_205:\n        /* \"@openzeppelin/contracts/token/ERC721/ERC721.sol\":8924:8931  address */\n      0x00\n        /* \"@openzeppelin/contracts/token/ERC721/ERC721.sol\":8943:8955  address from */\n      dup1\n        /* \"@openzeppelin/contracts/token/ERC721/ERC721.sol\":8958:8975  _ownerOf(tokenId) */\n      tag_276\n        /* \"@openzeppelin/contracts/token/ERC721/ERC721.sol\":8967:8974  tokenId */\n      dup5\n        /* \"@openzeppelin/contracts/token/ERC721/ERC721.sol\":8958:8966  _ownerOf */\n      tag_195\n        /* \"@openzeppelin/contracts/token/ERC721/ERC721.sol\":8958:8975  _ownerOf(tokenId) */\n      jump\t// in\n    tag_276:\n        /* \"@openzeppelin/contracts/token/ERC721/ERC721.sol\":8943:8975  address from = _ownerOf(tokenId) */\n      swap1\n      pop\n        /* \"@openzeppelin/contracts/token/ERC721/ERC721.sol\":9051:9052  0 */\n      0x00\n        /* \"@openzeppelin/contracts/token/ERC721/ERC721.sol\":9035:9053  auth != address(0) */\n      0xffffffffffffffffffffffffffffffffffffffff\n      and\n        /* \"@openzeppelin/contracts/token/ERC721/ERC721.sol\":9035:9039  auth */\n      dup4\n        /* \"@openzeppelin/contracts/token/ERC721/ERC721.sol\":9035:9053  auth != address(0) */\n      0xffffffffffffffffffffffffffffffffffffffff\n      and\n      eq\n        /* \"@openzeppelin/contracts/token/ERC721/ERC721.sol\":9031:9117  if (auth != address(0)) {... */\n      tag_277\n      jumpi\n        /* \"@openzeppelin/contracts/token/ERC721/ERC721.sol\":9069:9106  _checkAuthorized(from, auth, tokenId) */\n      tag_278\n        /* \"@openzeppelin/contracts/token/ERC721/ERC721.sol\":9086:9090  from */\n      dup2\n        /* \"@openzeppelin/contracts/token/ERC721/ERC721.sol\":9092:9096  auth */\n      dup5\n        /* \"@openzeppelin/contracts/token/ERC721/ERC721.sol\":9098:9105  tokenId */\n      dup7\n        /* \"@openzeppelin/contracts/token/ERC721/ERC721.sol\":9069:9085  _checkAuthorized */\n      tag_279\n        /* \"@openzeppelin/contracts/token/ERC721/ERC721.sol\":9069:9106  _checkAuthorized(from, auth, tokenId) */\n      jump\t// in\n    tag_278:\n        /* \"@openzeppelin/contracts/token/ERC721/ERC721.sol\":9031:9117  if (auth != address(0)) {... */\n    tag_277:\n        /* \"@openzeppelin/contracts/token/ERC721/ERC721.sol\":9177:9178  0 */\n      0x00\n        /* \"@openzeppelin/contracts/token/ERC721/ERC721.sol\":9161:9179  from != address(0) */\n      0xffffffffffffffffffffffffffffffffffffffff\n      and\n        /* \"@openzeppelin/contracts/token/ERC721/ERC721.sol\":9161:9165  from */\n      dup2\n        /* \"@openzeppelin/contracts/token/ERC721/ERC721.sol\":9161:9179  from != address(0) */\n      0xffffffffffffffffffffffffffffffffffffffff\n      and\n      eq\n        /* \"@openzeppelin/contracts/token/ERC721/ERC721.sol\":9157:9413  if (from != address(0)) {... */\n      tag_280\n      jumpi\n        /* \"@openzeppelin/contracts/token/ERC721/ERC721.sol\":9277:9325  _approve(address(0), tokenId, address(0), false) */\n      tag_281\n        /* \"@openzeppelin/contracts/token/ERC721/ERC721.sol\":9294:9295  0 */\n      0x00\n        /* \"@openzeppelin/contracts/token/ERC721/ERC721.sol\":9298:9305  tokenId */\n      dup6\n        /* \"@openzeppelin/contracts/token/ERC721/ERC721.sol\":9315:9316  0 */\n      0x00\n        /* \"@openzeppelin/contracts/token/ERC721/ERC721.sol\":9319:9324  false */\n      dup1\n        /* \"@openzeppelin/contracts/token/ERC721/ERC721.sol\":9277:9285  _approve */\n      tag_202\n        /* \"@openzeppelin/contracts/token/ERC721/ERC721.sol\":9277:9325  _approve(address(0), tokenId, address(0), false) */\n      jump\t// in\n    tag_281:\n        /* \"@openzeppelin/contracts/token/ERC721/ERC721.sol\":9387:9388  1 */\n      0x01\n        /* \"@openzeppelin/contracts/token/ERC721/ERC721.sol\":9368:9377  _balances */\n      0x03\n        /* \"@openzeppelin/contracts/token/ERC721/ERC721.sol\":9368:9383  _balances[from] */\n      0x00\n        /* \"@openzeppelin/contracts/token/ERC721/ERC721.sol\":9378:9382  from */\n      dup4\n        /* \"@openzeppelin/contracts/token/ERC721/ERC721.sol\":9368:9383  _balances[from] */\n      0xffffffffffffffffffffffffffffffffffffffff\n      and\n      0xffffffffffffffffffffffffffffffffffffffff\n      and\n      dup2\n      mstore\n      0x20\n      add\n      swap1\n      dup2\n      mstore\n      0x20\n      add\n      0x00\n      keccak256\n      0x00\n        /* \"@openzeppelin/contracts/token/ERC721/ERC721.sol\":9368:9388  _balances[from] -= 1 */\n      dup3\n      dup3\n      sload\n      sub\n      swap3\n      pop\n      pop\n      dup2\n      swap1\n      sstore\n      pop\n        /* \"@openzeppelin/contracts/token/ERC721/ERC721.sol\":9157:9413  if (from != address(0)) {... */\n    tag_280:\n        /* \"@openzeppelin/contracts/token/ERC721/ERC721.sol\":9441:9442  0 */\n      0x00\n        /* \"@openzeppelin/contracts/token/ERC721/ERC721.sol\":9427:9443  to != address(0) */\n      0xffffffffffffffffffffffffffffffffffffffff\n      and\n        /* \"@openzeppelin/contracts/token/ERC721/ERC721.sol\":9427:9429  to */\n      dup6\n        /* \"@openzeppelin/contracts/token/ERC721/ERC721.sol\":9427:9443  to != address(0) */\n      0xffffffffffffffffffffffffffffffffffffffff\n      and\n      eq\n        /* \"@openzeppelin/contracts/token/ERC721/ERC721.sol\":9423:9530  if (to != address(0)) {... */\n      tag_282\n      jumpi\n        /* \"@openzeppelin/contracts/token/ERC721/ERC721.sol\":9504:9505  1 */\n      0x01\n        /* \"@openzeppelin/contracts/token/ERC721/ERC721.sol\":9487:9496  _balances */\n      0x03\n        /* \"@openzeppelin/contracts/token/ERC721/ERC721.sol\":9487:9500  _balances[to] */\n      0x00\n        /* \"@openzeppelin/contracts/token/ERC721/ERC721.sol\":9497:9499  to */\n      dup8\n        /* \"@openzeppelin/contracts/token/ERC721/ERC721.sol\":9487:9500  _balances[to] */\n      0xffffffffffffffffffffffffffffffffffffffff\n      and\n      0xffffffffffffffffffffffffffffffffffffffff\n      and\n      dup2\n      mstore\n      0x20\n      add\n      swap1\n      dup2\n      mstore\n      0x20\n      add\n      0x00\n      keccak256\n      0x00\n        /* \"@openzeppelin/contracts/token/ERC721/ERC721.sol\":9487:9505  _balances[to] += 1 */\n      dup3\n      dup3\n      sload\n      add\n      swap3\n      pop\n      pop\n      dup2\n      swap1\n      sstore\n      pop\n        /* \"@openzeppelin/contracts/token/ERC721/ERC721.sol\":9423:9530  if (to != address(0)) {... */\n    tag_282:\n        /* \"@openzeppelin/contracts/token/ERC721/ERC721.sol\":9559:9561  to */\n      dup5\n        /* \"@openzeppelin/contracts/token/ERC721/ERC721.sol\":9540:9547  _owners */\n      0x02\n        /* \"@openzeppelin/contracts/token/ERC721/ERC721.sol\":9540:9556  _owners[tokenId] */\n      0x00\n        /* \"@openzeppelin/contracts/token/ERC721/ERC721.sol\":9548:9555  tokenId */\n      dup7\n        /* \"@openzeppelin/contracts/token/ERC721/ERC721.sol\":9540:9556  _owners[tokenId] */\n      dup2\n      mstore\n      0x20\n      add\n      swap1\n      dup2\n      mstore\n      0x20\n      add\n      0x00\n      keccak256\n      0x00\n        /* \"@openzeppelin/contracts/token/ERC721/ERC721.sol\":9540:9561  _owners[tokenId] = to */\n      0x0100\n      exp\n      dup2\n      sload\n      dup2\n      0xffffffffffffffffffffffffffffffffffffffff\n      mul\n      not\n      and\n      swap1\n      dup4\n      0xffffffffffffffffffffffffffffffffffffffff\n      and\n      mul\n      or\n      swap1\n      sstore\n      pop\n        /* \"@openzeppelin/contracts/token/ERC721/ERC721.sol\":9596:9603  tokenId */\n      dup4\n        /* \"@openzeppelin/contracts/token/ERC721/ERC721.sol\":9592:9594  to */\n      dup6\n        /* \"@openzeppelin/contracts/token/ERC721/ERC721.sol\":9577:9604  Transfer(from, to, tokenId) */\n      0xffffffffffffffffffffffffffffffffffffffff\n      and\n        /* \"@openzeppelin/contracts/token/ERC721/ERC721.sol\":9586:9590  from */\n      dup3\n        /* \"@openzeppelin/contracts/token/ERC721/ERC721.sol\":9577:9604  Transfer(from, to, tokenId) */\n      0xffffffffffffffffffffffffffffffffffffffff\n      and\n      0xddf252ad1be2c89b69c2b068fc378daa952ba7f163c4a11628f55a4df523b3ef\n      mload(0x40)\n      mload(0x40)\n      dup1\n      swap2\n      sub\n      swap1\n      log4\n        /* \"@openzeppelin/contracts/token/ERC721/ERC721.sol\":9622:9626  from */\n      dup1\n        /* \"@openzeppelin/contracts/token/ERC721/ERC721.sol\":9615:9626  return from */\n      swap2\n      pop\n      pop\n        /* \"@openzeppelin/contracts/token/ERC721/ERC721.sol\":8838:9633  function _update(address to, uint256 tokenId, address auth) internal virtual returns (address) {... */\n      swap4\n      swap3\n      pop\n      pop\n      pop\n      jump\t// out\n        /* \"@openzeppelin/contracts/token/ERC721/extensions/ERC721Enumerable.sol\":3846:4007  function _addTokenToAllTokensEnumeration(uint256 tokenId) private {... */\n    tag_208:\n        /* \"@openzeppelin/contracts/token/ERC721/extensions/ERC721Enumerable.sol\":3949:3959  _allTokens */\n      0x08\n        /* \"@openzeppelin/contracts/token/ERC721/extensions/ERC721Enumerable.sol\":3949:3966  _allTokens.length */\n      dup1\n      sload\n      swap1\n      pop\n        /* \"@openzeppelin/contracts/token/ERC721/extensions/ERC721Enumerable.sol\":3922:3937  _allTokensIndex */\n      0x09\n        /* \"@openzeppelin/contracts/token/ERC721/extensions/ERC721Enumerable.sol\":3922:3946  _allTokensIndex[tokenId] */\n      0x00\n        /* \"@openzeppelin/contracts/token/ERC721/extensions/ERC721Enumerable.sol\":3938:3945  tokenId */\n      dup4\n        /* \"@openzeppelin/contracts/token/ERC721/extensions/ERC721Enumerable.sol\":3922:3946  _allTokensIndex[tokenId] */\n      dup2\n      mstore\n      0x20\n      add\n      swap1\n      dup2\n      mstore\n      0x20\n      add\n      0x00\n      keccak256\n        /* \"@openzeppelin/contracts/token/ERC721/extensions/ERC721Enumerable.sol\":3922:3966  _allTokensIndex[tokenId] = _allTokens.length */\n      dup2\n      swap1\n      sstore\n      pop\n        /* \"@openzeppelin/contracts/token/ERC721/extensions/ERC721Enumerable.sol\":3976:3986  _allTokens */\n      0x08\n        /* \"@openzeppelin/contracts/token/ERC721/extensions/ERC721Enumerable.sol\":3992:3999  tokenId */\n      dup2\n        /* \"@openzeppelin/contracts/token/ERC721/extensions/ERC721Enumerable.sol\":3976:4000  _allTokens.push(tokenId) */\n      swap1\n      dup1\n      0x01\n      dup2\n      sload\n      add\n      dup1\n      dup3\n      sstore\n      dup1\n      swap2\n      pop\n      pop\n      0x01\n      swap1\n      sub\n      swap1\n      0x00\n      mstore\n      keccak256(0x00, 0x20)\n      add\n      0x00\n      swap1\n      swap2\n      swap1\n      swap2\n      swap1\n      swap2\n      pop\n      sstore\n        /* \"@openzeppelin/contracts/token/ERC721/extensions/ERC721Enumerable.sol\":3846:4007  function _addTokenToAllTokensEnumeration(uint256 tokenId) private {... */\n      pop\n      jump\t// out\n        /* \"@openzeppelin/contracts/token/ERC721/extensions/ERC721Enumerable.sol\":4624:5583  function _removeTokenFromOwnerEnumeration(address from, uint256 tokenId) private {... */\n    tag_212:\n        /* \"@openzeppelin/contracts/token/ERC721/extensions/ERC721Enumerable.sol\":4886:4908  uint256 lastTokenIndex */\n      0x00\n        /* \"@openzeppelin/contracts/token/ERC721/extensions/ERC721Enumerable.sol\":4911:4926  balanceOf(from) */\n      tag_286\n        /* \"@openzeppelin/contracts/token/ERC721/extensions/ERC721Enumerable.sol\":4921:4925  from */\n      dup4\n        /* \"@openzeppelin/contracts/token/ERC721/extensions/ERC721Enumerable.sol\":4911:4920  balanceOf */\n      tag_71\n        /* \"@openzeppelin/contracts/token/ERC721/extensions/ERC721Enumerable.sol\":4911:4926  balanceOf(from) */\n      jump\t// in\n    tag_286:\n        /* \"@openzeppelin/contracts/token/ERC721/extensions/ERC721Enumerable.sol\":4886:4926  uint256 lastTokenIndex = balanceOf(from) */\n      swap1\n      pop\n        /* \"@openzeppelin/contracts/token/ERC721/extensions/ERC721Enumerable.sol\":4936:4954  uint256 tokenIndex */\n      0x00\n        /* \"@openzeppelin/contracts/token/ERC721/extensions/ERC721Enumerable.sol\":4957:4974  _ownedTokensIndex */\n      0x07\n        /* \"@openzeppelin/contracts/token/ERC721/extensions/ERC721Enumerable.sol\":4957:4983  _ownedTokensIndex[tokenId] */\n      0x00\n        /* \"@openzeppelin/contracts/token/ERC721/extensions/ERC721Enumerable.sol\":4975:4982  tokenId */\n      dup5\n        /* \"@openzeppelin/contracts/token/ERC721/extensions/ERC721Enumerable.sol\":4957:4983  _ownedTokensIndex[tokenId] */\n      dup2\n      mstore\n      0x20\n      add\n      swap1\n      dup2\n      mstore\n      0x20\n      add\n      0x00\n      keccak256\n      sload\n        /* \"@openzeppelin/contracts/token/ERC721/extensions/ERC721Enumerable.sol\":4936:4983  uint256 tokenIndex = _ownedTokensIndex[tokenId] */\n      swap1\n      pop\n        /* \"@openzeppelin/contracts/token/ERC721/extensions/ERC721Enumerable.sol\":5101:5115  lastTokenIndex */\n      dup2\n        /* \"@openzeppelin/contracts/token/ERC721/extensions/ERC721Enumerable.sol\":5087:5097  tokenIndex */\n      dup2\n        /* \"@openzeppelin/contracts/token/ERC721/extensions/ERC721Enumerable.sol\":5087:5115  tokenIndex != lastTokenIndex */\n      eq\n        /* \"@openzeppelin/contracts/token/ERC721/extensions/ERC721Enumerable.sol\":5083:5406  if (tokenIndex != lastTokenIndex) {... */\n      tag_287\n      jumpi\n        /* \"@openzeppelin/contracts/token/ERC721/extensions/ERC721Enumerable.sol\":5131:5150  uint256 lastTokenId */\n      0x00\n        /* \"@openzeppelin/contracts/token/ERC721/extensions/ERC721Enumerable.sol\":5153:5165  _ownedTokens */\n      0x06\n        /* \"@openzeppelin/contracts/token/ERC721/extensions/ERC721Enumerable.sol\":5153:5171  _ownedTokens[from] */\n      0x00\n        /* \"@openzeppelin/contracts/token/ERC721/extensions/ERC721Enumerable.sol\":5166:5170  from */\n      dup7\n        /* \"@openzeppelin/contracts/token/ERC721/extensions/ERC721Enumerable.sol\":5153:5171  _ownedTokens[from] */\n      0xffffffffffffffffffffffffffffffffffffffff\n      and\n      0xffffffffffffffffffffffffffffffffffffffff\n      and\n      dup2\n      mstore\n      0x20\n      add\n      swap1\n      dup2\n      mstore\n      0x20\n      add\n      0x00\n      keccak256\n        /* \"@openzeppelin/contracts/token/ERC721/extensions/ERC721Enumerable.sol\":5153:5187  _ownedTokens[from][lastTokenIndex] */\n      0x00\n        /* \"@openzeppelin/contracts/token/ERC721/extensions/ERC721Enumerable.sol\":5172:5186  lastTokenIndex */\n      dup5\n        /* \"@openzeppelin/contracts/token/ERC721/extensions/ERC721Enumerable.sol\":5153:5187  _ownedTokens[from][lastTokenIndex] */\n      dup2\n      mstore\n      0x20\n      add\n      swap1\n      dup2\n      mstore\n      0x20\n      add\n      0x00\n      keccak256\n      sload\n        /* \"@openzeppelin/contracts/token/ERC721/extensions/ERC721Enumerable.sol\":5131:5187  uint256 lastTokenId = _ownedTokens[from][lastTokenIndex] */\n      swap1\n      pop\n        /* \"@openzeppelin/contracts/token/ERC721/extensions/ERC721Enumerable.sol\":5235:5246  lastTokenId */\n      dup1\n        /* \"@openzeppelin/contracts/token/ERC721/extensions/ERC721Enumerable.sol\":5202:5214  _ownedTokens */\n      0x06\n        /* \"@openzeppelin/contracts/token/ERC721/extensions/ERC721Enumerable.sol\":5202:5220  _ownedTokens[from] */\n      0x00\n        /* \"@openzeppelin/contracts/token/ERC721/extensions/ERC721Enumerable.sol\":5215:5219  from */\n      dup8\n        /* \"@openzeppelin/contracts/token/ERC721/extensions/ERC721Enumerable.sol\":5202:5220  _ownedTokens[from] */\n      0xffffffffffffffffffffffffffffffffffffffff\n      and\n      0xffffffffffffffffffffffffffffffffffffffff\n      and\n      dup2\n      mstore\n      0x20\n      add\n      swap1\n      dup2\n      mstore\n      0x20\n      add\n      0x00\n      keccak256\n        /* \"@openzeppelin/contracts/token/ERC721/extensions/ERC721Enumerable.sol\":5202:5232  _ownedTokens[from][tokenIndex] */\n      0x00\n        /* \"@openzeppelin/contracts/token/ERC721/extensions/ERC721Enumerable.sol\":5221:5231  tokenIndex */\n      dup5\n        /* \"@openzeppelin/contracts/token/ERC721/extensions/ERC721Enumerable.sol\":5202:5232  _ownedTokens[from][tokenIndex] */\n      dup2\n      mstore\n      0x20\n      add\n      swap1\n      dup2\n      mstore\n      0x20\n      add\n      0x00\n      keccak256\n        /* \"@openzeppelin/contracts/token/ERC721/extensions/ERC721Enumerable.sol\":5202:5246  _ownedTokens[from][tokenIndex] = lastTokenId */\n      dup2\n      swap1\n      sstore\n      pop\n        /* \"@openzeppelin/contracts/token/ERC721/extensions/ERC721Enumerable.sol\":5351:5361  tokenIndex */\n      dup2\n        /* \"@openzeppelin/contracts/token/ERC721/extensions/ERC721Enumerable.sol\":5318:5335  _ownedTokensIndex */\n      0x07\n        /* \"@openzeppelin/contracts/token/ERC721/extensions/ERC721Enumerable.sol\":5318:5348  _ownedTokensIndex[lastTokenId] */\n      0x00\n        /* \"@openzeppelin/contracts/token/ERC721/extensions/ERC721Enumerable.sol\":5336:5347  lastTokenId */\n      dup4\n        /* \"@openzeppelin/contracts/token/ERC721/extensions/ERC721Enumerable.sol\":5318:5348  _ownedTokensIndex[lastTokenId] */\n      dup2\n      mstore\n      0x20\n      add\n      swap1\n      dup2\n      mstore\n      0x20\n      add\n      0x00\n      keccak256\n        /* \"@openzeppelin/contracts/token/ERC721/extensions/ERC721Enumerable.sol\":5318:5361  _ownedTokensIndex[lastTokenId] = tokenIndex */\n      dup2\n      swap1\n      sstore\n      pop\n        /* \"@openzeppelin/contracts/token/ERC721/extensions/ERC721Enumerable.sol\":5117:5406  {... */\n      pop\n        /* \"@openzeppelin/contracts/token/ERC721/extensions/ERC721Enumerable.sol\":5083:5406  if (tokenIndex != lastTokenIndex) {... */\n    tag_287:\n        /* \"@openzeppelin/contracts/token/ERC721/extensions/ERC721Enumerable.sol\":5499:5516  _ownedTokensIndex */\n      0x07\n        /* \"@openzeppelin/contracts/token/ERC721/extensions/ERC721Enumerable.sol\":5499:5525  _ownedTokensIndex[tokenId] */\n      0x00\n        /* \"@openzeppelin/contracts/token/ERC721/extensions/ERC721Enumerable.sol\":5517:5524  tokenId */\n      dup5\n        /* \"@openzeppelin/contracts/token/ERC721/extensions/ERC721Enumerable.sol\":5499:5525  _ownedTokensIndex[tokenId] */\n      dup2\n      mstore\n      0x20\n      add\n      swap1\n      dup2\n      mstore\n      0x20\n      add\n      0x00\n      keccak256\n        /* \"@openzeppelin/contracts/token/ERC721/extensions/ERC721Enumerable.sol\":5492:5525  delete _ownedTokensIndex[tokenId] */\n      0x00\n      swap1\n      sstore\n        /* \"@openzeppelin/contracts/token/ERC721/extensions/ERC721Enumerable.sol\":5542:5554  _ownedTokens */\n      0x06\n        /* \"@openzeppelin/contracts/token/ERC721/extensions/ERC721Enumerable.sol\":5542:5560  _ownedTokens[from] */\n      0x00\n        /* \"@openzeppelin/contracts/token/ERC721/extensions/ERC721Enumerable.sol\":5555:5559  from */\n      dup6\n        /* \"@openzeppelin/contracts/token/ERC721/extensions/ERC721Enumerable.sol\":5542:5560  _ownedTokens[from] */\n      0xffffffffffffffffffffffffffffffffffffffff\n      and\n      0xffffffffffffffffffffffffffffffffffffffff\n      and\n      dup2\n      mstore\n      0x20\n      add\n      swap1\n      dup2\n      mstore\n      0x20\n      add\n      0x00\n      keccak256\n        /* \"@openzeppelin/contracts/token/ERC721/extensions/ERC721Enumerable.sol\":5542:5576  _ownedTokens[from][lastTokenIndex] */\n      0x00\n        /* \"@openzeppelin/contracts/token/ERC721/extensions/ERC721Enumerable.sol\":5561:5575  lastTokenIndex */\n      dup4\n        /* \"@openzeppelin/contracts/token/ERC721/extensions/ERC721Enumerable.sol\":5542:5576  _ownedTokens[from][lastTokenIndex] */\n      dup2\n      mstore\n      0x20\n      add\n      swap1\n      dup2\n      mstore\n      0x20\n      add\n      0x00\n      keccak256\n        /* \"@openzeppelin/contracts/token/ERC721/extensions/ERC721Enumerable.sol\":5535:5576  delete _ownedTokens[from][lastTokenIndex] */\n      0x00\n      swap1\n      sstore\n        /* \"@openzeppelin/contracts/token/ERC721/extensions/ERC721Enumerable.sol\":4705:5583  {... */\n      pop\n      pop\n        /* \"@openzeppelin/contracts/token/ERC721/extensions/ERC721Enumerable.sol\":4624:5583  function _removeTokenFromOwnerEnumeration(address from, uint256 tokenId) private {... */\n      pop\n      pop\n      jump\t// out\n        /* \"@openzeppelin/contracts/token/ERC721/extensions/ERC721Enumerable.sol\":5871:6932  function _removeTokenFromAllTokensEnumeration(uint256 tokenId) private {... */\n    tag_215:\n        /* \"@openzeppelin/contracts/token/ERC721/extensions/ERC721Enumerable.sol\":6120:6142  uint256 lastTokenIndex */\n      0x00\n        /* \"@openzeppelin/contracts/token/ERC721/extensions/ERC721Enumerable.sol\":6165:6166  1 */\n      0x01\n        /* \"@openzeppelin/contracts/token/ERC721/extensions/ERC721Enumerable.sol\":6145:6155  _allTokens */\n      0x08\n        /* \"@openzeppelin/contracts/token/ERC721/extensions/ERC721Enumerable.sol\":6145:6162  _allTokens.length */\n      dup1\n      sload\n      swap1\n      pop\n        /* \"@openzeppelin/contracts/token/ERC721/extensions/ERC721Enumerable.sol\":6145:6166  _allTokens.length - 1 */\n      tag_289\n      swap2\n      swap1\n      tag_290\n      jump\t// in\n    tag_289:\n        /* \"@openzeppelin/contracts/token/ERC721/extensions/ERC721Enumerable.sol\":6120:6166  uint256 lastTokenIndex = _allTokens.length - 1 */\n      swap1\n      pop\n        /* \"@openzeppelin/contracts/token/ERC721/extensions/ERC721Enumerable.sol\":6176:6194  uint256 tokenIndex */\n      0x00\n        /* \"@openzeppelin/contracts/token/ERC721/extensions/ERC721Enumerable.sol\":6197:6212  _allTokensIndex */\n      0x09\n        /* \"@openzeppelin/contracts/token/ERC721/extensions/ERC721Enumerable.sol\":6197:6221  _allTokensIndex[tokenId] */\n      0x00\n        /* \"@openzeppelin/contracts/token/ERC721/extensions/ERC721Enumerable.sol\":6213:6220  tokenId */\n      dup5\n        /* \"@openzeppelin/contracts/token/ERC721/extensions/ERC721Enumerable.sol\":6197:6221  _allTokensIndex[tokenId] */\n      dup2\n      mstore\n      0x20\n      add\n      swap1\n      dup2\n      mstore\n      0x20\n      add\n      0x00\n      keccak256\n      sload\n        /* \"@openzeppelin/contracts/token/ERC721/extensions/ERC721Enumerable.sol\":6176:6221  uint256 tokenIndex = _allTokensIndex[tokenId] */\n      swap1\n      pop\n        /* \"@openzeppelin/contracts/token/ERC721/extensions/ERC721Enumerable.sol\":6543:6562  uint256 lastTokenId */\n      0x00\n        /* \"@openzeppelin/contracts/token/ERC721/extensions/ERC721Enumerable.sol\":6565:6575  _allTokens */\n      0x08\n        /* \"@openzeppelin/contracts/token/ERC721/extensions/ERC721Enumerable.sol\":6576:6590  lastTokenIndex */\n      dup4\n        /* \"@openzeppelin/contracts/token/ERC721/extensions/ERC721Enumerable.sol\":6565:6591  _allTokens[lastTokenIndex] */\n      dup2\n      sload\n      dup2\n      lt\n      tag_291\n      jumpi\n      tag_292\n      tag_146\n      jump\t// in\n    tag_292:\n    tag_291:\n      swap1\n      0x00\n      mstore\n      keccak256(0x00, 0x20)\n      add\n      sload\n        /* \"@openzeppelin/contracts/token/ERC721/extensions/ERC721Enumerable.sol\":6543:6591  uint256 lastTokenId = _allTokens[lastTokenIndex] */\n      swap1\n      pop\n        /* \"@openzeppelin/contracts/token/ERC721/extensions/ERC721Enumerable.sol\":6627:6638  lastTokenId */\n      dup1\n        /* \"@openzeppelin/contracts/token/ERC721/extensions/ERC721Enumerable.sol\":6602:6612  _allTokens */\n      0x08\n        /* \"@openzeppelin/contracts/token/ERC721/extensions/ERC721Enumerable.sol\":6613:6623  tokenIndex */\n      dup4\n        /* \"@openzeppelin/contracts/token/ERC721/extensions/ERC721Enumerable.sol\":6602:6624  _allTokens[tokenIndex] */\n      dup2\n      sload\n      dup2\n      lt\n      tag_294\n      jumpi\n      tag_295\n      tag_146\n      jump\t// in\n    tag_295:\n    tag_294:\n      swap1\n      0x00\n      mstore\n      keccak256(0x00, 0x20)\n      add\n        /* \"@openzeppelin/contracts/token/ERC721/extensions/ERC721Enumerable.sol\":6602:6638  _allTokens[tokenIndex] = lastTokenId */\n      dup2\n      swap1\n      sstore\n      pop\n        /* \"@openzeppelin/contracts/token/ERC721/extensions/ERC721Enumerable.sol\":6737:6747  tokenIndex */\n      dup2\n        /* \"@openzeppelin/contracts/token/ERC721/extensions/ERC721Enumerable.sol\":6706:6721  _allTokensIndex */\n      0x09\n        /* \"@openzeppelin/contracts/token/ERC721/extensions/ERC721Enumerable.sol\":6706:6734  _allTokensIndex[lastTokenId] */\n      0x00\n        /* \"@openzeppelin/contracts/token/ERC721/extensions/ERC721Enumerable.sol\":6722:6733  lastTokenId */\n      dup4\n        /* \"@openzeppelin/contracts/token/ERC721/extensions/ERC721Enumerable.sol\":6706:6734  _allTokensIndex[lastTokenId] */\n      dup2\n      mstore\n      0x20\n      add\n      swap1\n      dup2\n      mstore\n      0x20\n      add\n      0x00\n      keccak256\n        /* \"@openzeppelin/contracts/token/ERC721/extensions/ERC721Enumerable.sol\":6706:6747  _allTokensIndex[lastTokenId] = tokenIndex */\n      dup2\n      swap1\n      sstore\n      pop\n        /* \"@openzeppelin/contracts/token/ERC721/extensions/ERC721Enumerable.sol\":6875:6890  _allTokensIndex */\n      0x09\n        /* \"@openzeppelin/contracts/token/ERC721/extensions/ERC721Enumerable.sol\":6875:6899  _allTokensIndex[tokenId] */\n      0x00\n        /* \"@openzeppelin/contracts/token/ERC721/extensions/ERC721Enumerable.sol\":6891:6898  tokenId */\n      dup6\n        /* \"@openzeppelin/contracts/token/ERC721/extensions/ERC721Enumerable.sol\":6875:6899  _allTokensIndex[tokenId] */\n      dup2\n      mstore\n      0x20\n      add\n      swap1\n      dup2\n      mstore\n      0x20\n      add\n      0x00\n      keccak256\n        /* \"@openzeppelin/contracts/token/ERC721/extensions/ERC721Enumerable.sol\":6868:6899  delete _allTokensIndex[tokenId] */\n      0x00\n      swap1\n      sstore\n        /* \"@openzeppelin/contracts/token/ERC721/extensions/ERC721Enumerable.sol\":6909:6919  _allTokens */\n      0x08\n        /* \"@openzeppelin/contracts/token/ERC721/extensions/ERC721Enumerable.sol\":6909:6925  _allTokens.pop() */\n      dup1\n      sload\n      dup1\n      tag_297\n      jumpi\n      tag_298\n      tag_299\n      jump\t// in\n    tag_298:\n    tag_297:\n      0x01\n      swap1\n      sub\n      dup2\n      dup2\n      swap1\n      0x00\n      mstore\n      keccak256(0x00, 0x20)\n      add\n      0x00\n      swap1\n      sstore\n      swap1\n      sstore\n        /* \"@openzeppelin/contracts/token/ERC721/extensions/ERC721Enumerable.sol\":5942:6932  {... */\n      pop\n      pop\n      pop\n        /* \"@openzeppelin/contracts/token/ERC721/extensions/ERC721Enumerable.sol\":5871:6932  function _removeTokenFromAllTokensEnumeration(uint256 tokenId) private {... */\n      pop\n      jump\t// out\n        /* \"@openzeppelin/contracts/token/ERC721/extensions/ERC721Enumerable.sol\":3437:3651  function _addTokenToOwnerEnumeration(address to, uint256 tokenId) private {... */\n    tag_219:\n        /* \"@openzeppelin/contracts/token/ERC721/extensions/ERC721Enumerable.sol\":3521:3535  uint256 length */\n      0x00\n        /* \"@openzeppelin/contracts/token/ERC721/extensions/ERC721Enumerable.sol\":3554:3555  1 */\n      0x01\n        /* \"@openzeppelin/contracts/token/ERC721/extensions/ERC721Enumerable.sol\":3538:3551  balanceOf(to) */\n      tag_302\n        /* \"@openzeppelin/contracts/token/ERC721/extensions/ERC721Enumerable.sol\":3548:3550  to */\n      dup5\n        /* \"@openzeppelin/contracts/token/ERC721/extensions/ERC721Enumerable.sol\":3538:3547  balanceOf */\n      tag_71\n        /* \"@openzeppelin/contracts/token/ERC721/extensions/ERC721Enumerable.sol\":3538:3551  balanceOf(to) */\n      jump\t// in\n    tag_302:\n        /* \"@openzeppelin/contracts/token/ERC721/extensions/ERC721Enumerable.sol\":3538:3555  balanceOf(to) - 1 */\n      tag_303\n      swap2\n      swap1\n      tag_290\n      jump\t// in\n    tag_303:\n        /* \"@openzeppelin/contracts/token/ERC721/extensions/ERC721Enumerable.sol\":3521:3555  uint256 length = balanceOf(to) - 1 */\n      swap1\n      pop\n        /* \"@openzeppelin/contracts/token/ERC721/extensions/ERC721Enumerable.sol\":3592:3599  tokenId */\n      dup2\n        /* \"@openzeppelin/contracts/token/ERC721/extensions/ERC721Enumerable.sol\":3565:3577  _ownedTokens */\n      0x06\n        /* \"@openzeppelin/contracts/token/ERC721/extensions/ERC721Enumerable.sol\":3565:3581  _ownedTokens[to] */\n      0x00\n        /* \"@openzeppelin/contracts/token/ERC721/extensions/ERC721Enumerable.sol\":3578:3580  to */\n      dup6\n        /* \"@openzeppelin/contracts/token/ERC721/extensions/ERC721Enumerable.sol\":3565:3581  _ownedTokens[to] */\n      0xffffffffffffffffffffffffffffffffffffffff\n      and\n      0xffffffffffffffffffffffffffffffffffffffff\n      and\n      dup2\n      mstore\n      0x20\n      add\n      swap1\n      dup2\n      mstore\n      0x20\n      add\n      0x00\n      keccak256\n        /* \"@openzeppelin/contracts/token/ERC721/extensions/ERC721Enumerable.sol\":3565:3589  _ownedTokens[to][length] */\n      0x00\n        /* \"@openzeppelin/contracts/token/ERC721/extensions/ERC721Enumerable.sol\":3582:3588  length */\n      dup4\n        /* \"@openzeppelin/contracts/token/ERC721/extensions/ERC721Enumerable.sol\":3565:3589  _ownedTokens[to][length] */\n      dup2\n      mstore\n      0x20\n      add\n      swap1\n      dup2\n      mstore\n      0x20\n      add\n      0x00\n      keccak256\n        /* \"@openzeppelin/contracts/token/ERC721/extensions/ERC721Enumerable.sol\":3565:3599  _ownedTokens[to][length] = tokenId */\n      dup2\n      swap1\n      sstore\n      pop\n        /* \"@openzeppelin/contracts/token/ERC721/extensions/ERC721Enumerable.sol\":3638:3644  length */\n      dup1\n        /* \"@openzeppelin/contracts/token/ERC721/extensions/ERC721Enumerable.sol\":3609:3626  _ownedTokensIndex */\n      0x07\n        /* \"@openzeppelin/contracts/token/ERC721/extensions/ERC721Enumerable.sol\":3609:3635  _ownedTokensIndex[tokenId] */\n      0x00\n        /* \"@openzeppelin/contracts/token/ERC721/extensions/ERC721Enumerable.sol\":3627:3634  tokenId */\n      dup5\n        /* \"@openzeppelin/contracts/token/ERC721/extensions/ERC721Enumerable.sol\":3609:3635  _ownedTokensIndex[tokenId] */\n      dup2\n      mstore\n      0x20\n      add\n      swap1\n      dup2\n      mstore\n      0x20\n      add\n      0x00\n      keccak256\n        /* \"@openzeppelin/contracts/token/ERC721/extensions/ERC721Enumerable.sol\":3609:3644  _ownedTokensIndex[tokenId] = length */\n      dup2\n      swap1\n      sstore\n      pop\n        /* \"@openzeppelin/contracts/token/ERC721/extensions/ERC721Enumerable.sol\":3511:3651  {... */\n      pop\n        /* \"@openzeppelin/contracts/token/ERC721/extensions/ERC721Enumerable.sol\":3437:3651  function _addTokenToOwnerEnumeration(address to, uint256 tokenId) private {... */\n      pop\n      pop\n      jump\t// out\n        /* \"@openzeppelin/contracts/utils/math/Math.sol\":12214:13130  function log10(uint256 value) internal pure returns (uint256) {... */\n    tag_252:\n        /* \"@openzeppelin/contracts/utils/math/Math.sol\":12267:12274  uint256 */\n      0x00\n        /* \"@openzeppelin/contracts/utils/math/Math.sol\":12286:12300  uint256 result */\n      dup1\n        /* \"@openzeppelin/contracts/utils/math/Math.sol\":12303:12304  0 */\n      0x00\n        /* \"@openzeppelin/contracts/utils/math/Math.sol\":12286:12304  uint256 result = 0 */\n      swap1\n      pop\n        /* \"@openzeppelin/contracts/utils/math/Math.sol\":12351:12359  10 ** 64 */\n      0x184f03e93ff9f4daa797ed6e38ed64bf6a1f010000000000000000\n        /* \"@openzeppelin/contracts/utils/math/Math.sol\":12342:12347  value */\n      dup4\n        /* \"@openzeppelin/contracts/utils/math/Math.sol\":12342:12359  value >= 10 ** 64 */\n      lt\n        /* \"@openzeppelin/contracts/utils/math/Math.sol\":12338:12441  if (value >= 10 ** 64) {... */\n      tag_305\n      jumpi\n        /* \"@openzeppelin/contracts/utils/math/Math.sol\":12388:12396  10 ** 64 */\n      0x184f03e93ff9f4daa797ed6e38ed64bf6a1f010000000000000000\n        /* \"@openzeppelin/contracts/utils/math/Math.sol\":12379:12396  value /= 10 ** 64 */\n      dup4\n      dup2\n      tag_306\n      jumpi\n      tag_307\n      tag_261\n      jump\t// in\n    tag_307:\n    tag_306:\n      div\n      swap3\n      pop\n        /* \"@openzeppelin/contracts/utils/math/Math.sol\":12424:12426  64 */\n      0x40\n        /* \"@openzeppelin/contracts/utils/math/Math.sol\":12414:12426  result += 64 */\n      dup2\n      add\n      swap1\n      pop\n        /* \"@openzeppelin/contracts/utils/math/Math.sol\":12338:12441  if (value >= 10 ** 64) {... */\n    tag_305:\n        /* \"@openzeppelin/contracts/utils/math/Math.sol\":12467:12475  10 ** 32 */\n      0x04ee2d6d415b85acef8100000000\n        /* \"@openzeppelin/contracts/utils/math/Math.sol\":12458:12463  value */\n      dup4\n        /* \"@openzeppelin/contracts/utils/math/Math.sol\":12458:12475  value >= 10 ** 32 */\n      lt\n        /* \"@openzeppelin/contracts/utils/math/Math.sol\":12454:12557  if (value >= 10 ** 32) {... */\n      tag_308\n      jumpi\n        /* \"@openzeppelin/contracts/utils/math/Math.sol\":12504:12512  10 ** 32 */\n      0x04ee2d6d415b85acef8100000000\n        /* \"@openzeppelin/contracts/utils/math/Math.sol\":12495:12512  value /= 10 ** 32 */\n      dup4\n      dup2\n      tag_309\n      jumpi\n      tag_310\n      tag_261\n      jump\t// in\n    tag_310:\n    tag_309:\n      div\n      swap3\n      pop\n        /* \"@openzeppelin/contracts/utils/math/Math.sol\":12540:12542  32 */\n      0x20\n        /* \"@openzeppelin/contracts/utils/math/Math.sol\":12530:12542  result += 32 */\n      dup2\n      add\n      swap1\n      pop\n        /* \"@openzeppelin/contracts/utils/math/Math.sol\":12454:12557  if (value >= 10 ** 32) {... */\n    tag_308:\n        /* \"@openzeppelin/contracts/utils/math/Math.sol\":12583:12591  10 ** 16 */\n      0x2386f26fc10000\n        /* \"@openzeppelin/contracts/utils/math/Math.sol\":12574:12579  value */\n      dup4\n        /* \"@openzeppelin/contracts/utils/math/Math.sol\":12574:12591  value >= 10 ** 16 */\n      lt\n        /* \"@openzeppelin/contracts/utils/math/Math.sol\":12570:12673  if (value >= 10 ** 16) {... */\n      tag_311\n      jumpi\n        /* \"@openzeppelin/contracts/utils/math/Math.sol\":12620:12628  10 ** 16 */\n      0x2386f26fc10000\n        /* \"@openzeppelin/contracts/utils/math/Math.sol\":12611:12628  value /= 10 ** 16 */\n      dup4\n      dup2\n      tag_312\n      jumpi\n      tag_313\n      tag_261\n      jump\t// in\n    tag_313:\n    tag_312:\n      div\n      swap3\n      pop\n        /* \"@openzeppelin/contracts/utils/math/Math.sol\":12656:12658  16 */\n      0x10\n        /* \"@openzeppelin/contracts/utils/math/Math.sol\":12646:12658  result += 16 */\n      dup2\n      add\n      swap1\n      pop\n        /* \"@openzeppelin/contracts/utils/math/Math.sol\":12570:12673  if (value >= 10 ** 16) {... */\n    tag_311:\n        /* \"@openzeppelin/contracts/utils/math/Math.sol\":12699:12706  10 ** 8 */\n      0x05f5e100\n        /* \"@openzeppelin/contracts/utils/math/Math.sol\":12690:12695  value */\n      dup4\n        /* \"@openzeppelin/contracts/utils/math/Math.sol\":12690:12706  value >= 10 ** 8 */\n      lt\n        /* \"@openzeppelin/contracts/utils/math/Math.sol\":12686:12786  if (value >= 10 ** 8) {... */\n      tag_314\n      jumpi\n        /* \"@openzeppelin/contracts/utils/math/Math.sol\":12735:12742  10 ** 8 */\n      0x05f5e100\n        /* \"@openzeppelin/contracts/utils/math/Math.sol\":12726:12742  value /= 10 ** 8 */\n      dup4\n      dup2\n      tag_315\n      jumpi\n      tag_316\n      tag_261\n      jump\t// in\n    tag_316:\n    tag_315:\n      div\n      swap3\n      pop\n        /* \"@openzeppelin/contracts/utils/math/Math.sol\":12770:12771  8 */\n      0x08\n        /* \"@openzeppelin/contracts/utils/math/Math.sol\":12760:12771  result += 8 */\n      dup2\n      add\n      swap1\n      pop\n        /* \"@openzeppelin/contracts/utils/math/Math.sol\":12686:12786  if (value >= 10 ** 8) {... */\n    tag_314:\n        /* \"@openzeppelin/contracts/utils/math/Math.sol\":12812:12819  10 ** 4 */\n      0x2710\n        /* \"@openzeppelin/contracts/utils/math/Math.sol\":12803:12808  value */\n      dup4\n        /* \"@openzeppelin/contracts/utils/math/Math.sol\":12803:12819  value >= 10 ** 4 */\n      lt\n        /* \"@openzeppelin/contracts/utils/math/Math.sol\":12799:12899  if (value >= 10 ** 4) {... */\n      tag_317\n      jumpi\n        /* \"@openzeppelin/contracts/utils/math/Math.sol\":12848:12855  10 ** 4 */\n      0x2710\n        /* \"@openzeppelin/contracts/utils/math/Math.sol\":12839:12855  value /= 10 ** 4 */\n      dup4\n      dup2\n      tag_318\n      jumpi\n      tag_319\n      tag_261\n      jump\t// in\n    tag_319:\n    tag_318:\n      div\n      swap3\n      pop\n        /* \"@openzeppelin/contracts/utils/math/Math.sol\":12883:12884  4 */\n      0x04\n        /* \"@openzeppelin/contracts/utils/math/Math.sol\":12873:12884  result += 4 */\n      dup2\n      add\n      swap1\n      pop\n        /* \"@openzeppelin/contracts/utils/math/Math.sol\":12799:12899  if (value >= 10 ** 4) {... */\n    tag_317:\n        /* \"@openzeppelin/contracts/utils/math/Math.sol\":12925:12932  10 ** 2 */\n      0x64\n        /* \"@openzeppelin/contracts/utils/math/Math.sol\":12916:12921  value */\n      dup4\n        /* \"@openzeppelin/contracts/utils/math/Math.sol\":12916:12932  value >= 10 ** 2 */\n      lt\n        /* \"@openzeppelin/contracts/utils/math/Math.sol\":12912:13012  if (value >= 10 ** 2) {... */\n      tag_320\n      jumpi\n        /* \"@openzeppelin/contracts/utils/math/Math.sol\":12961:12968  10 ** 2 */\n      0x64\n        /* \"@openzeppelin/contracts/utils/math/Math.sol\":12952:12968  value /= 10 ** 2 */\n      dup4\n      dup2\n      tag_321\n      jumpi\n      tag_322\n      tag_261\n      jump\t// in\n    tag_322:\n    tag_321:\n      div\n      swap3\n      pop\n        /* \"@openzeppelin/contracts/utils/math/Math.sol\":12996:12997  2 */\n      0x02\n        /* \"@openzeppelin/contracts/utils/math/Math.sol\":12986:12997  result += 2 */\n      dup2\n      add\n      swap1\n      pop\n        /* \"@openzeppelin/contracts/utils/math/Math.sol\":12912:13012  if (value >= 10 ** 2) {... */\n    tag_320:\n        /* \"@openzeppelin/contracts/utils/math/Math.sol\":13038:13045  10 ** 1 */\n      0x0a\n        /* \"@openzeppelin/contracts/utils/math/Math.sol\":13029:13034  value */\n      dup4\n        /* \"@openzeppelin/contracts/utils/math/Math.sol\":13029:13045  value >= 10 ** 1 */\n      lt\n        /* \"@openzeppelin/contracts/utils/math/Math.sol\":13025:13091  if (value >= 10 ** 1) {... */\n      tag_323\n      jumpi\n        /* \"@openzeppelin/contracts/utils/math/Math.sol\":13075:13076  1 */\n      0x01\n        /* \"@openzeppelin/contracts/utils/math/Math.sol\":13065:13076  result += 1 */\n      dup2\n      add\n      swap1\n      pop\n        /* \"@openzeppelin/contracts/utils/math/Math.sol\":13025:13091  if (value >= 10 ** 1) {... */\n    tag_323:\n        /* \"@openzeppelin/contracts/utils/math/Math.sol\":13117:13123  result */\n      dup1\n        /* \"@openzeppelin/contracts/utils/math/Math.sol\":13110:13123  return result */\n      swap2\n      pop\n      pop\n        /* \"@openzeppelin/contracts/utils/math/Math.sol\":12214:13130  function log10(uint256 value) internal pure returns (uint256) {... */\n      swap2\n      swap1\n      pop\n      jump\t// out\n        /* \"@openzeppelin/contracts/token/ERC721/ERC721.sol\":7082:7450  function _checkAuthorized(address owner, address spender, uint256 tokenId) internal view virtual {... */\n    tag_279:\n        /* \"@openzeppelin/contracts/token/ERC721/ERC721.sol\":7194:7232  _isAuthorized(owner, spender, tokenId) */\n      tag_325\n        /* \"@openzeppelin/contracts/token/ERC721/ERC721.sol\":7208:7213  owner */\n      dup4\n        /* \"@openzeppelin/contracts/token/ERC721/ERC721.sol\":7215:7222  spender */\n      dup4\n        /* \"@openzeppelin/contracts/token/ERC721/ERC721.sol\":7224:7231  tokenId */\n      dup4\n        /* \"@openzeppelin/contracts/token/ERC721/ERC721.sol\":7194:7207  _isAuthorized */\n      tag_326\n        /* \"@openzeppelin/contracts/token/ERC721/ERC721.sol\":7194:7232  _isAuthorized(owner, spender, tokenId) */\n      jump\t// in\n    tag_325:\n        /* \"@openzeppelin/contracts/token/ERC721/ERC721.sol\":7189:7444  if (!_isAuthorized(owner, spender, tokenId)) {... */\n      tag_327\n      jumpi\n        /* \"@openzeppelin/contracts/token/ERC721/ERC721.sol\":7269:7270  0 */\n      0x00\n        /* \"@openzeppelin/contracts/token/ERC721/ERC721.sol\":7252:7271  owner == address(0) */\n      0xffffffffffffffffffffffffffffffffffffffff\n      and\n        /* \"@openzeppelin/contracts/token/ERC721/ERC721.sol\":7252:7257  owner */\n      dup4\n        /* \"@openzeppelin/contracts/token/ERC721/ERC721.sol\":7252:7271  owner == address(0) */\n      0xffffffffffffffffffffffffffffffffffffffff\n      and\n      sub\n        /* \"@openzeppelin/contracts/token/ERC721/ERC721.sol\":7248:7434  if (owner == address(0)) {... */\n      tag_328\n      jumpi\n        /* \"@openzeppelin/contracts/token/ERC721/ERC721.sol\":7321:7328  tokenId */\n      dup1\n        /* \"@openzeppelin/contracts/token/ERC721/ERC721.sol\":7298:7329  ERC721NonexistentToken(tokenId) */\n      mload(0x40)\n      0x7e27328900000000000000000000000000000000000000000000000000000000\n      dup2\n      mstore\n      0x04\n      add\n      tag_329\n      swap2\n      swap1\n      tag_48\n      jump\t// in\n    tag_329:\n      mload(0x40)\n      dup1\n      swap2\n      sub\n      swap1\n      revert\n        /* \"@openzeppelin/contracts/token/ERC721/ERC721.sol\":7248:7434  if (owner == address(0)) {... */\n    tag_328:\n        /* \"@openzeppelin/contracts/token/ERC721/ERC721.sol\":7402:7409  spender */\n      dup2\n        /* \"@openzeppelin/contracts/token/ERC721/ERC721.sol\":7411:7418  tokenId */\n      dup2\n        /* \"@openzeppelin/contracts/token/ERC721/ERC721.sol\":7375:7419  ERC721InsufficientApproval(spender, tokenId) */\n      mload(0x40)\n      0x177e802f00000000000000000000000000000000000000000000000000000000\n      dup2\n      mstore\n      0x04\n      add\n      tag_331\n      swap3\n      swap2\n      swap1\n      tag_137\n      jump\t// in\n    tag_331:\n      mload(0x40)\n      dup1\n      swap2\n      sub\n      swap1\n      revert\n        /* \"@openzeppelin/contracts/token/ERC721/ERC721.sol\":7189:7444  if (!_isAuthorized(owner, spender, tokenId)) {... */\n    tag_327:\n        /* \"@openzeppelin/contracts/token/ERC721/ERC721.sol\":7082:7450  function _checkAuthorized(address owner, address spender, uint256 tokenId) internal view virtual {... */\n      pop\n      pop\n      pop\n      jump\t// out\n        /* \"@openzeppelin/contracts/token/ERC721/ERC721.sol\":6376:6648  function _isAuthorized(address owner, address spender, uint256 tokenId) internal view virtual returns (bool) {... */\n    tag_326:\n        /* \"@openzeppelin/contracts/token/ERC721/ERC721.sol\":6479:6483  bool */\n      0x00\n        /* \"@openzeppelin/contracts/token/ERC721/ERC721.sol\":6533:6534  0 */\n      dup1\n        /* \"@openzeppelin/contracts/token/ERC721/ERC721.sol\":6514:6535  spender != address(0) */\n      0xffffffffffffffffffffffffffffffffffffffff\n      and\n        /* \"@openzeppelin/contracts/token/ERC721/ERC721.sol\":6514:6521  spender */\n      dup4\n        /* \"@openzeppelin/contracts/token/ERC721/ERC721.sol\":6514:6535  spender != address(0) */\n      0xffffffffffffffffffffffffffffffffffffffff\n      and\n      eq\n      iszero\n        /* \"@openzeppelin/contracts/token/ERC721/ERC721.sol\":6514:6641  spender != address(0) &&... */\n      dup1\n      iszero\n      tag_333\n      jumpi\n      pop\n        /* \"@openzeppelin/contracts/token/ERC721/ERC721.sol\":6561:6568  spender */\n      dup3\n        /* \"@openzeppelin/contracts/token/ERC721/ERC721.sol\":6552:6568  owner == spender */\n      0xffffffffffffffffffffffffffffffffffffffff\n      and\n        /* \"@openzeppelin/contracts/token/ERC721/ERC721.sol\":6552:6557  owner */\n      dup5\n        /* \"@openzeppelin/contracts/token/ERC721/ERC721.sol\":6552:6568  owner == spender */\n      0xffffffffffffffffffffffffffffffffffffffff\n      and\n      eq\n        /* \"@openzeppelin/contracts/token/ERC721/ERC721.sol\":6552:6604  owner == spender || isApprovedForAll(owner, spender) */\n      dup1\n      tag_334\n      jumpi\n      pop\n        /* \"@openzeppelin/contracts/token/ERC721/ERC721.sol\":6572:6604  isApprovedForAll(owner, spender) */\n      tag_335\n        /* \"@openzeppelin/contracts/token/ERC721/ERC721.sol\":6589:6594  owner */\n      dup5\n        /* \"@openzeppelin/contracts/token/ERC721/ERC721.sol\":6596:6603  spender */\n      dup5\n        /* \"@openzeppelin/contracts/token/ERC721/ERC721.sol\":6572:6588  isApprovedForAll */\n      tag_100\n        /* \"@openzeppelin/contracts/token/ERC721/ERC721.sol\":6572:6604  isApprovedForAll(owner, spender) */\n      jump\t// in\n    tag_335:\n        /* \"@openzeppelin/contracts/token/ERC721/ERC721.sol\":6552:6604  owner == spender || isApprovedForAll(owner, spender) */\n    tag_334:\n        /* \"@openzeppelin/contracts/token/ERC721/ERC721.sol\":6552:6640  owner == spender || isApprovedForAll(owner, spender) || _getApproved(tokenId) == spender */\n      dup1\n      tag_336\n      jumpi\n      pop\n        /* \"@openzeppelin/contracts/token/ERC721/ERC721.sol\":6633:6640  spender */\n      dup3\n        /* \"@openzeppelin/contracts/token/ERC721/ERC721.sol\":6608:6640  _getApproved(tokenId) == spender */\n      0xffffffffffffffffffffffffffffffffffffffff\n      and\n        /* \"@openzeppelin/contracts/token/ERC721/ERC721.sol\":6608:6629  _getApproved(tokenId) */\n      tag_337\n        /* \"@openzeppelin/contracts/token/ERC721/ERC721.sol\":6621:6628  tokenId */\n      dup4\n        /* \"@openzeppelin/contracts/token/ERC721/ERC721.sol\":6608:6620  _getApproved */\n      tag_117\n        /* \"@openzeppelin/contracts/token/ERC721/ERC721.sol\":6608:6629  _getApproved(tokenId) */\n      jump\t// in\n    tag_337:\n        /* \"@openzeppelin/contracts/token/ERC721/ERC721.sol\":6608:6640  _getApproved(tokenId) == spender */\n      0xffffffffffffffffffffffffffffffffffffffff\n      and\n      eq\n        /* \"@openzeppelin/contracts/token/ERC721/ERC721.sol\":6552:6640  owner == spender || isApprovedForAll(owner, spender) || _getApproved(tokenId) == spender */\n    tag_336:\n        /* \"@openzeppelin/contracts/token/ERC721/ERC721.sol\":6514:6641  spender != address(0) &&... */\n    tag_333:\n        /* \"@openzeppelin/contracts/token/ERC721/ERC721.sol\":6495:6641  return... */\n      swap1\n      pop\n        /* \"@openzeppelin/contracts/token/ERC721/ERC721.sol\":6376:6648  function _isAuthorized(address owner, address spender, uint256 tokenId) internal view virtual returns (bool) {... */\n      swap4\n      swap3\n      pop\n      pop\n      pop\n      jump\t// out\n        /* \"#utility.yul\":7:82   */\n    tag_338:\n        /* \"#utility.yul\":40:46   */\n      0x00\n        /* \"#utility.yul\":73:75   */\n      0x40\n        /* \"#utility.yul\":67:76   */\n      mload\n        /* \"#utility.yul\":57:76   */\n      swap1\n      pop\n        /* \"#utility.yul\":7:82   */\n      swap1\n      jump\t// out\n        /* \"#utility.yul\":88:205   */\n    tag_339:\n        /* \"#utility.yul\":197:198   */\n      0x00\n        /* \"#utility.yul\":194:195   */\n      dup1\n        /* \"#utility.yul\":187:199   */\n      revert\n        /* \"#utility.yul\":211:328   */\n    tag_340:\n        /* \"#utility.yul\":320:321   */\n      0x00\n        /* \"#utility.yul\":317:318   */\n      dup1\n        /* \"#utility.yul\":310:322   */\n      revert\n        /* \"#utility.yul\":334:483   */\n    tag_341:\n        /* \"#utility.yul\":370:377   */\n      0x00\n        /* \"#utility.yul\":410:476   */\n      0xffffffff00000000000000000000000000000000000000000000000000000000\n        /* \"#utility.yul\":403:408   */\n      dup3\n        /* \"#utility.yul\":399:477   */\n      and\n        /* \"#utility.yul\":388:477   */\n      swap1\n      pop\n        /* \"#utility.yul\":334:483   */\n      swap2\n      swap1\n      pop\n      jump\t// out\n        /* \"#utility.yul\":489:609   */\n    tag_342:\n        /* \"#utility.yul\":561:584   */\n      tag_392\n        /* \"#utility.yul\":578:583   */\n      dup2\n        /* \"#utility.yul\":561:584   */\n      tag_341\n      jump\t// in\n    tag_392:\n        /* \"#utility.yul\":554:559   */\n      dup2\n        /* \"#utility.yul\":551:585   */\n      eq\n        /* \"#utility.yul\":541:603   */\n      tag_393\n      jumpi\n        /* \"#utility.yul\":599:600   */\n      0x00\n        /* \"#utility.yul\":596:597   */\n      dup1\n        /* \"#utility.yul\":589:601   */\n      revert\n        /* \"#utility.yul\":541:603   */\n    tag_393:\n        /* \"#utility.yul\":489:609   */\n      pop\n      jump\t// out\n        /* \"#utility.yul\":615:752   */\n    tag_343:\n        /* \"#utility.yul\":660:665   */\n      0x00\n        /* \"#utility.yul\":698:704   */\n      dup2\n        /* \"#utility.yul\":685:705   */\n      calldataload\n        /* \"#utility.yul\":676:705   */\n      swap1\n      pop\n        /* \"#utility.yul\":714:746   */\n      tag_395\n        /* \"#utility.yul\":740:745   */\n      dup2\n        /* \"#utility.yul\":714:746   */\n      tag_342\n      jump\t// in\n    tag_395:\n        /* \"#utility.yul\":615:752   */\n      swap3\n      swap2\n      pop\n      pop\n      jump\t// out\n        /* \"#utility.yul\":758:1085   */\n    tag_27:\n        /* \"#utility.yul\":816:822   */\n      0x00\n        /* \"#utility.yul\":865:867   */\n      0x20\n        /* \"#utility.yul\":853:862   */\n      dup3\n        /* \"#utility.yul\":844:851   */\n      dup5\n        /* \"#utility.yul\":840:863   */\n      sub\n        /* \"#utility.yul\":836:868   */\n      slt\n        /* \"#utility.yul\":833:952   */\n      iszero\n      tag_397\n      jumpi\n        /* \"#utility.yul\":871:950   */\n      tag_398\n      tag_339\n      jump\t// in\n    tag_398:\n        /* \"#utility.yul\":833:952   */\n    tag_397:\n        /* \"#utility.yul\":991:992   */\n      0x00\n        /* \"#utility.yul\":1016:1068   */\n      tag_399\n        /* \"#utility.yul\":1060:1067   */\n      dup5\n        /* \"#utility.yul\":1051:1057   */\n      dup3\n        /* \"#utility.yul\":1040:1049   */\n      dup6\n        /* \"#utility.yul\":1036:1058   */\n      add\n        /* \"#utility.yul\":1016:1068   */\n      tag_343\n      jump\t// in\n    tag_399:\n        /* \"#utility.yul\":1006:1068   */\n      swap2\n      pop\n        /* \"#utility.yul\":962:1078   */\n      pop\n        /* \"#utility.yul\":758:1085   */\n      swap3\n      swap2\n      pop\n      pop\n      jump\t// out\n        /* \"#utility.yul\":1091:1181   */\n    tag_344:\n        /* \"#utility.yul\":1125:1132   */\n      0x00\n        /* \"#utility.yul\":1168:1173   */\n      dup2\n        /* \"#utility.yul\":1161:1174   */\n      iszero\n        /* \"#utility.yul\":1154:1175   */\n      iszero\n        /* \"#utility.yul\":1143:1175   */\n      swap1\n      pop\n        /* \"#utility.yul\":1091:1181   */\n      swap2\n      swap1\n      pop\n      jump\t// out\n        /* \"#utility.yul\":1187:1296   */\n    tag_345:\n        /* \"#utility.yul\":1268:1289   */\n      tag_402\n        /* \"#utility.yul\":1283:1288   */\n      dup2\n        /* \"#utility.yul\":1268:1289   */\n      tag_344\n      jump\t// in\n    tag_402:\n        /* \"#utility.yul\":1263:1266   */\n      dup3\n        /* \"#utility.yul\":1256:1290   */\n      mstore\n        /* \"#utility.yul\":1187:1296   */\n      pop\n      pop\n      jump\t// out\n        /* \"#utility.yul\":1302:1512   */\n    tag_30:\n        /* \"#utility.yul\":1389:1393   */\n      0x00\n        /* \"#utility.yul\":1427:1429   */\n      0x20\n        /* \"#utility.yul\":1416:1425   */\n      dup3\n        /* \"#utility.yul\":1412:1430   */\n      add\n        /* \"#utility.yul\":1404:1430   */\n      swap1\n      pop\n        /* \"#utility.yul\":1440:1505   */\n      tag_404\n        /* \"#utility.yul\":1502:1503   */\n      0x00\n        /* \"#utility.yul\":1491:1500   */\n      dup4\n        /* \"#utility.yul\":1487:1504   */\n      add\n        /* \"#utility.yul\":1478:1484   */\n      dup5\n        /* \"#utility.yul\":1440:1505   */\n      tag_345\n      jump\t// in\n    tag_404:\n        /* \"#utility.yul\":1302:1512   */\n      swap3\n      swap2\n      pop\n      pop\n      jump\t// out\n        /* \"#utility.yul\":1518:1617   */\n    tag_346:\n        /* \"#utility.yul\":1570:1576   */\n      0x00\n        /* \"#utility.yul\":1604:1609   */\n      dup2\n        /* \"#utility.yul\":1598:1610   */\n      mload\n        /* \"#utility.yul\":1588:1610   */\n      swap1\n      pop\n        /* \"#utility.yul\":1518:1617   */\n      swap2\n      swap1\n      pop\n      jump\t// out\n        /* \"#utility.yul\":1623:1792   */\n    tag_347:\n        /* \"#utility.yul\":1707:1718   */\n      0x00\n        /* \"#utility.yul\":1741:1747   */\n      dup3\n        /* \"#utility.yul\":1736:1739   */\n      dup3\n        /* \"#utility.yul\":1729:1748   */\n      mstore\n        /* \"#utility.yul\":1781:1785   */\n      0x20\n        /* \"#utility.yul\":1776:1779   */\n      dup3\n        /* \"#utility.yul\":1772:1786   */\n      add\n        /* \"#utility.yul\":1757:1786   */\n      swap1\n      pop\n        /* \"#utility.yul\":1623:1792   */\n      swap3\n      swap2\n      pop\n      pop\n      jump\t// out\n        /* \"#utility.yul\":1798:1937   */\n    tag_348:\n        /* \"#utility.yul\":1887:1893   */\n      dup3\n        /* \"#utility.yul\":1882:1885   */\n      dup2\n        /* \"#utility.yul\":1877:1880   */\n      dup4\n        /* \"#utility.yul\":1871:1894   */\n      mcopy\n        /* \"#utility.yul\":1928:1929   */\n      0x00\n        /* \"#utility.yul\":1919:1925   */\n      dup4\n        /* \"#utility.yul\":1914:1917   */\n      dup4\n        /* \"#utility.yul\":1910:1926   */\n      add\n        /* \"#utility.yul\":1903:1930   */\n      mstore\n        /* \"#utility.yul\":1798:1937   */\n      pop\n      pop\n      pop\n      jump\t// out\n        /* \"#utility.yul\":1943:2045   */\n    tag_349:\n        /* \"#utility.yul\":1984:1990   */\n      0x00\n        /* \"#utility.yul\":2035:2037   */\n      0x1f\n        /* \"#utility.yul\":2031:2038   */\n      not\n        /* \"#utility.yul\":2026:2028   */\n      0x1f\n        /* \"#utility.yul\":2019:2024   */\n      dup4\n        /* \"#utility.yul\":2015:2029   */\n      add\n        /* \"#utility.yul\":2011:2039   */\n      and\n        /* \"#utility.yul\":2001:2039   */\n      swap1\n      pop\n        /* \"#utility.yul\":1943:2045   */\n      swap2\n      swap1\n      pop\n      jump\t// out\n        /* \"#utility.yul\":2051:2428   */\n    tag_350:\n        /* \"#utility.yul\":2139:2142   */\n      0x00\n        /* \"#utility.yul\":2167:2206   */\n      tag_410\n        /* \"#utility.yul\":2200:2205   */\n      dup3\n        /* \"#utility.yul\":2167:2206   */\n      tag_346\n      jump\t// in\n    tag_410:\n        /* \"#utility.yul\":2222:2293   */\n      tag_411\n        /* \"#utility.yul\":2286:2292   */\n      dup2\n        /* \"#utility.yul\":2281:2284   */\n      dup6\n        /* \"#utility.yul\":2222:2293   */\n      tag_347\n      jump\t// in\n    tag_411:\n        /* \"#utility.yul\":2215:2293   */\n      swap4\n      pop\n        /* \"#utility.yul\":2302:2367   */\n      tag_412\n        /* \"#utility.yul\":2360:2366   */\n      dup2\n        /* \"#utility.yul\":2355:2358   */\n      dup6\n        /* \"#utility.yul\":2348:2352   */\n      0x20\n        /* \"#utility.yul\":2341:2346   */\n      dup7\n        /* \"#utility.yul\":2337:2353   */\n      add\n        /* \"#utility.yul\":2302:2367   */\n      tag_348\n      jump\t// in\n    tag_412:\n        /* \"#utility.yul\":2392:2421   */\n      tag_413\n        /* \"#utility.yul\":2414:2420   */\n      dup2\n        /* \"#utility.yul\":2392:2421   */\n      tag_349\n      jump\t// in\n    tag_413:\n        /* \"#utility.yul\":2387:2390   */\n      dup5\n        /* \"#utility.yul\":2383:2422   */\n      add\n        /* \"#utility.yul\":2376:2422   */\n      swap2\n      pop\n        /* \"#utility.yul\":2143:2428   */\n      pop\n        /* \"#utility.yul\":2051:2428   */\n      swap3\n      swap2\n      pop\n      pop\n      jump\t// out\n        /* \"#utility.yul\":2434:2747   */\n    tag_34:\n        /* \"#utility.yul\":2547:2551   */\n      0x00\n        /* \"#utility.yul\":2585:2587   */\n      0x20\n        /* \"#utility.yul\":2574:2583   */\n      dup3\n        /* \"#utility.yul\":2570:2588   */\n      add\n        /* \"#utility.yul\":2562:2588   */\n      swap1\n      pop\n        /* \"#utility.yul\":2634:2643   */\n      dup2\n        /* \"#utility.yul\":2628:2632   */\n      dup2\n        /* \"#utility.yul\":2624:2644   */\n      sub\n        /* \"#utility.yul\":2620:2621   */\n      0x00\n        /* \"#utility.yul\":2609:2618   */\n      dup4\n        /* \"#utility.yul\":2605:2622   */\n      add\n        /* \"#utility.yul\":2598:2645   */\n      mstore\n        /* \"#utility.yul\":2662:2740   */\n      tag_415\n        /* \"#utility.yul\":2735:2739   */\n      dup2\n        /* \"#utility.yul\":2726:2732   */\n      dup5\n        /* \"#utility.yul\":2662:2740   */\n      tag_350\n      jump\t// in\n    tag_415:\n        /* \"#utility.yul\":2654:2740   */\n      swap1\n      pop\n        /* \"#utility.yul\":2434:2747   */\n      swap3\n      swap2\n      pop\n      pop\n      jump\t// out\n        /* \"#utility.yul\":2753:2830   */\n    tag_351:\n        /* \"#utility.yul\":2790:2797   */\n      0x00\n        /* \"#utility.yul\":2819:2824   */\n      dup2\n        /* \"#utility.yul\":2808:2824   */\n      swap1\n      pop\n        /* \"#utility.yul\":2753:2830   */\n      swap2\n      swap1\n      pop\n      jump\t// out\n        /* \"#utility.yul\":2836:2958   */\n    tag_352:\n        /* \"#utility.yul\":2909:2933   */\n      tag_418\n        /* \"#utility.yul\":2927:2932   */\n      dup2\n        /* \"#utility.yul\":2909:2933   */\n      tag_351\n      jump\t// in\n    tag_418:\n        /* \"#utility.yul\":2902:2907   */\n      dup2\n        /* \"#utility.yul\":2899:2934   */\n      eq\n        /* \"#utility.yul\":2889:2952   */\n      tag_419\n      jumpi\n        /* \"#utility.yul\":2948:2949   */\n      0x00\n        /* \"#utility.yul\":2945:2946   */\n      dup1\n        /* \"#utility.yul\":2938:2950   */\n      revert\n        /* \"#utility.yul\":2889:2952   */\n    tag_419:\n        /* \"#utility.yul\":2836:2958   */\n      pop\n      jump\t// out\n        /* \"#utility.yul\":2964:3103   */\n    tag_353:\n        /* \"#utility.yul\":3010:3015   */\n      0x00\n        /* \"#utility.yul\":3048:3054   */\n      dup2\n        /* \"#utility.yul\":3035:3055   */\n      calldataload\n        /* \"#utility.yul\":3026:3055   */\n      swap1\n      pop\n        /* \"#utility.yul\":3064:3097   */\n      tag_421\n        /* \"#utility.yul\":3091:3096   */\n      dup2\n        /* \"#utility.yul\":3064:3097   */\n      tag_352\n      jump\t// in\n    tag_421:\n        /* \"#utility.yul\":2964:3103   */\n      swap3\n      swap2\n      pop\n      pop\n      jump\t// out\n        /* \"#utility.yul\":3109:3438   */\n    tag_37:\n        /* \"#utility.yul\":3168:3174   */\n      0x00\n        /* \"#utility.yul\":3217:3219   */\n      0x20\n        /* \"#utility.yul\":3205:3214   */\n      dup3\n        /* \"#utility.yul\":3196:3203   */\n      dup5\n        /* \"#utility.yul\":3192:3215   */\n      sub\n        /* \"#utility.yul\":3188:3220   */\n      slt\n        /* \"#utility.yul\":3185:3304   */\n      iszero\n      tag_423\n      jumpi\n        /* \"#utility.yul\":3223:3302   */\n      tag_424\n      tag_339\n      jump\t// in\n    tag_424:\n        /* \"#utility.yul\":3185:3304   */\n    tag_423:\n        /* \"#utility.yul\":3343:3344   */\n      0x00\n        /* \"#utility.yul\":3368:3421   */\n      tag_425\n        /* \"#utility.yul\":3413:3420   */\n      dup5\n        /* \"#utility.yul\":3404:3410   */\n      dup3\n        /* \"#utility.yul\":3393:3402   */\n      dup6\n        /* \"#utility.yul\":3389:3411   */\n      add\n        /* \"#utility.yul\":3368:3421   */\n      tag_353\n      jump\t// in\n    tag_425:\n        /* \"#utility.yul\":3358:3421   */\n      swap2\n      pop\n        /* \"#utility.yul\":3314:3431   */\n      pop\n        /* \"#utility.yul\":3109:3438   */\n      swap3\n      swap2\n      pop\n      pop\n      jump\t// out\n        /* \"#utility.yul\":3444:3570   */\n    tag_354:\n        /* \"#utility.yul\":3481:3488   */\n      0x00\n        /* \"#utility.yul\":3521:3563   */\n      0xffffffffffffffffffffffffffffffffffffffff\n        /* \"#utility.yul\":3514:3519   */\n      dup3\n        /* \"#utility.yul\":3510:3564   */\n      and\n        /* \"#utility.yul\":3499:3564   */\n      swap1\n      pop\n        /* \"#utility.yul\":3444:3570   */\n      swap2\n      swap1\n      pop\n      jump\t// out\n        /* \"#utility.yul\":3576:3672   */\n    tag_355:\n        /* \"#utility.yul\":3613:3620   */\n      0x00\n        /* \"#utility.yul\":3642:3666   */\n      tag_428\n        /* \"#utility.yul\":3660:3665   */\n      dup3\n        /* \"#utility.yul\":3642:3666   */\n      tag_354\n      jump\t// in\n    tag_428:\n        /* \"#utility.yul\":3631:3666   */\n      swap1\n      pop\n        /* \"#utility.yul\":3576:3672   */\n      swap2\n      swap1\n      pop\n      jump\t// out\n        /* \"#utility.yul\":3678:3796   */\n    tag_356:\n        /* \"#utility.yul\":3765:3789   */\n      tag_430\n        /* \"#utility.yul\":3783:3788   */\n      dup2\n        /* \"#utility.yul\":3765:3789   */\n      tag_355\n      jump\t// in\n    tag_430:\n        /* \"#utility.yul\":3760:3763   */\n      dup3\n        /* \"#utility.yul\":3753:3790   */\n      mstore\n        /* \"#utility.yul\":3678:3796   */\n      pop\n      pop\n      jump\t// out\n        /* \"#utility.yul\":3802:4024   */\n    tag_40:\n        /* \"#utility.yul\":3895:3899   */\n      0x00\n        /* \"#utility.yul\":3933:3935   */\n      0x20\n        /* \"#utility.yul\":3922:3931   */\n      dup3\n        /* \"#utility.yul\":3918:3936   */\n      add\n        /* \"#utility.yul\":3910:3936   */\n      swap1\n      pop\n        /* \"#utility.yul\":3946:4017   */\n      tag_432\n        /* \"#utility.yul\":4014:4015   */\n      0x00\n        /* \"#utility.yul\":4003:4012   */\n      dup4\n        /* \"#utility.yul\":3999:4016   */\n      add\n        /* \"#utility.yul\":3990:3996   */\n      dup5\n        /* \"#utility.yul\":3946:4017   */\n      tag_356\n      jump\t// in\n    tag_432:\n        /* \"#utility.yul\":3802:4024   */\n      swap3\n      swap2\n      pop\n      pop\n      jump\t// out\n        /* \"#utility.yul\":4030:4152   */\n    tag_357:\n        /* \"#utility.yul\":4103:4127   */\n      tag_434\n        /* \"#utility.yul\":4121:4126   */\n      dup2\n        /* \"#utility.yul\":4103:4127   */\n      tag_355\n      jump\t// in\n    tag_434:\n        /* \"#utility.yul\":4096:4101   */\n      dup2\n        /* \"#utility.yul\":4093:4128   */\n      eq\n        /* \"#utility.yul\":4083:4146   */\n      tag_435\n      jumpi\n        /* \"#utility.yul\":4142:4143   */\n      0x00\n        /* \"#utility.yul\":4139:4140   */\n      dup1\n        /* \"#utility.yul\":4132:4144   */\n      revert\n        /* \"#utility.yul\":4083:4146   */\n    tag_435:\n        /* \"#utility.yul\":4030:4152   */\n      pop\n      jump\t// out\n        /* \"#utility.yul\":4158:4297   */\n    tag_358:\n        /* \"#utility.yul\":4204:4209   */\n      0x00\n        /* \"#utility.yul\":4242:4248   */\n      dup2\n        /* \"#utility.yul\":4229:4249   */\n      calldataload\n        /* \"#utility.yul\":4220:4249   */\n      swap1\n      pop\n        /* \"#utility.yul\":4258:4291   */\n      tag_437\n        /* \"#utility.yul\":4285:4290   */\n      dup2\n        /* \"#utility.yul\":4258:4291   */\n      tag_357\n      jump\t// in\n    tag_437:\n        /* \"#utility.yul\":4158:4297   */\n      swap3\n      swap2\n      pop\n      pop\n      jump\t// out\n        /* \"#utility.yul\":4303:4777   */\n    tag_43:\n        /* \"#utility.yul\":4371:4377   */\n      0x00\n        /* \"#utility.yul\":4379:4385   */\n      dup1\n        /* \"#utility.yul\":4428:4430   */\n      0x40\n        /* \"#utility.yul\":4416:4425   */\n      dup4\n        /* \"#utility.yul\":4407:4414   */\n      dup6\n        /* \"#utility.yul\":4403:4426   */\n      sub\n        /* \"#utility.yul\":4399:4431   */\n      slt\n        /* \"#utility.yul\":4396:4515   */\n      iszero\n      tag_439\n      jumpi\n        /* \"#utility.yul\":4434:4513   */\n      tag_440\n      tag_339\n      jump\t// in\n    tag_440:\n        /* \"#utility.yul\":4396:4515   */\n    tag_439:\n        /* \"#utility.yul\":4554:4555   */\n      0x00\n        /* \"#utility.yul\":4579:4632   */\n      tag_441\n        /* \"#utility.yul\":4624:4631   */\n      dup6\n        /* \"#utility.yul\":4615:4621   */\n      dup3\n        /* \"#utility.yul\":4604:4613   */\n      dup7\n        /* \"#utility.yul\":4600:4622   */\n      add\n        /* \"#utility.yul\":4579:4632   */\n      tag_358\n      jump\t// in\n    tag_441:\n        /* \"#utility.yul\":4569:4632   */\n      swap3\n      pop\n        /* \"#utility.yul\":4525:4642   */\n      pop\n        /* \"#utility.yul\":4681:4683   */\n      0x20\n        /* \"#utility.yul\":4707:4760   */\n      tag_442\n        /* \"#utility.yul\":4752:4759   */\n      dup6\n        /* \"#utility.yul\":4743:4749   */\n      dup3\n        /* \"#utility.yul\":4732:4741   */\n      dup7\n        /* \"#utility.yul\":4728:4750   */\n      add\n        /* \"#utility.yul\":4707:4760   */\n      tag_353\n      jump\t// in\n    tag_442:\n        /* \"#utility.yul\":4697:4760   */\n      swap2\n      pop\n        /* \"#utility.yul\":4652:4770   */\n      pop\n        /* \"#utility.yul\":4303:4777   */\n      swap3\n      pop\n      swap3\n      swap1\n      pop\n      jump\t// out\n        /* \"#utility.yul\":4783:4901   */\n    tag_359:\n        /* \"#utility.yul\":4870:4894   */\n      tag_444\n        /* \"#utility.yul\":4888:4893   */\n      dup2\n        /* \"#utility.yul\":4870:4894   */\n      tag_351\n      jump\t// in\n    tag_444:\n        /* \"#utility.yul\":4865:4868   */\n      dup3\n        /* \"#utility.yul\":4858:4895   */\n      mstore\n        /* \"#utility.yul\":4783:4901   */\n      pop\n      pop\n      jump\t// out\n        /* \"#utility.yul\":4907:5129   */\n    tag_48:\n        /* \"#utility.yul\":5000:5004   */\n      0x00\n        /* \"#utility.yul\":5038:5040   */\n      0x20\n        /* \"#utility.yul\":5027:5036   */\n      dup3\n        /* \"#utility.yul\":5023:5041   */\n      add\n        /* \"#utility.yul\":5015:5041   */\n      swap1\n      pop\n        /* \"#utility.yul\":5051:5122   */\n      tag_446\n        /* \"#utility.yul\":5119:5120   */\n      0x00\n        /* \"#utility.yul\":5108:5117   */\n      dup4\n        /* \"#utility.yul\":5104:5121   */\n      add\n        /* \"#utility.yul\":5095:5101   */\n      dup5\n        /* \"#utility.yul\":5051:5122   */\n      tag_359\n      jump\t// in\n    tag_446:\n        /* \"#utility.yul\":4907:5129   */\n      swap3\n      swap2\n      pop\n      pop\n      jump\t// out\n        /* \"#utility.yul\":5135:5754   */\n    tag_51:\n        /* \"#utility.yul\":5212:5218   */\n      0x00\n        /* \"#utility.yul\":5220:5226   */\n      dup1\n        /* \"#utility.yul\":5228:5234   */\n      0x00\n        /* \"#utility.yul\":5277:5279   */\n      0x60\n        /* \"#utility.yul\":5265:5274   */\n      dup5\n        /* \"#utility.yul\":5256:5263   */\n      dup7\n        /* \"#utility.yul\":5252:5275   */\n      sub\n        /* \"#utility.yul\":5248:5280   */\n      slt\n        /* \"#utility.yul\":5245:5364   */\n      iszero\n      tag_448\n      jumpi\n        /* \"#utility.yul\":5283:5362   */\n      tag_449\n      tag_339\n      jump\t// in\n    tag_449:\n        /* \"#utility.yul\":5245:5364   */\n    tag_448:\n        /* \"#utility.yul\":5403:5404   */\n      0x00\n        /* \"#utility.yul\":5428:5481   */\n      tag_450\n        /* \"#utility.yul\":5473:5480   */\n      dup7\n        /* \"#utility.yul\":5464:5470   */\n      dup3\n        /* \"#utility.yul\":5453:5462   */\n      dup8\n        /* \"#utility.yul\":5449:5471   */\n      add\n        /* \"#utility.yul\":5428:5481   */\n      tag_358\n      jump\t// in\n    tag_450:\n        /* \"#utility.yul\":5418:5481   */\n      swap4\n      pop\n        /* \"#utility.yul\":5374:5491   */\n      pop\n        /* \"#utility.yul\":5530:5532   */\n      0x20\n        /* \"#utility.yul\":5556:5609   */\n      tag_451\n        /* \"#utility.yul\":5601:5608   */\n      dup7\n        /* \"#utility.yul\":5592:5598   */\n      dup3\n        /* \"#utility.yul\":5581:5590   */\n      dup8\n        /* \"#utility.yul\":5577:5599   */\n      add\n        /* \"#utility.yul\":5556:5609   */\n      tag_358\n      jump\t// in\n    tag_451:\n        /* \"#utility.yul\":5546:5609   */\n      swap3\n      pop\n        /* \"#utility.yul\":5501:5619   */\n      pop\n        /* \"#utility.yul\":5658:5660   */\n      0x40\n        /* \"#utility.yul\":5684:5737   */\n      tag_452\n        /* \"#utility.yul\":5729:5736   */\n      dup7\n        /* \"#utility.yul\":5720:5726   */\n      dup3\n        /* \"#utility.yul\":5709:5718   */\n      dup8\n        /* \"#utility.yul\":5705:5727   */\n      add\n        /* \"#utility.yul\":5684:5737   */\n      tag_353\n      jump\t// in\n    tag_452:\n        /* \"#utility.yul\":5674:5737   */\n      swap2\n      pop\n        /* \"#utility.yul\":5629:5747   */\n      pop\n        /* \"#utility.yul\":5135:5754   */\n      swap3\n      pop\n      swap3\n      pop\n      swap3\n      jump\t// out\n        /* \"#utility.yul\":5760:6089   */\n    tag_70:\n        /* \"#utility.yul\":5819:5825   */\n      0x00\n        /* \"#utility.yul\":5868:5870   */\n      0x20\n        /* \"#utility.yul\":5856:5865   */\n      dup3\n        /* \"#utility.yul\":5847:5854   */\n      dup5\n        /* \"#utility.yul\":5843:5866   */\n      sub\n        /* \"#utility.yul\":5839:5871   */\n      slt\n        /* \"#utility.yul\":5836:5955   */\n      iszero\n      tag_454\n      jumpi\n        /* \"#utility.yul\":5874:5953   */\n      tag_455\n      tag_339\n      jump\t// in\n    tag_455:\n        /* \"#utility.yul\":5836:5955   */\n    tag_454:\n        /* \"#utility.yul\":5994:5995   */\n      0x00\n        /* \"#utility.yul\":6019:6072   */\n      tag_456\n        /* \"#utility.yul\":6064:6071   */\n      dup5\n        /* \"#utility.yul\":6055:6061   */\n      dup3\n        /* \"#utility.yul\":6044:6053   */\n      dup6\n        /* \"#utility.yul\":6040:6062   */\n      add\n        /* \"#utility.yul\":6019:6072   */\n      tag_358\n      jump\t// in\n    tag_456:\n        /* \"#utility.yul\":6009:6072   */\n      swap2\n      pop\n        /* \"#utility.yul\":5965:6082   */\n      pop\n        /* \"#utility.yul\":5760:6089   */\n      swap3\n      swap2\n      pop\n      pop\n      jump\t// out\n        /* \"#utility.yul\":6095:6211   */\n    tag_360:\n        /* \"#utility.yul\":6165:6186   */\n      tag_458\n        /* \"#utility.yul\":6180:6185   */\n      dup2\n        /* \"#utility.yul\":6165:6186   */\n      tag_344\n      jump\t// in\n    tag_458:\n        /* \"#utility.yul\":6158:6163   */\n      dup2\n        /* \"#utility.yul\":6155:6187   */\n      eq\n        /* \"#utility.yul\":6145:6205   */\n      tag_459\n      jumpi\n        /* \"#utility.yul\":6201:6202   */\n      0x00\n        /* \"#utility.yul\":6198:6199   */\n      dup1\n        /* \"#utility.yul\":6191:6203   */\n      revert\n        /* \"#utility.yul\":6145:6205   */\n    tag_459:\n        /* \"#utility.yul\":6095:6211   */\n      pop\n      jump\t// out\n        /* \"#utility.yul\":6217:6350   */\n    tag_361:\n        /* \"#utility.yul\":6260:6265   */\n      0x00\n        /* \"#utility.yul\":6298:6304   */\n      dup2\n        /* \"#utility.yul\":6285:6305   */\n      calldataload\n        /* \"#utility.yul\":6276:6305   */\n      swap1\n      pop\n        /* \"#utility.yul\":6314:6344   */\n      tag_461\n        /* \"#utility.yul\":6338:6343   */\n      dup2\n        /* \"#utility.yul\":6314:6344   */\n      tag_360\n      jump\t// in\n    tag_461:\n        /* \"#utility.yul\":6217:6350   */\n      swap3\n      swap2\n      pop\n      pop\n      jump\t// out\n        /* \"#utility.yul\":6356:6824   */\n    tag_81:\n        /* \"#utility.yul\":6421:6427   */\n      0x00\n        /* \"#utility.yul\":6429:6435   */\n      dup1\n        /* \"#utility.yul\":6478:6480   */\n      0x40\n        /* \"#utility.yul\":6466:6475   */\n      dup4\n        /* \"#utility.yul\":6457:6464   */\n      dup6\n        /* \"#utility.yul\":6453:6476   */\n      sub\n        /* \"#utility.yul\":6449:6481   */\n      slt\n        /* \"#utility.yul\":6446:6565   */\n      iszero\n      tag_463\n      jumpi\n        /* \"#utility.yul\":6484:6563   */\n      tag_464\n      tag_339\n      jump\t// in\n    tag_464:\n        /* \"#utility.yul\":6446:6565   */\n    tag_463:\n        /* \"#utility.yul\":6604:6605   */\n      0x00\n        /* \"#utility.yul\":6629:6682   */\n      tag_465\n        /* \"#utility.yul\":6674:6681   */\n      dup6\n        /* \"#utility.yul\":6665:6671   */\n      dup3\n        /* \"#utility.yul\":6654:6663   */\n      dup7\n        /* \"#utility.yul\":6650:6672   */\n      add\n        /* \"#utility.yul\":6629:6682   */\n      tag_358\n      jump\t// in\n    tag_465:\n        /* \"#utility.yul\":6619:6682   */\n      swap3\n      pop\n        /* \"#utility.yul\":6575:6692   */\n      pop\n        /* \"#utility.yul\":6731:6733   */\n      0x20\n        /* \"#utility.yul\":6757:6807   */\n      tag_466\n        /* \"#utility.yul\":6799:6806   */\n      dup6\n        /* \"#utility.yul\":6790:6796   */\n      dup3\n        /* \"#utility.yul\":6779:6788   */\n      dup7\n        /* \"#utility.yul\":6775:6797   */\n      add\n        /* \"#utility.yul\":6757:6807   */\n      tag_361\n      jump\t// in\n    tag_466:\n        /* \"#utility.yul\":6747:6807   */\n      swap2\n      pop\n        /* \"#utility.yul\":6702:6817   */\n      pop\n        /* \"#utility.yul\":6356:6824   */\n      swap3\n      pop\n      swap3\n      swap1\n      pop\n      jump\t// out\n        /* \"#utility.yul\":6830:6947   */\n    tag_362:\n        /* \"#utility.yul\":6939:6940   */\n      0x00\n        /* \"#utility.yul\":6936:6937   */\n      dup1\n        /* \"#utility.yul\":6929:6941   */\n      revert\n        /* \"#utility.yul\":6953:7070   */\n    tag_363:\n        /* \"#utility.yul\":7062:7063   */\n      0x00\n        /* \"#utility.yul\":7059:7060   */\n      dup1\n        /* \"#utility.yul\":7052:7064   */\n      revert\n        /* \"#utility.yul\":7076:7256   */\n    tag_255:\n        /* \"#utility.yul\":7124:7201   */\n      0x4e487b7100000000000000000000000000000000000000000000000000000000\n        /* \"#utility.yul\":7121:7122   */\n      0x00\n        /* \"#utility.yul\":7114:7202   */\n      mstore\n        /* \"#utility.yul\":7221:7225   */\n      0x41\n        /* \"#utility.yul\":7218:7219   */\n      0x04\n        /* \"#utility.yul\":7211:7226   */\n      mstore\n        /* \"#utility.yul\":7245:7249   */\n      0x24\n        /* \"#utility.yul\":7242:7243   */\n      0x00\n        /* \"#utility.yul\":7235:7250   */\n      revert\n        /* \"#utility.yul\":7262:7543   */\n    tag_364:\n        /* \"#utility.yul\":7345:7372   */\n      tag_471\n        /* \"#utility.yul\":7367:7371   */\n      dup3\n        /* \"#utility.yul\":7345:7372   */\n      tag_349\n      jump\t// in\n    tag_471:\n        /* \"#utility.yul\":7337:7343   */\n      dup2\n        /* \"#utility.yul\":7333:7373   */\n      add\n        /* \"#utility.yul\":7475:7481   */\n      dup2\n        /* \"#utility.yul\":7463:7473   */\n      dup2\n        /* \"#utility.yul\":7460:7482   */\n      lt\n        /* \"#utility.yul\":7439:7457   */\n      0xffffffffffffffff\n        /* \"#utility.yul\":7427:7437   */\n      dup3\n        /* \"#utility.yul\":7424:7458   */\n      gt\n        /* \"#utility.yul\":7421:7483   */\n      or\n        /* \"#utility.yul\":7418:7506   */\n      iszero\n      tag_472\n      jumpi\n        /* \"#utility.yul\":7486:7504   */\n      tag_473\n      tag_255\n      jump\t// in\n    tag_473:\n        /* \"#utility.yul\":7418:7506   */\n    tag_472:\n        /* \"#utility.yul\":7526:7536   */\n      dup1\n        /* \"#utility.yul\":7522:7524   */\n      0x40\n        /* \"#utility.yul\":7515:7537   */\n      mstore\n        /* \"#utility.yul\":7305:7543   */\n      pop\n        /* \"#utility.yul\":7262:7543   */\n      pop\n      pop\n      jump\t// out\n        /* \"#utility.yul\":7549:7678   */\n    tag_365:\n        /* \"#utility.yul\":7583:7589   */\n      0x00\n        /* \"#utility.yul\":7610:7630   */\n      tag_475\n      tag_338\n      jump\t// in\n    tag_475:\n        /* \"#utility.yul\":7600:7630   */\n      swap1\n      pop\n        /* \"#utility.yul\":7639:7672   */\n      tag_476\n        /* \"#utility.yul\":7667:7671   */\n      dup3\n        /* \"#utility.yul\":7659:7665   */\n      dup3\n        /* \"#utility.yul\":7639:7672   */\n      tag_364\n      jump\t// in\n    tag_476:\n        /* \"#utility.yul\":7549:7678   */\n      swap2\n      swap1\n      pop\n      jump\t// out\n        /* \"#utility.yul\":7684:7991   */\n    tag_366:\n        /* \"#utility.yul\":7745:7749   */\n      0x00\n        /* \"#utility.yul\":7835:7853   */\n      0xffffffffffffffff\n        /* \"#utility.yul\":7827:7833   */\n      dup3\n        /* \"#utility.yul\":7824:7854   */\n      gt\n        /* \"#utility.yul\":7821:7877   */\n      iszero\n      tag_478\n      jumpi\n        /* \"#utility.yul\":7857:7875   */\n      tag_479\n      tag_255\n      jump\t// in\n    tag_479:\n        /* \"#utility.yul\":7821:7877   */\n    tag_478:\n        /* \"#utility.yul\":7895:7924   */\n      tag_480\n        /* \"#utility.yul\":7917:7923   */\n      dup3\n        /* \"#utility.yul\":7895:7924   */\n      tag_349\n      jump\t// in\n    tag_480:\n        /* \"#utility.yul\":7887:7924   */\n      swap1\n      pop\n        /* \"#utility.yul\":7979:7983   */\n      0x20\n        /* \"#utility.yul\":7973:7977   */\n      dup2\n        /* \"#utility.yul\":7969:7984   */\n      add\n        /* \"#utility.yul\":7961:7984   */\n      swap1\n      pop\n        /* \"#utility.yul\":7684:7991   */\n      swap2\n      swap1\n      pop\n      jump\t// out\n        /* \"#utility.yul\":7997:8145   */\n    tag_367:\n        /* \"#utility.yul\":8095:8101   */\n      dup3\n        /* \"#utility.yul\":8090:8093   */\n      dup2\n        /* \"#utility.yul\":8085:8088   */\n      dup4\n        /* \"#utility.yul\":8072:8102   */\n      calldatacopy\n        /* \"#utility.yul\":8136:8137   */\n      0x00\n        /* \"#utility.yul\":8127:8133   */\n      dup4\n        /* \"#utility.yul\":8122:8125   */\n      dup4\n        /* \"#utility.yul\":8118:8134   */\n      add\n        /* \"#utility.yul\":8111:8138   */\n      mstore\n        /* \"#utility.yul\":7997:8145   */\n      pop\n      pop\n      pop\n      jump\t// out\n        /* \"#utility.yul\":8151:8574   */\n    tag_368:\n        /* \"#utility.yul\":8228:8233   */\n      0x00\n        /* \"#utility.yul\":8253:8318   */\n      tag_483\n        /* \"#utility.yul\":8269:8317   */\n      tag_484\n        /* \"#utility.yul\":8310:8316   */\n      dup5\n        /* \"#utility.yul\":8269:8317   */\n      tag_366\n      jump\t// in\n    tag_484:\n        /* \"#utility.yul\":8253:8318   */\n      tag_365\n      jump\t// in\n    tag_483:\n        /* \"#utility.yul\":8244:8318   */\n      swap1\n      pop\n        /* \"#utility.yul\":8341:8347   */\n      dup3\n        /* \"#utility.yul\":8334:8339   */\n      dup2\n        /* \"#utility.yul\":8327:8348   */\n      mstore\n        /* \"#utility.yul\":8379:8383   */\n      0x20\n        /* \"#utility.yul\":8372:8377   */\n      dup2\n        /* \"#utility.yul\":8368:8384   */\n      add\n        /* \"#utility.yul\":8417:8420   */\n      dup5\n        /* \"#utility.yul\":8408:8414   */\n      dup5\n        /* \"#utility.yul\":8403:8406   */\n      dup5\n        /* \"#utility.yul\":8399:8415   */\n      add\n        /* \"#utility.yul\":8396:8421   */\n      gt\n        /* \"#utility.yul\":8393:8505   */\n      iszero\n      tag_485\n      jumpi\n        /* \"#utility.yul\":8424:8503   */\n      tag_486\n      tag_363\n      jump\t// in\n    tag_486:\n        /* \"#utility.yul\":8393:8505   */\n    tag_485:\n        /* \"#utility.yul\":8514:8568   */\n      tag_487\n        /* \"#utility.yul\":8561:8567   */\n      dup5\n        /* \"#utility.yul\":8556:8559   */\n      dup3\n        /* \"#utility.yul\":8551:8554   */\n      dup6\n        /* \"#utility.yul\":8514:8568   */\n      tag_367\n      jump\t// in\n    tag_487:\n        /* \"#utility.yul\":8234:8574   */\n      pop\n        /* \"#utility.yul\":8151:8574   */\n      swap4\n      swap3\n      pop\n      pop\n      pop\n      jump\t// out\n        /* \"#utility.yul\":8593:8931   */\n    tag_369:\n        /* \"#utility.yul\":8648:8653   */\n      0x00\n        /* \"#utility.yul\":8697:8700   */\n      dup3\n        /* \"#utility.yul\":8690:8694   */\n      0x1f\n        /* \"#utility.yul\":8682:8688   */\n      dup4\n        /* \"#utility.yul\":8678:8695   */\n      add\n        /* \"#utility.yul\":8674:8701   */\n      slt\n        /* \"#utility.yul\":8664:8786   */\n      tag_489\n      jumpi\n        /* \"#utility.yul\":8705:8784   */\n      tag_490\n      tag_362\n      jump\t// in\n    tag_490:\n        /* \"#utility.yul\":8664:8786   */\n    tag_489:\n        /* \"#utility.yul\":8822:8828   */\n      dup2\n        /* \"#utility.yul\":8809:8829   */\n      calldataload\n        /* \"#utility.yul\":8847:8925   */\n      tag_491\n        /* \"#utility.yul\":8921:8924   */\n      dup5\n        /* \"#utility.yul\":8913:8919   */\n      dup3\n        /* \"#utility.yul\":8906:8910   */\n      0x20\n        /* \"#utility.yul\":8898:8904   */\n      dup7\n        /* \"#utility.yul\":8894:8911   */\n      add\n        /* \"#utility.yul\":8847:8925   */\n      tag_368\n      jump\t// in\n    tag_491:\n        /* \"#utility.yul\":8838:8925   */\n      swap2\n      pop\n        /* \"#utility.yul\":8654:8931   */\n      pop\n        /* \"#utility.yul\":8593:8931   */\n      swap3\n      swap2\n      pop\n      pop\n      jump\t// out\n        /* \"#utility.yul\":8937:9880   */\n    tag_85:\n        /* \"#utility.yul\":9032:9038   */\n      0x00\n        /* \"#utility.yul\":9040:9046   */\n      dup1\n        /* \"#utility.yul\":9048:9054   */\n      0x00\n        /* \"#utility.yul\":9056:9062   */\n      dup1\n        /* \"#utility.yul\":9105:9108   */\n      0x80\n        /* \"#utility.yul\":9093:9102   */\n      dup6\n        /* \"#utility.yul\":9084:9091   */\n      dup8\n        /* \"#utility.yul\":9080:9103   */\n      sub\n        /* \"#utility.yul\":9076:9109   */\n      slt\n        /* \"#utility.yul\":9073:9193   */\n      iszero\n      tag_493\n      jumpi\n        /* \"#utility.yul\":9112:9191   */\n      tag_494\n      tag_339\n      jump\t// in\n    tag_494:\n        /* \"#utility.yul\":9073:9193   */\n    tag_493:\n        /* \"#utility.yul\":9232:9233   */\n      0x00\n        /* \"#utility.yul\":9257:9310   */\n      tag_495\n        /* \"#utility.yul\":9302:9309   */\n      dup8\n        /* \"#utility.yul\":9293:9299   */\n      dup3\n        /* \"#utility.yul\":9282:9291   */\n      dup9\n        /* \"#utility.yul\":9278:9300   */\n      add\n        /* \"#utility.yul\":9257:9310   */\n      tag_358\n      jump\t// in\n    tag_495:\n        /* \"#utility.yul\":9247:9310   */\n      swap5\n      pop\n        /* \"#utility.yul\":9203:9320   */\n      pop\n        /* \"#utility.yul\":9359:9361   */\n      0x20\n        /* \"#utility.yul\":9385:9438   */\n      tag_496\n        /* \"#utility.yul\":9430:9437   */\n      dup8\n        /* \"#utility.yul\":9421:9427   */\n      dup3\n        /* \"#utility.yul\":9410:9419   */\n      dup9\n        /* \"#utility.yul\":9406:9428   */\n      add\n        /* \"#utility.yul\":9385:9438   */\n      tag_358\n      jump\t// in\n    tag_496:\n        /* \"#utility.yul\":9375:9438   */\n      swap4\n      pop\n        /* \"#utility.yul\":9330:9448   */\n      pop\n        /* \"#utility.yul\":9487:9489   */\n      0x40\n        /* \"#utility.yul\":9513:9566   */\n      tag_497\n        /* \"#utility.yul\":9558:9565   */\n      dup8\n        /* \"#utility.yul\":9549:9555   */\n      dup3\n        /* \"#utility.yul\":9538:9547   */\n      dup9\n        /* \"#utility.yul\":9534:9556   */\n      add\n        /* \"#utility.yul\":9513:9566   */\n      tag_353\n      jump\t// in\n    tag_497:\n        /* \"#utility.yul\":9503:9566   */\n      swap3\n      pop\n        /* \"#utility.yul\":9458:9576   */\n      pop\n        /* \"#utility.yul\":9643:9645   */\n      0x60\n        /* \"#utility.yul\":9632:9641   */\n      dup6\n        /* \"#utility.yul\":9628:9646   */\n      add\n        /* \"#utility.yul\":9615:9647   */\n      calldataload\n        /* \"#utility.yul\":9674:9692   */\n      0xffffffffffffffff\n        /* \"#utility.yul\":9666:9672   */\n      dup2\n        /* \"#utility.yul\":9663:9693   */\n      gt\n        /* \"#utility.yul\":9660:9777   */\n      iszero\n      tag_498\n      jumpi\n        /* \"#utility.yul\":9696:9775   */\n      tag_499\n      tag_340\n      jump\t// in\n    tag_499:\n        /* \"#utility.yul\":9660:9777   */\n    tag_498:\n        /* \"#utility.yul\":9801:9863   */\n      tag_500\n        /* \"#utility.yul\":9855:9862   */\n      dup8\n        /* \"#utility.yul\":9846:9852   */\n      dup3\n        /* \"#utility.yul\":9835:9844   */\n      dup9\n        /* \"#utility.yul\":9831:9853   */\n      add\n        /* \"#utility.yul\":9801:9863   */\n      tag_369\n      jump\t// in\n    tag_500:\n        /* \"#utility.yul\":9791:9863   */\n      swap2\n      pop\n        /* \"#utility.yul\":9586:9873   */\n      pop\n        /* \"#utility.yul\":8937:9880   */\n      swap3\n      swap6\n      swap2\n      swap5\n      pop\n      swap3\n      pop\n      jump\t// out\n        /* \"#utility.yul\":9886:10360   */\n    tag_99:\n        /* \"#utility.yul\":9954:9960   */\n      0x00\n        /* \"#utility.yul\":9962:9968   */\n      dup1\n        /* \"#utility.yul\":10011:10013   */\n      0x40\n        /* \"#utility.yul\":9999:10008   */\n      dup4\n        /* \"#utility.yul\":9990:9997   */\n      dup6\n        /* \"#utility.yul\":9986:10009   */\n      sub\n        /* \"#utility.yul\":9982:10014   */\n      slt\n        /* \"#utility.yul\":9979:10098   */\n      iszero\n      tag_502\n      jumpi\n        /* \"#utility.yul\":10017:10096   */\n      tag_503\n      tag_339\n      jump\t// in\n    tag_503:\n        /* \"#utility.yul\":9979:10098   */\n    tag_502:\n        /* \"#utility.yul\":10137:10138   */\n      0x00\n        /* \"#utility.yul\":10162:10215   */\n      tag_504\n        /* \"#utility.yul\":10207:10214   */\n      dup6\n        /* \"#utility.yul\":10198:10204   */\n      dup3\n        /* \"#utility.yul\":10187:10196   */\n      dup7\n        /* \"#utility.yul\":10183:10205   */\n      add\n        /* \"#utility.yul\":10162:10215   */\n      tag_358\n      jump\t// in\n    tag_504:\n        /* \"#utility.yul\":10152:10215   */\n      swap3\n      pop\n        /* \"#utility.yul\":10108:10225   */\n      pop\n        /* \"#utility.yul\":10264:10266   */\n      0x20\n        /* \"#utility.yul\":10290:10343   */\n      tag_505\n        /* \"#utility.yul\":10335:10342   */\n      dup6\n        /* \"#utility.yul\":10326:10332   */\n      dup3\n        /* \"#utility.yul\":10315:10324   */\n      dup7\n        /* \"#utility.yul\":10311:10333   */\n      add\n        /* \"#utility.yul\":10290:10343   */\n      tag_358\n      jump\t// in\n    tag_505:\n        /* \"#utility.yul\":10280:10343   */\n      swap2\n      pop\n        /* \"#utility.yul\":10235:10353   */\n      pop\n        /* \"#utility.yul\":9886:10360   */\n      swap3\n      pop\n      swap3\n      swap1\n      pop\n      jump\t// out\n        /* \"#utility.yul\":10366:10546   */\n    tag_370:\n        /* \"#utility.yul\":10414:10491   */\n      0x4e487b7100000000000000000000000000000000000000000000000000000000\n        /* \"#utility.yul\":10411:10412   */\n      0x00\n        /* \"#utility.yul\":10404:10492   */\n      mstore\n        /* \"#utility.yul\":10511:10515   */\n      0x22\n        /* \"#utility.yul\":10508:10509   */\n      0x04\n        /* \"#utility.yul\":10501:10516   */\n      mstore\n        /* \"#utility.yul\":10535:10539   */\n      0x24\n        /* \"#utility.yul\":10532:10533   */\n      0x00\n        /* \"#utility.yul\":10525:10540   */\n      revert\n        /* \"#utility.yul\":10552:10872   */\n    tag_108:\n        /* \"#utility.yul\":10596:10602   */\n      0x00\n        /* \"#utility.yul\":10633:10634   */\n      0x02\n        /* \"#utility.yul\":10627:10631   */\n      dup3\n        /* \"#utility.yul\":10623:10635   */\n      div\n        /* \"#utility.yul\":10613:10635   */\n      swap1\n      pop\n        /* \"#utility.yul\":10680:10681   */\n      0x01\n        /* \"#utility.yul\":10674:10678   */\n      dup3\n        /* \"#utility.yul\":10670:10682   */\n      and\n        /* \"#utility.yul\":10701:10719   */\n      dup1\n        /* \"#utility.yul\":10691:10772   */\n      tag_508\n      jumpi\n        /* \"#utility.yul\":10757:10761   */\n      0x7f\n        /* \"#utility.yul\":10749:10755   */\n      dup3\n        /* \"#utility.yul\":10745:10762   */\n      and\n        /* \"#utility.yul\":10735:10762   */\n      swap2\n      pop\n        /* \"#utility.yul\":10691:10772   */\n    tag_508:\n        /* \"#utility.yul\":10819:10821   */\n      0x20\n        /* \"#utility.yul\":10811:10817   */\n      dup3\n        /* \"#utility.yul\":10808:10822   */\n      lt\n        /* \"#utility.yul\":10788:10806   */\n      dup2\n        /* \"#utility.yul\":10785:10823   */\n      sub\n        /* \"#utility.yul\":10782:10866   */\n      tag_509\n      jumpi\n        /* \"#utility.yul\":10838:10856   */\n      tag_510\n      tag_370\n      jump\t// in\n    tag_510:\n        /* \"#utility.yul\":10782:10866   */\n    tag_509:\n        /* \"#utility.yul\":10603:10872   */\n      pop\n        /* \"#utility.yul\":10552:10872   */\n      swap2\n      swap1\n      pop\n      jump\t// out\n        /* \"#utility.yul\":10878:11320   */\n    tag_132:\n        /* \"#utility.yul\":11027:11031   */\n      0x00\n        /* \"#utility.yul\":11065:11067   */\n      0x60\n        /* \"#utility.yul\":11054:11063   */\n      dup3\n        /* \"#utility.yul\":11050:11068   */\n      add\n        /* \"#utility.yul\":11042:11068   */\n      swap1\n      pop\n        /* \"#utility.yul\":11078:11149   */\n      tag_512\n        /* \"#utility.yul\":11146:11147   */\n      0x00\n        /* \"#utility.yul\":11135:11144   */\n      dup4\n        /* \"#utility.yul\":11131:11148   */\n      add\n        /* \"#utility.yul\":11122:11128   */\n      dup7\n        /* \"#utility.yul\":11078:11149   */\n      tag_356\n      jump\t// in\n    tag_512:\n        /* \"#utility.yul\":11159:11231   */\n      tag_513\n        /* \"#utility.yul\":11227:11229   */\n      0x20\n        /* \"#utility.yul\":11216:11225   */\n      dup4\n        /* \"#utility.yul\":11212:11230   */\n      add\n        /* \"#utility.yul\":11203:11209   */\n      dup6\n        /* \"#utility.yul\":11159:11231   */\n      tag_359\n      jump\t// in\n    tag_513:\n        /* \"#utility.yul\":11241:11313   */\n      tag_514\n        /* \"#utility.yul\":11309:11311   */\n      0x40\n        /* \"#utility.yul\":11298:11307   */\n      dup4\n        /* \"#utility.yul\":11294:11312   */\n      add\n        /* \"#utility.yul\":11285:11291   */\n      dup5\n        /* \"#utility.yul\":11241:11313   */\n      tag_356\n      jump\t// in\n    tag_514:\n        /* \"#utility.yul\":10878:11320   */\n      swap5\n      swap4\n      pop\n      pop\n      pop\n      pop\n      jump\t// out\n        /* \"#utility.yul\":11326:11658   */\n    tag_137:\n        /* \"#utility.yul\":11447:11451   */\n      0x00\n        /* \"#utility.yul\":11485:11487   */\n      0x40\n        /* \"#utility.yul\":11474:11483   */\n      dup3\n        /* \"#utility.yul\":11470:11488   */\n      add\n        /* \"#utility.yul\":11462:11488   */\n      swap1\n      pop\n        /* \"#utility.yul\":11498:11569   */\n      tag_516\n        /* \"#utility.yul\":11566:11567   */\n      0x00\n        /* \"#utility.yul\":11555:11564   */\n      dup4\n        /* \"#utility.yul\":11551:11568   */\n      add\n        /* \"#utility.yul\":11542:11548   */\n      dup6\n        /* \"#utility.yul\":11498:11569   */\n      tag_356\n      jump\t// in\n    tag_516:\n        /* \"#utility.yul\":11579:11651   */\n      tag_517\n        /* \"#utility.yul\":11647:11649   */\n      0x20\n        /* \"#utility.yul\":11636:11645   */\n      dup4\n        /* \"#utility.yul\":11632:11650   */\n      add\n        /* \"#utility.yul\":11623:11629   */\n      dup5\n        /* \"#utility.yul\":11579:11651   */\n      tag_359\n      jump\t// in\n    tag_517:\n        /* \"#utility.yul\":11326:11658   */\n      swap4\n      swap3\n      pop\n      pop\n      pop\n      jump\t// out\n        /* \"#utility.yul\":11664:11844   */\n    tag_146:\n        /* \"#utility.yul\":11712:11789   */\n      0x4e487b7100000000000000000000000000000000000000000000000000000000\n        /* \"#utility.yul\":11709:11710   */\n      0x00\n        /* \"#utility.yul\":11702:11790   */\n      mstore\n        /* \"#utility.yul\":11809:11813   */\n      0x32\n        /* \"#utility.yul\":11806:11807   */\n      0x04\n        /* \"#utility.yul\":11799:11814   */\n      mstore\n        /* \"#utility.yul\":11833:11837   */\n      0x24\n        /* \"#utility.yul\":11830:11831   */\n      0x00\n        /* \"#utility.yul\":11823:11838   */\n      revert\n        /* \"#utility.yul\":11850:12013   */\n    tag_371:\n        /* \"#utility.yul\":11990:12005   */\n      0x4e6f206d6f7265206d696e742e00000000000000000000000000000000000000\n        /* \"#utility.yul\":11986:11987   */\n      0x00\n        /* \"#utility.yul\":11978:11984   */\n      dup3\n        /* \"#utility.yul\":11974:11988   */\n      add\n        /* \"#utility.yul\":11967:12006   */\n      mstore\n        /* \"#utility.yul\":11850:12013   */\n      pop\n      jump\t// out\n        /* \"#utility.yul\":12019:12385   */\n    tag_372:\n        /* \"#utility.yul\":12161:12164   */\n      0x00\n        /* \"#utility.yul\":12182:12249   */\n      tag_521\n        /* \"#utility.yul\":12246:12248   */\n      0x0d\n        /* \"#utility.yul\":12241:12244   */\n      dup4\n        /* \"#utility.yul\":12182:12249   */\n      tag_347\n      jump\t// in\n    tag_521:\n        /* \"#utility.yul\":12175:12249   */\n      swap2\n      pop\n        /* \"#utility.yul\":12258:12351   */\n      tag_522\n        /* \"#utility.yul\":12347:12350   */\n      dup3\n        /* \"#utility.yul\":12258:12351   */\n      tag_371\n      jump\t// in\n    tag_522:\n        /* \"#utility.yul\":12376:12378   */\n      0x20\n        /* \"#utility.yul\":12371:12374   */\n      dup3\n        /* \"#utility.yul\":12367:12379   */\n      add\n        /* \"#utility.yul\":12360:12379   */\n      swap1\n      pop\n        /* \"#utility.yul\":12019:12385   */\n      swap2\n      swap1\n      pop\n      jump\t// out\n        /* \"#utility.yul\":12391:12810   */\n    tag_172:\n        /* \"#utility.yul\":12557:12561   */\n      0x00\n        /* \"#utility.yul\":12595:12597   */\n      0x20\n        /* \"#utility.yul\":12584:12593   */\n      dup3\n        /* \"#utility.yul\":12580:12598   */\n      add\n        /* \"#utility.yul\":12572:12598   */\n      swap1\n      pop\n        /* \"#utility.yul\":12644:12653   */\n      dup2\n        /* \"#utility.yul\":12638:12642   */\n      dup2\n        /* \"#utility.yul\":12634:12654   */\n      sub\n        /* \"#utility.yul\":12630:12631   */\n      0x00\n        /* \"#utility.yul\":12619:12628   */\n      dup4\n        /* \"#utility.yul\":12615:12632   */\n      add\n        /* \"#utility.yul\":12608:12655   */\n      mstore\n        /* \"#utility.yul\":12672:12803   */\n      tag_524\n        /* \"#utility.yul\":12798:12802   */\n      dup2\n        /* \"#utility.yul\":12672:12803   */\n      tag_372\n      jump\t// in\n    tag_524:\n        /* \"#utility.yul\":12664:12803   */\n      swap1\n      pop\n        /* \"#utility.yul\":12391:12810   */\n      swap2\n      swap1\n      pop\n      jump\t// out\n        /* \"#utility.yul\":12816:12979   */\n    tag_373:\n        /* \"#utility.yul\":12956:12971   */\n      0x4e6f742077686974656c69737400000000000000000000000000000000000000\n        /* \"#utility.yul\":12952:12953   */\n      0x00\n        /* \"#utility.yul\":12944:12950   */\n      dup3\n        /* \"#utility.yul\":12940:12954   */\n      add\n        /* \"#utility.yul\":12933:12972   */\n      mstore\n        /* \"#utility.yul\":12816:12979   */\n      pop\n      jump\t// out\n        /* \"#utility.yul\":12985:13351   */\n    tag_374:\n        /* \"#utility.yul\":13127:13130   */\n      0x00\n        /* \"#utility.yul\":13148:13215   */\n      tag_527\n        /* \"#utility.yul\":13212:13214   */\n      0x0d\n        /* \"#utility.yul\":13207:13210   */\n      dup4\n        /* \"#utility.yul\":13148:13215   */\n      tag_347\n      jump\t// in\n    tag_527:\n        /* \"#utility.yul\":13141:13215   */\n      swap2\n      pop\n        /* \"#utility.yul\":13224:13317   */\n      tag_528\n        /* \"#utility.yul\":13313:13316   */\n      dup3\n        /* \"#utility.yul\":13224:13317   */\n      tag_373\n      jump\t// in\n    tag_528:\n        /* \"#utility.yul\":13342:13344   */\n      0x20\n        /* \"#utility.yul\":13337:13340   */\n      dup3\n        /* \"#utility.yul\":13333:13345   */\n      add\n        /* \"#utility.yul\":13326:13345   */\n      swap1\n      pop\n        /* \"#utility.yul\":12985:13351   */\n      swap2\n      swap1\n      pop\n      jump\t// out\n        /* \"#utility.yul\":13357:13776   */\n    tag_175:\n        /* \"#utility.yul\":13523:13527   */\n      0x00\n        /* \"#utility.yul\":13561:13563   */\n      0x20\n        /* \"#utility.yul\":13550:13559   */\n      dup3\n        /* \"#utility.yul\":13546:13564   */\n      add\n        /* \"#utility.yul\":13538:13564   */\n      swap1\n      pop\n        /* \"#utility.yul\":13610:13619   */\n      dup2\n        /* \"#utility.yul\":13604:13608   */\n      dup2\n        /* \"#utility.yul\":13600:13620   */\n      sub\n        /* \"#utility.yul\":13596:13597   */\n      0x00\n        /* \"#utility.yul\":13585:13594   */\n      dup4\n        /* \"#utility.yul\":13581:13598   */\n      add\n        /* \"#utility.yul\":13574:13621   */\n      mstore\n        /* \"#utility.yul\":13638:13769   */\n      tag_530\n        /* \"#utility.yul\":13764:13768   */\n      dup2\n        /* \"#utility.yul\":13638:13769   */\n      tag_374\n      jump\t// in\n    tag_530:\n        /* \"#utility.yul\":13630:13769   */\n      swap1\n      pop\n        /* \"#utility.yul\":13357:13776   */\n      swap2\n      swap1\n      pop\n      jump\t// out\n        /* \"#utility.yul\":13782:13962   */\n    tag_375:\n        /* \"#utility.yul\":13830:13907   */\n      0x4e487b7100000000000000000000000000000000000000000000000000000000\n        /* \"#utility.yul\":13827:13828   */\n      0x00\n        /* \"#utility.yul\":13820:13908   */\n      mstore\n        /* \"#utility.yul\":13927:13931   */\n      0x11\n        /* \"#utility.yul\":13924:13925   */\n      0x04\n        /* \"#utility.yul\":13917:13932   */\n      mstore\n        /* \"#utility.yul\":13951:13955   */\n      0x24\n        /* \"#utility.yul\":13948:13949   */\n      0x00\n        /* \"#utility.yul\":13941:13956   */\n      revert\n        /* \"#utility.yul\":13968:14159   */\n    tag_178:\n        /* \"#utility.yul\":14008:14011   */\n      0x00\n        /* \"#utility.yul\":14027:14047   */\n      tag_533\n        /* \"#utility.yul\":14045:14046   */\n      dup3\n        /* \"#utility.yul\":14027:14047   */\n      tag_351\n      jump\t// in\n    tag_533:\n        /* \"#utility.yul\":14022:14047   */\n      swap2\n      pop\n        /* \"#utility.yul\":14061:14081   */\n      tag_534\n        /* \"#utility.yul\":14079:14080   */\n      dup4\n        /* \"#utility.yul\":14061:14081   */\n      tag_351\n      jump\t// in\n    tag_534:\n        /* \"#utility.yul\":14056:14081   */\n      swap3\n      pop\n        /* \"#utility.yul\":14104:14105   */\n      dup3\n        /* \"#utility.yul\":14101:14102   */\n      dup3\n        /* \"#utility.yul\":14097:14106   */\n      add\n        /* \"#utility.yul\":14090:14106   */\n      swap1\n      pop\n        /* \"#utility.yul\":14125:14128   */\n      dup1\n        /* \"#utility.yul\":14122:14123   */\n      dup3\n        /* \"#utility.yul\":14119:14129   */\n      gt\n        /* \"#utility.yul\":14116:14152   */\n      iszero\n      tag_535\n      jumpi\n        /* \"#utility.yul\":14132:14150   */\n      tag_536\n      tag_375\n      jump\t// in\n    tag_536:\n        /* \"#utility.yul\":14116:14152   */\n    tag_535:\n        /* \"#utility.yul\":13968:14159   */\n      swap3\n      swap2\n      pop\n      pop\n      jump\t// out\n        /* \"#utility.yul\":14165:14313   */\n    tag_376:\n        /* \"#utility.yul\":14267:14278   */\n      0x00\n        /* \"#utility.yul\":14304:14307   */\n      dup2\n        /* \"#utility.yul\":14289:14307   */\n      swap1\n      pop\n        /* \"#utility.yul\":14165:14313   */\n      swap3\n      swap2\n      pop\n      pop\n      jump\t// out\n        /* \"#utility.yul\":14319:14460   */\n    tag_377:\n        /* \"#utility.yul\":14368:14372   */\n      0x00\n        /* \"#utility.yul\":14391:14394   */\n      dup2\n        /* \"#utility.yul\":14383:14394   */\n      swap1\n      pop\n        /* \"#utility.yul\":14414:14417   */\n      dup2\n        /* \"#utility.yul\":14411:14412   */\n      0x00\n        /* \"#utility.yul\":14404:14418   */\n      mstore\n        /* \"#utility.yul\":14448:14452   */\n      0x20\n        /* \"#utility.yul\":14445:14446   */\n      0x00\n        /* \"#utility.yul\":14435:14453   */\n      keccak256\n        /* \"#utility.yul\":14427:14453   */\n      swap1\n      pop\n        /* \"#utility.yul\":14319:14460   */\n      swap2\n      swap1\n      pop\n      jump\t// out\n        /* \"#utility.yul\":14490:15364   */\n    tag_378:\n        /* \"#utility.yul\":14593:14596   */\n      0x00\n        /* \"#utility.yul\":14630:14635   */\n      dup2\n        /* \"#utility.yul\":14624:14636   */\n      sload\n        /* \"#utility.yul\":14659:14695   */\n      tag_540\n        /* \"#utility.yul\":14685:14694   */\n      dup2\n        /* \"#utility.yul\":14659:14695   */\n      tag_108\n      jump\t// in\n    tag_540:\n        /* \"#utility.yul\":14711:14800   */\n      tag_541\n        /* \"#utility.yul\":14793:14799   */\n      dup2\n        /* \"#utility.yul\":14788:14791   */\n      dup7\n        /* \"#utility.yul\":14711:14800   */\n      tag_376\n      jump\t// in\n    tag_541:\n        /* \"#utility.yul\":14704:14800   */\n      swap5\n      pop\n        /* \"#utility.yul\":14831:14832   */\n      0x01\n        /* \"#utility.yul\":14820:14829   */\n      dup3\n        /* \"#utility.yul\":14816:14833   */\n      and\n        /* \"#utility.yul\":14847:14848   */\n      0x00\n        /* \"#utility.yul\":14842:15008   */\n      dup2\n      eq\n      tag_543\n      jumpi\n        /* \"#utility.yul\":15022:15023   */\n      0x01\n        /* \"#utility.yul\":15017:15358   */\n      dup2\n      eq\n      tag_544\n      jumpi\n        /* \"#utility.yul\":14809:15358   */\n      jump(tag_542)\n        /* \"#utility.yul\":14842:15008   */\n    tag_543:\n        /* \"#utility.yul\":14926:14930   */\n      0xff\n        /* \"#utility.yul\":14922:14931   */\n      not\n        /* \"#utility.yul\":14911:14920   */\n      dup4\n        /* \"#utility.yul\":14907:14932   */\n      and\n        /* \"#utility.yul\":14902:14905   */\n      dup7\n        /* \"#utility.yul\":14895:14933   */\n      mstore\n        /* \"#utility.yul\":14988:14994   */\n      dup2\n        /* \"#utility.yul\":14981:14995   */\n      iszero\n        /* \"#utility.yul\":14974:14996   */\n      iszero\n        /* \"#utility.yul\":14966:14972   */\n      dup3\n        /* \"#utility.yul\":14962:14997   */\n      mul\n        /* \"#utility.yul\":14957:14960   */\n      dup7\n        /* \"#utility.yul\":14953:14998   */\n      add\n        /* \"#utility.yul\":14946:14998   */\n      swap4\n      pop\n        /* \"#utility.yul\":14842:15008   */\n      jump(tag_542)\n        /* \"#utility.yul\":15017:15358   */\n    tag_544:\n        /* \"#utility.yul\":15084:15122   */\n      tag_545\n        /* \"#utility.yul\":15116:15121   */\n      dup6\n        /* \"#utility.yul\":15084:15122   */\n      tag_377\n      jump\t// in\n    tag_545:\n        /* \"#utility.yul\":15144:15145   */\n      0x00\n        /* \"#utility.yul\":15158:15312   */\n    tag_546:\n        /* \"#utility.yul\":15172:15178   */\n      dup4\n        /* \"#utility.yul\":15169:15170   */\n      dup2\n        /* \"#utility.yul\":15166:15179   */\n      lt\n        /* \"#utility.yul\":15158:15312   */\n      iszero\n      tag_548\n      jumpi\n        /* \"#utility.yul\":15246:15253   */\n      dup2\n        /* \"#utility.yul\":15240:15254   */\n      sload\n        /* \"#utility.yul\":15236:15237   */\n      dup2\n        /* \"#utility.yul\":15231:15234   */\n      dup10\n        /* \"#utility.yul\":15227:15238   */\n      add\n        /* \"#utility.yul\":15220:15255   */\n      mstore\n        /* \"#utility.yul\":15296:15297   */\n      0x01\n        /* \"#utility.yul\":15287:15294   */\n      dup3\n        /* \"#utility.yul\":15283:15298   */\n      add\n        /* \"#utility.yul\":15272:15298   */\n      swap2\n      pop\n        /* \"#utility.yul\":15194:15198   */\n      0x20\n        /* \"#utility.yul\":15191:15192   */\n      dup2\n        /* \"#utility.yul\":15187:15199   */\n      add\n        /* \"#utility.yul\":15182:15199   */\n      swap1\n      pop\n        /* \"#utility.yul\":15158:15312   */\n      jump(tag_546)\n    tag_548:\n        /* \"#utility.yul\":15341:15347   */\n      dup4\n        /* \"#utility.yul\":15336:15339   */\n      dup9\n        /* \"#utility.yul\":15332:15348   */\n      add\n        /* \"#utility.yul\":15325:15348   */\n      swap6\n      pop\n        /* \"#utility.yul\":15024:15358   */\n      pop\n      pop\n        /* \"#utility.yul\":14809:15358   */\n    tag_542:\n      pop\n        /* \"#utility.yul\":14597:15364   */\n      pop\n      pop\n        /* \"#utility.yul\":14490:15364   */\n      swap3\n      swap2\n      pop\n      pop\n      jump\t// out\n        /* \"#utility.yul\":15370:15760   */\n    tag_379:\n        /* \"#utility.yul\":15476:15479   */\n      0x00\n        /* \"#utility.yul\":15504:15543   */\n      tag_550\n        /* \"#utility.yul\":15537:15542   */\n      dup3\n        /* \"#utility.yul\":15504:15543   */\n      tag_346\n      jump\t// in\n    tag_550:\n        /* \"#utility.yul\":15559:15648   */\n      tag_551\n        /* \"#utility.yul\":15641:15647   */\n      dup2\n        /* \"#utility.yul\":15636:15639   */\n      dup6\n        /* \"#utility.yul\":15559:15648   */\n      tag_376\n      jump\t// in\n    tag_551:\n        /* \"#utility.yul\":15552:15648   */\n      swap4\n      pop\n        /* \"#utility.yul\":15657:15722   */\n      tag_552\n        /* \"#utility.yul\":15715:15721   */\n      dup2\n        /* \"#utility.yul\":15710:15713   */\n      dup6\n        /* \"#utility.yul\":15703:15707   */\n      0x20\n        /* \"#utility.yul\":15696:15701   */\n      dup7\n        /* \"#utility.yul\":15692:15708   */\n      add\n        /* \"#utility.yul\":15657:15722   */\n      tag_348\n      jump\t// in\n    tag_552:\n        /* \"#utility.yul\":15747:15753   */\n      dup1\n        /* \"#utility.yul\":15742:15745   */\n      dup5\n        /* \"#utility.yul\":15738:15754   */\n      add\n        /* \"#utility.yul\":15731:15754   */\n      swap2\n      pop\n        /* \"#utility.yul\":15480:15760   */\n      pop\n        /* \"#utility.yul\":15370:15760   */\n      swap3\n      swap2\n      pop\n      pop\n      jump\t// out\n        /* \"#utility.yul\":15766:15921   */\n    tag_380:\n        /* \"#utility.yul\":15906:15913   */\n      0x2e6a736f6e000000000000000000000000000000000000000000000000000000\n        /* \"#utility.yul\":15902:15903   */\n      0x00\n        /* \"#utility.yul\":15894:15900   */\n      dup3\n        /* \"#utility.yul\":15890:15904   */\n      add\n        /* \"#utility.yul\":15883:15914   */\n      mstore\n        /* \"#utility.yul\":15766:15921   */\n      pop\n      jump\t// out\n        /* \"#utility.yul\":15927:16327   */\n    tag_381:\n        /* \"#utility.yul\":16087:16090   */\n      0x00\n        /* \"#utility.yul\":16108:16192   */\n      tag_555\n        /* \"#utility.yul\":16190:16191   */\n      0x05\n        /* \"#utility.yul\":16185:16188   */\n      dup4\n        /* \"#utility.yul\":16108:16192   */\n      tag_376\n      jump\t// in\n    tag_555:\n        /* \"#utility.yul\":16101:16192   */\n      swap2\n      pop\n        /* \"#utility.yul\":16201:16294   */\n      tag_556\n        /* \"#utility.yul\":16290:16293   */\n      dup3\n        /* \"#utility.yul\":16201:16294   */\n      tag_380\n      jump\t// in\n    tag_556:\n        /* \"#utility.yul\":16319:16320   */\n      0x05\n        /* \"#utility.yul\":16314:16317   */\n      dup3\n        /* \"#utility.yul\":16310:16321   */\n      add\n        /* \"#utility.yul\":16303:16321   */\n      swap1\n      pop\n        /* \"#utility.yul\":15927:16327   */\n      swap2\n      swap1\n      pop\n      jump\t// out\n        /* \"#utility.yul\":16333:17028   */\n    tag_186:\n        /* \"#utility.yul\":16611:16614   */\n      0x00\n        /* \"#utility.yul\":16633:16725   */\n      tag_558\n        /* \"#utility.yul\":16721:16724   */\n      dup3\n        /* \"#utility.yul\":16712:16718   */\n      dup6\n        /* \"#utility.yul\":16633:16725   */\n      tag_378\n      jump\t// in\n    tag_558:\n        /* \"#utility.yul\":16626:16725   */\n      swap2\n      pop\n        /* \"#utility.yul\":16742:16837   */\n      tag_559\n        /* \"#utility.yul\":16833:16836   */\n      dup3\n        /* \"#utility.yul\":16824:16830   */\n      dup5\n        /* \"#utility.yul\":16742:16837   */\n      tag_379\n      jump\t// in\n    tag_559:\n        /* \"#utility.yul\":16735:16837   */\n      swap2\n      pop\n        /* \"#utility.yul\":16854:17002   */\n      tag_560\n        /* \"#utility.yul\":16998:17001   */\n      dup3\n        /* \"#utility.yul\":16854:17002   */\n      tag_381\n      jump\t// in\n    tag_560:\n        /* \"#utility.yul\":16847:17002   */\n      swap2\n      pop\n        /* \"#utility.yul\":17019:17022   */\n      dup2\n        /* \"#utility.yul\":17012:17022   */\n      swap1\n      pop\n        /* \"#utility.yul\":16333:17028   */\n      swap4\n      swap3\n      pop\n      pop\n      pop\n      jump\t// out\n        /* \"#utility.yul\":17034:17132   */\n    tag_382:\n        /* \"#utility.yul\":17085:17091   */\n      0x00\n        /* \"#utility.yul\":17119:17124   */\n      dup2\n        /* \"#utility.yul\":17113:17125   */\n      mload\n        /* \"#utility.yul\":17103:17125   */\n      swap1\n      pop\n        /* \"#utility.yul\":17034:17132   */\n      swap2\n      swap1\n      pop\n      jump\t// out\n        /* \"#utility.yul\":17138:17306   */\n    tag_383:\n        /* \"#utility.yul\":17221:17232   */\n      0x00\n        /* \"#utility.yul\":17255:17261   */\n      dup3\n        /* \"#utility.yul\":17250:17253   */\n      dup3\n        /* \"#utility.yul\":17243:17262   */\n      mstore\n        /* \"#utility.yul\":17295:17299   */\n      0x20\n        /* \"#utility.yul\":17290:17293   */\n      dup3\n        /* \"#utility.yul\":17286:17300   */\n      add\n        /* \"#utility.yul\":17271:17300   */\n      swap1\n      pop\n        /* \"#utility.yul\":17138:17306   */\n      swap3\n      swap2\n      pop\n      pop\n      jump\t// out\n        /* \"#utility.yul\":17312:17685   */\n    tag_384:\n        /* \"#utility.yul\":17398:17401   */\n      0x00\n        /* \"#utility.yul\":17426:17464   */\n      tag_564\n        /* \"#utility.yul\":17458:17463   */\n      dup3\n        /* \"#utility.yul\":17426:17464   */\n      tag_382\n      jump\t// in\n    tag_564:\n        /* \"#utility.yul\":17480:17550   */\n      tag_565\n        /* \"#utility.yul\":17543:17549   */\n      dup2\n        /* \"#utility.yul\":17538:17541   */\n      dup6\n        /* \"#utility.yul\":17480:17550   */\n      tag_383\n      jump\t// in\n    tag_565:\n        /* \"#utility.yul\":17473:17550   */\n      swap4\n      pop\n        /* \"#utility.yul\":17559:17624   */\n      tag_566\n        /* \"#utility.yul\":17617:17623   */\n      dup2\n        /* \"#utility.yul\":17612:17615   */\n      dup6\n        /* \"#utility.yul\":17605:17609   */\n      0x20\n        /* \"#utility.yul\":17598:17603   */\n      dup7\n        /* \"#utility.yul\":17594:17610   */\n      add\n        /* \"#utility.yul\":17559:17624   */\n      tag_348\n      jump\t// in\n    tag_566:\n        /* \"#utility.yul\":17649:17678   */\n      tag_567\n        /* \"#utility.yul\":17671:17677   */\n      dup2\n        /* \"#utility.yul\":17649:17678   */\n      tag_349\n      jump\t// in\n    tag_567:\n        /* \"#utility.yul\":17644:17647   */\n      dup5\n        /* \"#utility.yul\":17640:17679   */\n      add\n        /* \"#utility.yul\":17633:17679   */\n      swap2\n      pop\n        /* \"#utility.yul\":17402:17685   */\n      pop\n        /* \"#utility.yul\":17312:17685   */\n      swap3\n      swap2\n      pop\n      pop\n      jump\t// out\n        /* \"#utility.yul\":17691:18331   */\n    tag_228:\n        /* \"#utility.yul\":17886:17890   */\n      0x00\n        /* \"#utility.yul\":17924:17927   */\n      0x80\n        /* \"#utility.yul\":17913:17922   */\n      dup3\n        /* \"#utility.yul\":17909:17928   */\n      add\n        /* \"#utility.yul\":17901:17928   */\n      swap1\n      pop\n        /* \"#utility.yul\":17938:18009   */\n      tag_569\n        /* \"#utility.yul\":18006:18007   */\n      0x00\n        /* \"#utility.yul\":17995:18004   */\n      dup4\n        /* \"#utility.yul\":17991:18008   */\n      add\n        /* \"#utility.yul\":17982:17988   */\n      dup8\n        /* \"#utility.yul\":17938:18009   */\n      tag_356\n      jump\t// in\n    tag_569:\n        /* \"#utility.yul\":18019:18091   */\n      tag_570\n        /* \"#utility.yul\":18087:18089   */\n      0x20\n        /* \"#utility.yul\":18076:18085   */\n      dup4\n        /* \"#utility.yul\":18072:18090   */\n      add\n        /* \"#utility.yul\":18063:18069   */\n      dup7\n        /* \"#utility.yul\":18019:18091   */\n      tag_356\n      jump\t// in\n    tag_570:\n        /* \"#utility.yul\":18101:18173   */\n      tag_571\n        /* \"#utility.yul\":18169:18171   */\n      0x40\n        /* \"#utility.yul\":18158:18167   */\n      dup4\n        /* \"#utility.yul\":18154:18172   */\n      add\n        /* \"#utility.yul\":18145:18151   */\n      dup6\n        /* \"#utility.yul\":18101:18173   */\n      tag_359\n      jump\t// in\n    tag_571:\n        /* \"#utility.yul\":18220:18229   */\n      dup2\n        /* \"#utility.yul\":18214:18218   */\n      dup2\n        /* \"#utility.yul\":18210:18230   */\n      sub\n        /* \"#utility.yul\":18205:18207   */\n      0x60\n        /* \"#utility.yul\":18194:18203   */\n      dup4\n        /* \"#utility.yul\":18190:18208   */\n      add\n        /* \"#utility.yul\":18183:18231   */\n      mstore\n        /* \"#utility.yul\":18248:18324   */\n      tag_572\n        /* \"#utility.yul\":18319:18323   */\n      dup2\n        /* \"#utility.yul\":18310:18316   */\n      dup5\n        /* \"#utility.yul\":18248:18324   */\n      tag_384\n      jump\t// in\n    tag_572:\n        /* \"#utility.yul\":18240:18324   */\n      swap1\n      pop\n        /* \"#utility.yul\":17691:18331   */\n      swap6\n      swap5\n      pop\n      pop\n      pop\n      pop\n      pop\n      jump\t// out\n        /* \"#utility.yul\":18337:18478   */\n    tag_385:\n        /* \"#utility.yul\":18393:18398   */\n      0x00\n        /* \"#utility.yul\":18424:18430   */\n      dup2\n        /* \"#utility.yul\":18418:18431   */\n      mload\n        /* \"#utility.yul\":18409:18431   */\n      swap1\n      pop\n        /* \"#utility.yul\":18440:18472   */\n      tag_574\n        /* \"#utility.yul\":18466:18471   */\n      dup2\n        /* \"#utility.yul\":18440:18472   */\n      tag_342\n      jump\t// in\n    tag_574:\n        /* \"#utility.yul\":18337:18478   */\n      swap3\n      swap2\n      pop\n      pop\n      jump\t// out\n        /* \"#utility.yul\":18484:18833   */\n    tag_231:\n        /* \"#utility.yul\":18553:18559   */\n      0x00\n        /* \"#utility.yul\":18602:18604   */\n      0x20\n        /* \"#utility.yul\":18590:18599   */\n      dup3\n        /* \"#utility.yul\":18581:18588   */\n      dup5\n        /* \"#utility.yul\":18577:18600   */\n      sub\n        /* \"#utility.yul\":18573:18605   */\n      slt\n        /* \"#utility.yul\":18570:18689   */\n      iszero\n      tag_576\n      jumpi\n        /* \"#utility.yul\":18608:18687   */\n      tag_577\n      tag_339\n      jump\t// in\n    tag_577:\n        /* \"#utility.yul\":18570:18689   */\n    tag_576:\n        /* \"#utility.yul\":18728:18729   */\n      0x00\n        /* \"#utility.yul\":18753:18816   */\n      tag_578\n        /* \"#utility.yul\":18808:18815   */\n      dup5\n        /* \"#utility.yul\":18799:18805   */\n      dup3\n        /* \"#utility.yul\":18788:18797   */\n      dup6\n        /* \"#utility.yul\":18784:18806   */\n      add\n        /* \"#utility.yul\":18753:18816   */\n      tag_385\n      jump\t// in\n    tag_578:\n        /* \"#utility.yul\":18743:18816   */\n      swap2\n      pop\n        /* \"#utility.yul\":18699:18826   */\n      pop\n        /* \"#utility.yul\":18484:18833   */\n      swap3\n      swap2\n      pop\n      pop\n      jump\t// out\n        /* \"#utility.yul\":18839:19019   */\n    tag_261:\n        /* \"#utility.yul\":18887:18964   */\n      0x4e487b7100000000000000000000000000000000000000000000000000000000\n        /* \"#utility.yul\":18884:18885   */\n      0x00\n        /* \"#utility.yul\":18877:18965   */\n      mstore\n        /* \"#utility.yul\":18984:18988   */\n      0x12\n        /* \"#utility.yul\":18981:18982   */\n      0x04\n        /* \"#utility.yul\":18974:18989   */\n      mstore\n        /* \"#utility.yul\":19008:19012   */\n      0x24\n        /* \"#utility.yul\":19005:19006   */\n      0x00\n        /* \"#utility.yul\":18998:19013   */\n      revert\n        /* \"#utility.yul\":19025:19219   */\n    tag_290:\n        /* \"#utility.yul\":19065:19069   */\n      0x00\n        /* \"#utility.yul\":19085:19105   */\n      tag_581\n        /* \"#utility.yul\":19103:19104   */\n      dup3\n        /* \"#utility.yul\":19085:19105   */\n      tag_351\n      jump\t// in\n    tag_581:\n        /* \"#utility.yul\":19080:19105   */\n      swap2\n      pop\n        /* \"#utility.yul\":19119:19139   */\n      tag_582\n        /* \"#utility.yul\":19137:19138   */\n      dup4\n        /* \"#utility.yul\":19119:19139   */\n      tag_351\n      jump\t// in\n    tag_582:\n        /* \"#utility.yul\":19114:19139   */\n      swap3\n      pop\n        /* \"#utility.yul\":19163:19164   */\n      dup3\n        /* \"#utility.yul\":19160:19161   */\n      dup3\n        /* \"#utility.yul\":19156:19165   */\n      sub\n        /* \"#utility.yul\":19148:19165   */\n      swap1\n      pop\n        /* \"#utility.yul\":19187:19188   */\n      dup2\n        /* \"#utility.yul\":19181:19185   */\n      dup2\n        /* \"#utility.yul\":19178:19189   */\n      gt\n        /* \"#utility.yul\":19175:19212   */\n      iszero\n      tag_583\n      jumpi\n        /* \"#utility.yul\":19192:19210   */\n      tag_584\n      tag_375\n      jump\t// in\n    tag_584:\n        /* \"#utility.yul\":19175:19212   */\n    tag_583:\n        /* \"#utility.yul\":19025:19219   */\n      swap3\n      swap2\n      pop\n      pop\n      jump\t// out\n        /* \"#utility.yul\":19225:19405   */\n    tag_299:\n        /* \"#utility.yul\":19273:19350   */\n      0x4e487b7100000000000000000000000000000000000000000000000000000000\n        /* \"#utility.yul\":19270:19271   */\n      0x00\n        /* \"#utility.yul\":19263:19351   */\n      mstore\n        /* \"#utility.yul\":19370:19374   */\n      0x31\n        /* \"#utility.yul\":19367:19368   */\n      0x04\n        /* \"#utility.yul\":19360:19375   */\n      mstore\n        /* \"#utility.yul\":19394:19398   */\n      0x24\n        /* \"#utility.yul\":19391:19392   */\n      0x00\n        /* \"#utility.yul\":19384:19399   */\n      revert\n\n    auxdata: 0xa2646970667358221220ebce2ad9b405bb30baaf9c9d9d53d1fe3ea2549fd8a28c33e1d42e5d01ae58a664736f6c634300081a0033\n}\n",
				"bytecode": {
					"linkReferences": {},
					"object": "608060405234801561000f575f80fd5b50604051612cfb380380612cfb833981810160405281019061003191906101b9565b8282815f9081610041919061046a565b508060019081610051919061046a565b50505080600a9081610063919061046a565b50505050610539565b5f604051905090565b5f80fd5b5f80fd5b5f80fd5b5f80fd5b5f601f19601f8301169050919050565b7f4e487b71000000000000000000000000000000000000000000000000000000005f52604160045260245ffd5b6100cb82610085565b810181811067ffffffffffffffff821117156100ea576100e9610095565b5b80604052505050565b5f6100fc61006c565b905061010882826100c2565b919050565b5f67ffffffffffffffff82111561012757610126610095565b5b61013082610085565b9050602081019050919050565b8281835e5f83830152505050565b5f61015d6101588461010d565b6100f3565b90508281526020810184848401111561017957610178610081565b5b61018484828561013d565b509392505050565b5f82601f8301126101a05761019f61007d565b5b81516101b084826020860161014b565b91505092915050565b5f805f606084860312156101d0576101cf610075565b5b5f84015167ffffffffffffffff8111156101ed576101ec610079565b5b6101f98682870161018c565b935050602084015167ffffffffffffffff81111561021a57610219610079565b5b6102268682870161018c565b925050604084015167ffffffffffffffff81111561024757610246610079565b5b6102538682870161018c565b9150509250925092565b5f81519050919050565b7f4e487b71000000000000000000000000000000000000000000000000000000005f52602260045260245ffd5b5f60028204905060018216806102ab57607f821691505b6020821081036102be576102bd610267565b5b50919050565b5f819050815f5260205f209050919050565b5f6020601f8301049050919050565b5f82821b905092915050565b5f600883026103207fffffffffffffffffffffffffffffffffffffffffffffffffffffffffffffffff826102e5565b61032a86836102e5565b95508019841693508086168417925050509392505050565b5f819050919050565b5f819050919050565b5f61036e61036961036484610342565b61034b565b610342565b9050919050565b5f819050919050565b61038783610354565b61039b61039382610375565b8484546102f1565b825550505050565b5f90565b6103af6103a3565b6103ba81848461037e565b505050565b5b818110156103dd576103d25f826103a7565b6001810190506103c0565b5050565b601f821115610422576103f3816102c4565b6103fc846102d6565b8101602085101561040b578190505b61041f610417856102d6565b8301826103bf565b50505b505050565b5f82821c905092915050565b5f6104425f1984600802610427565b1980831691505092915050565b5f61045a8383610433565b9150826002028217905092915050565b6104738261025d565b67ffffffffffffffff81111561048c5761048b610095565b5b6104968254610294565b6104a18282856103e1565b5f60209050601f8311600181146104d2575f84156104c0578287015190505b6104ca858261044f565b865550610531565b601f1984166104e0866102c4565b5f5b82811015610507578489015182556001820191506020850194506020810190506104e2565b868310156105245784890151610520601f891682610433565b8355505b6001600288020188555050505b505050505050565b6127b5806105465f395ff3fe608060405234801561000f575f80fd5b506004361061011f575f3560e01c80636352211e116100ab578063b88d4fde1161006f578063b88d4fde14610329578063c2229fea14610345578063c683630d1461034f578063c87b56dd1461037f578063e985e9c5146103af5761011f565b80636352211e1461027357806370a08231146102a3578063854cff2f146102d357806395d89b41146102ef578063a22cb4651461030d5761011f565b806318160ddd116100f257806318160ddd146101bd57806323b872dd146101db5780632f745c59146101f757806342842e0e146102275780634f6ccce7146102435761011f565b806301ffc9a71461012357806306fdde0314610153578063081812fc14610171578063095ea7b3146101a1575b5f80fd5b61013d60048036038101906101389190611dbc565b6103df565b60405161014a9190611e01565b60405180910390f35b61015b610458565b6040516101689190611e8a565b60405180910390f35b61018b60048036038101906101869190611edd565b6104e7565b6040516101989190611f47565b60405180910390f35b6101bb60048036038101906101b69190611f8a565b610502565b005b6101c5610518565b6040516101d29190611fd7565b60405180910390f35b6101f560048036038101906101f09190611ff0565b610524565b005b610211600480360381019061020c9190611f8a565b610623565b60405161021e9190611fd7565b60405180910390f35b610241600480360381019061023c9190611ff0565b6106c7565b005b61025d60048036038101906102589190611edd565b6106e6565b60405161026a9190611fd7565b60405180910390f35b61028d60048036038101906102889190611edd565b610758565b60405161029a9190611f47565b60405180910390f35b6102bd60048036038101906102b89190612040565b610769565b6040516102ca9190611fd7565b60405180910390f35b6102ed60048036038101906102e89190612040565b61081f565b005b6102f7610877565b6040516103049190611e8a565b60405180910390f35b61032760048036038101906103229190612095565b610907565b005b610343600480360381019061033e91906121ff565b61091d565b005b61034d61093a565b005b61036960048036038101906103649190612040565b610a85565b6040516103769190611e01565b60405180910390f35b61039960048036038101906103949190611edd565b610ad7565b6040516103a69190611e8a565b60405180910390f35b6103c960048036038101906103c4919061227f565b610b0b565b6040516103d69190611e01565b60405180910390f35b5f7f780e9d63000000000000000000000000000000000000000000000000000000007bffffffffffffffffffffffffffffffffffffffffffffffffffffffff1916827bffffffffffffffffffffffffffffffffffffffffffffffffffffffff19161480610451575061045082610b99565b5b9050919050565b60605f8054610466906122ea565b80601f0160208091040260200160405190810160405280929190818152602001828054610492906122ea565b80156104dd5780601f106104b4576101008083540402835291602001916104dd565b820191905f5260205f20905b8154815290600101906020018083116104c057829003601f168201915b5050505050905090565b5f6104f182610c7a565b506104fb82610d00565b9050919050565b610514828261050f610d39565b610d40565b5050565b5f600880549050905090565b5f73ffffffffffffffffffffffffffffffffffffffff168273ffffffffffffffffffffffffffffffffffffffff1603610594575f6040517f64a0ae9200000000000000000000000000000000000000000000000000000000815260040161058b9190611f47565b60405180910390fd5b5f6105a783836105a2610d39565b610d52565b90508373ffffffffffffffffffffffffffffffffffffffff168173ffffffffffffffffffffffffffffffffffffffff161461061d578382826040517f64283d7b0000000000000000000000000000000000000000000000000000000081526004016106149392919061231a565b60405180910390fd5b50505050565b5f61062d83610769565b82106106725782826040517fa57d13dc00000000000000000000000000000000000000000000000000000000815260040161066992919061234f565b60405180910390fd5b60065f8473ffffffffffffffffffffffffffffffffffffffff1673ffffffffffffffffffffffffffffffffffffffff1681526020019081526020015f205f8381526020019081526020015f2054905092915050565b6106e183838360405180602001604052805f81525061091d565b505050565b5f6106ef610518565b8210610734575f826040517fa57d13dc00000000000000000000000000000000000000000000000000000000815260040161072b92919061234f565b60405180910390fd5b6008828154811061074857610747612376565b5b905f5260205f2001549050919050565b5f61076282610c7a565b9050919050565b5f8073ffffffffffffffffffffffffffffffffffffffff168273ffffffffffffffffffffffffffffffffffffffff16036107da575f6040517f89c62b640000000000000000000000000000000000000000000000000000000081526004016107d19190611f47565b60405180910390fd5b60035f8373ffffffffffffffffffffffffffffffffffffffff1673ffffffffffffffffffffffffffffffffffffffff1681526020019081526020015f20549050919050565b6001600b5f8373ffffffffffffffffffffffffffffffffffffffff1673ffffffffffffffffffffffffffffffffffffffff1681526020019081526020015f205f6101000a81548160ff02191690831515021790555050565b606060018054610886906122ea565b80601f01602080910402602001604051908101604052809291908181526020018280546108b2906122ea565b80156108fd5780601f106108d4576101008083540402835291602001916108fd565b820191905f5260205f20905b8154815290600101906020018083116108e057829003601f168201915b5050505050905090565b610919610912610d39565b8383610e6c565b5050565b610928848484610524565b61093484848484610fd5565b50505050565b6011610944610518565b10610984576040517f08c379a000000000000000000000000000000000000000000000000000000000815260040161097b906123ed565b60405180910390fd5b600b5f3373ffffffffffffffffffffffffffffffffffffffff1673ffffffffffffffffffffffffffffffffffffffff1681526020019081526020015f205f9054906101000a900460ff16610a0d576040517f08c379a0000000000000000000000000000000000000000000000000000000008152600401610a0490612455565b60405180910390fd5b5f6001610a18610518565b610a2291906124a0565b9050610a2e3382611187565b5f600b5f3373ffffffffffffffffffffffffffffffffffffffff1673ffffffffffffffffffffffffffffffffffffffff1681526020019081526020015f205f6101000a81548160ff02191690831515021790555050565b5f600b5f8373ffffffffffffffffffffffffffffffffffffffff1673ffffffffffffffffffffffffffffffffffffffff1681526020019081526020015f205f9054906101000a900460ff169050919050565b6060600a610ae48361127a565b604051602001610af59291906125e9565b6040516020818303038152906040529050919050565b5f60055f8473ffffffffffffffffffffffffffffffffffffffff1673ffffffffffffffffffffffffffffffffffffffff1681526020019081526020015f205f8373ffffffffffffffffffffffffffffffffffffffff1673ffffffffffffffffffffffffffffffffffffffff1681526020019081526020015f205f9054906101000a900460ff16905092915050565b5f7f80ac58cd000000000000000000000000000000000000000000000000000000007bffffffffffffffffffffffffffffffffffffffffffffffffffffffff1916827bffffffffffffffffffffffffffffffffffffffffffffffffffffffff19161480610c6357507f5b5e139f000000000000000000000000000000000000000000000000000000007bffffffffffffffffffffffffffffffffffffffffffffffffffffffff1916827bffffffffffffffffffffffffffffffffffffffffffffffffffffffff1916145b80610c735750610c7282611344565b5b9050919050565b5f80610c85836113ad565b90505f73ffffffffffffffffffffffffffffffffffffffff168173ffffffffffffffffffffffffffffffffffffffff1603610cf757826040517f7e273289000000000000000000000000000000000000000000000000000000008152600401610cee9190611fd7565b60405180910390fd5b80915050919050565b5f60045f8381526020019081526020015f205f9054906101000a900473ffffffffffffffffffffffffffffffffffffffff169050919050565b5f33905090565b610d4d83838360016113e6565b505050565b5f80610d5f8585856115a5565b90505f73ffffffffffffffffffffffffffffffffffffffff168173ffffffffffffffffffffffffffffffffffffffff1603610da257610d9d846117b0565b610de1565b8473ffffffffffffffffffffffffffffffffffffffff168173ffffffffffffffffffffffffffffffffffffffff1614610de057610ddf81856117f4565b5b5b5f73ffffffffffffffffffffffffffffffffffffffff168573ffffffffffffffffffffffffffffffffffffffff1603610e2257610e1d8461193e565b610e61565b8473ffffffffffffffffffffffffffffffffffffffff168173ffffffffffffffffffffffffffffffffffffffff1614610e6057610e5f85856119fe565b5b5b809150509392505050565b5f73ffffffffffffffffffffffffffffffffffffffff168273ffffffffffffffffffffffffffffffffffffffff1603610edc57816040517f5b08ba18000000000000000000000000000000000000000000000000000000008152600401610ed39190611f47565b60405180910390fd5b8060055f8573ffffffffffffffffffffffffffffffffffffffff1673ffffffffffffffffffffffffffffffffffffffff1681526020019081526020015f205f8473ffffffffffffffffffffffffffffffffffffffff1673ffffffffffffffffffffffffffffffffffffffff1681526020019081526020015f205f6101000a81548160ff0219169083151502179055508173ffffffffffffffffffffffffffffffffffffffff168373ffffffffffffffffffffffffffffffffffffffff167f17307eab39ab6107e8899845ad3d59bd9653f200f220920489ca2b5937696c3183604051610fc89190611e01565b60405180910390a3505050565b5f8373ffffffffffffffffffffffffffffffffffffffff163b1115611181578273ffffffffffffffffffffffffffffffffffffffff1663150b7a02611018610d39565b8685856040518563ffffffff1660e01b815260040161103a9493929190612669565b6020604051808303815f875af192505050801561107557506040513d601f19601f8201168201806040525081019061107291906126c7565b60015b6110f6573d805f81146110a3576040519150601f19603f3d011682016040523d82523d5f602084013e6110a8565b606091505b505f8151036110ee57836040517f64a0ae920000000000000000000000000000000000000000000000000000000081526004016110e59190611f47565b60405180910390fd5b805181602001fd5b63150b7a0260e01b7bffffffffffffffffffffffffffffffffffffffffffffffffffffffff1916817bffffffffffffffffffffffffffffffffffffffffffffffffffffffff19161461117f57836040517f64a0ae920000000000000000000000000000000000000000000000000000000081526004016111769190611f47565b60405180910390fd5b505b50505050565b5f73ffffffffffffffffffffffffffffffffffffffff168273ffffffffffffffffffffffffffffffffffffffff16036111f7575f6040517f64a0ae920000000000000000000000000000000000000000000000000000000081526004016111ee9190611f47565b60405180910390fd5b5f61120383835f610d52565b90505f73ffffffffffffffffffffffffffffffffffffffff168173ffffffffffffffffffffffffffffffffffffffff1614611275575f6040517f73c6ac6e00000000000000000000000000000000000000000000000000000000815260040161126c9190611f47565b60405180910390fd5b505050565b60605f600161128884611a82565b0190505f8167ffffffffffffffff8111156112a6576112a56120db565b5b6040519080825280601f01601f1916602001820160405280156112d85781602001600182028036833780820191505090505b5090505f82602001820190505b600115611339578080600190039150507f3031323334353637383961626364656600000000000000000000000000000000600a86061a8153600a858161132e5761132d6126f2565b5b0494505f85036112e5575b819350505050919050565b5f7f01ffc9a7000000000000000000000000000000000000000000000000000000007bffffffffffffffffffffffffffffffffffffffffffffffffffffffff1916827bffffffffffffffffffffffffffffffffffffffffffffffffffffffff1916149050919050565b5f60025f8381526020019081526020015f205f9054906101000a900473ffffffffffffffffffffffffffffffffffffffff169050919050565b808061141e57505f73ffffffffffffffffffffffffffffffffffffffff168273ffffffffffffffffffffffffffffffffffffffff1614155b15611550575f61142d84610c7a565b90505f73ffffffffffffffffffffffffffffffffffffffff168373ffffffffffffffffffffffffffffffffffffffff161415801561149757508273ffffffffffffffffffffffffffffffffffffffff168173ffffffffffffffffffffffffffffffffffffffff1614155b80156114aa57506114a88184610b0b565b155b156114ec57826040517fa9fbf51f0000000000000000000000000000000000000000000000000000000081526004016114e39190611f47565b60405180910390fd5b811561154e57838573ffffffffffffffffffffffffffffffffffffffff168273ffffffffffffffffffffffffffffffffffffffff167f8c5be1e5ebec7d5bd14f71427d1e84f3dd0314c0f7b2291e5b200ac8c7c3b92560405160405180910390a45b505b8360045f8581526020019081526020015f205f6101000a81548173ffffffffffffffffffffffffffffffffffffffff021916908373ffffffffffffffffffffffffffffffffffffffff16021790555050505050565b5f806115b0846113ad565b90505f73ffffffffffffffffffffffffffffffffffffffff168373ffffffffffffffffffffffffffffffffffffffff16146115f1576115f0818486611bd3565b5b5f73ffffffffffffffffffffffffffffffffffffffff168173ffffffffffffffffffffffffffffffffffffffff161461167c576116305f855f806113e6565b600160035f8373ffffffffffffffffffffffffffffffffffffffff1673ffffffffffffffffffffffffffffffffffffffff1681526020019081526020015f205f82825403925050819055505b5f73ffffffffffffffffffffffffffffffffffffffff168573ffffffffffffffffffffffffffffffffffffffff16146116fb57600160035f8773ffffffffffffffffffffffffffffffffffffffff1673ffffffffffffffffffffffffffffffffffffffff1681526020019081526020015f205f82825401925050819055505b8460025f8681526020019081526020015f205f6101000a81548173ffffffffffffffffffffffffffffffffffffffff021916908373ffffffffffffffffffffffffffffffffffffffff160217905550838573ffffffffffffffffffffffffffffffffffffffff168273ffffffffffffffffffffffffffffffffffffffff167fddf252ad1be2c89b69c2b068fc378daa952ba7f163c4a11628f55a4df523b3ef60405160405180910390a4809150509392505050565b60088054905060095f8381526020019081526020015f2081905550600881908060018154018082558091505060019003905f5260205f20015f909190919091505550565b5f6117fe83610769565b90505f60075f8481526020019081526020015f205490508181146118d5575f60065f8673ffffffffffffffffffffffffffffffffffffffff1673ffffffffffffffffffffffffffffffffffffffff1681526020019081526020015f205f8481526020019081526020015f205490508060065f8773ffffffffffffffffffffffffffffffffffffffff1673ffffffffffffffffffffffffffffffffffffffff1681526020019081526020015f205f8481526020019081526020015f20819055508160075f8381526020019081526020015f2081905550505b60075f8481526020019081526020015f205f905560065f8573ffffffffffffffffffffffffffffffffffffffff1673ffffffffffffffffffffffffffffffffffffffff1681526020019081526020015f205f8381526020019081526020015f205f905550505050565b5f6001600880549050611951919061271f565b90505f60095f8481526020019081526020015f205490505f6008838154811061197d5761197c612376565b5b905f5260205f2001549050806008838154811061199d5761199c612376565b5b905f5260205f2001819055508160095f8381526020019081526020015f208190555060095f8581526020019081526020015f205f905560088054806119e5576119e4612752565b5b600190038181905f5260205f20015f9055905550505050565b5f6001611a0a84610769565b611a14919061271f565b90508160065f8573ffffffffffffffffffffffffffffffffffffffff1673ffffffffffffffffffffffffffffffffffffffff1681526020019081526020015f205f8381526020019081526020015f20819055508060075f8481526020019081526020015f2081905550505050565b5f805f90507a184f03e93ff9f4daa797ed6e38ed64bf6a1f0100000000000000008310611ade577a184f03e93ff9f4daa797ed6e38ed64bf6a1f0100000000000000008381611ad457611ad36126f2565b5b0492506040810190505b6d04ee2d6d415b85acef81000000008310611b1b576d04ee2d6d415b85acef81000000008381611b1157611b106126f2565b5b0492506020810190505b662386f26fc100008310611b4a57662386f26fc100008381611b4057611b3f6126f2565b5b0492506010810190505b6305f5e1008310611b73576305f5e1008381611b6957611b686126f2565b5b0492506008810190505b6127108310611b98576127108381611b8e57611b8d6126f2565b5b0492506004810190505b60648310611bbb5760648381611bb157611bb06126f2565b5b0492506002810190505b600a8310611bca576001810190505b80915050919050565b611bde838383611c96565b611c91575f73ffffffffffffffffffffffffffffffffffffffff168373ffffffffffffffffffffffffffffffffffffffff1603611c5257806040517f7e273289000000000000000000000000000000000000000000000000000000008152600401611c499190611fd7565b60405180910390fd5b81816040517f177e802f000000000000000000000000000000000000000000000000000000008152600401611c8892919061234f565b60405180910390fd5b505050565b5f8073ffffffffffffffffffffffffffffffffffffffff168373ffffffffffffffffffffffffffffffffffffffff1614158015611d4d57508273ffffffffffffffffffffffffffffffffffffffff168473ffffffffffffffffffffffffffffffffffffffff161480611d0e5750611d0d8484610b0b565b5b80611d4c57508273ffffffffffffffffffffffffffffffffffffffff16611d3483610d00565b73ffffffffffffffffffffffffffffffffffffffff16145b5b90509392505050565b5f604051905090565b5f80fd5b5f80fd5b5f7fffffffff0000000000000000000000000000000000000000000000000000000082169050919050565b611d9b81611d67565b8114611da5575f80fd5b50565b5f81359050611db681611d92565b92915050565b5f60208284031215611dd157611dd0611d5f565b5b5f611dde84828501611da8565b91505092915050565b5f8115159050919050565b611dfb81611de7565b82525050565b5f602082019050611e145f830184611df2565b92915050565b5f81519050919050565b5f82825260208201905092915050565b8281835e5f83830152505050565b5f601f19601f8301169050919050565b5f611e5c82611e1a565b611e668185611e24565b9350611e76818560208601611e34565b611e7f81611e42565b840191505092915050565b5f6020820190508181035f830152611ea28184611e52565b905092915050565b5f819050919050565b611ebc81611eaa565b8114611ec6575f80fd5b50565b5f81359050611ed781611eb3565b92915050565b5f60208284031215611ef257611ef1611d5f565b5b5f611eff84828501611ec9565b91505092915050565b5f73ffffffffffffffffffffffffffffffffffffffff82169050919050565b5f611f3182611f08565b9050919050565b611f4181611f27565b82525050565b5f602082019050611f5a5f830184611f38565b92915050565b611f6981611f27565b8114611f73575f80fd5b50565b5f81359050611f8481611f60565b92915050565b5f8060408385031215611fa057611f9f611d5f565b5b5f611fad85828601611f76565b9250506020611fbe85828601611ec9565b9150509250929050565b611fd181611eaa565b82525050565b5f602082019050611fea5f830184611fc8565b92915050565b5f805f6060848603121561200757612006611d5f565b5b5f61201486828701611f76565b935050602061202586828701611f76565b925050604061203686828701611ec9565b9150509250925092565b5f6020828403121561205557612054611d5f565b5b5f61206284828501611f76565b91505092915050565b61207481611de7565b811461207e575f80fd5b50565b5f8135905061208f8161206b565b92915050565b5f80604083850312156120ab576120aa611d5f565b5b5f6120b885828601611f76565b92505060206120c985828601612081565b9150509250929050565b5f80fd5b5f80fd5b7f4e487b71000000000000000000000000000000000000000000000000000000005f52604160045260245ffd5b61211182611e42565b810181811067ffffffffffffffff821117156121305761212f6120db565b5b80604052505050565b5f612142611d56565b905061214e8282612108565b919050565b5f67ffffffffffffffff82111561216d5761216c6120db565b5b61217682611e42565b9050602081019050919050565b828183375f83830152505050565b5f6121a361219e84612153565b612139565b9050828152602081018484840111156121bf576121be6120d7565b5b6121ca848285612183565b509392505050565b5f82601f8301126121e6576121e56120d3565b5b81356121f6848260208601612191565b91505092915050565b5f805f806080858703121561221757612216611d5f565b5b5f61222487828801611f76565b945050602061223587828801611f76565b935050604061224687828801611ec9565b925050606085013567ffffffffffffffff81111561226757612266611d63565b5b612273878288016121d2565b91505092959194509250565b5f806040838503121561229557612294611d5f565b5b5f6122a285828601611f76565b92505060206122b385828601611f76565b9150509250929050565b7f4e487b71000000000000000000000000000000000000000000000000000000005f52602260045260245ffd5b5f600282049050600182168061230157607f821691505b602082108103612314576123136122bd565b5b50919050565b5f60608201905061232d5f830186611f38565b61233a6020830185611fc8565b6123476040830184611f38565b949350505050565b5f6040820190506123625f830185611f38565b61236f6020830184611fc8565b9392505050565b7f4e487b71000000000000000000000000000000000000000000000000000000005f52603260045260245ffd5b7f4e6f206d6f7265206d696e742e000000000000000000000000000000000000005f82015250565b5f6123d7600d83611e24565b91506123e2826123a3565b602082019050919050565b5f6020820190508181035f830152612404816123cb565b9050919050565b7f4e6f742077686974656c697374000000000000000000000000000000000000005f82015250565b5f61243f600d83611e24565b915061244a8261240b565b602082019050919050565b5f6020820190508181035f83015261246c81612433565b9050919050565b7f4e487b71000000000000000000000000000000000000000000000000000000005f52601160045260245ffd5b5f6124aa82611eaa565b91506124b583611eaa565b92508282019050808211156124cd576124cc612473565b5b92915050565b5f81905092915050565b5f819050815f5260205f209050919050565b5f81546124fb816122ea565b61250581866124d3565b9450600182165f811461251f576001811461253457612566565b60ff1983168652811515820286019350612566565b61253d856124dd565b5f5b8381101561255e5781548189015260018201915060208101905061253f565b838801955050505b50505092915050565b5f61257982611e1a565b61258381856124d3565b9350612593818560208601611e34565b80840191505092915050565b7f2e6a736f6e0000000000000000000000000000000000000000000000000000005f82015250565b5f6125d36005836124d3565b91506125de8261259f565b600582019050919050565b5f6125f482856124ef565b9150612600828461256f565b915061260b826125c7565b91508190509392505050565b5f81519050919050565b5f82825260208201905092915050565b5f61263b82612617565b6126458185612621565b9350612655818560208601611e34565b61265e81611e42565b840191505092915050565b5f60808201905061267c5f830187611f38565b6126896020830186611f38565b6126966040830185611fc8565b81810360608301526126a88184612631565b905095945050505050565b5f815190506126c181611d92565b92915050565b5f602082840312156126dc576126db611d5f565b5b5f6126e9848285016126b3565b91505092915050565b7f4e487b71000000000000000000000000000000000000000000000000000000005f52601260045260245ffd5b5f61272982611eaa565b915061273483611eaa565b925082820390508181111561274c5761274b612473565b5b92915050565b7f4e487b71000000000000000000000000000000000000000000000000000000005f52603160045260245ffdfea2646970667358221220ebce2ad9b405bb30baaf9c9d9d53d1fe3ea2549fd8a28c33e1d42e5d01ae58a664736f6c634300081a0033",
					"opcodes": "PUSH1 0x80 PUSH1 0x40 MSTORE CALLVALUE DUP1 ISZERO PUSH2 0xF JUMPI PUSH0 DUP1 REVERT JUMPDEST POP PUSH1 0x40 MLOAD PUSH2 0x2CFB CODESIZE SUB DUP1 PUSH2 0x2CFB DUP4 CODECOPY DUP2 DUP2 ADD PUSH1 0x40 MSTORE DUP2 ADD SWAP1 PUSH2 0x31 SWAP2 SWAP1 PUSH2 0x1B9 JUMP JUMPDEST DUP3 DUP3 DUP2 PUSH0 SWAP1 DUP2 PUSH2 0x41 SWAP2 SWAP1 PUSH2 0x46A JUMP JUMPDEST POP DUP1 PUSH1 0x1 SWAP1 DUP2 PUSH2 0x51 SWAP2 SWAP1 PUSH2 0x46A JUMP JUMPDEST POP POP POP DUP1 PUSH1 0xA SWAP1 DUP2 PUSH2 0x63 SWAP2 SWAP1 PUSH2 0x46A JUMP JUMPDEST POP POP POP POP PUSH2 0x539 JUMP JUMPDEST PUSH0 PUSH1 0x40 MLOAD SWAP1 POP SWAP1 JUMP JUMPDEST PUSH0 DUP1 REVERT JUMPDEST PUSH0 DUP1 REVERT JUMPDEST PUSH0 DUP1 REVERT JUMPDEST PUSH0 DUP1 REVERT JUMPDEST PUSH0 PUSH1 0x1F NOT PUSH1 0x1F DUP4 ADD AND SWAP1 POP SWAP2 SWAP1 POP JUMP JUMPDEST PUSH32 0x4E487B7100000000000000000000000000000000000000000000000000000000 PUSH0 MSTORE PUSH1 0x41 PUSH1 0x4 MSTORE PUSH1 0x24 PUSH0 REVERT JUMPDEST PUSH2 0xCB DUP3 PUSH2 0x85 JUMP JUMPDEST DUP2 ADD DUP2 DUP2 LT PUSH8 0xFFFFFFFFFFFFFFFF DUP3 GT OR ISZERO PUSH2 0xEA JUMPI PUSH2 0xE9 PUSH2 0x95 JUMP JUMPDEST JUMPDEST DUP1 PUSH1 0x40 MSTORE POP POP POP JUMP JUMPDEST PUSH0 PUSH2 0xFC PUSH2 0x6C JUMP JUMPDEST SWAP1 POP PUSH2 0x108 DUP3 DUP3 PUSH2 0xC2 JUMP JUMPDEST SWAP2 SWAP1 POP JUMP JUMPDEST PUSH0 PUSH8 0xFFFFFFFFFFFFFFFF DUP3 GT ISZERO PUSH2 0x127 JUMPI PUSH2 0x126 PUSH2 0x95 JUMP JUMPDEST JUMPDEST PUSH2 0x130 DUP3 PUSH2 0x85 JUMP JUMPDEST SWAP1 POP PUSH1 0x20 DUP2 ADD SWAP1 POP SWAP2 SWAP1 POP JUMP JUMPDEST DUP3 DUP2 DUP4 MCOPY PUSH0 DUP4 DUP4 ADD MSTORE POP POP POP JUMP JUMPDEST PUSH0 PUSH2 0x15D PUSH2 0x158 DUP5 PUSH2 0x10D JUMP JUMPDEST PUSH2 0xF3 JUMP JUMPDEST SWAP1 POP DUP3 DUP2 MSTORE PUSH1 0x20 DUP2 ADD DUP5 DUP5 DUP5 ADD GT ISZERO PUSH2 0x179 JUMPI PUSH2 0x178 PUSH2 0x81 JUMP JUMPDEST JUMPDEST PUSH2 0x184 DUP5 DUP3 DUP6 PUSH2 0x13D JUMP JUMPDEST POP SWAP4 SWAP3 POP POP POP JUMP JUMPDEST PUSH0 DUP3 PUSH1 0x1F DUP4 ADD SLT PUSH2 0x1A0 JUMPI PUSH2 0x19F PUSH2 0x7D JUMP JUMPDEST JUMPDEST DUP2 MLOAD PUSH2 0x1B0 DUP5 DUP3 PUSH1 0x20 DUP7 ADD PUSH2 0x14B JUMP JUMPDEST SWAP2 POP POP SWAP3 SWAP2 POP POP JUMP JUMPDEST PUSH0 DUP1 PUSH0 PUSH1 0x60 DUP5 DUP7 SUB SLT ISZERO PUSH2 0x1D0 JUMPI PUSH2 0x1CF PUSH2 0x75 JUMP JUMPDEST JUMPDEST PUSH0 DUP5 ADD MLOAD PUSH8 0xFFFFFFFFFFFFFFFF DUP2 GT ISZERO PUSH2 0x1ED JUMPI PUSH2 0x1EC PUSH2 0x79 JUMP JUMPDEST JUMPDEST PUSH2 0x1F9 DUP7 DUP3 DUP8 ADD PUSH2 0x18C JUMP JUMPDEST SWAP4 POP POP PUSH1 0x20 DUP5 ADD MLOAD PUSH8 0xFFFFFFFFFFFFFFFF DUP2 GT ISZERO PUSH2 0x21A JUMPI PUSH2 0x219 PUSH2 0x79 JUMP JUMPDEST JUMPDEST PUSH2 0x226 DUP7 DUP3 DUP8 ADD PUSH2 0x18C JUMP JUMPDEST SWAP3 POP POP PUSH1 0x40 DUP5 ADD MLOAD PUSH8 0xFFFFFFFFFFFFFFFF DUP2 GT ISZERO PUSH2 0x247 JUMPI PUSH2 0x246 PUSH2 0x79 JUMP JUMPDEST JUMPDEST PUSH2 0x253 DUP7 DUP3 DUP8 ADD PUSH2 0x18C JUMP JUMPDEST SWAP2 POP POP SWAP3 POP SWAP3 POP SWAP3 JUMP JUMPDEST PUSH0 DUP2 MLOAD SWAP1 POP SWAP2 SWAP1 POP JUMP JUMPDEST PUSH32 0x4E487B7100000000000000000000000000000000000000000000000000000000 PUSH0 MSTORE PUSH1 0x22 PUSH1 0x4 MSTORE PUSH1 0x24 PUSH0 REVERT JUMPDEST PUSH0 PUSH1 0x2 DUP3 DIV SWAP1 POP PUSH1 0x1 DUP3 AND DUP1 PUSH2 0x2AB JUMPI PUSH1 0x7F DUP3 AND SWAP2 POP JUMPDEST PUSH1 0x20 DUP3 LT DUP2 SUB PUSH2 0x2BE JUMPI PUSH2 0x2BD PUSH2 0x267 JUMP JUMPDEST JUMPDEST POP SWAP2 SWAP1 POP JUMP JUMPDEST PUSH0 DUP2 SWAP1 POP DUP2 PUSH0 MSTORE PUSH1 0x20 PUSH0 KECCAK256 SWAP1 POP SWAP2 SWAP1 POP JUMP JUMPDEST PUSH0 PUSH1 0x20 PUSH1 0x1F DUP4 ADD DIV SWAP1 POP SWAP2 SWAP1 POP JUMP JUMPDEST PUSH0 DUP3 DUP3 SHL SWAP1 POP SWAP3 SWAP2 POP POP JUMP JUMPDEST PUSH0 PUSH1 0x8 DUP4 MUL PUSH2 0x320 PUSH32 0xFFFFFFFFFFFFFFFFFFFFFFFFFFFFFFFFFFFFFFFFFFFFFFFFFFFFFFFFFFFFFFFF DUP3 PUSH2 0x2E5 JUMP JUMPDEST PUSH2 0x32A DUP7 DUP4 PUSH2 0x2E5 JUMP JUMPDEST SWAP6 POP DUP1 NOT DUP5 AND SWAP4 POP DUP1 DUP7 AND DUP5 OR SWAP3 POP POP POP SWAP4 SWAP3 POP POP POP JUMP JUMPDEST PUSH0 DUP2 SWAP1 POP SWAP2 SWAP1 POP JUMP JUMPDEST PUSH0 DUP2 SWAP1 POP SWAP2 SWAP1 POP JUMP JUMPDEST PUSH0 PUSH2 0x36E PUSH2 0x369 PUSH2 0x364 DUP5 PUSH2 0x342 JUMP JUMPDEST PUSH2 0x34B JUMP JUMPDEST PUSH2 0x342 JUMP JUMPDEST SWAP1 POP SWAP2 SWAP1 POP JUMP JUMPDEST PUSH0 DUP2 SWAP1 POP SWAP2 SWAP1 POP JUMP JUMPDEST PUSH2 0x387 DUP4 PUSH2 0x354 JUMP JUMPDEST PUSH2 0x39B PUSH2 0x393 DUP3 PUSH2 0x375 JUMP JUMPDEST DUP5 DUP5 SLOAD PUSH2 0x2F1 JUMP JUMPDEST DUP3 SSTORE POP POP POP POP JUMP JUMPDEST PUSH0 SWAP1 JUMP JUMPDEST PUSH2 0x3AF PUSH2 0x3A3 JUMP JUMPDEST PUSH2 0x3BA DUP2 DUP5 DUP5 PUSH2 0x37E JUMP JUMPDEST POP POP POP JUMP JUMPDEST JUMPDEST DUP2 DUP2 LT ISZERO PUSH2 0x3DD JUMPI PUSH2 0x3D2 PUSH0 DUP3 PUSH2 0x3A7 JUMP JUMPDEST PUSH1 0x1 DUP2 ADD SWAP1 POP PUSH2 0x3C0 JUMP JUMPDEST POP POP JUMP JUMPDEST PUSH1 0x1F DUP3 GT ISZERO PUSH2 0x422 JUMPI PUSH2 0x3F3 DUP2 PUSH2 0x2C4 JUMP JUMPDEST PUSH2 0x3FC DUP5 PUSH2 0x2D6 JUMP JUMPDEST DUP2 ADD PUSH1 0x20 DUP6 LT ISZERO PUSH2 0x40B JUMPI DUP2 SWAP1 POP JUMPDEST PUSH2 0x41F PUSH2 0x417 DUP6 PUSH2 0x2D6 JUMP JUMPDEST DUP4 ADD DUP3 PUSH2 0x3BF JUMP JUMPDEST POP POP JUMPDEST POP POP POP JUMP JUMPDEST PUSH0 DUP3 DUP3 SHR SWAP1 POP SWAP3 SWAP2 POP POP JUMP JUMPDEST PUSH0 PUSH2 0x442 PUSH0 NOT DUP5 PUSH1 0x8 MUL PUSH2 0x427 JUMP JUMPDEST NOT DUP1 DUP4 AND SWAP2 POP POP SWAP3 SWAP2 POP POP JUMP JUMPDEST PUSH0 PUSH2 0x45A DUP4 DUP4 PUSH2 0x433 JUMP JUMPDEST SWAP2 POP DUP3 PUSH1 0x2 MUL DUP3 OR SWAP1 POP SWAP3 SWAP2 POP POP JUMP JUMPDEST PUSH2 0x473 DUP3 PUSH2 0x25D JUMP JUMPDEST PUSH8 0xFFFFFFFFFFFFFFFF DUP2 GT ISZERO PUSH2 0x48C JUMPI PUSH2 0x48B PUSH2 0x95 JUMP JUMPDEST JUMPDEST PUSH2 0x496 DUP3 SLOAD PUSH2 0x294 JUMP JUMPDEST PUSH2 0x4A1 DUP3 DUP3 DUP6 PUSH2 0x3E1 JUMP JUMPDEST PUSH0 PUSH1 0x20 SWAP1 POP PUSH1 0x1F DUP4 GT PUSH1 0x1 DUP2 EQ PUSH2 0x4D2 JUMPI PUSH0 DUP5 ISZERO PUSH2 0x4C0 JUMPI DUP3 DUP8 ADD MLOAD SWAP1 POP JUMPDEST PUSH2 0x4CA DUP6 DUP3 PUSH2 0x44F JUMP JUMPDEST DUP7 SSTORE POP PUSH2 0x531 JUMP JUMPDEST PUSH1 0x1F NOT DUP5 AND PUSH2 0x4E0 DUP7 PUSH2 0x2C4 JUMP JUMPDEST PUSH0 JUMPDEST DUP3 DUP2 LT ISZERO PUSH2 0x507 JUMPI DUP5 DUP10 ADD MLOAD DUP3 SSTORE PUSH1 0x1 DUP3 ADD SWAP2 POP PUSH1 0x20 DUP6 ADD SWAP5 POP PUSH1 0x20 DUP2 ADD SWAP1 POP PUSH2 0x4E2 JUMP JUMPDEST DUP7 DUP4 LT ISZERO PUSH2 0x524 JUMPI DUP5 DUP10 ADD MLOAD PUSH2 0x520 PUSH1 0x1F DUP10 AND DUP3 PUSH2 0x433 JUMP JUMPDEST DUP4 SSTORE POP JUMPDEST PUSH1 0x1 PUSH1 0x2 DUP9 MUL ADD DUP9 SSTORE POP POP POP JUMPDEST POP POP POP POP POP POP JUMP JUMPDEST PUSH2 0x27B5 DUP1 PUSH2 0x546 PUSH0 CODECOPY PUSH0 RETURN INVALID PUSH1 0x80 PUSH1 0x40 MSTORE CALLVALUE DUP1 ISZERO PUSH2 0xF JUMPI PUSH0 DUP1 REVERT JUMPDEST POP PUSH1 0x4 CALLDATASIZE LT PUSH2 0x11F JUMPI PUSH0 CALLDATALOAD PUSH1 0xE0 SHR DUP1 PUSH4 0x6352211E GT PUSH2 0xAB JUMPI DUP1 PUSH4 0xB88D4FDE GT PUSH2 0x6F JUMPI DUP1 PUSH4 0xB88D4FDE EQ PUSH2 0x329 JUMPI DUP1 PUSH4 0xC2229FEA EQ PUSH2 0x345 JUMPI DUP1 PUSH4 0xC683630D EQ PUSH2 0x34F JUMPI DUP1 PUSH4 0xC87B56DD EQ PUSH2 0x37F JUMPI DUP1 PUSH4 0xE985E9C5 EQ PUSH2 0x3AF JUMPI PUSH2 0x11F JUMP JUMPDEST DUP1 PUSH4 0x6352211E EQ PUSH2 0x273 JUMPI DUP1 PUSH4 0x70A08231 EQ PUSH2 0x2A3 JUMPI DUP1 PUSH4 0x854CFF2F EQ PUSH2 0x2D3 JUMPI DUP1 PUSH4 0x95D89B41 EQ PUSH2 0x2EF JUMPI DUP1 PUSH4 0xA22CB465 EQ PUSH2 0x30D JUMPI PUSH2 0x11F JUMP JUMPDEST DUP1 PUSH4 0x18160DDD GT PUSH2 0xF2 JUMPI DUP1 PUSH4 0x18160DDD EQ PUSH2 0x1BD JUMPI DUP1 PUSH4 0x23B872DD EQ PUSH2 0x1DB JUMPI DUP1 PUSH4 0x2F745C59 EQ PUSH2 0x1F7 JUMPI DUP1 PUSH4 0x42842E0E EQ PUSH2 0x227 JUMPI DUP1 PUSH4 0x4F6CCCE7 EQ PUSH2 0x243 JUMPI PUSH2 0x11F JUMP JUMPDEST DUP1 PUSH4 0x1FFC9A7 EQ PUSH2 0x123 JUMPI DUP1 PUSH4 0x6FDDE03 EQ PUSH2 0x153 JUMPI DUP1 PUSH4 0x81812FC EQ PUSH2 0x171 JUMPI DUP1 PUSH4 0x95EA7B3 EQ PUSH2 0x1A1 JUMPI JUMPDEST PUSH0 DUP1 REVERT JUMPDEST PUSH2 0x13D PUSH1 0x4 DUP1 CALLDATASIZE SUB DUP2 ADD SWAP1 PUSH2 0x138 SWAP2 SWAP1 PUSH2 0x1DBC JUMP JUMPDEST PUSH2 0x3DF JUMP JUMPDEST PUSH1 0x40 MLOAD PUSH2 0x14A SWAP2 SWAP1 PUSH2 0x1E01 JUMP JUMPDEST PUSH1 0x40 MLOAD DUP1 SWAP2 SUB SWAP1 RETURN JUMPDEST PUSH2 0x15B PUSH2 0x458 JUMP JUMPDEST PUSH1 0x40 MLOAD PUSH2 0x168 SWAP2 SWAP1 PUSH2 0x1E8A JUMP JUMPDEST PUSH1 0x40 MLOAD DUP1 SWAP2 SUB SWAP1 RETURN JUMPDEST PUSH2 0x18B PUSH1 0x4 DUP1 CALLDATASIZE SUB DUP2 ADD SWAP1 PUSH2 0x186 SWAP2 SWAP1 PUSH2 0x1EDD JUMP JUMPDEST PUSH2 0x4E7 JUMP JUMPDEST PUSH1 0x40 MLOAD PUSH2 0x198 SWAP2 SWAP1 PUSH2 0x1F47 JUMP JUMPDEST PUSH1 0x40 MLOAD DUP1 SWAP2 SUB SWAP1 RETURN JUMPDEST PUSH2 0x1BB PUSH1 0x4 DUP1 CALLDATASIZE SUB DUP2 ADD SWAP1 PUSH2 0x1B6 SWAP2 SWAP1 PUSH2 0x1F8A JUMP JUMPDEST PUSH2 0x502 JUMP JUMPDEST STOP JUMPDEST PUSH2 0x1C5 PUSH2 0x518 JUMP JUMPDEST PUSH1 0x40 MLOAD PUSH2 0x1D2 SWAP2 SWAP1 PUSH2 0x1FD7 JUMP JUMPDEST PUSH1 0x40 MLOAD DUP1 SWAP2 SUB SWAP1 RETURN JUMPDEST PUSH2 0x1F5 PUSH1 0x4 DUP1 CALLDATASIZE SUB DUP2 ADD SWAP1 PUSH2 0x1F0 SWAP2 SWAP1 PUSH2 0x1FF0 JUMP JUMPDEST PUSH2 0x524 JUMP JUMPDEST STOP JUMPDEST PUSH2 0x211 PUSH1 0x4 DUP1 CALLDATASIZE SUB DUP2 ADD SWAP1 PUSH2 0x20C SWAP2 SWAP1 PUSH2 0x1F8A JUMP JUMPDEST PUSH2 0x623 JUMP JUMPDEST PUSH1 0x40 MLOAD PUSH2 0x21E SWAP2 SWAP1 PUSH2 0x1FD7 JUMP JUMPDEST PUSH1 0x40 MLOAD DUP1 SWAP2 SUB SWAP1 RETURN JUMPDEST PUSH2 0x241 PUSH1 0x4 DUP1 CALLDATASIZE SUB DUP2 ADD SWAP1 PUSH2 0x23C SWAP2 SWAP1 PUSH2 0x1FF0 JUMP JUMPDEST PUSH2 0x6C7 JUMP JUMPDEST STOP JUMPDEST PUSH2 0x25D PUSH1 0x4 DUP1 CALLDATASIZE SUB DUP2 ADD SWAP1 PUSH2 0x258 SWAP2 SWAP1 PUSH2 0x1EDD JUMP JUMPDEST PUSH2 0x6E6 JUMP JUMPDEST PUSH1 0x40 MLOAD PUSH2 0x26A SWAP2 SWAP1 PUSH2 0x1FD7 JUMP JUMPDEST PUSH1 0x40 MLOAD DUP1 SWAP2 SUB SWAP1 RETURN JUMPDEST PUSH2 0x28D PUSH1 0x4 DUP1 CALLDATASIZE SUB DUP2 ADD SWAP1 PUSH2 0x288 SWAP2 SWAP1 PUSH2 0x1EDD JUMP JUMPDEST PUSH2 0x758 JUMP JUMPDEST PUSH1 0x40 MLOAD PUSH2 0x29A SWAP2 SWAP1 PUSH2 0x1F47 JUMP JUMPDEST PUSH1 0x40 MLOAD DUP1 SWAP2 SUB SWAP1 RETURN JUMPDEST PUSH2 0x2BD PUSH1 0x4 DUP1 CALLDATASIZE SUB DUP2 ADD SWAP1 PUSH2 0x2B8 SWAP2 SWAP1 PUSH2 0x2040 JUMP JUMPDEST PUSH2 0x769 JUMP JUMPDEST PUSH1 0x40 MLOAD PUSH2 0x2CA SWAP2 SWAP1 PUSH2 0x1FD7 JUMP JUMPDEST PUSH1 0x40 MLOAD DUP1 SWAP2 SUB SWAP1 RETURN JUMPDEST PUSH2 0x2ED PUSH1 0x4 DUP1 CALLDATASIZE SUB DUP2 ADD SWAP1 PUSH2 0x2E8 SWAP2 SWAP1 PUSH2 0x2040 JUMP JUMPDEST PUSH2 0x81F JUMP JUMPDEST STOP JUMPDEST PUSH2 0x2F7 PUSH2 0x877 JUMP JUMPDEST PUSH1 0x40 MLOAD PUSH2 0x304 SWAP2 SWAP1 PUSH2 0x1E8A JUMP JUMPDEST PUSH1 0x40 MLOAD DUP1 SWAP2 SUB SWAP1 RETURN JUMPDEST PUSH2 0x327 PUSH1 0x4 DUP1 CALLDATASIZE SUB DUP2 ADD SWAP1 PUSH2 0x322 SWAP2 SWAP1 PUSH2 0x2095 JUMP JUMPDEST PUSH2 0x907 JUMP JUMPDEST STOP JUMPDEST PUSH2 0x343 PUSH1 0x4 DUP1 CALLDATASIZE SUB DUP2 ADD SWAP1 PUSH2 0x33E SWAP2 SWAP1 PUSH2 0x21FF JUMP JUMPDEST PUSH2 0x91D JUMP JUMPDEST STOP JUMPDEST PUSH2 0x34D PUSH2 0x93A JUMP JUMPDEST STOP JUMPDEST PUSH2 0x369 PUSH1 0x4 DUP1 CALLDATASIZE SUB DUP2 ADD SWAP1 PUSH2 0x364 SWAP2 SWAP1 PUSH2 0x2040 JUMP JUMPDEST PUSH2 0xA85 JUMP JUMPDEST PUSH1 0x40 MLOAD PUSH2 0x376 SWAP2 SWAP1 PUSH2 0x1E01 JUMP JUMPDEST PUSH1 0x40 MLOAD DUP1 SWAP2 SUB SWAP1 RETURN JUMPDEST PUSH2 0x399 PUSH1 0x4 DUP1 CALLDATASIZE SUB DUP2 ADD SWAP1 PUSH2 0x394 SWAP2 SWAP1 PUSH2 0x1EDD JUMP JUMPDEST PUSH2 0xAD7 JUMP JUMPDEST PUSH1 0x40 MLOAD PUSH2 0x3A6 SWAP2 SWAP1 PUSH2 0x1E8A JUMP JUMPDEST PUSH1 0x40 MLOAD DUP1 SWAP2 SUB SWAP1 RETURN JUMPDEST PUSH2 0x3C9 PUSH1 0x4 DUP1 CALLDATASIZE SUB DUP2 ADD SWAP1 PUSH2 0x3C4 SWAP2 SWAP1 PUSH2 0x227F JUMP JUMPDEST PUSH2 0xB0B JUMP JUMPDEST PUSH1 0x40 MLOAD PUSH2 0x3D6 SWAP2 SWAP1 PUSH2 0x1E01 JUMP JUMPDEST PUSH1 0x40 MLOAD DUP1 SWAP2 SUB SWAP1 RETURN JUMPDEST PUSH0 PUSH32 0x780E9D6300000000000000000000000000000000000000000000000000000000 PUSH28 0xFFFFFFFFFFFFFFFFFFFFFFFFFFFFFFFFFFFFFFFFFFFFFFFFFFFFFFFF NOT AND DUP3 PUSH28 0xFFFFFFFFFFFFFFFFFFFFFFFFFFFFFFFFFFFFFFFFFFFFFFFFFFFFFFFF NOT AND EQ DUP1 PUSH2 0x451 JUMPI POP PUSH2 0x450 DUP3 PUSH2 0xB99 JUMP JUMPDEST JUMPDEST SWAP1 POP SWAP2 SWAP1 POP JUMP JUMPDEST PUSH1 0x60 PUSH0 DUP1 SLOAD PUSH2 0x466 SWAP1 PUSH2 0x22EA JUMP JUMPDEST DUP1 PUSH1 0x1F ADD PUSH1 0x20 DUP1 SWAP2 DIV MUL PUSH1 0x20 ADD PUSH1 0x40 MLOAD SWAP1 DUP2 ADD PUSH1 0x40 MSTORE DUP1 SWAP3 SWAP2 SWAP1 DUP2 DUP2 MSTORE PUSH1 0x20 ADD DUP3 DUP1 SLOAD PUSH2 0x492 SWAP1 PUSH2 0x22EA JUMP JUMPDEST DUP1 ISZERO PUSH2 0x4DD JUMPI DUP1 PUSH1 0x1F LT PUSH2 0x4B4 JUMPI PUSH2 0x100 DUP1 DUP4 SLOAD DIV MUL DUP4 MSTORE SWAP2 PUSH1 0x20 ADD SWAP2 PUSH2 0x4DD JUMP JUMPDEST DUP3 ADD SWAP2 SWAP1 PUSH0 MSTORE PUSH1 0x20 PUSH0 KECCAK256 SWAP1 JUMPDEST DUP2 SLOAD DUP2 MSTORE SWAP1 PUSH1 0x1 ADD SWAP1 PUSH1 0x20 ADD DUP1 DUP4 GT PUSH2 0x4C0 JUMPI DUP3 SWAP1 SUB PUSH1 0x1F AND DUP3 ADD SWAP2 JUMPDEST POP POP POP POP POP SWAP1 POP SWAP1 JUMP JUMPDEST PUSH0 PUSH2 0x4F1 DUP3 PUSH2 0xC7A JUMP JUMPDEST POP PUSH2 0x4FB DUP3 PUSH2 0xD00 JUMP JUMPDEST SWAP1 POP SWAP2 SWAP1 POP JUMP JUMPDEST PUSH2 0x514 DUP3 DUP3 PUSH2 0x50F PUSH2 0xD39 JUMP JUMPDEST PUSH2 0xD40 JUMP JUMPDEST POP POP JUMP JUMPDEST PUSH0 PUSH1 0x8 DUP1 SLOAD SWAP1 POP SWAP1 POP SWAP1 JUMP JUMPDEST PUSH0 PUSH20 0xFFFFFFFFFFFFFFFFFFFFFFFFFFFFFFFFFFFFFFFF AND DUP3 PUSH20 0xFFFFFFFFFFFFFFFFFFFFFFFFFFFFFFFFFFFFFFFF AND SUB PUSH2 0x594 JUMPI PUSH0 PUSH1 0x40 MLOAD PUSH32 0x64A0AE9200000000000000000000000000000000000000000000000000000000 DUP2 MSTORE PUSH1 0x4 ADD PUSH2 0x58B SWAP2 SWAP1 PUSH2 0x1F47 JUMP JUMPDEST PUSH1 0x40 MLOAD DUP1 SWAP2 SUB SWAP1 REVERT JUMPDEST PUSH0 PUSH2 0x5A7 DUP4 DUP4 PUSH2 0x5A2 PUSH2 0xD39 JUMP JUMPDEST PUSH2 0xD52 JUMP JUMPDEST SWAP1 POP DUP4 PUSH20 0xFFFFFFFFFFFFFFFFFFFFFFFFFFFFFFFFFFFFFFFF AND DUP2 PUSH20 0xFFFFFFFFFFFFFFFFFFFFFFFFFFFFFFFFFFFFFFFF AND EQ PUSH2 0x61D JUMPI DUP4 DUP3 DUP3 PUSH1 0x40 MLOAD PUSH32 0x64283D7B00000000000000000000000000000000000000000000000000000000 DUP2 MSTORE PUSH1 0x4 ADD PUSH2 0x614 SWAP4 SWAP3 SWAP2 SWAP1 PUSH2 0x231A JUMP JUMPDEST PUSH1 0x40 MLOAD DUP1 SWAP2 SUB SWAP1 REVERT JUMPDEST POP POP POP POP JUMP JUMPDEST PUSH0 PUSH2 0x62D DUP4 PUSH2 0x769 JUMP JUMPDEST DUP3 LT PUSH2 0x672 JUMPI DUP3 DUP3 PUSH1 0x40 MLOAD PUSH32 0xA57D13DC00000000000000000000000000000000000000000000000000000000 DUP2 MSTORE PUSH1 0x4 ADD PUSH2 0x669 SWAP3 SWAP2 SWAP1 PUSH2 0x234F JUMP JUMPDEST PUSH1 0x40 MLOAD DUP1 SWAP2 SUB SWAP1 REVERT JUMPDEST PUSH1 0x6 PUSH0 DUP5 PUSH20 0xFFFFFFFFFFFFFFFFFFFFFFFFFFFFFFFFFFFFFFFF AND PUSH20 0xFFFFFFFFFFFFFFFFFFFFFFFFFFFFFFFFFFFFFFFF AND DUP2 MSTORE PUSH1 0x20 ADD SWAP1 DUP2 MSTORE PUSH1 0x20 ADD PUSH0 KECCAK256 PUSH0 DUP4 DUP2 MSTORE PUSH1 0x20 ADD SWAP1 DUP2 MSTORE PUSH1 0x20 ADD PUSH0 KECCAK256 SLOAD SWAP1 POP SWAP3 SWAP2 POP POP JUMP JUMPDEST PUSH2 0x6E1 DUP4 DUP4 DUP4 PUSH1 0x40 MLOAD DUP1 PUSH1 0x20 ADD PUSH1 0x40 MSTORE DUP1 PUSH0 DUP2 MSTORE POP PUSH2 0x91D JUMP JUMPDEST POP POP POP JUMP JUMPDEST PUSH0 PUSH2 0x6EF PUSH2 0x518 JUMP JUMPDEST DUP3 LT PUSH2 0x734 JUMPI PUSH0 DUP3 PUSH1 0x40 MLOAD PUSH32 0xA57D13DC00000000000000000000000000000000000000000000000000000000 DUP2 MSTORE PUSH1 0x4 ADD PUSH2 0x72B SWAP3 SWAP2 SWAP1 PUSH2 0x234F JUMP JUMPDEST PUSH1 0x40 MLOAD DUP1 SWAP2 SUB SWAP1 REVERT JUMPDEST PUSH1 0x8 DUP3 DUP2 SLOAD DUP2 LT PUSH2 0x748 JUMPI PUSH2 0x747 PUSH2 0x2376 JUMP JUMPDEST JUMPDEST SWAP1 PUSH0 MSTORE PUSH1 0x20 PUSH0 KECCAK256 ADD SLOAD SWAP1 POP SWAP2 SWAP1 POP JUMP JUMPDEST PUSH0 PUSH2 0x762 DUP3 PUSH2 0xC7A JUMP JUMPDEST SWAP1 POP SWAP2 SWAP1 POP JUMP JUMPDEST PUSH0 DUP1 PUSH20 0xFFFFFFFFFFFFFFFFFFFFFFFFFFFFFFFFFFFFFFFF AND DUP3 PUSH20 0xFFFFFFFFFFFFFFFFFFFFFFFFFFFFFFFFFFFFFFFF AND SUB PUSH2 0x7DA JUMPI PUSH0 PUSH1 0x40 MLOAD PUSH32 0x89C62B6400000000000000000000000000000000000000000000000000000000 DUP2 MSTORE PUSH1 0x4 ADD PUSH2 0x7D1 SWAP2 SWAP1 PUSH2 0x1F47 JUMP JUMPDEST PUSH1 0x40 MLOAD DUP1 SWAP2 SUB SWAP1 REVERT JUMPDEST PUSH1 0x3 PUSH0 DUP4 PUSH20 0xFFFFFFFFFFFFFFFFFFFFFFFFFFFFFFFFFFFFFFFF AND PUSH20 0xFFFFFFFFFFFFFFFFFFFFFFFFFFFFFFFFFFFFFFFF AND DUP2 MSTORE PUSH1 0x20 ADD SWAP1 DUP2 MSTORE PUSH1 0x20 ADD PUSH0 KECCAK256 SLOAD SWAP1 POP SWAP2 SWAP1 POP JUMP JUMPDEST PUSH1 0x1 PUSH1 0xB PUSH0 DUP4 PUSH20 0xFFFFFFFFFFFFFFFFFFFFFFFFFFFFFFFFFFFFFFFF AND PUSH20 0xFFFFFFFFFFFFFFFFFFFFFFFFFFFFFFFFFFFFFFFF AND DUP2 MSTORE PUSH1 0x20 ADD SWAP1 DUP2 MSTORE PUSH1 0x20 ADD PUSH0 KECCAK256 PUSH0 PUSH2 0x100 EXP DUP2 SLOAD DUP2 PUSH1 0xFF MUL NOT AND SWAP1 DUP4 ISZERO ISZERO MUL OR SWAP1 SSTORE POP POP JUMP JUMPDEST PUSH1 0x60 PUSH1 0x1 DUP1 SLOAD PUSH2 0x886 SWAP1 PUSH2 0x22EA JUMP JUMPDEST DUP1 PUSH1 0x1F ADD PUSH1 0x20 DUP1 SWAP2 DIV MUL PUSH1 0x20 ADD PUSH1 0x40 MLOAD SWAP1 DUP2 ADD PUSH1 0x40 MSTORE DUP1 SWAP3 SWAP2 SWAP1 DUP2 DUP2 MSTORE PUSH1 0x20 ADD DUP3 DUP1 SLOAD PUSH2 0x8B2 SWAP1 PUSH2 0x22EA JUMP JUMPDEST DUP1 ISZERO PUSH2 0x8FD JUMPI DUP1 PUSH1 0x1F LT PUSH2 0x8D4 JUMPI PUSH2 0x100 DUP1 DUP4 SLOAD DIV MUL DUP4 MSTORE SWAP2 PUSH1 0x20 ADD SWAP2 PUSH2 0x8FD JUMP JUMPDEST DUP3 ADD SWAP2 SWAP1 PUSH0 MSTORE PUSH1 0x20 PUSH0 KECCAK256 SWAP1 JUMPDEST DUP2 SLOAD DUP2 MSTORE SWAP1 PUSH1 0x1 ADD SWAP1 PUSH1 0x20 ADD DUP1 DUP4 GT PUSH2 0x8E0 JUMPI DUP3 SWAP1 SUB PUSH1 0x1F AND DUP3 ADD SWAP2 JUMPDEST POP POP POP POP POP SWAP1 POP SWAP1 JUMP JUMPDEST PUSH2 0x919 PUSH2 0x912 PUSH2 0xD39 JUMP JUMPDEST DUP4 DUP4 PUSH2 0xE6C JUMP JUMPDEST POP POP JUMP JUMPDEST PUSH2 0x928 DUP5 DUP5 DUP5 PUSH2 0x524 JUMP JUMPDEST PUSH2 0x934 DUP5 DUP5 DUP5 DUP5 PUSH2 0xFD5 JUMP JUMPDEST POP POP POP POP JUMP JUMPDEST PUSH1 0x11 PUSH2 0x944 PUSH2 0x518 JUMP JUMPDEST LT PUSH2 0x984 JUMPI PUSH1 0x40 MLOAD PUSH32 0x8C379A000000000000000000000000000000000000000000000000000000000 DUP2 MSTORE PUSH1 0x4 ADD PUSH2 0x97B SWAP1 PUSH2 0x23ED JUMP JUMPDEST PUSH1 0x40 MLOAD DUP1 SWAP2 SUB SWAP1 REVERT JUMPDEST PUSH1 0xB PUSH0 CALLER PUSH20 0xFFFFFFFFFFFFFFFFFFFFFFFFFFFFFFFFFFFFFFFF AND PUSH20 0xFFFFFFFFFFFFFFFFFFFFFFFFFFFFFFFFFFFFFFFF AND DUP2 MSTORE PUSH1 0x20 ADD SWAP1 DUP2 MSTORE PUSH1 0x20 ADD PUSH0 KECCAK256 PUSH0 SWAP1 SLOAD SWAP1 PUSH2 0x100 EXP SWAP1 DIV PUSH1 0xFF AND PUSH2 0xA0D JUMPI PUSH1 0x40 MLOAD PUSH32 0x8C379A000000000000000000000000000000000000000000000000000000000 DUP2 MSTORE PUSH1 0x4 ADD PUSH2 0xA04 SWAP1 PUSH2 0x2455 JUMP JUMPDEST PUSH1 0x40 MLOAD DUP1 SWAP2 SUB SWAP1 REVERT JUMPDEST PUSH0 PUSH1 0x1 PUSH2 0xA18 PUSH2 0x518 JUMP JUMPDEST PUSH2 0xA22 SWAP2 SWAP1 PUSH2 0x24A0 JUMP JUMPDEST SWAP1 POP PUSH2 0xA2E CALLER DUP3 PUSH2 0x1187 JUMP JUMPDEST PUSH0 PUSH1 0xB PUSH0 CALLER PUSH20 0xFFFFFFFFFFFFFFFFFFFFFFFFFFFFFFFFFFFFFFFF AND PUSH20 0xFFFFFFFFFFFFFFFFFFFFFFFFFFFFFFFFFFFFFFFF AND DUP2 MSTORE PUSH1 0x20 ADD SWAP1 DUP2 MSTORE PUSH1 0x20 ADD PUSH0 KECCAK256 PUSH0 PUSH2 0x100 EXP DUP2 SLOAD DUP2 PUSH1 0xFF MUL NOT AND SWAP1 DUP4 ISZERO ISZERO MUL OR SWAP1 SSTORE POP POP JUMP JUMPDEST PUSH0 PUSH1 0xB PUSH0 DUP4 PUSH20 0xFFFFFFFFFFFFFFFFFFFFFFFFFFFFFFFFFFFFFFFF AND PUSH20 0xFFFFFFFFFFFFFFFFFFFFFFFFFFFFFFFFFFFFFFFF AND DUP2 MSTORE PUSH1 0x20 ADD SWAP1 DUP2 MSTORE PUSH1 0x20 ADD PUSH0 KECCAK256 PUSH0 SWAP1 SLOAD SWAP1 PUSH2 0x100 EXP SWAP1 DIV PUSH1 0xFF AND SWAP1 POP SWAP2 SWAP1 POP JUMP JUMPDEST PUSH1 0x60 PUSH1 0xA PUSH2 0xAE4 DUP4 PUSH2 0x127A JUMP JUMPDEST PUSH1 0x40 MLOAD PUSH1 0x20 ADD PUSH2 0xAF5 SWAP3 SWAP2 SWAP1 PUSH2 0x25E9 JUMP JUMPDEST PUSH1 0x40 MLOAD PUSH1 0x20 DUP2 DUP4 SUB SUB DUP2 MSTORE SWAP1 PUSH1 0x40 MSTORE SWAP1 POP SWAP2 SWAP1 POP JUMP JUMPDEST PUSH0 PUSH1 0x5 PUSH0 DUP5 PUSH20 0xFFFFFFFFFFFFFFFFFFFFFFFFFFFFFFFFFFFFFFFF AND PUSH20 0xFFFFFFFFFFFFFFFFFFFFFFFFFFFFFFFFFFFFFFFF AND DUP2 MSTORE PUSH1 0x20 ADD SWAP1 DUP2 MSTORE PUSH1 0x20 ADD PUSH0 KECCAK256 PUSH0 DUP4 PUSH20 0xFFFFFFFFFFFFFFFFFFFFFFFFFFFFFFFFFFFFFFFF AND PUSH20 0xFFFFFFFFFFFFFFFFFFFFFFFFFFFFFFFFFFFFFFFF AND DUP2 MSTORE PUSH1 0x20 ADD SWAP1 DUP2 MSTORE PUSH1 0x20 ADD PUSH0 KECCAK256 PUSH0 SWAP1 SLOAD SWAP1 PUSH2 0x100 EXP SWAP1 DIV PUSH1 0xFF AND SWAP1 POP SWAP3 SWAP2 POP POP JUMP JUMPDEST PUSH0 PUSH32 0x80AC58CD00000000000000000000000000000000000000000000000000000000 PUSH28 0xFFFFFFFFFFFFFFFFFFFFFFFFFFFFFFFFFFFFFFFFFFFFFFFFFFFFFFFF NOT AND DUP3 PUSH28 0xFFFFFFFFFFFFFFFFFFFFFFFFFFFFFFFFFFFFFFFFFFFFFFFFFFFFFFFF NOT AND EQ DUP1 PUSH2 0xC63 JUMPI POP PUSH32 0x5B5E139F00000000000000000000000000000000000000000000000000000000 PUSH28 0xFFFFFFFFFFFFFFFFFFFFFFFFFFFFFFFFFFFFFFFFFFFFFFFFFFFFFFFF NOT AND DUP3 PUSH28 0xFFFFFFFFFFFFFFFFFFFFFFFFFFFFFFFFFFFFFFFFFFFFFFFFFFFFFFFF NOT AND EQ JUMPDEST DUP1 PUSH2 0xC73 JUMPI POP PUSH2 0xC72 DUP3 PUSH2 0x1344 JUMP JUMPDEST JUMPDEST SWAP1 POP SWAP2 SWAP1 POP JUMP JUMPDEST PUSH0 DUP1 PUSH2 0xC85 DUP4 PUSH2 0x13AD JUMP JUMPDEST SWAP1 POP PUSH0 PUSH20 0xFFFFFFFFFFFFFFFFFFFFFFFFFFFFFFFFFFFFFFFF AND DUP2 PUSH20 0xFFFFFFFFFFFFFFFFFFFFFFFFFFFFFFFFFFFFFFFF AND SUB PUSH2 0xCF7 JUMPI DUP3 PUSH1 0x40 MLOAD PUSH32 0x7E27328900000000000000000000000000000000000000000000000000000000 DUP2 MSTORE PUSH1 0x4 ADD PUSH2 0xCEE SWAP2 SWAP1 PUSH2 0x1FD7 JUMP JUMPDEST PUSH1 0x40 MLOAD DUP1 SWAP2 SUB SWAP1 REVERT JUMPDEST DUP1 SWAP2 POP POP SWAP2 SWAP1 POP JUMP JUMPDEST PUSH0 PUSH1 0x4 PUSH0 DUP4 DUP2 MSTORE PUSH1 0x20 ADD SWAP1 DUP2 MSTORE PUSH1 0x20 ADD PUSH0 KECCAK256 PUSH0 SWAP1 SLOAD SWAP1 PUSH2 0x100 EXP SWAP1 DIV PUSH20 0xFFFFFFFFFFFFFFFFFFFFFFFFFFFFFFFFFFFFFFFF AND SWAP1 POP SWAP2 SWAP1 POP JUMP JUMPDEST PUSH0 CALLER SWAP1 POP SWAP1 JUMP JUMPDEST PUSH2 0xD4D DUP4 DUP4 DUP4 PUSH1 0x1 PUSH2 0x13E6 JUMP JUMPDEST POP POP POP JUMP JUMPDEST PUSH0 DUP1 PUSH2 0xD5F DUP6 DUP6 DUP6 PUSH2 0x15A5 JUMP JUMPDEST SWAP1 POP PUSH0 PUSH20 0xFFFFFFFFFFFFFFFFFFFFFFFFFFFFFFFFFFFFFFFF AND DUP2 PUSH20 0xFFFFFFFFFFFFFFFFFFFFFFFFFFFFFFFFFFFFFFFF AND SUB PUSH2 0xDA2 JUMPI PUSH2 0xD9D DUP5 PUSH2 0x17B0 JUMP JUMPDEST PUSH2 0xDE1 JUMP JUMPDEST DUP5 PUSH20 0xFFFFFFFFFFFFFFFFFFFFFFFFFFFFFFFFFFFFFFFF AND DUP2 PUSH20 0xFFFFFFFFFFFFFFFFFFFFFFFFFFFFFFFFFFFFFFFF AND EQ PUSH2 0xDE0 JUMPI PUSH2 0xDDF DUP2 DUP6 PUSH2 0x17F4 JUMP JUMPDEST JUMPDEST JUMPDEST PUSH0 PUSH20 0xFFFFFFFFFFFFFFFFFFFFFFFFFFFFFFFFFFFFFFFF AND DUP6 PUSH20 0xFFFFFFFFFFFFFFFFFFFFFFFFFFFFFFFFFFFFFFFF AND SUB PUSH2 0xE22 JUMPI PUSH2 0xE1D DUP5 PUSH2 0x193E JUMP JUMPDEST PUSH2 0xE61 JUMP JUMPDEST DUP5 PUSH20 0xFFFFFFFFFFFFFFFFFFFFFFFFFFFFFFFFFFFFFFFF AND DUP2 PUSH20 0xFFFFFFFFFFFFFFFFFFFFFFFFFFFFFFFFFFFFFFFF AND EQ PUSH2 0xE60 JUMPI PUSH2 0xE5F DUP6 DUP6 PUSH2 0x19FE JUMP JUMPDEST JUMPDEST JUMPDEST DUP1 SWAP2 POP POP SWAP4 SWAP3 POP POP POP JUMP JUMPDEST PUSH0 PUSH20 0xFFFFFFFFFFFFFFFFFFFFFFFFFFFFFFFFFFFFFFFF AND DUP3 PUSH20 0xFFFFFFFFFFFFFFFFFFFFFFFFFFFFFFFFFFFFFFFF AND SUB PUSH2 0xEDC JUMPI DUP2 PUSH1 0x40 MLOAD PUSH32 0x5B08BA1800000000000000000000000000000000000000000000000000000000 DUP2 MSTORE PUSH1 0x4 ADD PUSH2 0xED3 SWAP2 SWAP1 PUSH2 0x1F47 JUMP JUMPDEST PUSH1 0x40 MLOAD DUP1 SWAP2 SUB SWAP1 REVERT JUMPDEST DUP1 PUSH1 0x5 PUSH0 DUP6 PUSH20 0xFFFFFFFFFFFFFFFFFFFFFFFFFFFFFFFFFFFFFFFF AND PUSH20 0xFFFFFFFFFFFFFFFFFFFFFFFFFFFFFFFFFFFFFFFF AND DUP2 MSTORE PUSH1 0x20 ADD SWAP1 DUP2 MSTORE PUSH1 0x20 ADD PUSH0 KECCAK256 PUSH0 DUP5 PUSH20 0xFFFFFFFFFFFFFFFFFFFFFFFFFFFFFFFFFFFFFFFF AND PUSH20 0xFFFFFFFFFFFFFFFFFFFFFFFFFFFFFFFFFFFFFFFF AND DUP2 MSTORE PUSH1 0x20 ADD SWAP1 DUP2 MSTORE PUSH1 0x20 ADD PUSH0 KECCAK256 PUSH0 PUSH2 0x100 EXP DUP2 SLOAD DUP2 PUSH1 0xFF MUL NOT AND SWAP1 DUP4 ISZERO ISZERO MUL OR SWAP1 SSTORE POP DUP2 PUSH20 0xFFFFFFFFFFFFFFFFFFFFFFFFFFFFFFFFFFFFFFFF AND DUP4 PUSH20 0xFFFFFFFFFFFFFFFFFFFFFFFFFFFFFFFFFFFFFFFF AND PUSH32 0x17307EAB39AB6107E8899845AD3D59BD9653F200F220920489CA2B5937696C31 DUP4 PUSH1 0x40 MLOAD PUSH2 0xFC8 SWAP2 SWAP1 PUSH2 0x1E01 JUMP JUMPDEST PUSH1 0x40 MLOAD DUP1 SWAP2 SUB SWAP1 LOG3 POP POP POP JUMP JUMPDEST PUSH0 DUP4 PUSH20 0xFFFFFFFFFFFFFFFFFFFFFFFFFFFFFFFFFFFFFFFF AND EXTCODESIZE GT ISZERO PUSH2 0x1181 JUMPI DUP3 PUSH20 0xFFFFFFFFFFFFFFFFFFFFFFFFFFFFFFFFFFFFFFFF AND PUSH4 0x150B7A02 PUSH2 0x1018 PUSH2 0xD39 JUMP JUMPDEST DUP7 DUP6 DUP6 PUSH1 0x40 MLOAD DUP6 PUSH4 0xFFFFFFFF AND PUSH1 0xE0 SHL DUP2 MSTORE PUSH1 0x4 ADD PUSH2 0x103A SWAP5 SWAP4 SWAP3 SWAP2 SWAP1 PUSH2 0x2669 JUMP JUMPDEST PUSH1 0x20 PUSH1 0x40 MLOAD DUP1 DUP4 SUB DUP2 PUSH0 DUP8 GAS CALL SWAP3 POP POP POP DUP1 ISZERO PUSH2 0x1075 JUMPI POP PUSH1 0x40 MLOAD RETURNDATASIZE PUSH1 0x1F NOT PUSH1 0x1F DUP3 ADD AND DUP3 ADD DUP1 PUSH1 0x40 MSTORE POP DUP2 ADD SWAP1 PUSH2 0x1072 SWAP2 SWAP1 PUSH2 0x26C7 JUMP JUMPDEST PUSH1 0x1 JUMPDEST PUSH2 0x10F6 JUMPI RETURNDATASIZE DUP1 PUSH0 DUP2 EQ PUSH2 0x10A3 JUMPI PUSH1 0x40 MLOAD SWAP2 POP PUSH1 0x1F NOT PUSH1 0x3F RETURNDATASIZE ADD AND DUP3 ADD PUSH1 0x40 MSTORE RETURNDATASIZE DUP3 MSTORE RETURNDATASIZE PUSH0 PUSH1 0x20 DUP5 ADD RETURNDATACOPY PUSH2 0x10A8 JUMP JUMPDEST PUSH1 0x60 SWAP2 POP JUMPDEST POP PUSH0 DUP2 MLOAD SUB PUSH2 0x10EE JUMPI DUP4 PUSH1 0x40 MLOAD PUSH32 0x64A0AE9200000000000000000000000000000000000000000000000000000000 DUP2 MSTORE PUSH1 0x4 ADD PUSH2 0x10E5 SWAP2 SWAP1 PUSH2 0x1F47 JUMP JUMPDEST PUSH1 0x40 MLOAD DUP1 SWAP2 SUB SWAP1 REVERT JUMPDEST DUP1 MLOAD DUP2 PUSH1 0x20 ADD REVERT JUMPDEST PUSH4 0x150B7A02 PUSH1 0xE0 SHL PUSH28 0xFFFFFFFFFFFFFFFFFFFFFFFFFFFFFFFFFFFFFFFFFFFFFFFFFFFFFFFF NOT AND DUP2 PUSH28 0xFFFFFFFFFFFFFFFFFFFFFFFFFFFFFFFFFFFFFFFFFFFFFFFFFFFFFFFF NOT AND EQ PUSH2 0x117F JUMPI DUP4 PUSH1 0x40 MLOAD PUSH32 0x64A0AE9200000000000000000000000000000000000000000000000000000000 DUP2 MSTORE PUSH1 0x4 ADD PUSH2 0x1176 SWAP2 SWAP1 PUSH2 0x1F47 JUMP JUMPDEST PUSH1 0x40 MLOAD DUP1 SWAP2 SUB SWAP1 REVERT JUMPDEST POP JUMPDEST POP POP POP POP JUMP JUMPDEST PUSH0 PUSH20 0xFFFFFFFFFFFFFFFFFFFFFFFFFFFFFFFFFFFFFFFF AND DUP3 PUSH20 0xFFFFFFFFFFFFFFFFFFFFFFFFFFFFFFFFFFFFFFFF AND SUB PUSH2 0x11F7 JUMPI PUSH0 PUSH1 0x40 MLOAD PUSH32 0x64A0AE9200000000000000000000000000000000000000000000000000000000 DUP2 MSTORE PUSH1 0x4 ADD PUSH2 0x11EE SWAP2 SWAP1 PUSH2 0x1F47 JUMP JUMPDEST PUSH1 0x40 MLOAD DUP1 SWAP2 SUB SWAP1 REVERT JUMPDEST PUSH0 PUSH2 0x1203 DUP4 DUP4 PUSH0 PUSH2 0xD52 JUMP JUMPDEST SWAP1 POP PUSH0 PUSH20 0xFFFFFFFFFFFFFFFFFFFFFFFFFFFFFFFFFFFFFFFF AND DUP2 PUSH20 0xFFFFFFFFFFFFFFFFFFFFFFFFFFFFFFFFFFFFFFFF AND EQ PUSH2 0x1275 JUMPI PUSH0 PUSH1 0x40 MLOAD PUSH32 0x73C6AC6E00000000000000000000000000000000000000000000000000000000 DUP2 MSTORE PUSH1 0x4 ADD PUSH2 0x126C SWAP2 SWAP1 PUSH2 0x1F47 JUMP JUMPDEST PUSH1 0x40 MLOAD DUP1 SWAP2 SUB SWAP1 REVERT JUMPDEST POP POP POP JUMP JUMPDEST PUSH1 0x60 PUSH0 PUSH1 0x1 PUSH2 0x1288 DUP5 PUSH2 0x1A82 JUMP JUMPDEST ADD SWAP1 POP PUSH0 DUP2 PUSH8 0xFFFFFFFFFFFFFFFF DUP2 GT ISZERO PUSH2 0x12A6 JUMPI PUSH2 0x12A5 PUSH2 0x20DB JUMP JUMPDEST JUMPDEST PUSH1 0x40 MLOAD SWAP1 DUP1 DUP3 MSTORE DUP1 PUSH1 0x1F ADD PUSH1 0x1F NOT AND PUSH1 0x20 ADD DUP3 ADD PUSH1 0x40 MSTORE DUP1 ISZERO PUSH2 0x12D8 JUMPI DUP2 PUSH1 0x20 ADD PUSH1 0x1 DUP3 MUL DUP1 CALLDATASIZE DUP4 CALLDATACOPY DUP1 DUP3 ADD SWAP2 POP POP SWAP1 POP JUMPDEST POP SWAP1 POP PUSH0 DUP3 PUSH1 0x20 ADD DUP3 ADD SWAP1 POP JUMPDEST PUSH1 0x1 ISZERO PUSH2 0x1339 JUMPI DUP1 DUP1 PUSH1 0x1 SWAP1 SUB SWAP2 POP POP PUSH32 0x3031323334353637383961626364656600000000000000000000000000000000 PUSH1 0xA DUP7 MOD BYTE DUP2 MSTORE8 PUSH1 0xA DUP6 DUP2 PUSH2 0x132E JUMPI PUSH2 0x132D PUSH2 0x26F2 JUMP JUMPDEST JUMPDEST DIV SWAP5 POP PUSH0 DUP6 SUB PUSH2 0x12E5 JUMPI JUMPDEST DUP2 SWAP4 POP POP POP POP SWAP2 SWAP1 POP JUMP JUMPDEST PUSH0 PUSH32 0x1FFC9A700000000000000000000000000000000000000000000000000000000 PUSH28 0xFFFFFFFFFFFFFFFFFFFFFFFFFFFFFFFFFFFFFFFFFFFFFFFFFFFFFFFF NOT AND DUP3 PUSH28 0xFFFFFFFFFFFFFFFFFFFFFFFFFFFFFFFFFFFFFFFFFFFFFFFFFFFFFFFF NOT AND EQ SWAP1 POP SWAP2 SWAP1 POP JUMP JUMPDEST PUSH0 PUSH1 0x2 PUSH0 DUP4 DUP2 MSTORE PUSH1 0x20 ADD SWAP1 DUP2 MSTORE PUSH1 0x20 ADD PUSH0 KECCAK256 PUSH0 SWAP1 SLOAD SWAP1 PUSH2 0x100 EXP SWAP1 DIV PUSH20 0xFFFFFFFFFFFFFFFFFFFFFFFFFFFFFFFFFFFFFFFF AND SWAP1 POP SWAP2 SWAP1 POP JUMP JUMPDEST DUP1 DUP1 PUSH2 0x141E JUMPI POP PUSH0 PUSH20 0xFFFFFFFFFFFFFFFFFFFFFFFFFFFFFFFFFFFFFFFF AND DUP3 PUSH20 0xFFFFFFFFFFFFFFFFFFFFFFFFFFFFFFFFFFFFFFFF AND EQ ISZERO JUMPDEST ISZERO PUSH2 0x1550 JUMPI PUSH0 PUSH2 0x142D DUP5 PUSH2 0xC7A JUMP JUMPDEST SWAP1 POP PUSH0 PUSH20 0xFFFFFFFFFFFFFFFFFFFFFFFFFFFFFFFFFFFFFFFF AND DUP4 PUSH20 0xFFFFFFFFFFFFFFFFFFFFFFFFFFFFFFFFFFFFFFFF AND EQ ISZERO DUP1 ISZERO PUSH2 0x1497 JUMPI POP DUP3 PUSH20 0xFFFFFFFFFFFFFFFFFFFFFFFFFFFFFFFFFFFFFFFF AND DUP2 PUSH20 0xFFFFFFFFFFFFFFFFFFFFFFFFFFFFFFFFFFFFFFFF AND EQ ISZERO JUMPDEST DUP1 ISZERO PUSH2 0x14AA JUMPI POP PUSH2 0x14A8 DUP2 DUP5 PUSH2 0xB0B JUMP JUMPDEST ISZERO JUMPDEST ISZERO PUSH2 0x14EC JUMPI DUP3 PUSH1 0x40 MLOAD PUSH32 0xA9FBF51F00000000000000000000000000000000000000000000000000000000 DUP2 MSTORE PUSH1 0x4 ADD PUSH2 0x14E3 SWAP2 SWAP1 PUSH2 0x1F47 JUMP JUMPDEST PUSH1 0x40 MLOAD DUP1 SWAP2 SUB SWAP1 REVERT JUMPDEST DUP2 ISZERO PUSH2 0x154E JUMPI DUP4 DUP6 PUSH20 0xFFFFFFFFFFFFFFFFFFFFFFFFFFFFFFFFFFFFFFFF AND DUP3 PUSH20 0xFFFFFFFFFFFFFFFFFFFFFFFFFFFFFFFFFFFFFFFF AND PUSH32 0x8C5BE1E5EBEC7D5BD14F71427D1E84F3DD0314C0F7B2291E5B200AC8C7C3B925 PUSH1 0x40 MLOAD PUSH1 0x40 MLOAD DUP1 SWAP2 SUB SWAP1 LOG4 JUMPDEST POP JUMPDEST DUP4 PUSH1 0x4 PUSH0 DUP6 DUP2 MSTORE PUSH1 0x20 ADD SWAP1 DUP2 MSTORE PUSH1 0x20 ADD PUSH0 KECCAK256 PUSH0 PUSH2 0x100 EXP DUP2 SLOAD DUP2 PUSH20 0xFFFFFFFFFFFFFFFFFFFFFFFFFFFFFFFFFFFFFFFF MUL NOT AND SWAP1 DUP4 PUSH20 0xFFFFFFFFFFFFFFFFFFFFFFFFFFFFFFFFFFFFFFFF AND MUL OR SWAP1 SSTORE POP POP POP POP POP JUMP JUMPDEST PUSH0 DUP1 PUSH2 0x15B0 DUP5 PUSH2 0x13AD JUMP JUMPDEST SWAP1 POP PUSH0 PUSH20 0xFFFFFFFFFFFFFFFFFFFFFFFFFFFFFFFFFFFFFFFF AND DUP4 PUSH20 0xFFFFFFFFFFFFFFFFFFFFFFFFFFFFFFFFFFFFFFFF AND EQ PUSH2 0x15F1 JUMPI PUSH2 0x15F0 DUP2 DUP5 DUP7 PUSH2 0x1BD3 JUMP JUMPDEST JUMPDEST PUSH0 PUSH20 0xFFFFFFFFFFFFFFFFFFFFFFFFFFFFFFFFFFFFFFFF AND DUP2 PUSH20 0xFFFFFFFFFFFFFFFFFFFFFFFFFFFFFFFFFFFFFFFF AND EQ PUSH2 0x167C JUMPI PUSH2 0x1630 PUSH0 DUP6 PUSH0 DUP1 PUSH2 0x13E6 JUMP JUMPDEST PUSH1 0x1 PUSH1 0x3 PUSH0 DUP4 PUSH20 0xFFFFFFFFFFFFFFFFFFFFFFFFFFFFFFFFFFFFFFFF AND PUSH20 0xFFFFFFFFFFFFFFFFFFFFFFFFFFFFFFFFFFFFFFFF AND DUP2 MSTORE PUSH1 0x20 ADD SWAP1 DUP2 MSTORE PUSH1 0x20 ADD PUSH0 KECCAK256 PUSH0 DUP3 DUP3 SLOAD SUB SWAP3 POP POP DUP2 SWAP1 SSTORE POP JUMPDEST PUSH0 PUSH20 0xFFFFFFFFFFFFFFFFFFFFFFFFFFFFFFFFFFFFFFFF AND DUP6 PUSH20 0xFFFFFFFFFFFFFFFFFFFFFFFFFFFFFFFFFFFFFFFF AND EQ PUSH2 0x16FB JUMPI PUSH1 0x1 PUSH1 0x3 PUSH0 DUP8 PUSH20 0xFFFFFFFFFFFFFFFFFFFFFFFFFFFFFFFFFFFFFFFF AND PUSH20 0xFFFFFFFFFFFFFFFFFFFFFFFFFFFFFFFFFFFFFFFF AND DUP2 MSTORE PUSH1 0x20 ADD SWAP1 DUP2 MSTORE PUSH1 0x20 ADD PUSH0 KECCAK256 PUSH0 DUP3 DUP3 SLOAD ADD SWAP3 POP POP DUP2 SWAP1 SSTORE POP JUMPDEST DUP5 PUSH1 0x2 PUSH0 DUP7 DUP2 MSTORE PUSH1 0x20 ADD SWAP1 DUP2 MSTORE PUSH1 0x20 ADD PUSH0 KECCAK256 PUSH0 PUSH2 0x100 EXP DUP2 SLOAD DUP2 PUSH20 0xFFFFFFFFFFFFFFFFFFFFFFFFFFFFFFFFFFFFFFFF MUL NOT AND SWAP1 DUP4 PUSH20 0xFFFFFFFFFFFFFFFFFFFFFFFFFFFFFFFFFFFFFFFF AND MUL OR SWAP1 SSTORE POP DUP4 DUP6 PUSH20 0xFFFFFFFFFFFFFFFFFFFFFFFFFFFFFFFFFFFFFFFF AND DUP3 PUSH20 0xFFFFFFFFFFFFFFFFFFFFFFFFFFFFFFFFFFFFFFFF AND PUSH32 0xDDF252AD1BE2C89B69C2B068FC378DAA952BA7F163C4A11628F55A4DF523B3EF PUSH1 0x40 MLOAD PUSH1 0x40 MLOAD DUP1 SWAP2 SUB SWAP1 LOG4 DUP1 SWAP2 POP POP SWAP4 SWAP3 POP POP POP JUMP JUMPDEST PUSH1 0x8 DUP1 SLOAD SWAP1 POP PUSH1 0x9 PUSH0 DUP4 DUP2 MSTORE PUSH1 0x20 ADD SWAP1 DUP2 MSTORE PUSH1 0x20 ADD PUSH0 KECCAK256 DUP2 SWAP1 SSTORE POP PUSH1 0x8 DUP2 SWAP1 DUP1 PUSH1 0x1 DUP2 SLOAD ADD DUP1 DUP3 SSTORE DUP1 SWAP2 POP POP PUSH1 0x1 SWAP1 SUB SWAP1 PUSH0 MSTORE PUSH1 0x20 PUSH0 KECCAK256 ADD PUSH0 SWAP1 SWAP2 SWAP1 SWAP2 SWAP1 SWAP2 POP SSTORE POP JUMP JUMPDEST PUSH0 PUSH2 0x17FE DUP4 PUSH2 0x769 JUMP JUMPDEST SWAP1 POP PUSH0 PUSH1 0x7 PUSH0 DUP5 DUP2 MSTORE PUSH1 0x20 ADD SWAP1 DUP2 MSTORE PUSH1 0x20 ADD PUSH0 KECCAK256 SLOAD SWAP1 POP DUP2 DUP2 EQ PUSH2 0x18D5 JUMPI PUSH0 PUSH1 0x6 PUSH0 DUP7 PUSH20 0xFFFFFFFFFFFFFFFFFFFFFFFFFFFFFFFFFFFFFFFF AND PUSH20 0xFFFFFFFFFFFFFFFFFFFFFFFFFFFFFFFFFFFFFFFF AND DUP2 MSTORE PUSH1 0x20 ADD SWAP1 DUP2 MSTORE PUSH1 0x20 ADD PUSH0 KECCAK256 PUSH0 DUP5 DUP2 MSTORE PUSH1 0x20 ADD SWAP1 DUP2 MSTORE PUSH1 0x20 ADD PUSH0 KECCAK256 SLOAD SWAP1 POP DUP1 PUSH1 0x6 PUSH0 DUP8 PUSH20 0xFFFFFFFFFFFFFFFFFFFFFFFFFFFFFFFFFFFFFFFF AND PUSH20 0xFFFFFFFFFFFFFFFFFFFFFFFFFFFFFFFFFFFFFFFF AND DUP2 MSTORE PUSH1 0x20 ADD SWAP1 DUP2 MSTORE PUSH1 0x20 ADD PUSH0 KECCAK256 PUSH0 DUP5 DUP2 MSTORE PUSH1 0x20 ADD SWAP1 DUP2 MSTORE PUSH1 0x20 ADD PUSH0 KECCAK256 DUP2 SWAP1 SSTORE POP DUP2 PUSH1 0x7 PUSH0 DUP4 DUP2 MSTORE PUSH1 0x20 ADD SWAP1 DUP2 MSTORE PUSH1 0x20 ADD PUSH0 KECCAK256 DUP2 SWAP1 SSTORE POP POP JUMPDEST PUSH1 0x7 PUSH0 DUP5 DUP2 MSTORE PUSH1 0x20 ADD SWAP1 DUP2 MSTORE PUSH1 0x20 ADD PUSH0 KECCAK256 PUSH0 SWAP1 SSTORE PUSH1 0x6 PUSH0 DUP6 PUSH20 0xFFFFFFFFFFFFFFFFFFFFFFFFFFFFFFFFFFFFFFFF AND PUSH20 0xFFFFFFFFFFFFFFFFFFFFFFFFFFFFFFFFFFFFFFFF AND DUP2 MSTORE PUSH1 0x20 ADD SWAP1 DUP2 MSTORE PUSH1 0x20 ADD PUSH0 KECCAK256 PUSH0 DUP4 DUP2 MSTORE PUSH1 0x20 ADD SWAP1 DUP2 MSTORE PUSH1 0x20 ADD PUSH0 KECCAK256 PUSH0 SWAP1 SSTORE POP POP POP POP JUMP JUMPDEST PUSH0 PUSH1 0x1 PUSH1 0x8 DUP1 SLOAD SWAP1 POP PUSH2 0x1951 SWAP2 SWAP1 PUSH2 0x271F JUMP JUMPDEST SWAP1 POP PUSH0 PUSH1 0x9 PUSH0 DUP5 DUP2 MSTORE PUSH1 0x20 ADD SWAP1 DUP2 MSTORE PUSH1 0x20 ADD PUSH0 KECCAK256 SLOAD SWAP1 POP PUSH0 PUSH1 0x8 DUP4 DUP2 SLOAD DUP2 LT PUSH2 0x197D JUMPI PUSH2 0x197C PUSH2 0x2376 JUMP JUMPDEST JUMPDEST SWAP1 PUSH0 MSTORE PUSH1 0x20 PUSH0 KECCAK256 ADD SLOAD SWAP1 POP DUP1 PUSH1 0x8 DUP4 DUP2 SLOAD DUP2 LT PUSH2 0x199D JUMPI PUSH2 0x199C PUSH2 0x2376 JUMP JUMPDEST JUMPDEST SWAP1 PUSH0 MSTORE PUSH1 0x20 PUSH0 KECCAK256 ADD DUP2 SWAP1 SSTORE POP DUP2 PUSH1 0x9 PUSH0 DUP4 DUP2 MSTORE PUSH1 0x20 ADD SWAP1 DUP2 MSTORE PUSH1 0x20 ADD PUSH0 KECCAK256 DUP2 SWAP1 SSTORE POP PUSH1 0x9 PUSH0 DUP6 DUP2 MSTORE PUSH1 0x20 ADD SWAP1 DUP2 MSTORE PUSH1 0x20 ADD PUSH0 KECCAK256 PUSH0 SWAP1 SSTORE PUSH1 0x8 DUP1 SLOAD DUP1 PUSH2 0x19E5 JUMPI PUSH2 0x19E4 PUSH2 0x2752 JUMP JUMPDEST JUMPDEST PUSH1 0x1 SWAP1 SUB DUP2 DUP2 SWAP1 PUSH0 MSTORE PUSH1 0x20 PUSH0 KECCAK256 ADD PUSH0 SWAP1 SSTORE SWAP1 SSTORE POP POP POP POP JUMP JUMPDEST PUSH0 PUSH1 0x1 PUSH2 0x1A0A DUP5 PUSH2 0x769 JUMP JUMPDEST PUSH2 0x1A14 SWAP2 SWAP1 PUSH2 0x271F JUMP JUMPDEST SWAP1 POP DUP2 PUSH1 0x6 PUSH0 DUP6 PUSH20 0xFFFFFFFFFFFFFFFFFFFFFFFFFFFFFFFFFFFFFFFF AND PUSH20 0xFFFFFFFFFFFFFFFFFFFFFFFFFFFFFFFFFFFFFFFF AND DUP2 MSTORE PUSH1 0x20 ADD SWAP1 DUP2 MSTORE PUSH1 0x20 ADD PUSH0 KECCAK256 PUSH0 DUP4 DUP2 MSTORE PUSH1 0x20 ADD SWAP1 DUP2 MSTORE PUSH1 0x20 ADD PUSH0 KECCAK256 DUP2 SWAP1 SSTORE POP DUP1 PUSH1 0x7 PUSH0 DUP5 DUP2 MSTORE PUSH1 0x20 ADD SWAP1 DUP2 MSTORE PUSH1 0x20 ADD PUSH0 KECCAK256 DUP2 SWAP1 SSTORE POP POP POP POP JUMP JUMPDEST PUSH0 DUP1 PUSH0 SWAP1 POP PUSH27 0x184F03E93FF9F4DAA797ED6E38ED64BF6A1F010000000000000000 DUP4 LT PUSH2 0x1ADE JUMPI PUSH27 0x184F03E93FF9F4DAA797ED6E38ED64BF6A1F010000000000000000 DUP4 DUP2 PUSH2 0x1AD4 JUMPI PUSH2 0x1AD3 PUSH2 0x26F2 JUMP JUMPDEST JUMPDEST DIV SWAP3 POP PUSH1 0x40 DUP2 ADD SWAP1 POP JUMPDEST PUSH14 0x4EE2D6D415B85ACEF8100000000 DUP4 LT PUSH2 0x1B1B JUMPI PUSH14 0x4EE2D6D415B85ACEF8100000000 DUP4 DUP2 PUSH2 0x1B11 JUMPI PUSH2 0x1B10 PUSH2 0x26F2 JUMP JUMPDEST JUMPDEST DIV SWAP3 POP PUSH1 0x20 DUP2 ADD SWAP1 POP JUMPDEST PUSH7 0x2386F26FC10000 DUP4 LT PUSH2 0x1B4A JUMPI PUSH7 0x2386F26FC10000 DUP4 DUP2 PUSH2 0x1B40 JUMPI PUSH2 0x1B3F PUSH2 0x26F2 JUMP JUMPDEST JUMPDEST DIV SWAP3 POP PUSH1 0x10 DUP2 ADD SWAP1 POP JUMPDEST PUSH4 0x5F5E100 DUP4 LT PUSH2 0x1B73 JUMPI PUSH4 0x5F5E100 DUP4 DUP2 PUSH2 0x1B69 JUMPI PUSH2 0x1B68 PUSH2 0x26F2 JUMP JUMPDEST JUMPDEST DIV SWAP3 POP PUSH1 0x8 DUP2 ADD SWAP1 POP JUMPDEST PUSH2 0x2710 DUP4 LT PUSH2 0x1B98 JUMPI PUSH2 0x2710 DUP4 DUP2 PUSH2 0x1B8E JUMPI PUSH2 0x1B8D PUSH2 0x26F2 JUMP JUMPDEST JUMPDEST DIV SWAP3 POP PUSH1 0x4 DUP2 ADD SWAP1 POP JUMPDEST PUSH1 0x64 DUP4 LT PUSH2 0x1BBB JUMPI PUSH1 0x64 DUP4 DUP2 PUSH2 0x1BB1 JUMPI PUSH2 0x1BB0 PUSH2 0x26F2 JUMP JUMPDEST JUMPDEST DIV SWAP3 POP PUSH1 0x2 DUP2 ADD SWAP1 POP JUMPDEST PUSH1 0xA DUP4 LT PUSH2 0x1BCA JUMPI PUSH1 0x1 DUP2 ADD SWAP1 POP JUMPDEST DUP1 SWAP2 POP POP SWAP2 SWAP1 POP JUMP JUMPDEST PUSH2 0x1BDE DUP4 DUP4 DUP4 PUSH2 0x1C96 JUMP JUMPDEST PUSH2 0x1C91 JUMPI PUSH0 PUSH20 0xFFFFFFFFFFFFFFFFFFFFFFFFFFFFFFFFFFFFFFFF AND DUP4 PUSH20 0xFFFFFFFFFFFFFFFFFFFFFFFFFFFFFFFFFFFFFFFF AND SUB PUSH2 0x1C52 JUMPI DUP1 PUSH1 0x40 MLOAD PUSH32 0x7E27328900000000000000000000000000000000000000000000000000000000 DUP2 MSTORE PUSH1 0x4 ADD PUSH2 0x1C49 SWAP2 SWAP1 PUSH2 0x1FD7 JUMP JUMPDEST PUSH1 0x40 MLOAD DUP1 SWAP2 SUB SWAP1 REVERT JUMPDEST DUP2 DUP2 PUSH1 0x40 MLOAD PUSH32 0x177E802F00000000000000000000000000000000000000000000000000000000 DUP2 MSTORE PUSH1 0x4 ADD PUSH2 0x1C88 SWAP3 SWAP2 SWAP1 PUSH2 0x234F JUMP JUMPDEST PUSH1 0x40 MLOAD DUP1 SWAP2 SUB SWAP1 REVERT JUMPDEST POP POP POP JUMP JUMPDEST PUSH0 DUP1 PUSH20 0xFFFFFFFFFFFFFFFFFFFFFFFFFFFFFFFFFFFFFFFF AND DUP4 PUSH20 0xFFFFFFFFFFFFFFFFFFFFFFFFFFFFFFFFFFFFFFFF AND EQ ISZERO DUP1 ISZERO PUSH2 0x1D4D JUMPI POP DUP3 PUSH20 0xFFFFFFFFFFFFFFFFFFFFFFFFFFFFFFFFFFFFFFFF AND DUP5 PUSH20 0xFFFFFFFFFFFFFFFFFFFFFFFFFFFFFFFFFFFFFFFF AND EQ DUP1 PUSH2 0x1D0E JUMPI POP PUSH2 0x1D0D DUP5 DUP5 PUSH2 0xB0B JUMP JUMPDEST JUMPDEST DUP1 PUSH2 0x1D4C JUMPI POP DUP3 PUSH20 0xFFFFFFFFFFFFFFFFFFFFFFFFFFFFFFFFFFFFFFFF AND PUSH2 0x1D34 DUP4 PUSH2 0xD00 JUMP JUMPDEST PUSH20 0xFFFFFFFFFFFFFFFFFFFFFFFFFFFFFFFFFFFFFFFF AND EQ JUMPDEST JUMPDEST SWAP1 POP SWAP4 SWAP3 POP POP POP JUMP JUMPDEST PUSH0 PUSH1 0x40 MLOAD SWAP1 POP SWAP1 JUMP JUMPDEST PUSH0 DUP1 REVERT JUMPDEST PUSH0 DUP1 REVERT JUMPDEST PUSH0 PUSH32 0xFFFFFFFF00000000000000000000000000000000000000000000000000000000 DUP3 AND SWAP1 POP SWAP2 SWAP1 POP JUMP JUMPDEST PUSH2 0x1D9B DUP2 PUSH2 0x1D67 JUMP JUMPDEST DUP2 EQ PUSH2 0x1DA5 JUMPI PUSH0 DUP1 REVERT JUMPDEST POP JUMP JUMPDEST PUSH0 DUP2 CALLDATALOAD SWAP1 POP PUSH2 0x1DB6 DUP2 PUSH2 0x1D92 JUMP JUMPDEST SWAP3 SWAP2 POP POP JUMP JUMPDEST PUSH0 PUSH1 0x20 DUP3 DUP5 SUB SLT ISZERO PUSH2 0x1DD1 JUMPI PUSH2 0x1DD0 PUSH2 0x1D5F JUMP JUMPDEST JUMPDEST PUSH0 PUSH2 0x1DDE DUP5 DUP3 DUP6 ADD PUSH2 0x1DA8 JUMP JUMPDEST SWAP2 POP POP SWAP3 SWAP2 POP POP JUMP JUMPDEST PUSH0 DUP2 ISZERO ISZERO SWAP1 POP SWAP2 SWAP1 POP JUMP JUMPDEST PUSH2 0x1DFB DUP2 PUSH2 0x1DE7 JUMP JUMPDEST DUP3 MSTORE POP POP JUMP JUMPDEST PUSH0 PUSH1 0x20 DUP3 ADD SWAP1 POP PUSH2 0x1E14 PUSH0 DUP4 ADD DUP5 PUSH2 0x1DF2 JUMP JUMPDEST SWAP3 SWAP2 POP POP JUMP JUMPDEST PUSH0 DUP2 MLOAD SWAP1 POP SWAP2 SWAP1 POP JUMP JUMPDEST PUSH0 DUP3 DUP3 MSTORE PUSH1 0x20 DUP3 ADD SWAP1 POP SWAP3 SWAP2 POP POP JUMP JUMPDEST DUP3 DUP2 DUP4 MCOPY PUSH0 DUP4 DUP4 ADD MSTORE POP POP POP JUMP JUMPDEST PUSH0 PUSH1 0x1F NOT PUSH1 0x1F DUP4 ADD AND SWAP1 POP SWAP2 SWAP1 POP JUMP JUMPDEST PUSH0 PUSH2 0x1E5C DUP3 PUSH2 0x1E1A JUMP JUMPDEST PUSH2 0x1E66 DUP2 DUP6 PUSH2 0x1E24 JUMP JUMPDEST SWAP4 POP PUSH2 0x1E76 DUP2 DUP6 PUSH1 0x20 DUP7 ADD PUSH2 0x1E34 JUMP JUMPDEST PUSH2 0x1E7F DUP2 PUSH2 0x1E42 JUMP JUMPDEST DUP5 ADD SWAP2 POP POP SWAP3 SWAP2 POP POP JUMP JUMPDEST PUSH0 PUSH1 0x20 DUP3 ADD SWAP1 POP DUP2 DUP2 SUB PUSH0 DUP4 ADD MSTORE PUSH2 0x1EA2 DUP2 DUP5 PUSH2 0x1E52 JUMP JUMPDEST SWAP1 POP SWAP3 SWAP2 POP POP JUMP JUMPDEST PUSH0 DUP2 SWAP1 POP SWAP2 SWAP1 POP JUMP JUMPDEST PUSH2 0x1EBC DUP2 PUSH2 0x1EAA JUMP JUMPDEST DUP2 EQ PUSH2 0x1EC6 JUMPI PUSH0 DUP1 REVERT JUMPDEST POP JUMP JUMPDEST PUSH0 DUP2 CALLDATALOAD SWAP1 POP PUSH2 0x1ED7 DUP2 PUSH2 0x1EB3 JUMP JUMPDEST SWAP3 SWAP2 POP POP JUMP JUMPDEST PUSH0 PUSH1 0x20 DUP3 DUP5 SUB SLT ISZERO PUSH2 0x1EF2 JUMPI PUSH2 0x1EF1 PUSH2 0x1D5F JUMP JUMPDEST JUMPDEST PUSH0 PUSH2 0x1EFF DUP5 DUP3 DUP6 ADD PUSH2 0x1EC9 JUMP JUMPDEST SWAP2 POP POP SWAP3 SWAP2 POP POP JUMP JUMPDEST PUSH0 PUSH20 0xFFFFFFFFFFFFFFFFFFFFFFFFFFFFFFFFFFFFFFFF DUP3 AND SWAP1 POP SWAP2 SWAP1 POP JUMP JUMPDEST PUSH0 PUSH2 0x1F31 DUP3 PUSH2 0x1F08 JUMP JUMPDEST SWAP1 POP SWAP2 SWAP1 POP JUMP JUMPDEST PUSH2 0x1F41 DUP2 PUSH2 0x1F27 JUMP JUMPDEST DUP3 MSTORE POP POP JUMP JUMPDEST PUSH0 PUSH1 0x20 DUP3 ADD SWAP1 POP PUSH2 0x1F5A PUSH0 DUP4 ADD DUP5 PUSH2 0x1F38 JUMP JUMPDEST SWAP3 SWAP2 POP POP JUMP JUMPDEST PUSH2 0x1F69 DUP2 PUSH2 0x1F27 JUMP JUMPDEST DUP2 EQ PUSH2 0x1F73 JUMPI PUSH0 DUP1 REVERT JUMPDEST POP JUMP JUMPDEST PUSH0 DUP2 CALLDATALOAD SWAP1 POP PUSH2 0x1F84 DUP2 PUSH2 0x1F60 JUMP JUMPDEST SWAP3 SWAP2 POP POP JUMP JUMPDEST PUSH0 DUP1 PUSH1 0x40 DUP4 DUP6 SUB SLT ISZERO PUSH2 0x1FA0 JUMPI PUSH2 0x1F9F PUSH2 0x1D5F JUMP JUMPDEST JUMPDEST PUSH0 PUSH2 0x1FAD DUP6 DUP3 DUP7 ADD PUSH2 0x1F76 JUMP JUMPDEST SWAP3 POP POP PUSH1 0x20 PUSH2 0x1FBE DUP6 DUP3 DUP7 ADD PUSH2 0x1EC9 JUMP JUMPDEST SWAP2 POP POP SWAP3 POP SWAP3 SWAP1 POP JUMP JUMPDEST PUSH2 0x1FD1 DUP2 PUSH2 0x1EAA JUMP JUMPDEST DUP3 MSTORE POP POP JUMP JUMPDEST PUSH0 PUSH1 0x20 DUP3 ADD SWAP1 POP PUSH2 0x1FEA PUSH0 DUP4 ADD DUP5 PUSH2 0x1FC8 JUMP JUMPDEST SWAP3 SWAP2 POP POP JUMP JUMPDEST PUSH0 DUP1 PUSH0 PUSH1 0x60 DUP5 DUP7 SUB SLT ISZERO PUSH2 0x2007 JUMPI PUSH2 0x2006 PUSH2 0x1D5F JUMP JUMPDEST JUMPDEST PUSH0 PUSH2 0x2014 DUP7 DUP3 DUP8 ADD PUSH2 0x1F76 JUMP JUMPDEST SWAP4 POP POP PUSH1 0x20 PUSH2 0x2025 DUP7 DUP3 DUP8 ADD PUSH2 0x1F76 JUMP JUMPDEST SWAP3 POP POP PUSH1 0x40 PUSH2 0x2036 DUP7 DUP3 DUP8 ADD PUSH2 0x1EC9 JUMP JUMPDEST SWAP2 POP POP SWAP3 POP SWAP3 POP SWAP3 JUMP JUMPDEST PUSH0 PUSH1 0x20 DUP3 DUP5 SUB SLT ISZERO PUSH2 0x2055 JUMPI PUSH2 0x2054 PUSH2 0x1D5F JUMP JUMPDEST JUMPDEST PUSH0 PUSH2 0x2062 DUP5 DUP3 DUP6 ADD PUSH2 0x1F76 JUMP JUMPDEST SWAP2 POP POP SWAP3 SWAP2 POP POP JUMP JUMPDEST PUSH2 0x2074 DUP2 PUSH2 0x1DE7 JUMP JUMPDEST DUP2 EQ PUSH2 0x207E JUMPI PUSH0 DUP1 REVERT JUMPDEST POP JUMP JUMPDEST PUSH0 DUP2 CALLDATALOAD SWAP1 POP PUSH2 0x208F DUP2 PUSH2 0x206B JUMP JUMPDEST SWAP3 SWAP2 POP POP JUMP JUMPDEST PUSH0 DUP1 PUSH1 0x40 DUP4 DUP6 SUB SLT ISZERO PUSH2 0x20AB JUMPI PUSH2 0x20AA PUSH2 0x1D5F JUMP JUMPDEST JUMPDEST PUSH0 PUSH2 0x20B8 DUP6 DUP3 DUP7 ADD PUSH2 0x1F76 JUMP JUMPDEST SWAP3 POP POP PUSH1 0x20 PUSH2 0x20C9 DUP6 DUP3 DUP7 ADD PUSH2 0x2081 JUMP JUMPDEST SWAP2 POP POP SWAP3 POP SWAP3 SWAP1 POP JUMP JUMPDEST PUSH0 DUP1 REVERT JUMPDEST PUSH0 DUP1 REVERT JUMPDEST PUSH32 0x4E487B7100000000000000000000000000000000000000000000000000000000 PUSH0 MSTORE PUSH1 0x41 PUSH1 0x4 MSTORE PUSH1 0x24 PUSH0 REVERT JUMPDEST PUSH2 0x2111 DUP3 PUSH2 0x1E42 JUMP JUMPDEST DUP2 ADD DUP2 DUP2 LT PUSH8 0xFFFFFFFFFFFFFFFF DUP3 GT OR ISZERO PUSH2 0x2130 JUMPI PUSH2 0x212F PUSH2 0x20DB JUMP JUMPDEST JUMPDEST DUP1 PUSH1 0x40 MSTORE POP POP POP JUMP JUMPDEST PUSH0 PUSH2 0x2142 PUSH2 0x1D56 JUMP JUMPDEST SWAP1 POP PUSH2 0x214E DUP3 DUP3 PUSH2 0x2108 JUMP JUMPDEST SWAP2 SWAP1 POP JUMP JUMPDEST PUSH0 PUSH8 0xFFFFFFFFFFFFFFFF DUP3 GT ISZERO PUSH2 0x216D JUMPI PUSH2 0x216C PUSH2 0x20DB JUMP JUMPDEST JUMPDEST PUSH2 0x2176 DUP3 PUSH2 0x1E42 JUMP JUMPDEST SWAP1 POP PUSH1 0x20 DUP2 ADD SWAP1 POP SWAP2 SWAP1 POP JUMP JUMPDEST DUP3 DUP2 DUP4 CALLDATACOPY PUSH0 DUP4 DUP4 ADD MSTORE POP POP POP JUMP JUMPDEST PUSH0 PUSH2 0x21A3 PUSH2 0x219E DUP5 PUSH2 0x2153 JUMP JUMPDEST PUSH2 0x2139 JUMP JUMPDEST SWAP1 POP DUP3 DUP2 MSTORE PUSH1 0x20 DUP2 ADD DUP5 DUP5 DUP5 ADD GT ISZERO PUSH2 0x21BF JUMPI PUSH2 0x21BE PUSH2 0x20D7 JUMP JUMPDEST JUMPDEST PUSH2 0x21CA DUP5 DUP3 DUP6 PUSH2 0x2183 JUMP JUMPDEST POP SWAP4 SWAP3 POP POP POP JUMP JUMPDEST PUSH0 DUP3 PUSH1 0x1F DUP4 ADD SLT PUSH2 0x21E6 JUMPI PUSH2 0x21E5 PUSH2 0x20D3 JUMP JUMPDEST JUMPDEST DUP2 CALLDATALOAD PUSH2 0x21F6 DUP5 DUP3 PUSH1 0x20 DUP7 ADD PUSH2 0x2191 JUMP JUMPDEST SWAP2 POP POP SWAP3 SWAP2 POP POP JUMP JUMPDEST PUSH0 DUP1 PUSH0 DUP1 PUSH1 0x80 DUP6 DUP8 SUB SLT ISZERO PUSH2 0x2217 JUMPI PUSH2 0x2216 PUSH2 0x1D5F JUMP JUMPDEST JUMPDEST PUSH0 PUSH2 0x2224 DUP8 DUP3 DUP9 ADD PUSH2 0x1F76 JUMP JUMPDEST SWAP5 POP POP PUSH1 0x20 PUSH2 0x2235 DUP8 DUP3 DUP9 ADD PUSH2 0x1F76 JUMP JUMPDEST SWAP4 POP POP PUSH1 0x40 PUSH2 0x2246 DUP8 DUP3 DUP9 ADD PUSH2 0x1EC9 JUMP JUMPDEST SWAP3 POP POP PUSH1 0x60 DUP6 ADD CALLDATALOAD PUSH8 0xFFFFFFFFFFFFFFFF DUP2 GT ISZERO PUSH2 0x2267 JUMPI PUSH2 0x2266 PUSH2 0x1D63 JUMP JUMPDEST JUMPDEST PUSH2 0x2273 DUP8 DUP3 DUP9 ADD PUSH2 0x21D2 JUMP JUMPDEST SWAP2 POP POP SWAP3 SWAP6 SWAP2 SWAP5 POP SWAP3 POP JUMP JUMPDEST PUSH0 DUP1 PUSH1 0x40 DUP4 DUP6 SUB SLT ISZERO PUSH2 0x2295 JUMPI PUSH2 0x2294 PUSH2 0x1D5F JUMP JUMPDEST JUMPDEST PUSH0 PUSH2 0x22A2 DUP6 DUP3 DUP7 ADD PUSH2 0x1F76 JUMP JUMPDEST SWAP3 POP POP PUSH1 0x20 PUSH2 0x22B3 DUP6 DUP3 DUP7 ADD PUSH2 0x1F76 JUMP JUMPDEST SWAP2 POP POP SWAP3 POP SWAP3 SWAP1 POP JUMP JUMPDEST PUSH32 0x4E487B7100000000000000000000000000000000000000000000000000000000 PUSH0 MSTORE PUSH1 0x22 PUSH1 0x4 MSTORE PUSH1 0x24 PUSH0 REVERT JUMPDEST PUSH0 PUSH1 0x2 DUP3 DIV SWAP1 POP PUSH1 0x1 DUP3 AND DUP1 PUSH2 0x2301 JUMPI PUSH1 0x7F DUP3 AND SWAP2 POP JUMPDEST PUSH1 0x20 DUP3 LT DUP2 SUB PUSH2 0x2314 JUMPI PUSH2 0x2313 PUSH2 0x22BD JUMP JUMPDEST JUMPDEST POP SWAP2 SWAP1 POP JUMP JUMPDEST PUSH0 PUSH1 0x60 DUP3 ADD SWAP1 POP PUSH2 0x232D PUSH0 DUP4 ADD DUP7 PUSH2 0x1F38 JUMP JUMPDEST PUSH2 0x233A PUSH1 0x20 DUP4 ADD DUP6 PUSH2 0x1FC8 JUMP JUMPDEST PUSH2 0x2347 PUSH1 0x40 DUP4 ADD DUP5 PUSH2 0x1F38 JUMP JUMPDEST SWAP5 SWAP4 POP POP POP POP JUMP JUMPDEST PUSH0 PUSH1 0x40 DUP3 ADD SWAP1 POP PUSH2 0x2362 PUSH0 DUP4 ADD DUP6 PUSH2 0x1F38 JUMP JUMPDEST PUSH2 0x236F PUSH1 0x20 DUP4 ADD DUP5 PUSH2 0x1FC8 JUMP JUMPDEST SWAP4 SWAP3 POP POP POP JUMP JUMPDEST PUSH32 0x4E487B7100000000000000000000000000000000000000000000000000000000 PUSH0 MSTORE PUSH1 0x32 PUSH1 0x4 MSTORE PUSH1 0x24 PUSH0 REVERT JUMPDEST PUSH32 0x4E6F206D6F7265206D696E742E00000000000000000000000000000000000000 PUSH0 DUP3 ADD MSTORE POP JUMP JUMPDEST PUSH0 PUSH2 0x23D7 PUSH1 0xD DUP4 PUSH2 0x1E24 JUMP JUMPDEST SWAP2 POP PUSH2 0x23E2 DUP3 PUSH2 0x23A3 JUMP JUMPDEST PUSH1 0x20 DUP3 ADD SWAP1 POP SWAP2 SWAP1 POP JUMP JUMPDEST PUSH0 PUSH1 0x20 DUP3 ADD SWAP1 POP DUP2 DUP2 SUB PUSH0 DUP4 ADD MSTORE PUSH2 0x2404 DUP2 PUSH2 0x23CB JUMP JUMPDEST SWAP1 POP SWAP2 SWAP1 POP JUMP JUMPDEST PUSH32 0x4E6F742077686974656C69737400000000000000000000000000000000000000 PUSH0 DUP3 ADD MSTORE POP JUMP JUMPDEST PUSH0 PUSH2 0x243F PUSH1 0xD DUP4 PUSH2 0x1E24 JUMP JUMPDEST SWAP2 POP PUSH2 0x244A DUP3 PUSH2 0x240B JUMP JUMPDEST PUSH1 0x20 DUP3 ADD SWAP1 POP SWAP2 SWAP1 POP JUMP JUMPDEST PUSH0 PUSH1 0x20 DUP3 ADD SWAP1 POP DUP2 DUP2 SUB PUSH0 DUP4 ADD MSTORE PUSH2 0x246C DUP2 PUSH2 0x2433 JUMP JUMPDEST SWAP1 POP SWAP2 SWAP1 POP JUMP JUMPDEST PUSH32 0x4E487B7100000000000000000000000000000000000000000000000000000000 PUSH0 MSTORE PUSH1 0x11 PUSH1 0x4 MSTORE PUSH1 0x24 PUSH0 REVERT JUMPDEST PUSH0 PUSH2 0x24AA DUP3 PUSH2 0x1EAA JUMP JUMPDEST SWAP2 POP PUSH2 0x24B5 DUP4 PUSH2 0x1EAA JUMP JUMPDEST SWAP3 POP DUP3 DUP3 ADD SWAP1 POP DUP1 DUP3 GT ISZERO PUSH2 0x24CD JUMPI PUSH2 0x24CC PUSH2 0x2473 JUMP JUMPDEST JUMPDEST SWAP3 SWAP2 POP POP JUMP JUMPDEST PUSH0 DUP2 SWAP1 POP SWAP3 SWAP2 POP POP JUMP JUMPDEST PUSH0 DUP2 SWAP1 POP DUP2 PUSH0 MSTORE PUSH1 0x20 PUSH0 KECCAK256 SWAP1 POP SWAP2 SWAP1 POP JUMP JUMPDEST PUSH0 DUP2 SLOAD PUSH2 0x24FB DUP2 PUSH2 0x22EA JUMP JUMPDEST PUSH2 0x2505 DUP2 DUP7 PUSH2 0x24D3 JUMP JUMPDEST SWAP5 POP PUSH1 0x1 DUP3 AND PUSH0 DUP2 EQ PUSH2 0x251F JUMPI PUSH1 0x1 DUP2 EQ PUSH2 0x2534 JUMPI PUSH2 0x2566 JUMP JUMPDEST PUSH1 0xFF NOT DUP4 AND DUP7 MSTORE DUP2 ISZERO ISZERO DUP3 MUL DUP7 ADD SWAP4 POP PUSH2 0x2566 JUMP JUMPDEST PUSH2 0x253D DUP6 PUSH2 0x24DD JUMP JUMPDEST PUSH0 JUMPDEST DUP4 DUP2 LT ISZERO PUSH2 0x255E JUMPI DUP2 SLOAD DUP2 DUP10 ADD MSTORE PUSH1 0x1 DUP3 ADD SWAP2 POP PUSH1 0x20 DUP2 ADD SWAP1 POP PUSH2 0x253F JUMP JUMPDEST DUP4 DUP9 ADD SWAP6 POP POP POP JUMPDEST POP POP POP SWAP3 SWAP2 POP POP JUMP JUMPDEST PUSH0 PUSH2 0x2579 DUP3 PUSH2 0x1E1A JUMP JUMPDEST PUSH2 0x2583 DUP2 DUP6 PUSH2 0x24D3 JUMP JUMPDEST SWAP4 POP PUSH2 0x2593 DUP2 DUP6 PUSH1 0x20 DUP7 ADD PUSH2 0x1E34 JUMP JUMPDEST DUP1 DUP5 ADD SWAP2 POP POP SWAP3 SWAP2 POP POP JUMP JUMPDEST PUSH32 0x2E6A736F6E000000000000000000000000000000000000000000000000000000 PUSH0 DUP3 ADD MSTORE POP JUMP JUMPDEST PUSH0 PUSH2 0x25D3 PUSH1 0x5 DUP4 PUSH2 0x24D3 JUMP JUMPDEST SWAP2 POP PUSH2 0x25DE DUP3 PUSH2 0x259F JUMP JUMPDEST PUSH1 0x5 DUP3 ADD SWAP1 POP SWAP2 SWAP1 POP JUMP JUMPDEST PUSH0 PUSH2 0x25F4 DUP3 DUP6 PUSH2 0x24EF JUMP JUMPDEST SWAP2 POP PUSH2 0x2600 DUP3 DUP5 PUSH2 0x256F JUMP JUMPDEST SWAP2 POP PUSH2 0x260B DUP3 PUSH2 0x25C7 JUMP JUMPDEST SWAP2 POP DUP2 SWAP1 POP SWAP4 SWAP3 POP POP POP JUMP JUMPDEST PUSH0 DUP2 MLOAD SWAP1 POP SWAP2 SWAP1 POP JUMP JUMPDEST PUSH0 DUP3 DUP3 MSTORE PUSH1 0x20 DUP3 ADD SWAP1 POP SWAP3 SWAP2 POP POP JUMP JUMPDEST PUSH0 PUSH2 0x263B DUP3 PUSH2 0x2617 JUMP JUMPDEST PUSH2 0x2645 DUP2 DUP6 PUSH2 0x2621 JUMP JUMPDEST SWAP4 POP PUSH2 0x2655 DUP2 DUP6 PUSH1 0x20 DUP7 ADD PUSH2 0x1E34 JUMP JUMPDEST PUSH2 0x265E DUP2 PUSH2 0x1E42 JUMP JUMPDEST DUP5 ADD SWAP2 POP POP SWAP3 SWAP2 POP POP JUMP JUMPDEST PUSH0 PUSH1 0x80 DUP3 ADD SWAP1 POP PUSH2 0x267C PUSH0 DUP4 ADD DUP8 PUSH2 0x1F38 JUMP JUMPDEST PUSH2 0x2689 PUSH1 0x20 DUP4 ADD DUP7 PUSH2 0x1F38 JUMP JUMPDEST PUSH2 0x2696 PUSH1 0x40 DUP4 ADD DUP6 PUSH2 0x1FC8 JUMP JUMPDEST DUP2 DUP2 SUB PUSH1 0x60 DUP4 ADD MSTORE PUSH2 0x26A8 DUP2 DUP5 PUSH2 0x2631 JUMP JUMPDEST SWAP1 POP SWAP6 SWAP5 POP POP POP POP POP JUMP JUMPDEST PUSH0 DUP2 MLOAD SWAP1 POP PUSH2 0x26C1 DUP2 PUSH2 0x1D92 JUMP JUMPDEST SWAP3 SWAP2 POP POP JUMP JUMPDEST PUSH0 PUSH1 0x20 DUP3 DUP5 SUB SLT ISZERO PUSH2 0x26DC JUMPI PUSH2 0x26DB PUSH2 0x1D5F JUMP JUMPDEST JUMPDEST PUSH0 PUSH2 0x26E9 DUP5 DUP3 DUP6 ADD PUSH2 0x26B3 JUMP JUMPDEST SWAP2 POP POP SWAP3 SWAP2 POP POP JUMP JUMPDEST PUSH32 0x4E487B7100000000000000000000000000000000000000000000000000000000 PUSH0 MSTORE PUSH1 0x12 PUSH1 0x4 MSTORE PUSH1 0x24 PUSH0 REVERT JUMPDEST PUSH0 PUSH2 0x2729 DUP3 PUSH2 0x1EAA JUMP JUMPDEST SWAP2 POP PUSH2 0x2734 DUP4 PUSH2 0x1EAA JUMP JUMPDEST SWAP3 POP DUP3 DUP3 SUB SWAP1 POP DUP2 DUP2 GT ISZERO PUSH2 0x274C JUMPI PUSH2 0x274B PUSH2 0x2473 JUMP JUMPDEST JUMPDEST SWAP3 SWAP2 POP POP JUMP JUMPDEST PUSH32 0x4E487B7100000000000000000000000000000000000000000000000000000000 PUSH0 MSTORE PUSH1 0x31 PUSH1 0x4 MSTORE PUSH1 0x24 PUSH0 REVERT INVALID LOG2 PUSH5 0x6970667358 0x22 SLT KECCAK256 0xEB 0xCE 0x2A 0xD9 0xB4 SDIV 0xBB ADDRESS 0xBA 0xAF SWAP13 SWAP14 SWAP14 MSTORE8 0xD1 INVALID RETURNDATACOPY LOG2 SLOAD SWAP16 0xD8 LOG2 DUP13 CALLER 0xE1 0xD4 0x2E TSTORE ADD 0xAE PC 0xA6 PUSH5 0x736F6C6343 STOP ADDMOD BYTE STOP CALLER "
				},
				"gasEstimates": {
					"creation": {
						"codeDepositCost": "2033000",
						"executionCost": "infinite",
						"totalCost": "infinite"
					},
					"external": {
						"approve(address,uint256)": "infinite",
						"balanceOf(address)": "infinite",
						"getApproved(uint256)": "infinite",
						"isApprovedForAll(address,address)": "infinite",
						"isWhitelist(address)": "2936",
						"mintNft()": "infinite",
						"name()": "infinite",
						"ownerOf(uint256)": "infinite",
						"safeTransferFrom(address,address,uint256)": "infinite",
						"safeTransferFrom(address,address,uint256,bytes)": "infinite",
						"setApprovalForAll(address,bool)": "infinite",
						"setWhitelist(address)": "24870",
						"supportsInterface(bytes4)": "875",
						"symbol()": "infinite",
						"tokenByIndex(uint256)": "infinite",
						"tokenOfOwnerByIndex(address,uint256)": "infinite",
						"tokenURI(uint256)": "infinite",
						"totalSupply()": "2463",
						"transferFrom(address,address,uint256)": "infinite"
					}
				},
				"methodIdentifiers": {
					"approve(address,uint256)": "095ea7b3",
					"balanceOf(address)": "70a08231",
					"getApproved(uint256)": "081812fc",
					"isApprovedForAll(address,address)": "e985e9c5",
					"isWhitelist(address)": "c683630d",
					"mintNft()": "c2229fea",
					"name()": "06fdde03",
					"ownerOf(uint256)": "6352211e",
					"safeTransferFrom(address,address,uint256)": "42842e0e",
					"safeTransferFrom(address,address,uint256,bytes)": "b88d4fde",
					"setApprovalForAll(address,bool)": "a22cb465",
					"setWhitelist(address)": "854cff2f",
					"supportsInterface(bytes4)": "01ffc9a7",
					"symbol()": "95d89b41",
					"tokenByIndex(uint256)": "4f6ccce7",
					"tokenOfOwnerByIndex(address,uint256)": "2f745c59",
					"tokenURI(uint256)": "c87b56dd",
					"totalSupply()": "18160ddd",
					"transferFrom(address,address,uint256)": "23b872dd"
				}
			},
			"storageLayout": {
				"storage": [
					{
						"astId": 169,
						"contract": "MintNft.sol:MintNft",
						"label": "_name",
						"offset": 0,
						"slot": "0",
						"type": "t_string_storage"
					},
					{
						"astId": 171,
						"contract": "MintNft.sol:MintNft",
						"label": "_symbol",
						"offset": 0,
						"slot": "1",
						"type": "t_string_storage"
					},
					{
						"astId": 175,
						"contract": "MintNft.sol:MintNft",
						"label": "_owners",
						"offset": 0,
						"slot": "2",
						"type": "t_mapping(t_uint256,t_address)"
					},
					{
						"astId": 179,
						"contract": "MintNft.sol:MintNft",
						"label": "_balances",
						"offset": 0,
						"slot": "3",
						"type": "t_mapping(t_address,t_uint256)"
					},
					{
						"astId": 183,
						"contract": "MintNft.sol:MintNft",
						"label": "_tokenApprovals",
						"offset": 0,
						"slot": "4",
						"type": "t_mapping(t_uint256,t_address)"
					},
					{
						"astId": 189,
						"contract": "MintNft.sol:MintNft",
						"label": "_operatorApprovals",
						"offset": 0,
						"slot": "5",
						"type": "t_mapping(t_address,t_mapping(t_address,t_bool))"
					},
					{
						"astId": 1299,
						"contract": "MintNft.sol:MintNft",
						"label": "_ownedTokens",
						"offset": 0,
						"slot": "6",
						"type": "t_mapping(t_address,t_mapping(t_uint256,t_uint256))"
					},
					{
						"astId": 1303,
						"contract": "MintNft.sol:MintNft",
						"label": "_ownedTokensIndex",
						"offset": 0,
						"slot": "7",
						"type": "t_mapping(t_uint256,t_uint256)"
					},
					{
						"astId": 1306,
						"contract": "MintNft.sol:MintNft",
						"label": "_allTokens",
						"offset": 0,
						"slot": "8",
						"type": "t_array(t_uint256)dyn_storage"
					},
					{
						"astId": 1310,
						"contract": "MintNft.sol:MintNft",
						"label": "_allTokensIndex",
						"offset": 0,
						"slot": "9",
						"type": "t_mapping(t_uint256,t_uint256)"
					},
					{
						"astId": 3212,
						"contract": "MintNft.sol:MintNft",
						"label": "metadataUri",
						"offset": 0,
						"slot": "10",
						"type": "t_string_storage"
					},
					{
						"astId": 3216,
						"contract": "MintNft.sol:MintNft",
						"label": "whitelist",
						"offset": 0,
						"slot": "11",
						"type": "t_mapping(t_address,t_bool)"
					}
				],
				"types": {
					"t_address": {
						"encoding": "inplace",
						"label": "address",
						"numberOfBytes": "20"
					},
					"t_array(t_uint256)dyn_storage": {
						"base": "t_uint256",
						"encoding": "dynamic_array",
						"label": "uint256[]",
						"numberOfBytes": "32"
					},
					"t_bool": {
						"encoding": "inplace",
						"label": "bool",
						"numberOfBytes": "1"
					},
					"t_mapping(t_address,t_bool)": {
						"encoding": "mapping",
						"key": "t_address",
						"label": "mapping(address => bool)",
						"numberOfBytes": "32",
						"value": "t_bool"
					},
					"t_mapping(t_address,t_mapping(t_address,t_bool))": {
						"encoding": "mapping",
						"key": "t_address",
						"label": "mapping(address => mapping(address => bool))",
						"numberOfBytes": "32",
						"value": "t_mapping(t_address,t_bool)"
					},
					"t_mapping(t_address,t_mapping(t_uint256,t_uint256))": {
						"encoding": "mapping",
						"key": "t_address",
						"label": "mapping(address => mapping(uint256 => uint256))",
						"numberOfBytes": "32",
						"value": "t_mapping(t_uint256,t_uint256)"
					},
					"t_mapping(t_address,t_uint256)": {
						"encoding": "mapping",
						"key": "t_address",
						"label": "mapping(address => uint256)",
						"numberOfBytes": "32",
						"value": "t_uint256"
					},
					"t_mapping(t_uint256,t_address)": {
						"encoding": "mapping",
						"key": "t_uint256",
						"label": "mapping(uint256 => address)",
						"numberOfBytes": "32",
						"value": "t_address"
					},
					"t_mapping(t_uint256,t_uint256)": {
						"encoding": "mapping",
						"key": "t_uint256",
						"label": "mapping(uint256 => uint256)",
						"numberOfBytes": "32",
						"value": "t_uint256"
					},
					"t_string_storage": {
						"encoding": "bytes",
						"label": "string",
						"numberOfBytes": "32"
					},
					"t_uint256": {
						"encoding": "inplace",
						"label": "uint256",
						"numberOfBytes": "32"
					}
				}
			},
			"userdoc": {
				"kind": "user",
				"methods": {},
				"version": 1
			}
		}
	}
}